:020000040800F2
:1000000000000524B92501088D69000893690008DE
:10001000996900089F690008A569000800000000B0
:10002000000000000000000000000000F1200108B6
:10003000AB6900080000000041230108C91B01084A
:1000400009260108092601080926010809260108D0
:1000500009260108092601080926010809260108C0
:10006000092601080926010809260108B9690008BE
:10007000C7690008092601080926010809260108A0
:100080000926010809260108092601081533000878
:100090005D30000809260108092601080926010823
:1000A0000926010809260108092601080926010870
:1000B000D569000809260108092601080926010852
:1000C0000926010809260108092601080926010850
:1000D0000926010809260108092601080926010840
:1000E0000926010809260108000000000926010868
:1000F0000926010809260108092601080926010820
:10010000092601080926010809260108092601080F
:1001100009260108092601080926010809260108FF
:1001200009260108092601080926010809260108EF
:1001300009260108092601080926010809260108DF
:1001400000000000000000000000000000000000AF
:1001500009260108092601080926010809260108BF
:1001600009260108092601080926010809260108AF
:10017000092601080926010809260108092601089F
:10018000092601080926010809260108092601088F
:10019000092601080926010809260108092601087F
:1001A00009260108092601080926010800000000A7
:1001B000092601080926010809260108092601085F
:1001C00009260108092601080000000000000000BF
:1001D00000000000000000000926010800000000E7
:1001E000000000000000000000000000000000000F
:1001F000000000000000000009260108092601088F
:100200000926010809260108000000000926010846
:1002100009260108E9690008F769000809260108AC
:10022000092601080000000009260108000000005E
:100230000926010809260108000000000926010816
:1002400009260108092601080926010809260108CE
:1002500009260108092601080926010809260108BE
:1002600009260108092601080926010809260108AE
:1002700009260108092601080926010800000000D6
:10028000092601080926010809260108092601088E
:1002900000000000092601080926010809260108B6
:1002A000092601080926010809260108092601086E
:1002B000092601080926010809260108092601085E
:0C02C00009260108056A0008196A0008F8
:1002D0000348044B834202D0034B03B118477047D5
:1002E000DC050024DC050024000000000548064B66
:1002F0001B1AD90F01EBA301491002D0034B03B124
:1003000018477047DC050024DC05002400000000CD
:1003100010B5064C237843B9FFF7DAFF044B13B14D
:100320000448AFF300800123237010BDA006002411
:10033000000000008C38010808B5054B1BB10549C9
:100340000548AFF30080BDE80840FFF7CFBF00BF0E
:1003500000000000A40600248C38010880B400AF1F
:10036000044BDB681B0A03F007031846BD465DF823
:10037000047B704700ED00E080B483B000AF03461B
:10038000FB80B7F90630002B0BDBFB8803F01F0264
:100390000749B7F906305B09012000FA02F241F87B
:1003A000232000BF0C37BD465DF8047B704700BFBB
:1003B00000E100E080B483B000AF03463960FB8009
:1003C000B7F90630002B0ADB3B68DAB20C49B7F903
:1003D00006301201D2B20B4483F800230AE03B68D6
:1003E000DAB20849FB8803F00F03043B1201D2B2D2
:1003F0000B441A7600BF0C37BD465DF8047B70478E
:1004000000E100E000ED00E080B489B000AFF860EA
:10041000B9607A60FB6803F00703FB61FB69C3F115
:100420000703042B28BF0423BB61FB690433062B9D
:1004300002D9FB69033B00E000237B614FF0FF32F0
:10044000BB6902FA03F3DA43BB681A407B699A403E
:100450004FF0FF317B6901FA03F3D9437B680B400E
:10046000134318462437BD465DF8047B70470000EF
:1004700080B584B000AF0346FB710023FB60FB79BD
:10048000002B02D0012B24D047E0314BFB60FB68EE
:100490001B79002B44D1FB682E4A1A60FFF75EFFE0
:1004A0000346002200211846FFF7AEFF0346194617
:1004B0001320FFF77FFF1320FFF75EFF01220121CA
:1004C00024480BF0F1FC0022012122480BF022FD10
:1004D00026E0214BFB60FB681B79002B22D1FB68D7
:1004E0001E4A1A60FFF73AFF034600220021184611
:1004F000FFF78AFF034619461420FFF75BFF14201D
:10050000FFF73AFF0122012114480BF0CDFC002235
:10051000012112480BF0FEFC04E00023FB6002E026
:1005200000BF00E000BFFB68002B0CD0FB681B790C
:10053000002B08D1FB6801221A71FB6800225A7156
:10054000FB6800229A71FB6818461037BD4680BDD3
:10055000BC060024200C0024C4060024C00C002487
:1005600080B590B000AFF860B9607A60FB7000238E
:10057000FB63FB68002B00F0FE80FB681B79012BFE
:1005800040F0F980FB681B68BB63FB78002B04D14B
:100590007B687B610023BB6104E07B687B614FF07B
:1005A0008043BB6197F84830002B01D1002301E064
:1005B0004FF00053FB6197F85830002B01D1002316
:1005C00001E04FF48013BB6297F85430002B01D147
:1005D000002301E04FF40013FB62FB6C3B62FB6CF9
:1005E000082B40F28F80FB6C0C3B342B00F28E808A
:1005F00001A252F823F000BFCD0600080D07000845
:100600000D0700080D070008D50600080D070008B3
:100610000D0700080D070008DD0600080D0700089B
:100620000D0700080D070008E50600080D07000883
:100630000D0700080D0700080D0700080D0700084A
:100640000D0700080D070008ED0600080D0700085B
:100650000D0700080D0700080D0700080D0700082A
:100660000D0700080D0700080D0700080D0700081A
:100670000D0700080D0700080D0700080D0700080A
:100680000D0700080D070008F50600080D07000813
:100690000D0700080D0700080D0700080D070008EA
:1006A0000D0700080D0700080D0700080D070008DA
:1006B0000D0700080D0700080D0700080D070008CA
:1006C0000D0700080D070008FD0600084FF4102371
:1006D0003B621CE04FF420233B6218E04FF43023D0
:1006E0003B6214E04FF440233B6210E04FF4502390
:1006F0003B620CE04FF460233B6208E04FF4702350
:100700003B6204E0FB6C1B043B6200E000BF4FF463
:1007100000033B634FF000437B620AF0F5F9F86396
:1007200000BFBB6B1B68D3F8C43003F40013002B6D
:1007300007D00121F86B02F07DFF02463B6D93422A
:10074000EFD207F11403BA681946B86B0BF06DF9D4
:100750000346002B07D0B86B0BF094FB0246FB6DF1
:100760001A60012308E0B86B0BF08CFB0246FB6DAE
:100770001A60002300E0002318464037BD4680BDC4
:1007800080B592B000AFF8607A603B600B46FB72B8
:1007900000237B61FB68002B00F0B680FB681B79AF
:1007A000012B40F0B180FB681B687B640AF0ACF958
:1007B00003467B61FB7A402B25D0FB7A412B22D06C
:1007C0000AE07B690121184602F034FF0246BB6E45
:1007D000934201D2012398E0FB7A1946786C0BF022
:1007E000EDFA0346002BECD00DE07B6901211846A1
:1007F00002F020FF0246BB6E934204D2FB6E002241
:100800001A60012381E0F97A07F118027B68786C9D
:100810000BF066F90346002BE7D1BA693B681A6012
:10082000FB69002B14BF01230023DBB21A463B6D8A
:100830001A70FB6A002B14BF01230023DBB21A4697
:100840003B6E1A703B6B002B14BF01230023DBB2FD
:100850001A467B6E1A703B6ADAB27B6D1A707B6A3D
:100860001B0C87F8433097F84330082B32D997F8A0
:100870004330093B062B32D801A252F823F000BFC7
:100880009D080008A5080008AD080008B508000884
:10089000BD080008C5080008CD080008BB6D0C2283
:1008A0001A701DE0BB6D10221A7019E0BB6D142286
:1008B0001A7015E0BB6D18221A7011E0BB6D202272
:1008C0001A700DE0BB6D30221A7009E0BB6D40223A
:1008D0001A7005E0BB6D97F843201A7000E000BF66
:1008E0007B6ADAB2FB6D1A70FB7A402B02D0FB7A7E
:1008F000412B07D1FB7A1946786C0BF0A5FA02461A
:10090000FB6E1A60002300E0002318464837BD46FE
:1009100080BD00BF80B584B000AF78607B68002BDD
:1009200009D07B681B79012B05D17B681B68FB60B4
:10093000F8680AF087FF00BF1037BD4680BD000091
:1009400080B483B000AF0346FB71FB79012B02D06A
:10095000022B02D003E0054B02E0054B00E0002330
:1009600018460C37BD465DF8047B7047200C002408
:10097000C00C002480B588B002AFB9607A603B60DB
:100980000346FB73FB7B1846FFF7DAFF78617B6950
:10099000002B07D03B6A00933B687A68B968786996
:1009A0000AF074FF00BF1837BD4680BD80B483B025
:1009B00000AF03463960FB80B7F90630002B0ADB35
:1009C0003B68DAB20C49B7F906301201D2B20B44D7
:1009D00083F800230AE03B68DAB20849FB8803F099
:1009E0000F03043B1201D2B20B441A7600BF0C373E
:1009F000BD465DF8047B704700E100E000ED00E0DB
:100A000080B584B000AFF860B9607A60FB689BB2D3
:100A10000F3B9BB21BB279681846FFF7C7FF00BFB8
:100A20001037BD4680BD000080B584B000AF78604F
:100A30007B681B68FB60FB680133BB600DE0FB68F3
:100A40009B000D4A1344184603F040F80B4B1B68FB
:100A5000002B08D1B86802F003F9094B1B78DBB210
:100A6000002BECD100E000BF002002F0B6FF002315
:100A700018461037BD4680BDD8060024080700245C
:100A80000000002480B584B000AF7860224B1B6862
:100A90001B68002B0CBF01230023DBB21A461F4B3F
:100AA0001A7029E01E4803F011F80123FB6012E0E0
:100AB000194B1A68FB68134408331B78002B07D1C5
:100AC000FB68013B9B00174A1344184603F01CF8CF
:100AD000FB680133FB60FB68022BE9DD002002F0BC
:100AE000BFF80D4B1B681B68002B14BF01230023AC
:100AF000DBB21A460C4B1A70084B1B78DBB2002B8A
:100B0000D0D1786800F012F8002002F066FF0023D0
:100B100018461037BD4680BD20390108000000246A
:100B2000D4060024D8060024CC06002490B58BB04F
:100B300004AF7860354B01221A6000237B612CE002
:100B40007B699B00324A1344184602F0DDFF0346DE
:100B5000002B0AD04FF0500383F31188BFF36F8F3F
:100B6000BFF34F8F3B6100BFFEE77B699B00284AC4
:100B70001344184602F0E6FF0346002B0AD04FF05C
:100B8000500383F31188BFF36F8FBFF34F8FFB6068
:100B900000BFFEE77B6901337B617B69012BCFDD01
:100BA00000237B6122E01B497A691346DB009B1A14
:100BB0009B000B44184A03926C4603F1100207CACB
:100BC00084E807000FCB02F013FF0346002B0AD086
:100BD0004FF0500383F31188BFF36F8FBFF34F8F34
:100BE000BB6000BFFEE77B6901337B617B69012B42
:100BF000D9DD0A4B00221A7002F09EF9084802F073
:100C000083FF002318461C37BD4690BD080700240B
:100C1000D80600240C070024040700240000002448
:100C2000D006002480B584B002AF78603960324BC2
:100C300027221A60304B26225A6009F015FF04F073
:100C4000ABF904F01FFA05F0C3FC04F05FFA04F0FE
:100C500001FB04F075FB04F019FC04F05DFC04F0EA
:100C6000A3FC04F005FD04F067FD04F0C7FD04F0EB
:100C700077FE04F0DBFE04F05DFF05F019F805F0E7
:100C8000B7F805F05BF905F03BFB05F0D5FB05F087
:100C900078FC05F06FFC05F0BDF905F01DFA05F0D4
:100CA00053FA05F089FA05F0D9FA05F0EBF90123BA
:100CB00000930123022200210120FFF75BFE0123A4
:100CC00000930123022200210220FFF753FE0B4B69
:100CD0001B6800221A6002F0A9F901F0E1FF02206E
:100CE0009FED070A02F00AFD064802F0EFFE00231E
:100CF00018460837BD4680BD440700242039010846
:100D00006F12033BD006002480B483B000AF0346CB
:100D1000FB80B7F90630002B0BDBFB8803F01F02CA
:100D20000749B7F906305B09012000FA02F241F8E1
:100D3000232000BF0C37BD465DF8047B704700BF21
:100D400000E100E080B582B000AF78607B68002BE6
:100D500008D07B681B79012B04D17B681B6818467F
:100D60000AF0C1FD00BF0837BD4680BD80B400AFAA
:100D7000174B5B7A002B0CBF01230023DAB2144B14
:100D8000DA72134B9B7A002B0CBF01230023DAB2DB
:100D90000F4B1A730E4B5A7A0132D2B25A720C4B65
:100DA0005B7A092B02D90A4B00225A72084B9A7AB5
:100DB0000132D2B29A72064B9B7A632B02D9044B52
:100DC00000229A7200BFBD465DF8047B704700BFE9
:100DD000300B002480B483B000AF78607B680022C1
:100DE0001A727B6801225A607B6801221A637B6851
:100DF00001225A637B6800229A637B6800229A630F
:100E00007B6803F138027B68DA627B6801221A7220
:100E10007B6800225A7200BF0C37BD465DF8047B28
:100E20007047000080B582B000AF78607B68002218
:100E30005A607B684FF0FF321A637B684FF0FF32D5
:100E40005A637B6800221A707B68012283F8A02015
:100E50007B681846FFF7BEFF7B68DB6A1B68012BC7
:100E60001ED17B68D96A4FF000024FF00003C1E940
:100E700002237B68DB6A103348220021184612F0F7
:100E800015FC7B68D96A4FF00002074BC1E91623B5
:100E90007B68D96A4FF000024FF00003C1E91823C4
:100EA00000BF0837BD4680BD0000F03F80B5A0B050
:100EB00000AF87ED020B786039603B685B7A002BEE
:100EC00002D03B6800225A723B68DB6A1B68012B28
:100ED00049D03B68DB6A00221A713B68DB6A012259
:100EE0001A603B68D96A4FF000024FF00003C1E975
:100EF00002233B68DB6A103348220021184612F0B7
:100F0000D5FB3B68D96A4FF000028C4BC1E9162330
:100F10003B68D96A4FF000024FF00003C1E9182383
:100F20003B68DB6A01221A713B68D96A4FF0000204
:100F30004FF00003C1E902233B68DB6A103348220B
:100F40000021184612F0B2FB3B68D96A4FF000024C
:100F50007A4BC1E916233B68D96A4FF000024FF083
:100F60000003C1E918233B68DB6AD3E91623C7E90C
:100F70001C233B68DB6AD3E90223C7E91E23002355
:100F80007B6611E03B68DA6A7B6E0233DB00134458
:100F9000D3E90023796EC900803139447039C1E941
:100FA00000237B6E01337B667B6E082BEADD3B689A
:100FB000DB6AD3E91823C7E916234FF000024FF08C
:100FC0000003C7E91A2379684FF000024FF00003CD
:100FD000C1E9002397ED1E6B97ED027B36EE077B90
:100FE00087ED1E7B97ED167BB5EE407BF1EE10FA98
:100FF00012D197ED1C7BFDEEC77B17EE903A013BBB
:10100000DB0080333B44703B93ED007B97ED1E6B20
:1010100036EE077B87ED1A7B97ED1C7BFDEEC77BD9
:1010200017EE903A013BDB0080333B44A3F17001A3
:10103000D7E90223C1E9002397ED1C7BB2EE026BD6
:10104000B4EE467BF1EE10FA08D097ED1C7BB7EEBC
:10105000006B37EE067B87ED1C7B2BE04FF0000228
:10106000364BC7E91C234FF000024FF00003C7E9DD
:101070001E2307237B661AE07B6EDB0080333B4434
:10108000703B93ED006B7B6E0133DB0080333B44A0
:10109000703B93ED007B36EE077B7B6EDB0080338D
:1010A0003B44703B83ED007B7B6E013B7B667B6E3C
:1010B000002BE1DA97ED167BB5EE407BF1EE10FAEE
:1010C00008D197ED1A6BB2EE045B86EE057B7B6868
:1010D00083ED007B3B68D96AD7E91E23C1E902236F
:1010E0003B68DB6A103307F110014822184612F002
:1010F00067FB3B68D96AD7E91C23C1E9162397ED42
:10110000167BB5EEC07BF1EE10FA0ADD3B68DB6AB8
:1011100097ED167BB7EE006B37EE467B83ED187BC1
:1011200007E03B68D96A4FF000024FF00003C1E9C5
:10113000182300BF8037BD4680BD00BF0000F03FD0
:1011400080B483B000AF78607B681B78002B1BD124
:101150007B6801221A707B685B68012B14D17B6865
:101160001B7A002B10D07B68DB6A1B68012B03D134
:101170007B68DB6A02221A607B684FF0FF321A63D9
:101180007B684FF0FF325A6300BF0C37BD465DF8F5
:10119000047B704780B582B000AF78607B68002226
:1011A0001A707B6801221A747B6801225A60012040
:1011B000FFF75EF902467B68DA607B68DB681846F9
:1011C000FFF7C0FD7B6801221A7200BF0837BD46D9
:1011D00080BD80B58AB006AF786039603B68D8685A
:1011E00007F10C03059300230493002303934FF4AA
:1011F0007A7302930323019300230093002340F2A8
:1012000011227968FFF7ACF900BF1037BD4680BDE9
:1012100080B582B000AF78607B681B78002B0FD15F
:101220007B6801221A707B685B68012B08D17B68A0
:101230001B7A002B04D07B68DB681846FFF76AFB3B
:1012400000BF0837BD4680BD80B582B000AF786072
:101250007B6800221A707B6801221A747B68012265
:101260005A600120FFF704F902467B68DA607B6868
:10127000DB681846FFF766FD7B6801221A7200BF23
:101280000837BD4680BD80B58AB006AF786039604A
:101290003B68D86807F10C030593002304930023EF
:1012A00003934FF47A730293032301930023009373
:1012B00000234FF404727968FFF752F900BF10372A
:1012C000BD4680BD80B582B000AF78607B681B787A
:1012D000002B0FD17B6801221A707B685B68012BA1
:1012E00008D17B681B7A002B04D07B68DB6818462A
:1012F000FFF710FB00BF0837BD4680BD00000000AF
:1013000080B598B000AFFFF731FD8F4B93F85D3596
:10131000012B07D18C4B03F58463D3E90023C7E984
:10132000102306E0884B03F5866353E90223C7E9DF
:101330001023854B03F5946313ED027B97ED106B3F
:10134000B4EEC76BF1EE10FA07DD7F4B03F58E6349
:10135000D3E90023C7E9162305E04FF000024FF060
:101360000003C7E91623794BB3F8DC307B83764B57
:1013700093F85E35012B07D1734B03F58663D3E9F0
:101380000023C7E9142306E06F4B03F5886353E994
:101390000223C7E914236C4B03F5946393ED007BA0
:1013A00097ED146BB4EEC76BF1EE10FA0EDD7B8B8C
:1013B00007EE903AB8EE676B634B03F58A6393EDE3
:1013C000007B26EE077B87ED0A7B06E05E4B03F58C
:1013D0008C6353E90223C7E90A235C4BB3F8DE3080
:1013E0007B83594B03F5966313ED027B97ED146BEA
:1013F000B4EEC76BF1EE10FA0EDD7B8B07EE903A80
:10140000B8EE676B504B03F58C6393ED007B26EED3
:10141000077B87ED147B06E04B4B03F58E6353E9A6
:101420000223C7E91423494BD3E91A23C7E9082348
:10143000464B93F8F030002B02D00023FB6106E00E
:10144000434B5A68414BD3F8B030D31AFB61404B41
:101450005B683E4AC2F8B0303C4B002283F8F02073
:10146000394B93ED867BB5EEC07BF1EE10FA14D9C3
:10147000354B93ED887BB5EEC07BF1EE10FAACBF37
:1014800001230023DBB283F00103DBB2002B06D083
:101490002E4B93F8F130002B01D0012300E0002304
:1014A000DAB22A4B83F8F120284B93F8F130002B65
:1014B00005D0254BD3E98A23C7E9102304E0224B4A
:1014C000D3E98C23C7E910231F4B93ED8E7B97ED57
:1014D000106BB4EEC76BF1EE10FA40F3DF801A4BDD
:1014E00093F85535012B35D1174B93ED246B184BE1
:1014F0005B6807EE903AB8EE677B9FED115B27EED5
:10150000057B26EE076B104B93ED267B36EE077BB3
:10151000B0EE470B11F0A4F8B0EE406B0A4B93ED20
:10152000207B26EE076B084B93ED227B36EE076B94
:10153000054B93ED1E7B26EE077B87ED0C7B0EE0C3
:10154000FCA9F1D24D62603F0800002498080024F5
:10155000300B0024964BD3E92823C7E90C23944B86
:1015600093ED187B97ED0C6BB4EEC76BF1EE10FAB0
:1015700069DD8F4B93ED426B8D4B93ED447BB4EE65
:10158000C76BF1EE10FA5EDD894B93ED426B884B31
:1015900093ED407BB4EEC76BF1EE10FA53D5844B5C
:1015A00093ED3C6B824B93ED3E7BB4EEC76BF1EE5B
:1015B00010FA48DD7E4B93ED3C6B7D4B93ED3A7B0F
:1015C000B4EEC76BF1EE10FA3DD5794B93ED2E6B6F
:1015D000774B93ED307B36EE475B754B93ED2C6B81
:1015E000734B93ED2A7B36EE477B85EE076B97EDC9
:1015F000087B26EE076B6E4B93ED307B36EE077B58
:1016000087ED0C7B6A4B93ED327B97ED0C6BB4EE60
:10161000C76BF1EE10FA05DD654BD3E93223C7E95C
:101620000C2315E0624B93ED347B97ED0C6BB4EE1D
:10163000C76BF1EE10FA00D40AE05D4BD3E9342316
:10164000C7E90C2304E05A4BD3E93623C7E90C233E
:10165000574B93ED387B97ED0C6B26EE077B87EDB0
:101660000C7B534B93ED4A6B514B93ED487B86EECD
:10167000075B4F4B93ED466B85EE067B87ED127B48
:1016800097ED0C6B97ED127BB4EEC76BF1EE10FA91
:1016900009DDD7E91223C7E90C2304E0444BD3E961
:1016A0004C23C7E90C23434943489FED3F0BFFF709
:1016B000FDFB3F4B93ED927B97ED086BB4EEC76B50
:1016C000F1EE10FA04DDD7E90823C7E9102304E09E
:1016D000374BD3E94E23C7E91023354B93ED906B7D
:1016E00097ED107B26EE076B344B93ED247B36EEA3
:1016F000477B87ED107B2E4B93ED967B97ED106B20
:10170000B4EEC76BF1EE10FA05DD294BD3E9962351
:10171000C7E910230EE0264B93ED987B97ED106BF5
:10172000B4EEC76BF1EE10FA04D5214BD3E9982340
:10173000C7E91023224B93ED507B97ED106B26EEFB
:10174000077B87ED047B1D4B93F8F230002B09D00B
:101750001A4B002283F8F220154BD3E9A223C7E9E4
:10176000122304E0164BD3E95023C7E91223104B90
:1017700093ED9C6B97ED165B85EE067B97ED046B06
:1017800036EE477B87ED107B094B93ED9E7B97ED03
:10179000106BB4EEC76BF1EE10FA13DD044BD3E916
:1017A0009E23C7E910231CE0000000000000000099
:1017B00008000024880A00249008002498080024C7
:1017C00050070024AE4B93EDA07B97ED106BB4EE69
:1017D000C76BF1EE10FA04D5A94BD3E9A023C7E9F2
:1017E000102397ED105B97ED126B85EE067B87ED6E
:1017F000027BA44B93F8EE30002B16D1A14B93ED56
:10180000126B9F4B93EDA45BFB6907EE903AB8EE29
:10181000677B25EE075B9B4B93ED267B25EE077BD5
:1018200036EE077B974B83ED127B954B93ED047B54
:1018300097ED026B26EE077B87ED127B904B93EDC5
:10184000006B97ED027B26EE076B8E4B93ED127BC0
:1018500036EE476B8A4B93ED107B26EE077B894B68
:1018600083ED267B864B93ED147B97ED026B26EE82
:10187000077B87ED007B97ED0C7B9FED7D6B27EE63
:10188000066B7F4B93EDA85B97ED047B25EE077B02
:1018900036EE077B87ED0C7B794B93EDB67BB5EE8F
:1018A000C07BF1EE10FA14D9754B93EDB87BB5EE11
:1018B000C07BF1EE10FAACBF01230023DBB283F052
:1018C0000103DBB2002B06D06E4B93F8F330002BF4
:1018D00001D0012300E00023DAB26A4B83F8F32041
:1018E000684B93F8F330002B05D0654BD3E9BA234E
:1018F000C7E9102304E0624BD3E9BC23C7E91023F6
:101900005F4B93EDBE7B97ED106BB4EEC76BF1EEC2
:1019100010FA40F3E6805A4B93F85635012B2BD141
:10192000574B93ED566B584B5B6807EE903AB8EE09
:10193000677B9FED515B27EE057B26EE076B504BD7
:1019400093ED587B36EE077BB0EE470B10F088FE28
:10195000B0EE406B4A4B93ED527B26EE076B484B43
:1019600093ED547B36EE076B454B93ED507B26EEA3
:10197000077B87ED0E7B04E0414BD3E95A23C7E98F
:101980000E233F4B93ED1A7B97ED0E6BB4EEC76BB6
:10199000F1EE10FA7ADD3A4B93ED746B384B93ED20
:1019A000767BB4EEC76BF1EE10FA6FDD344B93ED3E
:1019B000746B334B93ED727BB4EEC76BF1EE10FAA0
:1019C00064D52F4B93ED6E6B2D4B93ED707BB4EE86
:1019D000C76BF1EE10FA59DD294B93ED6E6B284B76
:1019E00093ED6C7BB4EEC76BF1EE10FA4ED5244B41
:1019F00093ED606B224B93ED627B36EE475B204BA1
:101A000093ED5E6B1E4B93ED5C7B36EE477B85EE74
:101A1000076B97ED087B26EE076B194B93ED627B06
:101A200036EE077B87ED0E7B154B93ED647B97EDD0
:101A30000E6BB4EEC76BF1EE10FA05DD104BD3E977
:101A40006423C7E90E2326E00D4B93ED667B97EDEB
:101A50000E6BB4EEC76BF1EE10FA00D41BE0084B2E
:101A6000D3E96623C7E90E2315E000BFAFF300807A
:101A70000000000000000000FCA9F1D24D62603FB0
:101A80000800002498080024300B00245C4BD3E9A4
:101A90006823C7E90E235A4B93ED6A7B97ED0E6BD3
:101AA00026EE077B87ED0E7B554B93ED7C6B544BFD
:101AB00093ED7A7B86EE075B514B93ED786B85EE69
:101AC000067B87ED107B97ED0E6B97ED107BB4EEE8
:101AD000C76BF1EE10FA09DDD7E91023C7E90E2331
:101AE00004E0474BD3E97E23C7E90E234549464826
:101AF0009FED410BFFF7DAF9414B93EDAC7B97ED8E
:101B0000086BB4EEC76BF1EE10FACCBF01230023D3
:101B1000DBB283F00103DBB2002B04D0384BD3E9F6
:101B20008023C7E90823364B93EDAA6B97ED087B1A
:101B300026EE076B354B93ED287B36EE477B87ED22
:101B4000107B2F4B93EDB07B97ED106BB4EEC76B12
:101B5000F1EE10FA05DD2A4BD3E9B023C7E91023D3
:101B60000EE0274B93EDB27B97ED106BB4EEC76B95
:101B7000F1EE10FA04D5224BD3E9B223C7E91023C2
:101B8000234B93ED4E7B97ED106B26EE077B87ED95
:101B9000027B1E4B93F8F430002B09D01B4B002224
:101BA00083F8F420164BD3E9C623C7E9082304E0E1
:101BB000174BD3E94E23C7E90823114B93EDC06BB4
:101BC00097ED165B85EE067B97ED026B36EE477B55
:101BD00087ED107B0A4B93EDC27B97ED106BB4EE53
:101BE000C76BF1EE10FA15DD054BD3E9C223C7E947
:101BF00010231EE0AFF30080000000000000000092
:101C000008000024E0090024880800249808002423
:101C100050070024684B93EDC47B97ED106BB4EE36
:101C2000C76BF1EE10FA04D5634BD3E9C423C7E9BF
:101C3000102397ED105B97ED086B85EE067B87ED23
:101C4000047B5E4B93F8EF30002B16D15B4B93ED8A
:101C5000166B594B93EDC85BFB6907EE903AB8EEF3
:101C6000677B25EE075B554B93ED2A7B25EE077BC3
:101C700036EE077B514B83ED167B4F4B93ED026B9A
:101C800097ED047B26EE076B4C4B93ED167B36EEFF
:101C9000476B494B93ED127B26EE077B474B83ED59
:101CA0002A7B464B93ED146B97ED007B36EE076B6A
:101CB000424B93ED267B36EE077B404B83ED247B36
:101CC0003E4B002283F8EE203C4B93ED146B3A4BD5
:101CD00093EDA65B97ED127B25EE077B36EE077B37
:101CE000364B83ED147B344B93ED166B97ED047BF1
:101CF00026EE076B314B93ED187B36EE076B2F4BBF
:101D000093ED2A7B36EE077B2C4B83ED287B2B4B08
:101D1000002283F8EF20294B93ED186B264B93EDAF
:101D2000065B97ED047B25EE075B234B93EDCA7BA7
:101D300025EE077B36EE077B204B83ED187B204B8F
:101D4000DB7A002B1ED097ED0E7B9FED196B27EEF3
:101D5000066B194B93EDCC5B97ED027B25EE077B71
:101D600036EE075B97ED146B85EE067B134B83ED28
:101D70001C7B97ED0C5B97ED0A6B85EE067B0F4B9A
:101D800083ED1E7B0E4B1B7B002B09D00B49D7E943
:101D90000A23C1E920230949D7E91423C1E92223F1
:101DA000074B5A6801325A6000BF6037BD4680BD9C
:101DB0000000000000000000080000249808002433
:101DC000300B00240000000080B58AB000AFB44B97
:101DD00093ED1C7BB0EE470B10F082FC87ED080BF7
:101DE00097ED080B01F0F0FB0346002B06D197EDB1
:101DF000080B01F0C3FB0346002B06D04FF0000296
:101E00004FF00003C7E9082307E09FEDA11B97ED02
:101E1000080B10F0FDFB87ED080B97ED087BB5EE86
:101E2000C07BF1EE10FA0BD597ED087BB1EE477B46
:101E3000FCEEC77B17EE903A9BB25B429BB206E08A
:101E400097ED087BFCEEC77B17EE903A9BB2954A64
:101E5000A2F8F830934BB3F8F8301B0A9BB21AB2D1
:101E6000904BB3F8F8301B021BB213431BB29AB26B
:101E70008C4BA3F8FA208A4B93ED1E7BB0EE470BF8
:101E800010F02EFC87ED080B97ED080B01F09CFB82
:101E90000346002B06D197ED080B01F06FFB0346BC
:101EA000002B06D04FF000024FF00003C7E90823D3
:101EB00007E09FED771B97ED080B10F0A9FB87ED6E
:101EC000080B97ED087BB5EEC07BF1EE10FA0BD551
:101ED00097ED087BB1EE477BFCEEC77B17EE903A9F
:101EE0009BB25B429BB206E097ED087BFCEEC77BA2
:101EF00017EE903A9BB26B4AA2F8FC30694BB3F8EC
:101F0000FC301B0A9BB21AB2664BB3F8FC301B02C2
:101F10001BB213431BB29AB2624BA3F8FE20624B72
:101F200093EDCE7BB0EE470B10F0DAFB87ED080B9C
:101F300097ED080B01F048FB0346002B06D197ED07
:101F4000080B01F01BFB0346002B06D04FF00002EC
:101F50004FF00003C7E9082307E09FED4F1B97ED03
:101F6000080B10F055FB87ED080B97ED087BB5EEDD
:101F7000C07BF1EE10FA0CD597ED087BB1EE477BF4
:101F8000FCEEC77BC7ED017A3B79DBB25B42DBB28B
:101F900007E097ED087BFCEEC77BC7ED017A3B7944
:101FA000DBB2404A82F82E310023FB6100237B83A1
:101FB0003E4B7B6102237B837A69FB6913447A8BF6
:101FC0003B49184611F0FCFB3A493B48FFF701F941
:101FD000354B93EDD07BB0EE470B10F081FB87EDD6
:101FE000080B97ED080B01F0EFFA0346002B06D122
:101FF00097ED080B01F0C2FA0346002B06D04FF014
:1020000000024FF00003C7E9082307E09FED221B01
:1020100097ED080B10F0FCFA87ED080B97ED087BA5
:10202000B5EEC07BF1EE10FA0CD597ED087BB1EE62
:10203000477BFCEEC77BC7ED017A3B79DBB25B42A5
:10204000DBB207E097ED087BFCEEC77BC7ED017ABA
:102050003B79DBB2134A82F8313100233B61002324
:10206000FB81164BBB600223FB81BA683B691344BA
:10207000FA891349184611F0A3FB12491248FFF7D9
:1020800002F900BF2837BD4680BD00BFAFF3008016
:10209000000000000000F040000000000000704060
:1020A0009808002450070024080000247F0800241A
:1020B0004A080024CC0900247E0800248208002459
:1020C0004E080024B8090024810800240000000004
:1020D00080B5A8B006AFA84BB3F8E0309AB2A74BD2
:1020E000A3F8D820A64B93F85F35012B07D1A44B5A
:1020F00003F58263D3E90023C7E9202306E0A04B60
:1021000003F5846353E90223C7E920239A4BB3F80C
:10211000E2309AB2994BA3F8E020974BB3F8E43041
:102120009AB2964BA3F8E420934BB3F8E6309AB2F8
:10213000924BA3F8E820904BB3F8E8309AB28F4B5B
:10214000A3F8F0208C4BB3F8EA309AB28B4BA3F88B
:10215000F4208B4B03F59E6313ED027B97ED206B10
:10216000B4EEC76BF1EE10FACCBF01230023DBB253
:1021700083F00103DBB2002B44D0814B03F5906365
:1021800013ED027BB0EE470B10F0AAFA87ED1E0BA1
:1021900097ED1E0B01F018FA0346002B06D197EDC0
:1021A0001E0B01F0EBF90346002B06D04FF00002A6
:1021B0004FF00003C7E91E2307E09FED6D1B97ED6D
:1021C0001E0B10F025FA87ED1E0B97ED1E7BB5EE6A
:1021D000C07BF1EE10FA0BD597ED1E7BB1EE477B7D
:1021E000FCEEC77B17EE903A9BB25B429BB206E0D7
:1021F00097ED1E7BFCEEC77B17EE903A9BB25F4AD1
:10220000A2F8D8305D4BB3F8D8301B0A9BB21AB293
:102210005A4BB3F8D8301B021BB213431BB29AB20D
:10222000564BA3F8DA20544B93ED207BB0EE470BCE
:1022300010F056FA87ED1E0B97ED1E0B01F0C4F956
:102240000346002B06D197ED1E0B01F097F90346CC
:10225000002B06D04FF000024FF00003C7E91E2309
:1022600007E09FED431B97ED1E0B10F0D1F987EDB2
:102270001E0B97ED1E7BB5EEC07BF1EE10FA0BD571
:1022800097ED1E7BB1EE477BFCEEC77B17EE903AD5
:102290009BB25B429BB206E097ED1E7BFCEEC77BD8
:1022A00017EE903A9BB2354AA2F8DC30334BB3F8C4
:1022B000DC301B0A9BB21AB2304BB3F8DC301B0285
:1022C0001BB213431BB29AB22C4BA3F8DE202C4B4B
:1022D00003F59E6393ED007B97ED206BB4EEC76B27
:1022E000F1EE10FACCBF01230023DBB283F001032F
:1022F000DBB2002B50D0224B03F5906393ED007BB3
:10230000B0EE470B10F0ECF987ED1E0B97ED1E0BAE
:1023100001F05AF90346002B06D197ED1E0B01F090
:102320002DF90346002B06D04FF000024FF00003BA
:10233000C7E91E2307E09FED0E1B97ED1E0B10F063
:1023400067F987ED1E0B97ED1E7BB5EEC07BF1EEB6
:1023500010FA17D597ED1E7BB1EE477BFCEEC77BDD
:1023600017EE903A9BB25B429BB212E0AFF3008053
:10237000000000000000F0409808002450070024EE
:102380000800002497ED1E7BFCEEC77B17EE903A09
:102390009BB2BB4AA2F8E030B94BB3F8E0301B0A5D
:1023A0009BB21AB2B64BB3F8E0301B021BB2134318
:1023B0001BB29AB2B24BA3F8E220B24B03F5A06372
:1023C00013ED027B97ED206BB4EEC76BF1EE10FAC4
:1023D000CCBF01230023DBB283F00103DBB2002B6F
:1023E00044D0A84B03F5926313ED027BB0EE470B8C
:1023F00010F076F987ED1E0B97ED1E0B01F0E4F857
:102400000346002B06D197ED1E0B01F0B7F80346EB
:10241000002B06D04FF000024FF00003C7E91E2347
:1024200007E09FED951B97ED1E0B10F0F1F887ED7F
:102430001E0B97ED1E7BB5EEC07BF1EE10FA0BD5AF
:1024400097ED1E7BB1EE477BFCEEC77B17EE903A13
:102450009BB25B429BB206E097ED1E7BFCEEC77B16
:1024600017EE903A9BB2864AA2F8E430844BB3F858
:10247000E4301B0A9BB21AB2814BB3F8E4301B0262
:102480001BB213431BB29AB27D4BA3F8E6207D4BDF
:1024900003F5A06393ED007B97ED206BB4EEC76B63
:1024A000F1EE10FACCBF01230023DBB283F001036D
:1024B000DBB2002B44D0734B03F5926393ED007BAA
:1024C000B0EE470B10F00CF987ED1E0B97ED1E0BCD
:1024D00001F07AF80346002B06D197ED1E0B01F0B0
:1024E0004DF80346002B06D04FF000024FF00003DA
:1024F000C7E91E2307E09FED601B97ED1E0B10F050
:1025000087F887ED1E0B97ED1E7BB5EEC07BF1EED5
:1025100010FA0BD597ED1E7BB1EE477BFCEEC77B27
:1025200017EE903A9BB25B429BB206E097ED1E7BA2
:10253000FCEEC77B17EE903A9BB2514AA2F8E83006
:102540004F4BB3F8E8301B0A9BB21AB24C4BB3F8AE
:10255000E8301B021BB213431BB29AB2484BA3F8DC
:10256000EA20494B93ED227BB0EE470B10F0B8F810
:1025700087ED1E0B97ED1E0B01F026F80346002B8E
:1025800006D197ED1E0B00F0F9FF0346002B06D095
:102590004FF000024FF00003C7E91E2307E09FED54
:1025A000361B97ED1E0B10F033F887ED1E0B97EDE1
:1025B0001E7BB5EEC07BF1EE10FA0BD597ED1E7BBE
:1025C000B1EE477BFCEEC77B17EE903A9BB25B42C5
:1025D0009BB206E097ED1E7BFCEEC77B17EE903AB0
:1025E0009BB2274AA2F8EC30254BB3F8EC301B0A1B
:1025F0009BB21AB2224BB3F8EC301B021BB213434E
:102600001BB29AB21E4BA3F8EE201E4B03F5A26339
:1026100013ED027B97ED206BB4EEC76BF1EE10FA71
:10262000CCBF01230023DBB283F00103DBB2002B1C
:1026300051D0144B03F5886393ED007BB0EE470B4C
:1026400010F04EF887ED1E0B97ED1E0B00F0BCFF4F
:102650000346002B06D197ED1E0B00F08FFF0346BB
:10266000002B13D04FF000024FF00003C7E91E23E8
:1026700014E000BFAFF30080000000000000F04055
:102680005007002408000024980800249FED421BF6
:1026900097ED1E0B0FF0BCFF87ED1E0B97ED1E7B19
:1026A000B5EEC07BF1EE10FA0BD597ED1E7BB1EEC7
:1026B000477BFCEEC77B17EE903A9BB25B429BB226
:1026C00006E097ED1E7BFCEEC77B17EE903A9BB2BF
:1026D000334AA2F8F030324BB3F8F0301B0A9BB209
:1026E0001AB22F4BB3F8F0301B021BB213431BB2CC
:1026F0009AB22B4BA3F8F2202A4B03F5A26393ED79
:10270000007B97ED206BB4EEC76BF1EE10FACCBFF7
:1027100001230023DBB283F00103DBB2002B4DD099
:10272000204B03F58A6313ED027BB0EE470B0FF0ED
:10273000D7FF87ED1E0B97ED1E0B00F045FF0346FC
:10274000002B06D197ED1E0B00F018FF0346002B5F
:1027500006D04FF000024FF00003C7E91E2307E048
:102760009FED0D1B97ED1E0B0FF052FF87ED1E0B1B
:1027700097ED1E7BB5EEC07BF1EE10FA14D597ED08
:102780001E7BB1EE477BFCEEC77B17EE903A9BB207
:102790005B429BB20FE000BF000000000000F04071
:1027A000500700240800002497ED1E7BFCEEC77B39
:1027B00017EE903A9BB2B44AA2F8F430B24BB3F899
:1027C000F4301B0A9BB21AB2AF4BB3F8F4301B02C1
:1027D0001BB213431BB29AB2AB4BA3F8F6200023F3
:1027E0003B670023A7F86E30A84BBB660223A7F80F
:1027F0006E30BA6E3B6F1344B7F86E20A44918468A
:1028000010F0DEFF00237B660023A7F86230A14BA7
:10281000FB650223A7F86230FA6D7B6E1344B7F8AC
:1028200062209D49184610F0CBFF0023BB650023B2
:10283000A7F85630994B3B650223A7F856303A6DFE
:10284000BB6D1344B7F856209549184610F0B8FFF1
:102850000023FB640023A7F84A30924B7B640223D9
:10286000A7F84A307A6CFB6C1344B7F84A208E49BB
:10287000184610F0A5FF8D4BD86807F1100305939B
:1028800000230493002303934FF47A7302930823E5
:10289000019300230093002308227C49FDF760FE8A
:1028A00000233B640023FB87814BBB630223FB8730
:1028B000BA6B3B6C1344FA8F7E49184610F080FFC8
:1028C00000237B6300237B867B4BFB6202237B869A
:1028D000FA6A7B6B13447A8E7849184610F070FFC1
:1028E0000023BB620023FB84754B3B620223FB8405
:1028F0003A6ABB6A1344FA8C7249184610F060FFBA
:102900000023FB6100237B836F4B7B6102237B836E
:102910007A69FB6913447A8B6C49184610F050FFB2
:10292000624BD86907F11003059300230493002339
:1029300003934FF47A7302930823019300230093C7
:10294000002309225A49FDF70BFE584B93ED106BFB
:102950005F4B93EDF27B36EE077B544B83ED107BA0
:10296000524B93ED106B5A4B93EDF47BB4EEC76B67
:10297000F1EE10FA05DD564BD3E9EC23C7E91E232F
:1029800004E0534BD3E9EE23C7E91E2397ED1E7BEA
:10299000B5EEC07BF1EE10FA00DC51E14C4B93ED4B
:1029A000D27BB0EE470B0FF09BFE87ED1E0B97ED31
:1029B0001E0B00F009FE0346002B06D197ED1E0BFF
:1029C00000F0DCFD0346002B06D04FF000024FF074
:1029D0000003C7E91E2307E09FED291B97ED1E0B9F
:1029E0000FF016FE87ED1E0B97ED1E7BB5EEC07B3C
:1029F000F1EE10FA0CD597ED1E7BB1EE477BFCEEA5
:102A0000C77BC7ED017A3B79DBB25B42DBB207E003
:102A100097ED1E7BFCEEC77BC7ED017A3B79DBB2FD
:102A20003B73224B93F8EC30052B02D905237B67CF
:102A300003E01E4B93F8EC307B67254A7B6F6A33CB
:102A4000DB00134493ED007BB0EE470B0FF048FE24
:102A500087ED1E0B97ED1E0B00F0B6FD0346002B15
:102A600006D197ED1E0B00F089FD0346002B31D0F7
:102A70004FF000024FF00003C7E91E2332E000BF11
:102A80000000000000007040500700246E08002481
:102A90002A080024700800242E080024720800244C
:102AA0003208002474080024360800249808002402
:102AB000760800243A080024780800243E08002400
:102AC0007A080024420800247C08002446080024D8
:102AD000080000249FED5C1B97ED1E0B0FF098FD86
:102AE00087ED1E0B97ED1E7BB5EEC07BF1EE10FA65
:102AF0000CD597ED1E7BB1EE477BFCEEC77BC7ED97
:102B0000017A3B79DBB25B42DBB207E097ED1E7BDB
:102B1000FCEEC77BC7ED017A3B79DBB27B734C4B94
:102B200093F8ED30052B02D905237B6703E0484B72
:102B300093F8ED307B67474A7B6F7033DB001344BB
:102B400093ED007BB0EE470B0FF0CAFD87ED1E0B37
:102B500097ED1E0B00F038FD0346002B06D197EDD4
:102B60001E0B00F00BFD0346002B06D04FF00002B9
:102B70004FF00003C7E91E2307E09FED331B97EDDD
:102B80001E0B0FF045FD87ED1E0B97ED1E7BB5EE7E
:102B9000C07BF1EE10FA0CD597ED1E7BB1EE477BB2
:102BA000FCEEC77BC7ED017A3B79DBB25B42DBB25F
:102BB00007E097ED1E7BFCEEC77BC7ED017A3B7902
:102BC000DBB2BB7307F10C0323491846FEF701FB88
:102BD00007F10C0321491846FEF755FB1C4B93F8EF
:102BE000EC201C4B93F85B351344DAB2184B83F896
:102BF000EC20174B93F8EC20164B93F870309A4268
:102C000005D9144B93F85725114B83F8EC20104B42
:102C100093F8ED200F4B93F85C351344DAB20C4B6C
:102C200083F8ED200A4B93F8ED200A4B93F87130AE
:102C30009A4205D9074B93F85825054B83F8ED20A8
:102C400000BF8837BD4680BD000000000000704016
:102C50009808002408000024A409002490090024F6
:102C600080B582B000AF78607B68022B0FD07B68A4
:102C7000022B0FDC7B68002B03D07B68012B03D079
:102C800008E0FEF73DFB06E0FFF79EF803E0FFF7E4
:102C90001FFA00E000BF00BF0837BD4680BD00003E
:102CA00080B500AF9B4BB3F838259B4BA3F8DC20D5
:102CB000984BB3F83A25984BA3F8DE20954B03F5D3
:102CC0009663D3E900239449C1E91A23914BB3F8E1
:102CD0003C25914BA3F8E0208E4BB3F83E258E4B5C
:102CE000A3F8E2208B4BB3F840258B4BA3F8E420EC
:102CF000884BB3F84225884BA3F8E620854BB3F800
:102D00004425854BA3F8E820824BB3F84625824B37
:102D1000A3F8EA20804B00221A707F4B01225A60F0
:102D20000120FDF7A5FB03467B4AD3607A4BDB68A5
:102D30001846FEF707F8784B01221A72764B0022EC
:102D40001A74754B01225A610120FDF791FB03466D
:102D5000714AD361704BDB691846FDF7F3FF6E4B88
:102D600001221A766B4BD3E9F0236B49C1E910239A
:102D7000684B93F85925684B83F8EC20654B93F822
:102D80005A25654B83F8ED206448FEF703FA644842
:102D9000FEF75AFA6348FEF7FDF96348FEF754FA66
:102DA0005D4B012283F8F2205B4B012283F8F42073
:102DB000584BD3E994235849C1E92423554BD3E90F
:102DC00008235549C1E91223524BD3E90C23524938
:102DD000C1E914234F4BD3E9AE234F49C1E928235E
:102DE0004C4BD3E90A234C49C1E91623494BD3E99B
:102DF0000E234949C1E918234C48FEF713F84C4803
:102E0000FEF710F8434BB3F822254A4BA3F8D02025
:102E1000404BB3F82825474BA3F8CC203D4BB3F8E3
:102E20002425444BA3F8CE203A4BB3F82025414B40
:102E3000A3F8D220374BB3F81C253E4BA3F8D4207F
:102E4000344BB3F818253B4BA3F8D620314BB3F8DD
:102E50002E25384BA3F8C8202E4BB3F82C25354B24
:102E6000A3F8CA202C4B002283F830202A4B0122E1
:102E70005A630120FDF7FCFA0346274AD363264B29
:102E8000DB6B1846FDF75EFF234B012283F83820E9
:102E9000214B002283F820201F4B01225A62002080
:102EA000FDF7E6FA03461C4AD3621B4BDB6A184661
:102EB000FDF748FF184B012283F82820154BD3E972
:102EC000F6231C49C1E92C23124BB3F83025194BCA
:102ED000A3F8B8200F4BB3F83225164BA3F8BA204D
:102EE0000C4BB3F83425134BA3F8BC20094BB3F8B3
:102EF0003625104BA3F8BE20074B012283F8F020A3
:102F0000054B012283F8EE20034B012283F8EF20CA
:102F100000BF80BD0800002498080024A4090024F4
:102F200090090024CC090024B8090024880A002450
:102F3000E00900245007002480B500AF344B93F81B
:102F40003030002B11D1324B012283F83020304B2E
:102F50005B6B012B09D12E4B93F83830002B04D03A
:102F60002B4BDB6B1846FDF7D5FC294B93F8203033
:102F7000002B11D1264B012283F82020244B5B6AC1
:102F8000012B09D1224B93F82830002B04D0204B81
:102F9000DB6A1846FDF7BEFC1E48FEF7D1F81E4856
:102FA000FEF7CEF81D48FEF733F91D48FEF78AF903
:102FB000174B1B78002B0FD1154B01221A70144BA5
:102FC0005B68012B08D1124B1B7A002B04D0104BED
:102FD000DB681846FDF79EFC0D4B1B7C002B0FD1C8
:102FE0000B4B01221A740A4B5B69012B08D1084B69
:102FF0001B7E002B04D0064BDB691846FDF78AFCCC
:103000000848FEF705F90848FEF75CF900BF80BDE7
:1030100098080024880A0024E0090024CC09002430
:10302000B8090024A40900249009002480B500AF49
:10303000042208492320FDF7E3FC1420FDF764FE79
:10304000032205492220FDF7DBFC1320FDF75CFE7F
:1030500000BF80BD5D3000081533000880B590B01A
:1030600008AF9A4B5B6D03F00103002B07D0974B21
:103070001B6D03F00103002B01D0012300E00023AE
:10308000002B00F01981914B01221A65904B1B789F
:10309000DBB2012B40F010818E4BD86B3B1D0793A8
:1030A000012306938C4B05938C4B04938C4B039319
:1030B0008C4B02938C4B01938C4B00938C4B8D4A21
:1030C0004021FDF75DFB8C4B002283F85C208A4B8E
:1030D000002283F85E20884B00225A6686494FF012
:1030E00000024FF00003C1E91A23834B93F85A30D2
:1030F000032B13D1804B1B6EB3F1FF3F0ED07E4BE1
:103100001B6EB3F5C87F09D17B4B93F85930002B68
:1031100004D103227749794810F052FB0023FB6168
:1031200000237B83764B7B6102237B837A69FB6977
:1031300013447A8B1946734810F042FB6E4B93F898
:103140005A30032B14D16C4B1B6EB3F1FF3F0FD0E1
:10315000694B1B6E40F29112934209D1664B93F872
:103160005930002B04D103226249674810F028FB34
:1031700000233B610023FB81644BBB600223FB8186
:10318000BA683B691344FA891946614810F018FB84
:10319000594B93F81831EB2B10D0EB2B2ADCA82BD2
:1031A00013D0A82B26DC8A2B1DD08A2B22DC4A2B9D
:1031B00001DC492B1EE05F2B0ED01BE04E4BB3F819
:1031C000C4204D4BA3F8D62014E04B4BB3F8C420D9
:1031D000494BA3F8D4200DE0474BB3F8C420464B2D
:1031E000A3F8D22006E0444BB3F8C420424BA3F826
:1031F000D02000BF404B93F81B31EB2B10D0EB2BB2
:103200002ADCA82B13D0A82B26DC8A2B1DD08A2BD6
:1032100022DC4A2B01DC492B1EE05F2B0ED01BE089
:10322000354BB3F8C620344BA3F8CE2014E0324B14
:10323000B3F8C620304BA3F8CC200DE02E4BB3F8EA
:10324000C6202D4BA3F8CA2006E02B4BB3F8C620AE
:10325000294BA3F8C82000BF274BB3F8D6201D4B3D
:10326000A3F8E020244BB3F8CA201A4BA3F8E820B7
:10327000214BB3F8C820174BA3F8EA201E4BB3F834
:10328000D420144BA3F8DC201B4BB3F8D220114BF5
:10329000A3F8E220184BB3F8D0200E4BA3F8E4209B
:1032A000154BB3F8CE200B4BA3F8E620124BB3F826
:1032B000CC20084BA3F8DE20BFF36F8F00BFBFF315
:1032C0004F8F00BF00BF2037BD4680BD00A4004027
:1032D0000000002498080024A8070024AD0700245B
:1032E000AF070024AA070024AB070024A907002485
:1032F000B0070024C00700245007002468080024F9
:1033000069080024140800246B0800246C080024B9
:103310001608002480B59CB008AF804B5B6D03F0AD
:103320000103002B07D07D4B1B6D03F00103002B25
:1033300001D0012300E00023002B00F0E580774B53
:1033400001221A65764B1B78DBB2012B40F0DC8042
:10335000744BD86A3B1D079301230693724B059368
:10336000724B0493724B0393724B0293724B019313
:10337000724B0093724B734A4021FDF701FA6A4B7E
:1033800000221A71684B00229A71674B0022DA60A2
:1033900065494FF000024FF00003C1E90423624B7E
:1033A0009B78082B11D1604B9B68B3F1FF3F0CD089
:1033B0005D4B9B68012B08D15B4B5B78002B04D1E4
:1033C00008226049604810F0FBF90023FB640023E9
:1033D000A7F84A305D4B7B640223A7F84A307A6C29
:1033E000FB6C1344B7F84A201946594810F0E8F925
:1033F00000233B640023FB87564BBB630223FB8700
:10340000BA6B3B6C1344FA8F1946534810F0D8F945
:10341000454B9B78082B11D1434B9B68B3F1FF3F81
:103420000CD0414B9B68042B08D13F4B5B78002BA1
:1034300004D108224349494810F0C2F900237B63B4
:1034400000237B86454BFB6202237B86FA6A7B6BFB
:1034500013447A8E1946424810F0B2F90023BB6239
:103460000023FB843F4B3B620223FB843A6ABB6A26
:103470001344FA8C19463C4810F0A2F92A4B9B7869
:10348000082B11D1284B9B68B3F1FF3F0CD0264B82
:103490009B68052B08D1244B5B78002B04D10822B4
:1034A0002849324810F08CF90023FB6100237B830C
:1034B0002E4B7B6102237B837A69FB6913447A8BF1
:1034C00019462B4810F07CF900233B610023FB8157
:1034D000284BBB600223FB81BA683B691344FA891D
:1034E0001946254810F06CF90F4B93F8013107EE9F
:1034F000903AB8EE677B0C4B83ED2C7B0A4BD3E9FB
:103500002C230849C1E91A23BFF36F8F00BFBFF313
:103510004F8F00BF00BF5037BD4680BD00A00040A8
:1035200000000024980800245007002455070024B8
:103530005707002452070024530700245107002492
:103540005807002468070024500800245408002469
:1035500008080024560800240A08002458080024FB
:103560000C0800245A0800240E08002460080024D7
:1035700010080024620800241208002480B483B0DC
:1035800000AF87ED000B0E4B93ED007B97ED006BCA
:10359000B4EE476BF1EE10FA09D00A4B93ED007BC5
:1035A00097ED006BB4EE476BF1EE10FA01D10123F9
:1035B00000E0002318460C37BD465DF8047B7047D9
:1035C000680500247005002480B483B000AF87ED47
:1035D000000B97ED006B97ED007BB4EE476BF1EEBF
:1035E00010FA01D7012300E0002318460C37BD462E
:1035F0005DF8047B7047000010B54FF0804482B046
:10360000636A019307F080FA0090626A019B9A4214
:1036100007D3009B4FF47A72019802FB030002B0BB
:1036200010BD07F071FA636A4FF47A7202FB003042
:1036300002B010BD10B5044641B9FFF7DDFFA0424E
:10364000A0EB040038BF00F1FF3010BD07F05CFABA
:10365000A042A0EB040038BF00F1FF3010BD00BF56
:1036600080B483B000AF03463960FB80B7F9063001
:10367000002B0ADB3B68DAB20C49B7F906301201BD
:10368000D2B20B4483F800230AE03B68DAB208495F
:10369000FB8803F00F03043B1201D2B20B441A76ED
:1036A00000BF0C37BD465DF8047B704700E100E0C9
:1036B00000ED00E080B582B000AF7860034800F014
:1036C00023FA00BF0837BD4680BD00BFD4060024E2
:1036D00080B582B000AF78607868FDF7D3F900BF9D
:1036E0000837BD4680BD80B582B000AF786078688D
:1036F000FDF79AF900BF0837BD4680BD80B58CB094
:1037000000AF87ED010A386000218B4800F0C7F94F
:10371000B862BB6A002B0AD04FF0500383F31188C4
:10372000BFF36F8FBFF34F8F7B6200BFFEE70021B7
:10373000824800F0B4F9B862BB6A002B0AD04FF09F
:10374000500383F31188BFF36F8FBFF34F8F3B623A
:1037500000BFFEE77A4B28221A61794B00229A615A
:10376000774B80229A82764B764A07CA03C31A7037
:1037700000227549724800F0FDF8B862BB6A002B60
:103780000AD04FF0500383F31188BFF36F8FBFF35C
:103790004F8FFB6100BFFEE70023FB6273E06B49C4
:1037A000FB6AFA6A41F82320FB6A9B00684A1344CB
:1037B0000021184600F073F9B862BB6A002B0AD0EA
:1037C0004FF0500383F31188BFF36F8FBFF34F8F18
:1037D000BB6100BFFEE7FB6AC3F1270318465D49E2
:1037E000FA6A1346DB009B1A9B000B4410331860E7
:1037F0005849FA6A1346DB009B1A9B000B441033AE
:103800001B68002B0AD14FF0500383F31188BFF3DC
:103810006F8FBFF34F8F7B6100BFFEE74D49FA6AA0
:103820001346DB009B1A9B000B44183300221A60DE
:103830004849FA6A1346DB009B1A9B000B44143379
:1038400080221A80FA6A1346DB009B1A9B00414AC9
:103850009818FB6A9B003D4A13441A463E4900F003
:1038600089F8B862BB6A002B0AD04FF0500383F38B
:103870001188BFF36F8FBFF34F8F3B6100BFFEE72F
:10388000FB6A0133FB62FB6A012B88DD02214FF0EA
:10389000FF30FFF7E5FE314B00221A60304B00226B
:1038A0001A60D7ED017A9FED2F7A67EE877AFCEEEA
:1038B000E77A17EE902A2A4B5A60294B01229A6028
:1038C000264B1B681A46264BDA60274B274A92E89C
:1038D000030018600433198002330A0C1A7024495B
:1038E0001F4800F097F8B862BB6A002B0AD04FF06F
:1038F000500383F31188BFF36F8FBFF34F8FFB60CB
:1039000000BFFEE74FF47A71154800F0A4F8B862E2
:10391000BB6A002B0AD04FF0500383F31188BFF32A
:103920006F8FBFF34F8FBB6000BFFEE70CF068FFE7
:1039300000BF3037BD4680BDD4060024D006002429
:10394000E8060024A8380108D1360008E006002463
:10395000D80600240C070024E7360008600B00247A
:10396000400B002400007A44500B0024B4380108B6
:10397000B536000880B588B002AFF860B9607A60EB
:10398000FB68002B01D1012323E0F968FB68988ACA
:10399000FB681B69FA681832019200937B68024643
:1039A000B8680CF034FD7861FB689B69002B0AD184
:1039B0004FF0500383F31188BFF36F8FBFF34F8F26
:1039C0003B6100BFFEE77B69012B14BF012300238D
:1039D000DBB218461837BD4680BD80B582B000AF57
:1039E000786000200CF09AFE00BF0837BD4680BD0D
:1039F00084B080B500AF07F1080C8CE80F003B6A7B
:103A000018460CF08BFE00231846BD46BDE88040EA
:103A100004B0704790B585B002AF786039607B68BC
:103A200003F110007B6859687B689A687B68DC68E2
:103A30003B68009323460DF065FD02467B681A60E3
:103A40007B681B68002B01D0002300E0012318468F
:103A50000C37BD4690BD90B585B002AF7860396037
:103A60007B68002B16D07B681B68002B12D07B680C
:103A70001C680CF0E1FF02463B6800930023012123
:103A800020460DF09BFD0346012B14BF01230023AC
:103A9000DBB200E0012318460C37BD4690BD80B56F
:103AA00082B000AF786039603B6819460A200BF09D
:103AB000C2FE02467B681A607B68002B01D000239F
:103AC00000E0012318460837BD4680BD80B582B0AE
:103AD00000AF78607B68002B03D07B681B68002BED
:103AE00001D101230CE07B681B684FF0FF311846C1
:103AF0000CF04EF90346012B14BF01230023DBB267
:103B000018460837BD4680BD80B582B000AF7860EA
:103B10007B68002B03D07B681B68002B01D101233D
:103B20000CE07B6818680023002200210BF0B6FE31
:103B30000346012B14BF01230023DBB218460837CC
:103B4000BD4680BD80B582B000AF78607B68002B39
:103B500006D07B681B6818460CF026FA002300E0AC
:103B6000012318460837BD4680BD000080B400AF71
:103B7000044BDB681B0A03F007031846BD465DF8DB
:103B8000047B704700ED00E080B483B000AF0346D3
:103B9000FB80B7F90630002B0BDBFB8803F01F021C
:103BA0000749B7F906305B09012000FA02F241F833
:103BB000232000BF0C37BD465DF8047B704700BF73
:103BC00000E100E080B483B000AF03463960FB80C1
:103BD000B7F90630002B0ADB3B68DAB20C49B7F9BB
:103BE00006301201D2B20B4483F800230AE03B688E
:103BF000DAB20849FB8803F00F03043B1201D2B28A
:103C00000B441A7600BF0C37BD465DF8047B704745
:103C100000E100E000ED00E080B489B000AFF860A2
:103C2000B9607A60FB6803F00703FB61FB69C3F1CD
:103C30000703042B28BF0423BB61FB690433062B55
:103C400002D9FB69033B00E000237B614FF0FF32A8
:103C5000BB6902FA03F3DA43BB681A407B699A40F6
:103C60004FF0FF317B6901FA03F3D9437B680B40C6
:103C7000134318462437BD465DF8047B704780B473
:103C800087B000AFF860B9607A60FB6830331A46DD
:103C9000BB681B0A9B0003F00C0313447B617B6928
:103CA0001A68BB6803F01F031F2101FA03F3DB430B
:103CB0001A407B689B0E03F01F01BB6803F01F03D3
:103CC00001FA03F31A437B691A6000BF1C37BD4633
:103CD0005DF8047B704780B487B000AFF860B960CE
:103CE0007A60FB6814331A46BB685B0E9B0003F0D6
:103CF000040313447B617B691A68BB681B0D03F0E6
:103D00001F03072101FA03F3DB431A40BB681B0DB5
:103D100003F01F03796801FA03F31A437B691A6001
:103D200000BF1C37BD465DF8047B704780B485B08A
:103D300000AFF860B9607A60FB681A4A934215D107
:103D4000FB68D3F8B020BB68C3F31303DB431A400E
:103D50007B6803F018031449D940BB680B40C3F3D8
:103D600013031A43FB68C3F8B02014E0FB68D3F8D0
:103D7000C020BB68C3F31303DB431A407B6803F026
:103D800018030949D940BB680B40C3F313031A4316
:103D9000FB68C3F8C02000BF1437BD465DF8047B44
:103DA000704700BF00600258FFFF0F0080B483B06F
:103DB00000AF786039607B681A69064B13403A6837
:103DC0001A437B681A6100BF0C37BD465DF8047B5F
:103DD000704700BFFCFBFFFF80B483B000AF78608A
:103DE0007B689A68044B13407A68936000BF0C3775
:103DF000BD465DF8047B7047C0FFFF5F80B483B0B1
:103E000000AF78607B689A68054B134043F080529E
:103E10007B689A6000BF0C37BD465DF8047B704735
:103E2000C0FFFF6F80B483B000AF786039607B68FB
:103E30001A683B6803F01003022101FA03F3DB4325
:103E40001A407B681A6000BF0C37BD465DF8047BE2
:103E50007047000080B487B000AFF860B9607A6046
:103E6000FB687B610D4ABB6813441B781A467B696B
:103E700013441B6823F0C0020849BB680B441B783D
:103E800019467B690B4419467B6813430B6000BFDE
:103E90001C37BD465DF8047B704700BF243901081C
:103EA00080B487B000AFF860B9607A60FB687B616E
:103EB0000D4ABB6813441B781A467B6913441B6880
:103EC00023F490720849BB680B441B7819467B6940
:103ED0000B4419467B6813430B6000BF1C37BD467B
:103EE0005DF8047B704700BF2439010880B487B0B7
:103EF00000AFF860B9607A60FB687B610D4ABB680F
:103F000013441B781A467B6913441B6823F4007220
:103F10000849BB680B441B7819467B690B4419465A
:103F20007B6813430B6000BF1C37BD465DF8047B04
:103F3000704700BF2439010880B487B000AFF86033
:103F4000B9607A60FB687B610D4ABB6813441B78DB
:103F50001A467B6913441B6823F480620849BB68D6
:103F60000B441B7819467B690B4419467B68134345
:103F70000B6000BF1C37BD465DF8047B704700BF77
:103F80002439010880B487B000AFF860B9607A6066
:103F9000FB687B610D4ABB6813441B781A467B693A
:103FA00013441B6823F4C0520849BB680B441B78B8
:103FB00019467B690B4419467B6813430B6000BFAD
:103FC0001C37BD465DF8047B704700BF24390108EB
:103FD00080B487B000AFF860B9607A60FB687B613D
:103FE0000D4ABB6813441B781A467B6913441B684F
:103FF00023F4C0420849BB680B441B7819467B690F
:104000000B4419467B6813430B6000BF1C37BD4649
:104010005DF8047B704700BF2439010880B487B085
:1040200000AFF860B9607A60FB687B610D4ABB68DD
:1040300013441B781A467B6913441B6823F44032EF
:104040000849BB680B441B7819467B690B44194629
:104050007B6813430B6000BF1C37BD465DF8047BD3
:10406000704700BF2439010880B485B000AFF86004
:10407000B9607A60BA68124B13449B00FA68114920
:104080008A4201D1002200E0202213441B6823F061
:10409000FF02B9680A4B0B449B00F968094881424A
:1040A00001D1002100E020210B4419467B68134315
:1040B0000B6000BF1437BD465DF8047B704700BF3E
:1040C000008200100000024080B485B000AF78602C
:1040D00039607B68FB600C4A3B6813441B781A46C6
:1040E000FB6813445B6908493A680A441278114630
:1040F000FA680A4423F00403536100BF1437BD4635
:104100005DF8047B704700BF2439010880B483B098
:1041100000AF78607B681B6823F400327B681A600C
:1041200000BF0C37BD465DF8047B704780B483B098
:1041300000AF78607B681B6823F400227B681A60FC
:1041400000BF0C37BD465DF8047B704780B485B076
:1041500000AFF860B9607A60FB68DA68064B13401C
:10416000B9687A680A431A43FB68DA6000BF1437FB
:10417000BD465DF8047B704701F8FFFF80B483B053
:1041800000AF78607B68DB6823F400427B68DA600C
:1041900000BF0C37BD465DF8047B704780B483B028
:1041A00000AF78607B685B6843F000727B685A60A0
:1041B00000BF0C37BD465DF8047B704780B400AF8C
:1041C000054B1B68044A43F48033136000BFBD46AF
:1041D0005DF8047B704700BF0044025880B400AF14
:1041E000074B1B6803F40033B3F5003F01D10123F3
:1041F00000E000231846BD465DF8047B704700BF11
:104200000044025880B400AF054B1B68044A43F4D5
:104210008053136000BFBD465DF8047B704700BF4C
:104220000044025880B400AF074B1B6803F40053EE
:10423000B3F5005F01D1012300E000231846BD461D
:104240005DF8047B704700BF0044025880B483B01F
:1042500000AF7860064B1B6923F0070204497B68B6
:1042600013430B6100BF0C37BD465DF8047B7047FC
:104270000044025880B400AF044B1B6903F03803BC
:104280001846BD465DF8047B704700BF00440258E5
:1042900080B483B000AF7860064B9B6923F47062F2
:1042A00004497B6813438B6100BF0C37BD465DF842
:1042B000047B70470044025880B483B000AF78603C
:1042C000064B9B6923F00F0204497B6813438B6103
:1042D00000BF0C37BD465DF8047B704700440258B0
:1042E00080B483B000AF7860064BDB6923F07002C6
:1042F00004497B681343CB6100BF0C37BD465DF8B2
:10430000047B70470044025880B483B000AF7860EB
:10431000064BDB6923F4E06204497B681343CB61FD
:1043200000BF0C37BD465DF8047B7047004402585F
:1043300080B483B000AF7860064B9B6923F07002B5
:1043400004497B6813438B6100BF0C37BD465DF8A1
:10435000047B70470044025880B483B000AF78609B
:10436000064B1B6A23F0700204497B6813430B62FF
:1043700000BF0C37BD465DF8047B7047004402580F
:1043800080B485B000AF78607B68DAB2104B13441C
:10439000FB60FB681A687B68190E7B681B0A03F0D8
:1043A0001F0301FA03F3DB431A407B681B0CD9B2ED
:1043B0007B681B0A03F01F0301FA03F31A43FB682F
:1043C0001A6000BF1437BD465DF8047B704700BF1C
:1043D0004C44025880B582B000AF78607868FFF72F
:1043E000CFFF00BF0837BD4680BD80B582B000AFAB
:1043F00078607868FFF7C4FF00BF0837BD4680BD0E
:1044000080B483B000AF7860064B9B6D23F44032DC
:1044100004497B6813438B6500BF0C37BD465DF8CC
:10442000047B70470044025880B483B000AF7860CA
:10443000064B9B6A23F0030204497B6813438B629B
:1044400000BF0C37BD465DF8047B7047004402583E
:1044500080B400AF054B1B68044A43F080731360BF
:1044600000BFBD465DF8047B704700BF00440258A2
:1044700080B400AF074B1B6803F00073B3F1007FFB
:1044800001D1012300E000231846BD465DF8047BFE
:10449000704700BF0044025880B400AF054BDB6A90
:1044A000044A43F48033D36200BFBD465DF8047B09
:1044B000704700BF0044025880B400AF054BDB6A70
:1044C000044A43F40033D36200BFBD465DF8047B69
:1044D000704700BF0044025880B400AF054BDB6A50
:1044E000044A43F48023D36200BFBD465DF8047BD9
:1044F000704700BF0044025880B483B000AF7860BA
:10450000074BDB6A23F002027B685B00044913431C
:10451000CB6200BF0C37BD465DF8047B704700BF1F
:104520000044025880B483B000AF7860074BDB6A68
:1045300023F00C027B689B0004491343CB6200BF4D
:104540000C37BD465DF8047B704700BF004402583D
:1045500080B483B000AF7860074B1A6B074B1340F1
:104560007A68013A044913430B6300BF0C37BD4618
:104570005DF8047B704700BF0044025800FEFFFF57
:1045800080B483B000AF7860074B9B6A23F47C72E1
:104590007B681B01044913438B6200BF0C37BD4687
:1045A0005DF8047B704700BF0044025880B483B0BC
:1045B00000AF7860074B1B6B23F47E427B68013BA6
:1045C0005B02044913430B6300BF0C37BD465DF823
:1045D000047B70470044025880B483B000AF786019
:1045E000074B1B6B23F4FE027B68013B1B04044951
:1045F00013430B6300BF0C37BD465DF8047B704767
:104600000044025880B483B000AF7860074B1B6B46
:1046100023F0FE427B68013B1B06044913430B63F6
:1046200000BF0C37BD465DF8047B7047004402585C
:1046300080B400AF054B1B68044A43F080631360ED
:1046400000BFBD465DF8047B704700BF00440258C0
:1046500080B400AF074B1B6803F00063B3F1006F39
:1046600001D1012300E000231846BD465DF8047B1C
:10467000704700BF0044025880B400AF054BDB6AAE
:10468000044A43F40023D36200BFBD465DF8047BB7
:10469000704700BF0044025880B483B000AF786018
:1046A000074BDB6A23F020027B685B01044913435C
:1046B000CB6200BF0C37BD465DF8047B704700BF7E
:1046C0000044025880B483B000AF7860074BDB6AC7
:1046D00023F0C0027B689B0104491343CB6200BFF7
:1046E0000C37BD465DF8047B704700BF004402589C
:1046F00080B483B000AF7860074B9A6B074B1340D0
:104700007A68013A044913438B6300BF0C37BD46F6
:104710005DF8047B704700BF0044025800FEFFFFB5
:1047200080B483B000AF7860074B9B6A23F47C327F
:104730007B681B03044913438B6200BF0C37BD46E3
:104740005DF8047B704700BF0044025880B483B01A
:1047500000AF7860074B9B6B23F47E427B68013B84
:104760005B02044913438B6300BF0C37BD465DF801
:10477000047B70470044025880B483B000AF786077
:10478000074B9B6B23F4FE027B68013B1B0404492F
:1047900013438B6300BF0C37BD465DF8047B704745
:1047A0000044025880B483B000AF7860074B9B6B25
:1047B00023F0FE427B68013B1B06044913438B63D5
:1047C00000BF0C37BD465DF8047B704700440258BB
:1047D00080B400AF054B1B68044A43F0805313605C
:1047E00000BFBD465DF8047B704700BF004402581F
:1047F00080B400AF074B1B6803F00053B3F1005FB8
:1048000001D1012300E000231846BD465DF8047B7A
:10481000704700BF0044025880B400AF054BDB6A0C
:10482000044A43F08073D36200BFBD465DF8047B49
:10483000704700BF0044025880B483B000AF786076
:10484000074BDB6A23F400727B685B020449134365
:10485000CB6200BF0C37BD465DF8047B704700BFDC
:104860000044025880B483B000AF7860074BDB6A25
:1048700023F440627B689B0204491343CB6200BF70
:104880000C37BD465DF8047B704700BF00440258FA
:1048900080B483B000AF7860074B1A6C074B1340AD
:1048A0007A68013A044913430B6400BF0C37BD46D4
:1048B0005DF8047B704700BF0044025800FEFFFF14
:1048C00080B483B000AF7860074B9B6A23F07C72A2
:1048D0007B681B05044913438B6200BF0C37BD4640
:1048E0005DF8047B704700BF0044025880B483B079
:1048F00000AF7860074B1B6C23F47E427B68013B62
:104900005B02044913430B6400BF0C37BD465DF8DE
:10491000047B70470044025880B483B000AF7860D5
:10492000074B1B6C23F4FE027B68013B1B0404490C
:1049300013430B6400BF0C37BD465DF8047B704722
:104940000044025880B483B000AF7860074B1B6C02
:1049500023F0FE427B68013B1B06044913430B64B2
:1049600000BF0C37BD465DF8047B70470044025819
:1049700080B485B000AF78600A4BD3F8D8200949DD
:104980007B681343C1F8D830064BD3F8D8207B6836
:104990001340FB60FB6800BF1437BD465DF8047B25
:1049A000704700BF0044025880B485B000AF786003
:1049B0000A4BD3F8E02009497B681343C1F8E03083
:1049C000064BD3F8E0207B681340FB60FB6800BF18
:1049D0001437BD465DF8047B704700BF00440258A1
:1049E00080B485B000AF78600A4BD3F8E82009495D
:1049F0007B681343C1F8E830064BD3F8E8207B68A6
:104A00001340FB60FB6800BF1437BD465DF8047BB4
:104A1000704700BF0044025880B485B000AF786092
:104A20000A4BD3F8F02009497B681343C1F8F030F2
:104A3000064BD3F8F0207B681340FB60FB6800BF97
:104A40001437BD465DF8047B704700BF0044025830
:104A500080B485B000AF78600A4BD3F8F4200949E0
:104A60007B681343C1F8F430064BD3F8F4207B681D
:104A70001340FB60FB6800BF1437BD465DF8047B44
:104A8000704700BF0044025880B483B000AF786024
:104A9000054B5A6804497B6813434B6000BF0C37D1
:104AA000BD465DF8047B70470004005880B487B0B1
:104AB00000AF78603960184A3B6803F003030233A3
:104AC00052F823203B681B0CDB4302EA03013B68DE
:104AD0001B0C3B613B6993FAA3F3FB60FB687B61B2
:104AE0007B69002B01D1202303E07B69B3FA83F3B8
:104AF000DBB203F01F037A689A4007483B6803F073
:104B000003030A43023340F8232000BF1C37BD468D
:104B10005DF8047B704700BF0004005880B483B088
:104B200000AF7860064B1B6823F00F0204497B68D6
:104B300013430B6000BF0C37BD465DF8047B704724
:104B40000020005280B400AF044B1B6803F00F0339
:104B50001846BD465DF8047B704700BF0020005238
:104B600080B483B000AF7860064BDB6823F03F026F
:104B700004497B681343CB6000BF0C37BD465DF82A
:104B8000047B70470048025880B483B000AF78605F
:104B9000064B9B6923F4404204497B6813438B61B5
:104BA00000BF0C37BD465DF8047B704700480258D3
:104BB00080B483B000AF78607B681B6843F08002EC
:104BC0007B681A6000BF0C37BD465DF8047B7047F8
:104BD00080B483B000AF78607B681B6823F08002EC
:104BE0007B681A6000BF0C37BD465DF8047B7047D8
:104BF00080B485B000AF786039603B68012B28D065
:104C00003B68042B23D03B68102B1ED03B68402B05
:104C100019D03B68B3F5807F13D03B68B3F5806F44
:104C20000DD03B68B3F5805F07D03B68B3F5803F9C
:104C300001D107230EE008230CE006230AE0052338
:104C400008E0042306E0032304E0022302E001233A
:104C500000E00023FB737B6818331946FB7B0B4A8B
:104C6000D35C0B44BB60BB681A68FB7B0849CB5C18
:104C7000194604238B40DB431A40BB681A6000BF0F
:104C80001437BD465DF8047B704700BF2C3901081E
:104C90003839010880B485B000AF786039603B686E
:104CA000012B28D03B68042B23D03B68102B1ED04F
:104CB0003B68402B19D03B68B3F5807F13D03B682D
:104CC000B3F5806F0DD03B68B3F5805F07D03B68CC
:104CD000B3F5803F01D107230EE008230CE0062343
:104CE0000AE0052308E0042306E0032304E002238E
:104CF00002E0012300E00023FB737B6818331946B0
:104D0000FB7B0A4AD35C0B44BB60BB681A68FB7B25
:104D10000749CB5C194608238B401A43BB681A60CD
:104D200000BF1437BD465DF8047B70472C3901087D
:104D30003839010880B483B000AF786039607B688F
:104D40005B6823F070023B681A437B685A6000BFBF
:104D50000C37BD465DF8047B704780B483B000AF6C
:104D6000786039607B685B6823F470023B681A43A3
:104D70007B685A6000BF0C37BD465DF8047B704706
:104D800080B483B000AF78607B689B6823F08002BA
:104D90007B689A6000BF0C37BD465DF8047B7047A6
:104DA00080B483B000AF78607B681B6843F0010279
:104DB0007B681A6000BF0C37BD465DF8047B704706
:104DC00080B483B000AF78607B681B6823F000522A
:104DD0007B681A6000BF0C37BD465DF8047B7047E6
:104DE00080B489B000AF786039607B680833FB60BD
:104DF000FB6853E8003FBB60BB6823F060423B6840
:104E00005B071343FB617B680833FA69BA617B6116
:104E10007969BA6941E800233B613B69002BE4D121
:104E200000BF00BF2437BD465DF8047B704780B4E7
:104E300089B000AF786039607B680833FB60FB683D
:104E400053E8003FBB60BB6823F060623B685B06D1
:104E50001343FB617B680833FA69BA617B61796946
:104E6000BA6941E800233B613B69002BE4D100BFF4
:104E700000BF2437BD465DF8047B704780B483B023
:104E800000AF78607B685B6823F490427B685A606F
:104E90007B689B6823F02A027B689A6000BF0C370E
:104EA000BD465DF8047B704780B483B000AF786086
:104EB0007B68DB6903F40013B3F5001F01D1012304
:104EC00000E0002318460C37BD465DF8047B7047B0
:104ED00080B483B000AF78607B68DB6903F4800343
:104EE000B3F5800F01D1012300E0002318460C37F1
:104EF000BD465DF8047B704780B485B000AFF860B4
:104F0000B9607A60FB681968BB6803FB03F213465B
:104F10005B001344DB4301EA0302BB6803FB03F3BA
:104F2000796801FB03F31A43FB681A6000BF14376A
:104F3000BD465DF8047B704780B485B000AFF86073
:104F4000B9607A60FB68D968BB6803FB03F213465B
:104F50005B001344DB4301EA0302BB6803FB03F37A
:104F6000796801FB03F31A43FB68DA6000BF14376A
:104F7000BD465DF8047B704780B483B000AF7860B5
:104F800039603B681A047B689A6100BF0C37BD46E4
:104F90005DF8047B7047000080B500AF0320FFF789
:104FA000BDFD00BFFFF7CEFD0346032BFAD1042061
:104FB000FFF7D6FD0020FFF7E7FDFFF7FFF800BF82
:104FC000FFF70CF90346012BFAD1FFF71BF900BFDD
:104FD000FFF728F90346012BFAD10220FFF724FA44
:104FE000FFF75AFAFFF768FAFFF776FA0220FFF7A1
:104FF00099FA0020FFF780FA0520FFF7C1FA6E202A
:10500000FFF7A6FA0120FFF7D1FA0420FFF7E4FA30
:105010000220FFF7F7FAFFF71BFA00BFFFF728FAA5
:105020000346012BFAD10820FFF746F90320FFF7CA
:105030000DF900BFFFF71EF90346182BFAD1002027
:10504000FFF726F90820FFF737F94020FFF748F966
:105050004FF48060FFF758F94020FFF769F94020CE
:10506000FFF77AF9064803F0FBFE0F2002F076FA0C
:105070000346002B01D001F084FC00BF80BD00BFBF
:105080008055C82080B500AFFFF7F6FA0220FFF781
:1050900019FB0020FFF700FB0520FFF741FB502024
:1050A000FFF726FB0520FFF751FB0220FFF764FB0B
:1050B0000220FFF777FBFFF7BBFA00BFFFF7C8FA44
:1050C0000346012BFAD1FFF7A7FB0320FFF7CAFB2A
:1050D0000020FFF7B1FB2020FFF7F2FB8120FFF754
:1050E000D7FB0220FFF702FC0220FFF715FC02208D
:1050F000FFF728FCFFF76CFB00BFFFF779FB0346C7
:10510000012BFAD100BF00BF80BD000080B594B074
:1051100000AF07F1400300221A605A609A6007F15D
:10512000280300221A605A609A60DA601A615A6194
:1051300007F1180300221A605A609A60DA603B4651
:1051400000221A605A609A60DA601A615A6100207F
:10515000FFF756F92020FFF70BFC0420FFF724FC93
:105160000120FFF721FC01233B6003237B60002328
:105170003B613B461946304802F041FE4FF040701B
:10518000FFF782FC00212D48FEF710FE00233B6450
:105190000023BB6407F140031946284802F01CFFB6
:1051A0000023BB620023FB6200233B6300237B637D
:1051B0000023FB6307F128031946204802F064FF2F
:1051C0000023BB610023FB6107F1180319461C484B
:1051D00002F0AAFE1948FEF7FFFD1848FEF70EFE82
:1051E000184B1B689B09184AA2FB03239A09134614
:1051F0009B0013445B001A46144BA3FB0223DB08FD
:10520000FB6402E0FB6C013BFB64FB6C002BF9D1FF
:105210000F4A06210948FEF732FD00220C490748D3
:10522000FEF759FD40F2FF7209490448FEF77EFD82
:1052300000BF5037BD4680BD000802580020024024
:105240000023024084050024632D3E05CDCCCCCC48
:105250000200300480B58AB000AF07F118030022C5
:105260001A605A609A603B4600221A605A609A603F
:10527000DA601A615A610020FFF7C2F82020FFF7B8
:1052800077FB0120FFF790FB4FF04070FFF7FCFB2E
:1052900000212748FEF78AFD0023BB6100233B6203
:1052A00007F118031946224802F096FE00233B60DE
:1052B00000237B600023BB600023FB6000237B6135
:1052C0003B4619461A4802F0DFFE1948FEF784FDF6
:1052D0001748FEF793FD174B1B689B09164AA2FB64
:1052E00003239A0913469B0013445B001A46134B91
:1052F000A3FB0223DB087B6202E07B6A013B7B624B
:105300007B6A002BF9D1012206210948FEF7B7FC80
:10531000002201210648FEF7DEFC40F2FF72012167
:105320000348FEF703FD00BF2837BD4680BD00BF20
:105330000021024084050024632D3E05CDCCCCCC59
:1053400080B594B000AF07F1400300221A605A60A4
:105350009A6007F1280300221A605A609A60DA60A6
:105360001A615A6107F1180300221A605A609A60A4
:10537000DA603B4600221A605A609A60DA601A616D
:105380005A610020FFF73CF84FF08070FFF70CFBEC
:105390000420FFF709FB8020FFF706FB4FF0406079
:1053A000FFF772FB04233B6003237B6000233B6118
:1053B0003B4619462F4802F022FD00212E48FEF7F9
:1053C000F5FC00233B640023BB6407F1400319464E
:1053D000294802F001FE0023BB620023FB62002388
:1053E0003B6300237B630023FB6307F1280319461B
:1053F000214802F049FE0023BB610023FB6100232A
:105400003B6207F1180319461C4802F08DFD1A484B
:10541000FEF7E2FC1848FEF7F1FC194B1B689B09EC
:10542000184AA2FB03239A0913469B0013445B000E
:105430001A46154BA3FB0223DB08FB6402E0FB6C5E
:10544000013BFB64FB6C002BF9D1012206210A48C9
:10545000FEF715FC002201210748FEF73CFC40F254
:10546000FF7201210448FEF761FC00BF5037BD46C2
:1054700080BD00BF001C0258006002580063025843
:1054800084050024632D3E05CDCCCCCC80B58CB0FA
:1054900000AF07F1180300221A605A609A60DA60C0
:1054A0001A615A613B4600221A605A609A60DA60BB
:1054B0001A615A614FF00050FFF792FA0120FFF78E
:1054C00073FA20233B6003237B6000233B613B4650
:1054D00019460E4802F093FC0023BB610023FB61D8
:1054E00000237B620023BB620023FB6207F11803E9
:1054F0001A460749074805F046FB05490548FEF7E7
:1055000091FC00BF3037BD4680BD00BF000002588F
:10551000720040350074004080B582B000AF1D4B72
:105520001D4A1A6000233B7080237B70E123BB700F
:105530000023FB7000233B7100237B71154A3B461F
:105540005360144B01221A72124B144ADA60114B49
:10555000134A1A610F4B40F2F4525A610D4805F09C
:1055600077FB0346002B01D001F00BFA3422002117
:105570000C480EF09BF80B4B21221A60094B4FF49C
:1055800040325A61074B00221A6100BF0837BD46FE
:1055900080BD00BF980B0024008002403C06002420
:1055A000DC050024640B002480B500AF2E4B2F4A8D
:1055B0001A602D4B00229A602B4B0022DA602A4B96
:1055C00001221A74284B00225A74274B00229A7425
:1055D000254B0A225A61244B02229A61224B022255
:1055E000DA61214B02221A621F4B01225A621E4BC2
:1055F00001229A621C4B0122DA621B4B01221A63C0
:10560000194B00225A63184B00229A63164B002252
:10561000DA63154B01221A64134B05225A64124BAC
:1056200000229A64104B0422DA640F4B00221A65A0
:105630000D4B04225A650C4B00229A650A4B00223E
:10564000DA65094B01221A66074B00225A66064B9F
:1056500005229A66044805F017FF0346002B01D087
:1056600001F08FF900BF80BD200C002400A0004095
:1056700080B500AF2E4B2F4A1A602D4B00229A6046
:105680002B4B0022DA602A4B01221A74284B00228D
:105690005A74274B00229A74254B0A225A61244BD4
:1056A00002229A61224B0222DA61214B02221A6203
:1056B0001F4B01225A621E4B01229A621C4B01228F
:1056C000DA621B4B01221A63194B00225A63184BF2
:1056D00000229A63164B0022DA63154B01221A64EA
:1056E000134B05225A64124B00229A64104B042279
:1056F000DA640F4B00221A650D4B04225A650C4BDD
:1057000000229A650A4B0022DA65094B01221A66CB
:10571000074B00225A66064B05229A66044805F09C
:10572000B3FE0346002B01D001F02BF900BF80BD72
:10573000C00C002400A4004080B58EB000AF07F17B
:105740001C0300221A605A609A60DA601A615A617A
:105750009A613B1D00221A605A609A60DA601A61F1
:105760005A612248FEF741FE2020FFF71DF94FF451
:1057700040437B600223BB600023FB6001233B614D
:1057800001237B610423BB613B1D1946184802F0CD
:1057900036FB8020FFF75CF91648FEF7FFFC00227D
:1057A00000211448FEF7D2FC1248FEF7E7FC11482E
:1057B000FEF7BCFC0F48FEF7A9FC0023FB610E4B73
:1057C0003B6200237B620023BB620023FB62002359
:1057D0003B6300237B6307F11C031946054806F071
:1057E000BBFE00BF3837BD4680BD00BF0C080003BC
:1057F00000140258001C0058724E406080B59AB0E8
:1058000000AF07F134033422002118460DF04EFF9B
:105810003B463422002118460DF048FF4E4B4F4ABC
:105820001A604D4B00225A604B4B00229A604A4B43
:105830000022DA60484B00221A61474B07225A6166
:10584000454B03229A61444B0E22DA61424B0522FA
:105850001A62414B40F28E225A623F4B40F2E512EF
:105860009A623D4B4FF42572DA623B4B40F2E712ED
:105870001A63394B002283F83420374B002283F817
:105880003520354B002283F83620334806F0A0FE41
:105890000346002B01D001F074F800237B63002342
:1058A000BB630023FB6300233B6400237B64002372
:1058B000BB640023FB644FF480633B6505237B6579
:1058C0000023BB650023FB6500233B66002387F8AC
:1058D0006430002387F86530002387F8663007F1CD
:1058E0003403002219461C4806F042FF0346002BF1
:1058F00001D001F046F800233B6000237B600023C9
:10590000BB600023FB6000233B6100237B6100231D
:10591000BB614FF48063FB6105233B6200237B6224
:105920000023BB620023FB62002387F83030002392
:1059300087F83130002387F832303B460122194680
:10594000054806F015FF0346002B01D001F019F8B9
:1059500000BF6837BD4680BD600D002400100050B8
:1059600080B586B000AF3B4600221A605A609A604C
:10597000DA601A615A612A4B2A4A1A60284B0122BE
:105980005A60274B00229A60254B0022DA60244B94
:1059900020221A61224B01225A61214B00229A6176
:1059A0001F4B0022DA611E4B00221A621C4B01229F
:1059B0005A621B4B00229A62194B0022DA62184B82
:1059C00000221A63164B00225A63154B08229A6371
:1059D000134B0022DA63124B00221A64104807F0BE
:1059E0009FF80346002B01D000F0CBFF01237B6022
:1059F0000123BB604FF00113FB600B4B3B613B4647
:105A000041F288321946064807F096F90346002B02
:105A100001D000F0B6FF00BF1837BD4680BD00BF03
:105A2000080E0024005000520100000180B58AB029
:105A300000AF07F1100300221A605A609A60DA6022
:105A40001A615A613B4600221A605A609A60DA6015
:105A5000344B354A1A60334B01225A60314B0022D5
:105A60009A60304B4FF08062DA602E4B20221A6130
:105A70002C4B01225A612B4B00229A61294B0022A8
:105A8000DA61284B00221A62264B01225A62254B0A
:105A900000229A62234B0022DA62224B00221A6310
:105AA000204B00225A631F4B08229A631D4B002291
:105AB000DA631C4B00221A641A4807F031F80346D7
:105AC000002B01D000F05DFF02237B610223BB614C
:105AD000164BFB61164B3B6207F1100341F2883213
