:020000040800F2
:100000000000052409200108E5630008EB630008EF
:10001000F1630008F7630008FD63000800000000BA
:10002000000000000000000000000000411B01086B
:100030000364000800000000911D0108211601085A
:1000400059200108592001085920010859200108A8
:100050005920010859200108592001085920010898
:10006000592001085920010859200108116400088D
:100070001F6400085920010859200108592001086F
:100080005920010859200108592001088D2D000828
:10009000D52A0008592001085920010859200108D3
:1000A0005920010859200108592001085920010848
:1000B0002D64000859200108592001085920010821
:1000C0005920010859200108592001085920010828
:1000D0005920010859200108592001085920010818
:1000E000592001085920010800000000592001088A
:1000F00059200108592001085920010859200108F8
:1001000059200108592001085920010859200108E7
:1001100059200108592001085920010859200108D7
:1001200059200108592001085920010859200108C7
:1001300059200108592001085920010859200108B7
:1001400000000000000000000000000000000000AF
:100150005920010859200108592001085920010897
:100160005920010859200108592001085920010887
:100170005920010859200108592001085920010877
:100180005920010859200108592001085920010867
:100190005920010859200108592001085920010857
:1001A00059200108592001085920010800000000C9
:1001B0005920010859200108592001085920010837
:1001C000592001085920010800000000000000002B
:1001D000000000000000000059200108000000009D
:1001E000000000000000000000000000000000000F
:1001F00000000000000000005920010859200108FB
:100200005920010859200108000000005920010868
:1002100059200108416400084F6400085920010872
:1002200059200108000000005920010800000000CA
:100230005920010859200108000000005920010838
:1002400059200108592001085920010859200108A6
:100250005920010859200108592001085920010896
:100260005920010859200108592001085920010886
:1002700059200108592001085920010800000000F8
:100280005920010859200108592001085920010866
:1002900000000000592001085920010859200108D8
:1002A0005920010859200108592001085920010846
:1002B0005920010859200108592001085920010836
:0C02C000592001085D640008716400080A
:1002D0000348044B834202D0034B03B118477047D5
:1002E000B4050024B4050024000000000548064BB6
:1002F0001B1AD90F01EBA301491002D0034B03B124
:1003000018477047B4050024B4050024000000001D
:1003100010B5064C237843B9FFF7DAFF044B13B14D
:100320000448AFF300800123237010BD7806002439
:10033000000000003826010808B5054B1BB105492F
:100340000548AFF30080BDE80840FFF7CFBF00BF0E
:10035000000000007C0600243826010880B400AFAD
:10036000044BDB681B0A03F007031846BD465DF823
:10037000047B704700ED00E080B483B000AF03461B
:10038000FB80B7F90630002B0BDBFB8803F01F0264
:100390000749B7F906305B09012000FA02F241F87B
:1003A000232000BF0C37BD465DF8047B704700BFBB
:1003B00000E100E080B483B000AF03463960FB8009
:1003C000B7F90630002B0ADB3B68DAB20C49B7F903
:1003D00006301201D2B20B4483F800230AE03B68D6
:1003E000DAB20849FB8803F00F03043B1201D2B2D2
:1003F0000B441A7600BF0C37BD465DF8047B70478E
:1004000000E100E000ED00E080B489B000AFF860EA
:10041000B9607A60FB6803F00703FB61FB69C3F115
:100420000703042B28BF0423BB61FB690433062B9D
:1004300002D9FB69033B00E000237B614FF0FF32F0
:10044000BB6902FA03F3DA43BB681A407B699A403E
:100450004FF0FF317B6901FA03F3D9437B680B400E
:10046000134318462437BD465DF8047B70470000EF
:1004700080B584B000AF0346FB710023FB60FB79BD
:10048000002B02D0012B24D047E0314BFB60FB68EE
:100490001B79002B44D1FB682E4A1A60FFF75EFFE0
:1004A0000346002200211846FFF7AEFF0346194617
:1004B0001320FFF77FFF1320FFF75EFF01220121CA
:1004C00024480BF01DFA0022012122480BF04EFABD
:1004D00026E0214BFB60FB681B79002B22D1FB68D7
:1004E0001E4A1A60FFF73AFF034600220021184611
:1004F000FFF78AFF034619461420FFF75BFF14201D
:10050000FFF73AFF0122012114480BF0F9F900220C
:10051000012112480BF02AFA04E00023FB6002E0FC
:1005200000BF00E000BFFB68002B0CD0FB681B790C
:10053000002B08D1FB6801221A71FB6800225A7156
:10054000FB6800229A71FB6818461037BD4680BDD3
:1005500094060024AC0B00249C0600244C0C0024C0
:1005600080B590B000AFF860B9607A60FB7000238E
:10057000FB63FB68002B00F0FE80FB681B79012BFE
:1005800040F0F980FB681B68BB63FB78002B04D14B
:100590007B687B610023BB6104E07B687B614FF07B
:1005A0008043BB6197F84830002B01D1002301E064
:1005B0004FF00053FB6197F85830002B01D1002316
:1005C00001E04FF48013BB6297F85430002B01D147
:1005D000002301E04FF40013FB62FB6C3B62FB6CF9
:1005E000082B40F28F80FB6C0C3B342B00F28E808A
:1005F00001A252F823F000BFCD0600080D07000845
:100600000D0700080D070008D50600080D070008B3
:100610000D0700080D070008DD0600080D0700089B
:100620000D0700080D070008E50600080D07000883
:100630000D0700080D0700080D0700080D0700084A
:100640000D0700080D070008ED0600080D0700085B
:100650000D0700080D0700080D0700080D0700082A
:100660000D0700080D0700080D0700080D0700081A
:100670000D0700080D0700080D0700080D0700080A
:100680000D0700080D070008F50600080D07000813
:100690000D0700080D0700080D0700080D070008EA
:1006A0000D0700080D0700080D0700080D070008DA
:1006B0000D0700080D0700080D0700080D070008CA
:1006C0000D0700080D070008FD0600084FF4102371
:1006D0003B621CE04FF420233B6218E04FF43023D0
:1006E0003B6214E04FF440233B6210E04FF4502390
:1006F0003B620CE04FF460233B6208E04FF4702350
:100700003B6204E0FB6C1B043B6200E000BF4FF463
:1007100000033B634FF000437B6209F021FFF86365
:1007200000BFBB6B1B68D3F8C43003F40013002B6D
:1007300007D00121F86B02F0A9FC02463B6D934201
:10074000EFD207F11403BA681946B86B0AF099FEA4
:100750000346002B07D0B86B0BF0C0F80246FB6DC8
:100760001A60012308E0B86B0BF0B8F80246FB6D85
:100770001A60002300E0002318464037BD4680BDC4
:1007800080B592B000AFF8607A603B600B46FB72B8
:1007900000237B61FB68002B00F0B680FB681B79AF
:1007A000012B40F0B180FB681B687B6409F0D8FE28
:1007B00003467B61FB7A402B25D0FB7A412B22D06C
:1007C0000AE07B690121184602F060FC0246BB6E1C
:1007D000934201D2012398E0FB7A1946786C0BF022
:1007E00019F80346002BECD00DE07B690121184677
:1007F00002F04CFC0246BB6E934204D2FB6E002218
:100800001A60012381E0F97A07F118027B68786C9D
:100810000AF092FE0346002BE7D1BA693B681A60E2
:10082000FB69002B14BF01230023DBB21A463B6D8A
:100830001A70FB6A002B14BF01230023DBB21A4697
:100840003B6E1A703B6B002B14BF01230023DBB2FD
:100850001A467B6E1A703B6ADAB27B6D1A707B6A3D
:100860001B0C87F8433097F84330082B32D997F8A0
:100870004330093B062B32D801A252F823F000BFC7
:100880009D080008A5080008AD080008B508000884
:10089000BD080008C5080008CD080008BB6D0C2283
:1008A0001A701DE0BB6D10221A7019E0BB6D142286
:1008B0001A7015E0BB6D18221A7011E0BB6D202272
:1008C0001A700DE0BB6D30221A7009E0BB6D40223A
:1008D0001A7005E0BB6D97F843201A7000E000BF66
:1008E0007B6ADAB2FB6D1A70FB7A402B02D0FB7A7E
:1008F000412B07D1FB7A1946786C0AF0D1FF0246EA
:10090000FB6E1A60002300E0002318464837BD46FE
:1009100080BD00BF80B584B000AF78607B68002BDD
:1009200009D07B681B79012B05D17B681B68FB60B4
:10093000F8680AF0B3FC00BF1037BD4680BD000068
:1009400080B483B000AF0346FB71FB79012B02D06A
:10095000022B02D003E0054B02E0054B00E0002330
:1009600018460C37BD465DF8047B7047AC0B00247D
:100970004C0C002480B588B002AFB9607A603B604F
:100980000346FB73FB7B1846FFF7DAFF78617B6950
:10099000002B07D03B6A00933B687A68B968786996
:1009A0000AF0A0FC00BF1837BD4680BD80B483B0FC
:1009B00000AF03463960FB80B7F90630002B0ADB35
:1009C0003B68DAB20C49B7F906301201D2B20B44D7
:1009D00083F800230AE03B68DAB20849FB8803F099
:1009E0000F03043B1201D2B20B441A7600BF0C373E
:1009F000BD465DF8047B704700E100E000ED00E0DB
:100A000080B584B000AFF860B9607A60FB689BB2D3
:100A10000F3B9BB21BB279681846FFF7C7FF00BFB8
:100A20001037BD4680BD000080B584B000AF78604F
:100A30007B681B68FB60FB680133BB600DE0FB68F3
:100A40009B000D4A1344184602F06CFD0B4B1B68CB
:100A5000002B08D1B86801F047FE094B1B78DBB2C8
:100A6000002BECD100E000BF002002F0E2FC0023EC
:100A700018461037BD4680BDB0060024D8060024B5
:100A80000000002480B582B000AF78601A4B1B686C
:100A90001B68002B0CBF01230023DBB21A46174B47
:100AA0001A7018E0164802F03DFD134B1B685B7A84
:100AB000002B02D1134802F053FD002001F014FE78
:100AC0000D4B1B681B68002B14BF01230023DBB2F6
:100AD0001A460D4B1A70094B1B78DBB2002BE1D183
:100AE000786800F013F8002002F0A3FC00231846F9
:100AF0000837BD4680BD00BFC8260108000000249D
:100B0000AC060024B0060024A406002490B58BB0E7
:100B100004AF7860354B01221A6000237B612CE022
:100B20007B699B00324A1344184602F019FD0346C4
:100B3000002B0AD04FF0500383F31188BFF36F8F5F
:100B4000BFF34F8F3B6100BFFEE77B699B00284AE4
:100B50001344184602F022FD0346002B0AD04FF042
:100B6000500383F31188BFF36F8FBFF34F8FFB6088
:100B700000BFFEE77B6901337B617B69002BCFDD22
:100B800000237B6122E01B497A691346DB009B1A34
:100B90009B000B44184A03926C4603F1100207CAEB
:100BA00084E807000FCB02F04FFC0346002B0AD06D
:100BB0004FF0500383F31188BFF36F8FBFF34F8F54
:100BC000BB6000BFFEE77B6901337B617B69002B63
:100BD000D9DD0A4B00221A7001F0EAFE084802F043
:100BE000BFFC002318461C37BD4690BDD806002424
:100BF000B0060024DC060024D406002400000024F3
:100C0000A806002480B584B002AF78603960314B0B
:100C100027221A6009F054FC03F0EAFE03F05EFF9D
:100C200005F002FA03F09EFF04F040F804F0B4F877
:100C300004F058F904F09CF904F0E2F904F044FAE5
:100C400004F0A6FA04F006FB04F0B6FB04F01AFC6C
:100C500004F09CFC04F058FD04F0F6FD04F09AFE4C
:100C600005F07AF805F014F905F0B7F905F0AEF9DA
:100C700004F0FCFE04F05CFF04F092FF04F0C8FFF7
:100C800005F018F804F02AFF012300930123022243
:100C900000210120FFF76EFE0123009301230222B1
:100CA00000210220FFF766FE0B4B1B6800221A6032
:100CB00001F0F8FE01F02EFD01209FED080A02F080
:100CC00049FA074802F02EFC002318460837BD46B3
:100CD00080BD00BFF8060024C82601080AD7A33C3F
:100CE000A806002480B483B000AF0346FB80B7F9A8
:100CF0000630002B0BDBFB8803F01F020749B7F916
:100D000006305B09012000FA02F241F8232000BFFF
:100D10000C37BD465DF8047B704700BF00E100E082
:100D200080B582B000AF78607B68002B08D07B680C
:100D30001B79012B04D17B681B6818460AF0FFFA67
:100D400000BF0837BD4680BD80B400AF084B5A7A5B
:100D50000132D2B25A72064B5B7A092B02D9044B8C
:100D600000225A7200BFBD465DF8047B704700BF89
:100D7000C00A002480B483B000AF78607B68002292
:100D80001A727B6801225A607B6801221A637B68B1
:100D900001225A637B6800229A637B6800229A636F
:100DA0007B6803F138027B68DA627B6801221A7281
:100DB0007B6800225A7200BF0C37BD465DF8047B89
:100DC0007047000080B582B000AF78607B68002279
:100DD0005A607B684FF0FF321A637B684FF0FF3236
:100DE0005A637B6800221A707B68012283F8A02076
:100DF0007B681846FFF7BEFF7B68DB6A1B68012B28
:100E00001ED17B68D96A4FF000024FF00003C1E9A0
:100E100002237B68DB6A103348220021184611F058
:100E20001BFB7B68D96A4FF00002074BC1E9162310
:100E30007B68D96A4FF000024FF00003C1E9182324
:100E400000BF0837BD4680BD0000F03F80B5A0B0B0
:100E500000AF87ED020B786039603B685B7A002B4E
:100E600002D03B6800225A723B68DB6A1B68012B88
:100E700049D03B68DB6A00221A713B68DB6A0122B9
:100E80001A603B68D96A4FF000024FF00003C1E9D5
:100E900002233B68DB6A103348220021184611F018
:100EA000DBFA3B68D96A4FF000028C4BC1E916238C
:100EB0003B68D96A4FF000024FF00003C1E91823E4
:100EC0003B68DB6A01221A713B68D96A4FF0000265
:100ED0004FF00003C1E902233B68DB6A103348226C
:100EE0000021184611F0B8FA3B68D96A4FF00002A9
:100EF0007A4BC1E916233B68D96A4FF000024FF0E4
:100F00000003C1E918233B68DB6AD3E91623C7E96C
:100F10001C233B68DB6AD3E90223C7E91E230023B5
:100F20007B6611E03B68DA6A7B6E0233DB001344B8
:100F3000D3E90023796EC900803139447039C1E9A1
:100F400000237B6E01337B667B6E082BEADD3B68FA
:100F5000DB6AD3E91823C7E916234FF000024FF0EC
:100F60000003C7E91A2379684FF000024FF000032D
:100F7000C1E9002397ED1E6B97ED027B36EE077BF0
:100F800087ED1E7B97ED167BB5EE407BF1EE10FAF8
:100F900012D197ED1C7BFDEEC77B17EE903A013B1B
:100FA000DB0080333B44703B93ED007B97ED1E6B81
:100FB00036EE077B87ED1A7B97ED1C7BFDEEC77B3A
:100FC00017EE903A013BDB0080333B44A3F1700104
:100FD000D7E90223C1E9002397ED1C7BB2EE026B37
:100FE000B4EE467BF1EE10FA08D097ED1C7BB7EE1D
:100FF000006B37EE067B87ED1C7B2BE04FF0000289
:10100000364BC7E91C234FF000024FF00003C7E93D
:101010001E2307237B661AE07B6EDB0080333B4494
:10102000703B93ED006B7B6E0133DB0080333B4400
:10103000703B93ED007B36EE077B7B6EDB008033ED
:101040003B44703B83ED007B7B6E013B7B667B6E9C
:10105000002BE1DA97ED167BB5EE407BF1EE10FA4E
:1010600008D197ED1A6BB2EE045B86EE057B7B68C8
:1010700083ED007B3B68D96AD7E91E23C1E90223CF
:101080003B68DB6A103307F110014822184611F063
:101090006DFA3B68D96AD7E91C23C1E9162397ED9D
:1010A000167BB5EEC07BF1EE10FA0ADD3B68DB6A19
:1010B00097ED167BB7EE006B37EE467B83ED187B22
:1010C00007E03B68D96A4FF000024FF00003C1E926
:1010D000182300BF8037BD4680BD00BF0000F03F31
:1010E00080B483B000AF78607B681B78002B1BD185
:1010F0007B6801221A707B685B68012B14D17B68C6
:101100001B7A002B10D07B68DB6A1B68012B03D194
:101110007B68DB6A02221A607B684FF0FF321A6339
:101120007B684FF0FF325A6300BF0C37BD465DF855
:10113000047B704780B582B000AF78607B68002286
:101140001A707B6801221A747B6801225A600120A0
:10115000FFF78EF902467B68DA607B68DB68184629
:10116000FFF7DEFD7B6801221A7200BF0837BD461B
:1011700080BD80B58AB006AF786039603B68D868BA
:1011800007F10C03059300230493002303934FF40A
:101190007A7302930323019300230093002340F208
:1011A00011227968FFF7DCF900BF1037BD4680BD1A
:1011B00080B582B000AF78607B681B78002B0FD1C0
:1011C0007B6801221A707B685B68012B08D17B6801
:1011D0001B7A002B04D07B68DB681846FFF79AFB6C
:1011E00000BF0837BD4680BD80B582B000AF7860D3
:1011F0007B6800221A707B6801221A747B680122C6
:101200005A600120FFF734F902467B68DA607B6898
:10121000DB681846FFF784FD7B6801221A7200BF65
:101220000837BD4680BD80B58AB006AF78603960AA
:101230003B68D86807F10C0305930023049300234F
:1012400003934FF47A7302930323019300230093D3
:1012500000234FF404727968FFF782F900BF10375A
:10126000BD4680BD80B582B000AF78607B681B78DA
:10127000002B0FD17B6801221A707B685B68012B01
:1012800008D17B681B7A002B04D07B68DB6818468A
:10129000FFF740FB00BF0837BD4680BD00000000DF
:1012A00080B592B000AFFFF74FFDB74B93EDCA7B0F
:1012B000B0EE470B10F0FCFE87ED0A0B97ED0A0B22
:1012C00001F0AEFE0346002B06D197ED0A0B01F0AC
:1012D00081FE0346002B06D04FF000024FF00003C2
:1012E000C7E90A2307E09FEDA41B97ED0A0B10F056
:1012F000B7FE87ED0A0B97ED0A7BB5EEC07BF1EEEA
:1013000010FA0BD597ED0A7BB1EE477BFCEEC77B5D
:1013100017EE903A9BB25B429BB206E097ED0A7BD8
:10132000FCEEC77B17EE903A9BB2984AA2F8F030D9
:10133000964BB3F8F0301B0A9BB21AB2934BB3F83A
:10134000F0301B021BB213431BB29AB28F4BA3F8AF
:10135000F2208D4B93EDCC7BB0EE470B10F0A8FE46
:1013600087ED0A0B97ED0A0B01F05AFE0346002B9E
:1013700006D197ED0A0B01F02DFE0346002B06D097
:101380004FF000024FF00003C7E90A2307E09FED8A
:101390007A1B97ED0A0B10F063FE87ED0A0B97EDB1
:1013A0000A7BB5EEC07BF1EE10FA0BD597ED0A7B08
:1013B000B1EE477BFCEEC77B17EE903A9BB25B42E7
:1013C0009BB206E097ED0A7BFCEEC77B17EE903AE6
:1013D0009BB26E4AA2F8F4306C4BB3F8F4301B0A9F
:1013E0009BB21AB2694BB3F8F4301B021BB2134321
:1013F0001BB29AB2654BA3F8F620634B93EDCE7BFC
:10140000B0EE470B10F054FE87ED0A0B97ED0A0B78
:1014100001F006FE0346002B06D197ED0A0B01F002
:10142000D9FD0346002B06D04FF000024FF0000319
:10143000C7E90A2307E09FED521B97ED0A0B10F056
:101440000FFE87ED0A0B97ED0A7BB5EEC07BF1EE40
:1014500010FA0CD597ED0A7BB1EE477BFCEEC77B0B
:10146000C7ED017A3B79DBB25B42DBB207E097ED77
:101470000A7BFCEEC77BC7ED017A3B79DBB2434ABE
:1014800082F8263100233B620023FB83404BBB6183
:101490000223FB83BA693B6A1344FA8B3D49184621
:1014A00011F064F83C493D48FFF7BDFE364B93ED23
:1014B000D07BB0EE470B10F0FBFD87ED0A0B97EDEC
:1014C0000A0B01F0ADFD0346002B06D197ED0A0B88
:1014D00001F080FD0346002B06D04FF000024FF0D4
:1014E0000003C7E90A2307E09FED251B97ED0A0BD0
:1014F00010F0B6FD87ED0A0B97ED0A7BB5EEC07BC9
:10150000F1EE10FA0CD597ED0A7BB1EE477BFCEEBD
:10151000C77BC7ED017A3B79DBB25B42DBB207E008
:1015200097ED0A7BFCEEC77BC7ED017A3B79DBB216
:10153000164A82F8293100237B6100237B82184BF5
:10154000FB6002237B82FA687B6913447A8A15491F
:10155000184611F00BF814491448FFF70AFE0A4B1D
:1015600093F83535012B23D1074B03F58463D3E979
:101570000023C7E90A2322E0000000000000F04039
:101580000000000000007040080000240007002454
:1015900027080024F2070024480900242608002414
:1015A0002A080024F60700245C09002429080024E6
:1015B000714B03F5866353E90223C7E90A236E4B97
:1015C00003F5906313ED027B97ED0A6BB4EEC76BE6
:1015D000F1EE10FA06DD4FF000024FF00003C7E90C
:1015E0000C2306E0644B03F58A6353E90223C7E941
:1015F0000C23624B93F8D830002B02D000237B627F
:1016000006E05F4B5A685D4BD3F89830D31A7B6283
:101610005B4B5B68594AC2F89830584B002283F8FC
:10162000D820564B93ED1E6B534B93ED867BB4EE57
:10163000C76BF1EE10FA17DA504B93ED1E6B4E4B61
:1016400093ED887BB4EEC76BF1EE10FA94BF0123E3
:101650000023DBB283F00103DBB2002B06D0474B43
:1016600093F8D930002B01D0012300E00023DAB237
:10167000424B83F8D920414B93ED1E7B41494248B0
:10168000B0EE470BFFF7E2FB3C4B93F8DA30002B50
:1016900009D03A4B002283F8DA20374BD3E9A22352
:1016A000C7E9102304E0394BD3E94E23C7E91023DF
:1016B000314B93ED927B97ED0C6BB4EEC76BF1EE73
:1016C00010FA04DDD7E90C23C7E90A2304E02A4B0A
:1016D000D3E94E23C7E90A23274B93ED906B97ED8F
:1016E0000A7B26EE076B254B93ED127B36EE477B8C
:1016F00087ED0A7B204B93ED967B97ED0A6BB4EE5A
:10170000C76BF1EE10FA05DD1B4BD3E99623C7E951
:101710000A230EE0184B93ED987B97ED0A6BB4EE1D
:10172000C76BF1EE10FA04D5134BD3E99823C7E940
:101730000A23164B93ED4E6B97ED0A7B26EE076B53
:101740000E4B93ED204B0C4B93ED9C5B84EE057B95
:1017500036EE477B87ED0A7B074B93ED9E7B97ED3B
:101760000A6BB4EEC76BF1EE10FA11DD024BD3E950
:101770009E23C7E90A231AE0080000244008002439
:10178000C00A0024180A0024380800240007002496
:10179000884B93EDA07B97ED0A6BB4EEC76BF1EE2F
:1017A00010FA04D5834BD3E9A023C7E90A2397EDA8
:1017B0000A5B97ED106B85EE067B87ED0E7B7E4B0B
:1017C00093F8D630002B16D17B4B93ED146B794BED
:1017D00093EDA45B7B6A07EE903AB8EE677B25EE4B
:1017E000075B754B93ED227B25EE077B36EE077B7F
:1017F000714B83ED147B6F4B93ED047B97ED0E6B78
:1018000026EE077B87ED107B6A4B93ED006B97ED1F
:101810000E7B26EE076B684B93ED147B36EE476B21
:10182000644B93ED107B26EE077B634B83ED227BAD
:10183000604B93ED146B97ED0E7B26EE076B5E4BC2
:1018400093ED167B36EE076B5B4B93ED227B36EE0A
:10185000077B594B83ED127B574B93ED1E6B554B1A
:1018600093EDB47BB4EEC76BF1EE10FA17DA524B7E
:1018700093ED1E6B4F4B93EDB67BB4EEC76BF1EE61
:1018800010FA94BF01230023DBB283F00103DBB223
:10189000002B06D0484B93F8DB30002B01D00123FE
:1018A00000E00023DAB2444B83F8DB20424B93ED97
:1018B0001E7B42494248B0EE470BFFF7C7FA3E4B4A
:1018C00093F8DC30002B09D03B4B002283F8DC205E
:1018D000384BD3E9C423C7E90E2304E0394BD3E9DD
:1018E0004C23C7E90E23334B93EDAA7B97ED0C6B8A
:1018F000B4EEC76BF1EE10FACCBF01230023DBB2CC
:1019000083F00103DBB2002B04D02A4BD3E9802300
:10191000C7E90C23274B93EDA86B97ED0C7B26EEC4
:10192000076B254B93ED187B36EE477B87ED0A7BE3
:10193000204B93EDAE7B97ED0A6BB4EEC76BF1EEE7
:1019400010FA05DD1B4BD3E9AE23C7E90A230EE0ED
:10195000184B93EDB07B97ED0A6BB4EEC76BF1EECD
:1019600010FA04D5134BD3E9B023C7E90A23154B6A
:1019700093ED4C6B97ED0A7B26EE076B0E4B93EDC8
:10198000204B0C4B93EDBE5B84EE057B36EE477B24
:1019900087ED0A7B074B93EDC07B97ED0A6BB4EEA6
:1019A000C76BF1EE10FA0FDD024BD3E9C023C7E994
:1019B0000A2318E0080000244008002470090024CD
:1019C0003008002400070024464B93EDC27B97EDBE
:1019D0000A6BB4EEC76BF1EE10FA04D5414BD3E9B4
:1019E000C223C7E90A2397ED0A5B97ED0E6B85EEDC
:1019F000067B87ED0C7B3C4B93F8D730002B16D140
:101A0000394B93ED1A6B374B93EDC65B7B6A07EE50
:101A1000903AB8EE677B25EE075B334B93ED247B62
:101A200025EE077B36EE077B2F4B83ED1A7B2D4B84
:101A300093ED026B97ED0C7B26EE076B2A4B93ED33
:101A40001A7B36EE476B274B93ED127B26EE077B16
:101A5000254B83ED247B234B93ED166B97ED0C7B8D
:101A600026EE076B204B93ED1C7B36EE076B1E4B6F
:101A700093ED247B36EE077B1B4B83ED187B1A4BD3
:101A8000002283F8D620184B93ED166B154B93ED7F
:101A9000A65B97ED107B25EE077B36EE077B124B9E
:101AA00083ED167B104B002283F8D7200E4B93ED6D
:101AB0001C6B0C4B93ED065B97ED0C7B25EE075BE7
:101AC000084B93EDC87B25EE077B36EE077B064B74
:101AD00083ED1C7B054B5A6801325A6000BF4837C2
:101AE000BD4680BD0800002440080024C00A002430
:101AF00080B5A8B006AFBA4BB3F8C4309AB2B94BB0
:101B0000A3F8D020B84B93F83635012B07D1B64B4C
:101B100003F58263D3E90023C7E9202306E0B24B33
:101B200003F5846353E90223C7E92023AC4BB3F8E0
:101B3000C6309AB2AB4BA3F8D420A94BB3F8C83047
:101B40009AB2A84BA3F8D820A54BB3F8CA309AB2E2
:101B5000A44BA3F8DC20A24BB3F8CC309AB2A14B33
:101B6000A3F8E0209E4BB3F8CE309AB29D4BA3F879
:101B7000E4209B4BB3F8D0309AB29A4BA3F8E820FC
:101B8000974BB3F8D2309AB2964BA3F8EC20964B11
:101B900003F5966393ED007B97ED206BB4EEC76B76
:101BA000F1EE10FACCBF01230023DBB283F0010376
:101BB000DBB2002B44D08C4B03F58A6393ED007BA2
:101BC000B0EE470B10F074FA87ED1E0B97ED1E0B6D
:101BD00001F026FA0346002B06D197ED1E0B01F00B
:101BE000F9F90346002B06D04FF000024FF0000336
:101BF000C7E91E2307E09FED781B97ED1E0B10F041
:101C00002FFA87ED1E0B97ED1E7BB5EEC07BF1EE34
:101C100010FA0BD597ED1E7BB1EE477BFCEEC77B30
:101C200017EE903A9BB25B429BB206E097ED1E7BAB
:101C3000FCEEC77B17EE903A9BB26A4AA2F8D0300E
:101C4000684BB3F8D0301B0A9BB21AB2654BB3F89D
:101C5000D0301B021BB213431BB29AB2614BA3F8E4
:101C6000D220614B03F5986313ED027B97ED206B57
:101C7000B4EEC76BF1EE10FACCBF01230023DBB248
:101C800083F00103DBB2002B44D0574B03F58C6388
:101C900013ED027BB0EE470B10F00AFA87ED1E0B36
:101CA00097ED1E0B01F0BCF90346002B06D197ED12
:101CB0001E0B01F08FF90346002B06D04FF00002F7
:101CC0004FF00003C7E91E2307E09FED431B97ED8C
:101CD0001E0B10F0C5F987ED1E0B97ED1E7BB5EEC0
:101CE000C07BF1EE10FA0BD597ED1E7BB1EE477B72
:101CF000FCEEC77B17EE903A9BB25B429BB206E0CC
:101D000097ED1E7BFCEEC77B17EE903A9BB2354AEF
:101D1000A2F8D430334BB3F8D4301B0A9BB21AB2BA
:101D2000304BB3F8D4301B021BB213431BB29AB230
:101D30002C4BA3F8D6202C4B03F5986393ED007B36
:101D400097ED206BB4EEC76BF1EE10FACCBF012318
:101D50000023DBB283F00103DBB2002B50D0224B17
:101D600003F58C6393ED007BB0EE470B10F0A0F908
:101D700087ED1E0B97ED1E0B01F052F90346002B69
:101D800006D197ED1E0B01F025F90346002B06D076
:101D90004FF000024FF00003C7E91E2307E09FED5C
:101DA0000E1B97ED1E0B10F05BF987ED1E0B97EDE8
:101DB0001E7BB5EEC07BF1EE10FA17D597ED1E7BBA
:101DC000B1EE477BFCEEC77B17EE903A9BB25B42CD
:101DD0009BB212E0AFF30080000000000000F04072
:101DE00040080024000700240800002497ED1E7B13
:101DF000FCEEC77B17EE903A9BB29D4AA2F8D83012
:101E00009B4BB3F8D8301B0A9BB21AB2984BB3F86D
:101E1000D8301B021BB213431BB29AB2944BA3F8E7
:101E2000DA20944B03F59A6313ED027B97ED206B58
:101E3000B4EEC76BF1EE10FACCBF01230023DBB286
:101E400083F00103DBB2002B44D08A4B03F58E6391
:101E500013ED027BB0EE470B10F02AF987ED1E0B55
:101E600097ED1E0B01F0DCF80346002B06D197ED31
:101E70001E0B01F0AFF80346002B06D04FF0000216
:101E80004FF00003C7E91E2307E09FED771B97ED96
:101E90001E0B10F0E5F887ED1E0B97ED1E7BB5EEDF
:101EA000C07BF1EE10FA0BD597ED1E7BB1EE477BB0
:101EB000FCEEC77B17EE903A9BB25B429BB206E00A
:101EC00097ED1E7BFCEEC77B17EE903A9BB2684AFB
:101ED000A2F8DC30664BB3F8DC301B0A9BB21AB2B6
:101EE000634BB3F8DC301B021BB213431BB29AB234
:101EF0005F4BA3F8DE205F4B03F59A6393ED007B05
:101F000097ED206BB4EEC76BF1EE10FACCBF012356
:101F10000023DBB283F00103DBB2002B44D0554B2E
:101F200003F58E6393ED007BB0EE470B10F0C0F825
:101F300087ED1E0B97ED1E0B01F072F80346002B88
:101F400006D197ED1E0B01F045F80346002B06D095
:101F50004FF000024FF00003C7E91E2307E09FED9A
:101F6000421B97ED1E0B10F07BF887ED1E0B97EDD3
:101F70001E7BB5EEC07BF1EE10FA0BD597ED1E7B04
:101F8000B1EE477BFCEEC77B17EE903A9BB25B420B
:101F90009BB206E097ED1E7BFCEEC77B17EE903AF6
:101FA0009BB2334AA2F8E030314BB3F8E0301B0A61
:101FB0009BB21AB22E4BB3F8E0301B021BB2134394
:101FC0001BB29AB22A4BA3F8E2202A4B03F59C637A
:101FD00013ED027B97ED206BB4EEC76BF1EE10FAB8
:101FE000CCBF01230023DBB283F00103DBB2002B63
:101FF0004CD0204B03F5866393ED007BB0EE470B8E
:1020000010F056F887ED1E0B97ED1E0B01F008F847
:102010000346002B06D197ED1E0B00F0DBFF0346B5
:10202000002B06D04FF000024FF00003C7E91E233B
:1020300007E09FED0D1B97ED1E0B10F011F887EDDB
:102040001E0B97ED1E7BB5EEC07BF1EE10FA13D59B
:1020500097ED1E7BB1EE477BFCEEC77B17EE903A07
:102060009BB25B429BB20EE0000000000000F0401B
:10207000000700240800002497ED1E7BFCEEC77BC0
:1020800017EE903A9BB2684AA2F8E430664BB3F878
:10209000E4301B0A9BB21AB2634BB3F8E4301B0264
:1020A0001BB213431BB29AB25F4BA3F8E6205F4BFF
:1020B00003F59C6393ED007B97ED206BB4EEC76B4B
:1020C000F1EE10FACCBF01230023DBB283F0010351
:1020D000DBB2002B44D0554B03F5886313ED027B34
:1020E000B0EE470B0FF0E4FF87ED1E0B97ED1E0BD4
:1020F00000F096FF0346002B06D197ED1E0B00F073
:1021000069FF0346002B06D04FF000024FF000039A
:10211000C7E91E2307E09FED421B97ED1E0B0FF052
:102120009FFF87ED1E0B97ED1E7BB5EEC07BF1EE9A
:1021300010FA0BD597ED1E7BB1EE477BFCEEC77B0B
:1021400017EE903A9BB25B429BB206E097ED1E7B86
:10215000FCEEC77B17EE903A9BB2334AA2F8E83008
:10216000314BB3F8E8301B0A9BB21AB22E4BB3F8CE
:10217000E8301B021BB213431BB29AB22A4BA3F8DE
:10218000EA202A4B03F59E6313ED027B97ED206B4B
:10219000B4EEC76BF1EE10FACCBF01230023DBB223
:1021A00083F00103DBB2002B4CD0204B03F5886396
:1021B00093ED007BB0EE470B0FF07AFF87ED1E0B1F
:1021C00097ED1E0B00F02CFF0346002B06D197ED78
:1021D0001E0B00F0FFFE0346002B06D04FF000025E
:1021E0004FF00003C7E91E2307E09FED0D1B97ED9D
:1021F0001E0B0FF035FF87ED1E0B97ED1E7BB5EE26
:10220000C07BF1EE10FA13D597ED1E7BB1EE477B44
:10221000FCEEC77B17EE903A9BB25B429BB20EE09E
:10222000000000000000F040000700240800002427
:1022300097ED1E7BFCEEC77B17EE903A9BB2B44A3B
:10224000A2F8EC30B24BB3F8EC301B0A9BB21AB2D6
:10225000AF4BB3F8EC301B021BB213431BB29AB264
:10226000AB4BA3F8EE2000233B670023A7F86E30AA
:10227000A84BBB660223A7F86E30BA6E3B6F1344BF
:10228000B7F86E20A449184610F070F900237B6659
:102290000023A7F86230A14BFB650223A7F8623048
:1022A000FA6D7B6E1344B7F862209D49184610F012
:1022B0005DF90023BB650023A7F85630994B3B65B9
:1022C0000223A7F856303A6DBB6D1344B7F8562079
:1022D0009549184610F04AF90023FB640023A7F83B
:1022E0004A30924B7B640223A7F84A307A6CFB6C2D
:1022F0001344B7F84A208E49184610F037F98D4B31
:10230000D86807F110030593002304930023039377
:102310004FF47A7302930823019300230093002360
:1023200008227C49FEF71CF900233B640023FB874D
:10233000814BBB630223FB87BA6B3B6C1344FA8F60
:102340007E49184610F012F900237B6300237B8638
:102350007B4BFB6202237B86FA6A7B6B13447A8E8B
:102360007849184610F002F90023BB620023FB8471
:10237000754B3B620223FB843A6ABB6A1344FA8CB6
:102380007249184610F0F2F80023FB6100237B83AA
:102390006F4B7B6102237B837A69FB6913447A8BE1
:1023A0006C49184610F0E2F8624BD86907F1100347
:1023B000059300230493002303934FF47A7302934D
:1023C0000823019300230093002309225A49FEF7B2
:1023D000C7F8584B93ED106B5F4B93EDF27B36EEE5
:1023E000077B544B83ED107B524B93ED106B5A4B94
:1023F00093EDF47BB4EEC76BF1EE10FA05DD564BAE
:10240000D3E9EC23C7E91E2304E0534BD3E9EE23C1
:10241000C7E91E2397ED1E7BB5EEC07BF1EE10FAE7
:1024200000DC51E14C4B93EDD27BB0EE470B0FF04B
:102430003FFE87ED1E0B97ED1E0B00F0F1FD0346EE
:10244000002B06D197ED1E0B00F0C4FD0346002BB8
:1024500006D04FF000024FF00003C7E91E2307E04B
:102460009FED291B97ED1E0B0FF0FAFD87ED1E0B5C
:1024700097ED1E7BB5EEC07BF1EE10FA0CD597ED13
:102480001E7BB1EE477BFCEEC77BC7ED017A3B7943
:10249000DBB25B42DBB207E097ED1E7BFCEEC77B55
:1024A000C7ED017A3B79DBB23B73224B93F8D43012
:1024B000052B02D905237B6703E01E4B93F8D4302C
:1024C0007B67254A7B6F6A33DB00134493ED007B07
:1024D000B0EE470B0FF0ECFD87ED1E0B97ED1E0BDA
:1024E00000F09EFD0346002B06D197ED1E0B00F079
:1024F00071FD0346002B31D04FF000024FF0000376
:10250000C7E91E2332E000BF000000000000704059
:102510000007002416080024D2070024180800240D
:10252000D60700241A080024DA0700241C08002417
:10253000DE070024400800241E080024E2070024CF
:1025400020080024E607002422080024EA070024CB
:1025500024080024EE070024080000249FED5C1BE3
:1025600097ED1E0B0FF07CFD87ED1E0B97ED1E7B8C
:10257000B5EEC07BF1EE10FA0CD597ED1E7BB1EEF7
:10258000477BFCEEC77BC7ED017A3B79DBB25B4250
:10259000DBB207E097ED1E7BFCEEC77BC7ED017A4F
:1025A0003B79DBB27B734C4B93F8D530052B02D9CA
:1025B00005237B6703E0484B93F8D5307B67474A98
:1025C0007B6F7033DB00134493ED007BB0EE470B61
:1025D0000FF06EFD87ED1E0B97ED1E0B00F020FD3A
:1025E0000346002B06D197ED1E0B00F0F3FC0346CB
:1025F000002B06D04FF000024FF00003C7E91E2366
:1026000007E09FED331B97ED1E0B0FF029FD87EDC3
:102610001E0B97ED1E7BB5EEC07BF1EE10FA0CD5CC
:1026200097ED1E7BB1EE477BFCEEC77BC7ED017AD1
:102630003B79DBB25B42DBB207E097ED1E7BFCEE41
:10264000C77BC7ED017A3B79DBB2BB7307F10C03A3
:1026500023491846FEF78DFD07F10C032149184662
:10266000FEF7E1FD1C4B93F8D4201C4B93F8333557
:102670001344DAB2184B83F8D420174B93F8D420C4
:10268000164B93F870309A4205D9144B93F82F25C6
:10269000114B83F8D420104B93F8D5200F4B93F8AF
:1026A00034351344DAB20C4B83F8D5200A4B93F837
:1026B000D5200A4B93F871309A4205D9074B93F80D
:1026C0003025054B83F8D52000BF8837BD4680BD37
:1026D00000000000000070404008002408000024B2
:1026E000340900242009002480B582B000AF78604E
:1026F0007B68002B03D07B68012B03D005E0FEF73D
:10270000CFFD02E0FFF7F4F900BF00BF0837BD4678
:1027100080BD000080B500AF9C4B03F59063D3E90A
:1027200000239B49C1E91E23984B03F5966353E9A7
:1027300002239749C1E92023944BB3F81025944B09
:10274000A3F8C420914BB3F81225914BA3F8C620EF
:102750008E4BB3F814258E4BA3F8C8208B4BB3F8DF
:1027600016258B4BA3F8CA20884BB3F81825884B45
:10277000A3F8CC20854BB3F81A25854BA3F8CE20BF
:10278000824BB3F81C25824BA3F8D0207F4BB3F8C3
:102790001E257F4BA3F8D2207D4B00221A707C4B64
:1027A00001225A600120FDF763FE0346784AD36098
:1027B000774BDB681846FEF7B3FA754B01221A72A5
:1027C000734B00221A74724B01225A610120FDF7EB
:1027D0004FFE03466E4AD3616D4BDB691846FEF728
:1027E0009FFA6B4B01221A76684BD3E9F0236849B4
:1027F000C1E91023654B93F83125654B83F8D4204C
:10280000624B93F83225624B83F8D5206148FEF77E
:1028100091FC6148FEF7E8FC5C4BB3F8FA245F4B8F
:10282000A3F8C820594BB3F800255C4BA3F8C4208B
:10283000564BB3F8FC24594BA3F8C620534BB3F8BE
:10284000F824564BA3F8CA20504BB3F8F424534B4A
:10285000A3F8CC204D4BB3F8F024504BA3F8CE2076
:102860004A4BB3F806254D4BA3F8C020474BB3F8AD
:1028700004254A4BA3F8C220454B002283F83020A0
:10288000434B01225A630120FDF7F2FD0346404A03
:10289000D3633F4BDB6B1846FEF742FA3C4B0122F9
:1028A00083F838203E48FEF79FFC3E48FEF742FC86
:1028B000374B012283F8DA20354B012283F8DC20E4
:1028C000324BD3E994233249C1E912232F4BD3E988
:1028D00008232F49C1E914232C4BD3E90C232C499D
:1028E000C1E91623294BD3E9AC232949C1E91823AF
:1028F000264BD3E90A232649C1E91A23234BD3E9FE
:102900000E232349C1E91C232748FEF75BFA274819
:10291000FEF758FA1E4B002283F820201C4B0122A0
:102920005A620020FDF7A4FD0346194AD362184BF2
:10293000DB6A1846FEF7F4F9154B012283F82820CC
:10294000124BB3F80825154BA3F8B0200F4BB3F882
:102950000A25124BA3F8B2200C4BB3F80C250F4BF1
:10296000A3F8B420094BB3F80E250C4BA3F8B620FE
:10297000074B012283F8D820054B012283F8D6208B
:10298000034B012283F8D72000BF80BD080000243C
:1029900040080024340900242009002400070024F2
:1029A000480900245C090024180A00247009002446
:1029B00080B500AF344B93F83030002B11D1324B3F
:1029C000012283F83020304B5B6B012B09D12E4B59
:1029D00093F83830002B04D02B4BDB6B1846FDF7F7
:1029E00099FF2A48FEF73EFC2948FEF7E1FB2948FB
:1029F000FEF776FB2848FEF773FB234B93F8203055
:102A0000002B11D1204B012283F820201E4B5B6A42
:102A1000012B09D11C4B93F82830002B04D01A4B02
:102A2000DB6A1846FDF776FF174B1B78002B0FD19A
:102A3000154B01221A70144B5B68012B08D1124B05
:102A40001B7A002B04D0104BDB681846FDF762FFA1
:102A50000D4B1B7C002B0FD10B4B01221A740A4B20
:102A60005B69012B08D1084B1B7E002B04D0064B61
:102A7000DB691846FDF74EFF0848FEF799FB08484A
:102A8000FEF7F0FB00BF80BD400800244809002489
:102A90005C090024180A0024700900243409002469
:102AA0002009002480B500AF042208492320FDF747
:102AB000A7FF1420FEF716F9032205492220FDF78F
:102AC0009FFF1320FEF70EF900BF80BDD52A000836
:102AD0008D2D000880B590B008AF9A4B5B6D03F068
:102AE0000103002B07D0974B1B6D03F00103002B54
:102AF00001D0012300E00023002B00F01981914B4D
:102B000001221A65904B1B78DBB2012B40F010813B
:102B10008E4BD86B3B1D0793012306938C4B05937B
:102B20008C4B04938C4B03938C4B02938C4B0193F3
:102B30008C4B00938C4B8D4A4021FDF721FE8C4B32
:102B4000002283F85C208A4B002283F85E20884BA9
:102B500000225A6686494FF000024FF00003C1E997
:102B60001A23834B93F85A30032B13D1804B1B6EDF
:102B7000B3F1FF3F0ED07E4B1B6EB3F5C87F09D17A
:102B80007B4B93F85930002B04D1032277497948C5
:102B90000FF0ECFC0023FB6100237B83764B7B6111
:102BA00002237B837A69FB6913447A8B1946734845
:102BB0000FF0DCFC6E4B93F85A30032B14D16C4BA6
:102BC0001B6EB3F1FF3F0FD0694B1B6E40F29112A9
:102BD000934209D1664B93F85930002B04D103225C
:102BE000624967480FF0C2FC00233B610023FB8170
:102BF000644BBB600223FB81BA683B691344FA89CA
:102C0000194661480FF0B2FC594B93F81031EB2B89
:102C100010D0EB2B2ADCA82B13D0A82B26DC8A2B78
:102C20001DD08A2B22DC4A2B01DC492B1EE05F2BB6
:102C30000ED01BE04E4BB3F8BC204D4BA3F8CE207A
:102C400014E04B4BB3F8BC20494BA3F8CC200DE06B
:102C5000474BB3F8BC20464BA3F8CA2006E0444BD0
:102C6000B3F8BC20424BA3F8C82000BF404B93F8F8
:102C70001331EB2B10D0EB2B2ADCA82B13D0A82B75
:102C800026DC8A2B1DD08A2B22DC4A2B01DC492B27
:102C90001EE05F2B0ED01BE0354BB3F8BE20344B4B
:102CA000A3F8C62014E0324BB3F8BE20304BA3F893
:102CB000C4200DE02E4BB3F8BE202D4BA3F8C2204C
:102CC00006E02B4BB3F8BE20294BA3F8C02000BF71
:102CD000274BB3F8CE201D4BA3F8C420244BB3F8E8
:102CE000C2201A4BA3F8D020214BB3F8C020174BB9
:102CF000A3F8D2201E4BB3F8CC20144BA3F8C62067
:102D00001B4BB3F8CA20114BA3F8C820184BB3F8DB
:102D1000C8200E4BA3F8CA20154BB3F8C6200B4BA6
:102D2000A3F8CC20124BB3F8C420084BA3F8CE2054
:102D3000BFF36F8F00BFBFF34F8F00BF00BF2037BF
:102D4000BD4680BD00A400400000002440080024CF
:102D5000580700245D0700245F0700245A07002459
:102D60005B07002459070024600700247007002433
:102D7000000700241008002411080024BC070024C8
:102D80001308002414080024BE07002480B59CB05A
:102D900008AF784B5B6D03F00103002B07D0754B38
:102DA0001B6D03F00103002B01D0012300E0002381
:102DB000002B00F0D5806F4B01221A656E4B1B78FB
:102DC000DBB2012B40F0CC806C4BD86A3B1D0793E3
:102DD000012306936A4B05936A4B04936A4B039352
:102DE0006A4B02936A4B01936A4B00936A4B6B4A9E
:102DF0004021FDF7C5FC624B00221A71604B002296
:102E00009A715F4B0022DA605D494FF000024FF08B
:102E10000003C1E904235A4B9B78082B11D1584B6E
:102E20009B68B3F1FF3F0CD0554B9B68012B08D139
:102E3000534B5B78002B04D10822584958480FF0B7
:102E400095FB0023FB640023A7F84A30554B7B64B5
:102E50000223A7F84A307A6CFB6C1344B7F84A2077
:102E6000194651480FF082FB00233B640023FB8787
:102E70004E4BBB630223FB87BA6B3B6C1344FA8F48
:102E800019464B480FF072FB3D4B9B78082B11D134
:102E90003B4B9B68B3F1FF3F0CD0394B9B68042B35
:102EA00008D1374B5B78002B04D108223B494148BD
:102EB0000FF05CFB00237B6300237B863D4BFB62B2
:102EC00002237B86FA6A7B6B13447A8E19463A4852
:102ED0000FF04CFB0023BB620023FB84374B3B62AB
:102EE0000223FB843A6ABB6A1344FA8C19463448BD
:102EF0000FF03CFB224B9B78082B11D1204B9B6899
:102F0000B3F1FF3F0CD01E4B9B68052B08D11C4B27
:102F10005B78002B04D1082220492A480FF026FBB9
:102F20000023FB6100237B83264B7B6102237B8391
:102F30007A69FB6913447A8B194623480FF016FB14
:102F400000233B610023FB81204BBB600223FB81FC
:102F5000BA683B691344FA8919461D480FF006FB0D
:102F6000BFF36F8F00BFBFF34F8F00BF00BF50375D
:102F7000BD4680BD00A000400000002440080024A1
:102F80000007002405070024070700240207002487
:102F90000307002401070024080700241807002461
:102FA000F8070024FC070024B0070024FE070024D3
:102FB000B207002400080024B407002402080024FB
:102FC000B607002408080024B80700240A080024D3
:102FD000BA07002480B483B000AF87ED000B0E4B1E
:102FE00093ED007B97ED006BB4EE476BF1EE10FABA
:102FF00009D00A4B93ED007B97ED006BB4EE476B65
:10300000F1EE10FA01D1012300E0002318460C373D
:10301000BD465DF8047B7047400500244805002448
:1030200080B483B000AF87ED000B97ED006B97ED98
:10303000007BB4EE476BF1EE10FA01D7012300E0FC
:10304000002318460C37BD465DF8047B704700002E
:1030500010B54FF0804482B0636A019307F080FAA4
:103060000090626A019B9A4207D3009B4FF47A72E8
:10307000019802FB030002B010BD07F071FA636A09
:103080004FF47A7202FB003002B010BD10B5044656
:1030900041B9FFF7DDFFA042A0EB040038BF00F10B
:1030A000FF3010BD07F05CFAA042A0EB040038BF6F
:1030B00000F1FF3010BD00BF80B483B000AF034605
:1030C0003960FB80B7F90630002B0ADB3B68DAB2C7
:1030D0000C49B7F906301201D2B20B4483F8002331
:1030E0000AE03B68DAB20849FB8803F00F03043BAF
:1030F0001201D2B20B441A7600BF0C37BD465DF800
:10310000047B704700E100E000ED00E080B582B094
:1031100000AF7860034800F023FA00BF0837BD46CF
:1031200080BD00BFAC06002480B582B000AF7860DF
:103130007868FDF7A7FC00BF0837BD4680BD80B5A5
:1031400082B000AF78607868FDF76EFC00BF08378A
:10315000BD4680BD80B58CB000AF87ED010A3860F8
:1031600000218B4800F0C7F9B862BB6A002B0AD077
:103170004FF0500383F31188BFF36F8FBFF34F8F6E
:103180007B6200BFFEE70021824800F0B4F9B8621C
:10319000BB6A002B0AD04FF0500383F31188BFF3B2
:1031A0006F8FBFF34F8F3B6200BFFEE77A4B282241
:1031B0001A61794B00229A61774B80229A82764B72
:1031C000764A07CA03C31A7000227549724800F094
:1031D000FDF8B862BB6A002B0AD04FF0500383F3AE
:1031E0001188BFF36F8FBFF34F8FFB6100BFFEE706
:1031F0000023FB6273E06B49FB6AFA6A41F8232003
:10320000FB6A9B00684A13440021184600F073F9DA
:10321000B862BB6A002B0AD04FF0500383F31188C9
:10322000BFF36F8FBFF34F8FBB6100BFFEE7FB6A39
:10323000C3F1270318465D49FA6A1346DB009B1A5F
:103240009B000B44103318605849FA6A1346DB00A0
:103250009B1A9B000B4410331B68002B0AD14FF0C4
:10326000500383F31188BFF36F8FBFF34F8F7B61E0
:1032700000BFFEE74D49FA6A1346DB009B1A9B002C
:103280000B44183300221A604849FA6A1346DB00DF
:103290009B1A9B000B44143380221A80FA6A13464F
:1032A000DB009B1A9B00414A9818FB6A9B003D4A31
:1032B00013441A463E4900F089F8B862BB6A002BF5
:1032C0000AD04FF0500383F31188BFF36F8FBFF321
:1032D0004F8F3B6100BFFEE7FB6A0133FB62FB6A75
:1032E000002B88DD02214FF0FF30FFF7E5FE314B68
:1032F00000221A60304B00221A60D7ED017A9FED50
:103300002F7A67EE877AFCEEE77A17EE902A2A4B3F
:103310005A60294B01229A60264B1B681A46264B9D
:10332000DA60274B274A92E80300186004331980BB
:1033300002330A0C1A7024491F4800F097F8B8624B
:10334000BB6A002B0AD04FF0500383F31188BFF300
:103350006F8FBFF34F8FFB6000BFFEE74FF47A71B2
:10336000154800F0A4F8B862BB6A002B0AD04FF0F1
:10337000500383F31188BFF36F8FBFF34F8FBB6090
:1033800000BFFEE70CF068FF00BF3037BD4680BDD0
:10339000AC060024A8060024B80600245026010824
:1033A00029310008B4060024B0060024DC060024FD
:1033B0003F310008EC0A0024CC0A002400007A44C3
:1033C000DC0A00245C2601080D31000880B588B0B5
:1033D00002AFF860B9607A60FB68002B01D101236D
:1033E00023E0F968FB68988AFB681B69FA68183261
:1033F000019200937B680246B8680CF034FD786156
:10340000FB689B69002B0AD14FF0500383F31188AE
:10341000BFF36F8FBFF34F8F3B6100BFFEE77B6948
:10342000012B14BF01230023DBB218461837BD4619
:1034300080BD80B582B000AF786000200CF09AFEAD
:1034400000BF0837BD4680BD84B080B500AF07F12E
:10345000080C8CE80F003B6A18460CF08BFE00232A
:103460001846BD46BDE8804004B0704790B585B0B1
:1034700002AF786039607B6803F110007B6859689F
:103480007B689A687B68DC683B68009323460DF094
:1034900065FD02467B681A607B681B68002B01D0C3
:1034A000002300E0012318460C37BD4690BD90B5BF
:1034B00085B002AF786039607B68002B16D07B68DE
:1034C0001B68002B12D07B681C680CF0E1FF0246E1
:1034D0003B6800930023012120460DF09BFD03462D
:1034E000012B14BF01230023DBB200E001231846A7
:1034F0000C37BD4690BD80B582B000AF78603960B2
:103500003B6819460A200BF0C2FE02467B681A602F
:103510007B68002B01D0002300E001231846083708
:10352000BD4680BD80B582B000AF78607B68002B5F
:1035300003D07B681B68002B01D101230CE07B6862
:103540001B684FF0FF3118460CF04EF90346012B73
:1035500014BF01230023DBB218460837BD4680BDE7
:1035600080B582B000AF78607B68002B03D07B68A9
:103570001B68002B01D101230CE07B681868002335
:10358000002200210BF0B6FE0346012B14BF0123DD
:103590000023DBB218460837BD4680BD80B582B037
:1035A00000AF78607B68002B06D07B681B681846EC
:1035B0000CF026FA002300E0012318460837BD4628
:1035C00080BD000080B400AF044BDB681B0A03F031
:1035D00007031846BD465DF8047B704700ED00E028
:1035E00080B483B000AF0346FB80B7F90630002BF0
:1035F0000BDBFB8803F01F020749B7F906305B09B4
:10360000012000FA02F241F8232000BF0C37BD462A
:103610005DF8047B704700BF00E100E080B483B038
:1036200000AF03463960FB80B7F90630002B0ADB98
:103630003B68DAB20C49B7F906301201D2B20B443A
:1036400083F800230AE03B68DAB20849FB8803F0FC
:103650000F03043B1201D2B20B441A7600BF0C37A1
:10366000BD465DF8047B704700E100E000ED00E03E
:1036700080B489B000AFF860B9607A60FB6803F08D
:103680000703FB61FB69C3F10703042B28BF042375
:10369000BB61FB690433062B02D9FB69033B00E0E5
:1036A00000237B614FF0FF32BB6902FA03F3DA4378
:1036B000BB681A407B699A404FF0FF317B6901FA81
:1036C00003F3D9437B680B40134318462437BD46A8
:1036D0005DF8047B704780B487B000AFF860B960D4
:1036E0007A60FB6830331A46BB681B0A9B0003F004
:1036F0000C0313447B617B691A68BB6803F01F03EA
:103700001F2101FA03F3DB431A407B689B0E03F091
:103710001F01BB6803F01F0301FA03F31A437B691F
:103720001A6000BF1C37BD465DF8047B704780B44B
:1037300087B000AFF860B9607A60FB6814331A464E
:10374000BB685B0E9B0003F0040313447B617B6941
:103750001A68BB681B0D03F01F03072101FA03F36E
:10376000DB431A40BB681B0D03F01F03796801FAA5
:1037700003F31A437B691A6000BF1C37BD465DF82E
:10378000047B704780B485B000AFF860B9607A60A0
:10379000FB681A4A934215D1FB68D3F8B020BB6886
:1037A000C3F31303DB431A407B6803F01803144987
:1037B000D940BB680B40C3F313031A43FB68C3F83B
:1037C000B02014E0FB68D3F8C020BB68C3F3130338
:1037D000DB431A407B6803F018030949D940BB68F2
:1037E0000B40C3F313031A43FB68C3F8C02000BFA8
:1037F0001437BD465DF8047B704700BF0060025877
:10380000FFFF0F0080B483B000AF786039607B6841
:103810001A69064B13403A681A437B681A6100BF65
:103820000C37BD465DF8047B704700BFFCFBFFFF13
:1038300080B483B000AF78607B689A68044B134013
:103840007A68936000BF0C37BD465DF8047B704713
:10385000C0FFFF5F80B483B000AF78607B689A6878
:10386000054B134043F080527B689A6000BF0C37D1
:10387000BD465DF8047B7047C0FFFF6F80B483B026
:1038800000AF786039607B681A683B6803F010030A
:10389000022101FA03F3DB431A407B681A6000BF80
:1038A0000C37BD465DF8047B7047000080B487B0DC
:1038B00000AFF860B9607A60FB687B610D4ABB6855
:1038C00013441B781A467B6913441B6823F0C0021B
:1038D0000849BB680B441B7819467B690B441946A1
:1038E0007B6813430B6000BF1C37BD465DF8047B4B
:1038F000704700BFCC26010880B487B000AFF860E5
:10390000B9607A60FB687B610D4ABB6813441B7821
:103910001A467B6913441B6823F490720849BB68FC
:103920000B441B7819467B690B4419467B6813438B
:103930000B6000BF1C37BD465DF8047B704700BFBD
:10394000CC26010880B487B000AFF860B9607A6017
:10395000FB687B610D4ABB6813441B781A467B6980
:1039600013441B6823F400720849BB680B441B789E
:1039700019467B690B4419467B6813430B6000BFF3
:103980001C37BD465DF8047B704700BFCC2601089C
:1039900080B487B000AFF860B9607A60FB687B6183
:1039A0000D4ABB6813441B781A467B6913441B6895
:1039B00023F480620849BB680B441B7819467B6975
:1039C0000B4419467B6813430B6000BF1C37BD4690
:1039D0005DF8047B704700BFCC26010880B487B037
:1039E00000AFF860B9607A60FB687B610D4ABB6824
:1039F00013441B781A467B6913441B6823F4C05296
:103A00000849BB680B441B7819467B690B4419466F
:103A10007B6813430B6000BF1C37BD465DF8047B19
:103A2000704700BFCC26010880B487B000AFF860B3
:103A3000B9607A60FB687B610D4ABB6813441B78F0
:103A40001A467B6913441B6823F4C0420849BB68CB
:103A50000B441B7819467B690B4419467B6813435A
:103A60000B6000BF1C37BD465DF8047B704700BF8C
:103A7000CC26010880B487B000AFF860B9607A60E6
:103A8000FB687B610D4ABB6813441B781A467B694F
:103A900013441B6823F440320849BB680B441B786D
:103AA00019467B690B4419467B6813430B6000BFC2
:103AB0001C37BD465DF8047B704700BFCC2601086B
:103AC00080B485B000AFF860B9607A60BA68124B14
:103AD00013449B00FA6811498A4201D1002200E098
:103AE000202213441B6823F0FF02B9680A4B0B44E1
:103AF0009B00F9680948814201D1002100E02021A2
:103B00000B4419467B6813430B6000BF1437BD4656
:103B10005DF8047B704700BF008200100000024087
:103B200080B485B000AF786039607B68FB600C4A78
:103B30003B6813441B781A46FB6813445B690849C9
:103B40003A680A4412781146FA680A4423F00403DA
:103B5000536100BF1437BD465DF8047B704700BF5A
:103B6000CC26010880B483B000AF78607B681B6806
:103B700023F400327B681A6000BF0C37BD465DF845
:103B8000047B704780B483B000AF78607B681B68AB
:103B900023F400227B681A6000BF0C37BD465DF835
:103BA000047B704780B485B000AFF860B9607A607C
:103BB000FB68DA68064B1340B9687A680A431A430F
:103BC000FB68DA6000BF1437BD465DF8047B7047C0
:103BD00001F8FFFF80B483B000AF78607B68DB68DA
:103BE00023F400427B68DA6000BF0C37BD465DF805
:103BF000047B704780B483B000AF78607B685B68FB
:103C000043F000727B685A6000BF0C37BD465DF818
:103C1000047B704780B400AF054B1B68044A43F433
:103C20008033136000BFBD465DF8047B704700BF62
:103C30000044025880B400AF074B1B6803F4003304
:103C4000B3F5003F01D1012300E000231846BD4633
:103C50005DF8047B704700BF0044025880B400AF99
:103C6000054B1B68044A43F48053136000BFBD46F4
:103C70005DF8047B704700BF0044025880B400AF79
:103C8000074B1B6803F40053B3F5005F01D1012318
:103C900000E000231846BD465DF8047B704700BF76
:103CA0000044025880B483B000AF7860064B1B69B3
:103CB00023F0070204497B6813430B6100BF0C37F4
:103CC000BD465DF8047B70470044025880B400AFE5
:103CD000044B1B6903F038031846BD465DF8047BAE
:103CE000704700BF0044025880B483B000AF7860D2
:103CF000064B9B6923F4706204497B6813438B6114
:103D000000BF0C37BD465DF8047B70470044025885
:103D100080B483B000AF7860064B9B6923F00F023C
:103D200004497B6813438B6100BF0C37BD465DF8C7
:103D3000047B70470044025880B483B000AF7860C1
:103D4000064BDB6923F0700204497B681343CB61A7
:103D500000BF0C37BD465DF8047B70470044025835
:103D600080B483B000AF7860064BDB6923F4E06277
:103D700004497B681343CB6100BF0C37BD465DF837
:103D8000047B70470044025880B483B000AF786071
:103D9000064B9B6923F0700204497B6813438B61D7
:103DA00000BF0C37BD465DF8047B704700440258E5
:103DB00080B483B000AF7860064B1B6A23F07002BA
:103DC00004497B6813430B6200BF0C37BD465DF8A6
:103DD000047B70470044025880B485B000AF78601F
:103DE0007B68DAB2104B1344FB60FB681A687B688F
:103DF000190E7B681B0A03F01F0301FA03F3DB4370
:103E00001A407B681B0CD9B27B681B0A03F01F03A6
:103E100001FA03F31A43FB681A6000BF1437BD466A
:103E20005DF8047B704700BF4C44025880B582B0F7
:103E300000AF78607868FFF7CFFF00BF0837BD4656
:103E400080BD80B582B000AF78607868FFF7C4FFAE
:103E500000BF0837BD4680BD80B483B000AF786036
:103E6000064B9B6D23F4403204497B6813438B65FA
:103E700000BF0C37BD465DF8047B70470044025814
:103E800080B483B000AF7860064B9B6A23F00302D6
:103E900004497B6813438B6200BF0C37BD465DF855
:103EA000047B70470044025880B400AF054B1B6888
:103EB000044A43F08073136000BFBD465DF8047B85
:103EC000704700BF0044025880B400AF074B1B6826
:103ED00003F00073B3F1007F01D1012300E0002360
:103EE0001846BD465DF8047B704700BF0044025889
:103EF00080B400AF054BDB6A044A43F48033D362DD
:103F000000BFBD465DF8047B704700BF0044025807
:103F100080B400AF054BDB6A044A43F40033D3623C
:103F200000BFBD465DF8047B704700BF00440258E7
:103F300080B400AF054BDB6A044A43F48023D362AC
:103F400000BFBD465DF8047B704700BF00440258C7
:103F500080B483B000AF7860074BDB6A23F00202C5
:103F60007B685B0004491343CB6200BF0C37BD463E
:103F70005DF8047B704700BF0044025880B483B0F2
:103F800000AF7860074BDB6A23F00C027B689B0074
:103F900004491343CB6200BF0C37BD465DF8047B78
:103FA000704700BF0044025880B483B000AF78600F
:103FB000074B1A6B074B13407A68013A04491343C5
:103FC0000B6300BF0C37BD465DF8047B704700BF34
:103FD0000044025800FEFFFF80B483B000AF786059
:103FE000074B9B6A23F47C727B681B0104491343D3
:103FF0008B6200BF0C37BD465DF8047B704700BF85
:104000000044025880B483B000AF7860074B1B6B4C
:1040100023F47E427B68013B5B02044913430B633C
:1040200000BF0C37BD465DF8047B70470044025862
:1040300080B483B000AF7860074B1B6B23F4FE02A3
:104040007B68013B1B04044913430B6300BF0C371F
:10405000BD465DF8047B70470044025880B483B0CD
:1040600000AF7860074B1B6B23F0FE427B68013B7F
:104070001B06044913430B6300BF0C37BD465DF8B4
:10408000047B70470044025880B400AF054B1B68A6
:10409000044A43F08063136000BFBD465DF8047BB3
:1040A000704700BF0044025880B400AF074B1B6844
:1040B00003F00063B3F1006F01D1012300E000239E
:1040C0001846BD465DF8047B704700BF00440258A7
:1040D00080B400AF054BDB6A044A43F40023D3628B
:1040E00000BFBD465DF8047B704700BF0044025826
:1040F00080B483B000AF7860074BDB6A23F0200206
:104100007B685B0104491343CB6200BF0C37BD469B
:104110005DF8047B704700BF0044025880B483B050
:1041200000AF7860074BDB6A23F0C0027B689B011D
:1041300004491343CB6200BF0C37BD465DF8047BD6
:10414000704700BF0044025880B483B000AF78606D
:10415000074B9A6B074B13407A68013A04491343A3
:104160008B6300BF0C37BD465DF8047B704700BF12
:104170000044025800FEFFFF80B483B000AF7860B7
:10418000074B9B6A23F47C327B681B03044913436F
:104190008B6200BF0C37BD465DF8047B704700BFE3
:1041A0000044025880B483B000AF7860074B9B6B2B
:1041B00023F47E427B68013B5B02044913438B631B
:1041C00000BF0C37BD465DF8047B704700440258C1
:1041D00080B483B000AF7860074B9B6B23F4FE0282
:1041E0007B68013B1B04044913438B6300BF0C37FE
:1041F000BD465DF8047B70470044025880B483B02C
:1042000000AF7860074B9B6B23F0FE427B68013B5D
:104210001B06044913438B6300BF0C37BD465DF892
:10422000047B70470044025880B400AF054B1B6804
:10423000044A43F08053136000BFBD465DF8047B21
:10424000704700BF0044025880B400AF074B1B68A2
:1042500003F00053B3F1005F01D1012300E000231C
:104260001846BD465DF8047B704700BF0044025805
:1042700080B400AF054BDB6A044A43F08073D3621D
:1042800000BFBD465DF8047B704700BF0044025884
:1042900080B483B000AF7860074BDB6A23F4007210
:1042A0007B685B0204491343CB6200BF0C37BD46F9
:1042B0005DF8047B704700BF0044025880B483B0AF
:1042C00000AF7860074BDB6A23F440627B689B0297
:1042D00004491343CB6200BF0C37BD465DF8047B35
:1042E000704700BF0044025880B483B000AF7860CC
:1042F000074B1A6C074B13407A68013A0449134381
:104300000B6400BF0C37BD465DF8047B704700BFEF
:104310000044025800FEFFFF80B483B000AF786015
:10432000074B9B6A23F07C727B681B05044913438F
:104330008B6200BF0C37BD465DF8047B704700BF41
:104340000044025880B483B000AF7860074B1B6C08
:1043500023F47E427B68013B5B02044913430B64F8
:1043600000BF0C37BD465DF8047B7047004402581F
:1043700080B483B000AF7860074B1B6C23F4FE025F
:104380007B68013B1B04044913430B6400BF0C37DB
:10439000BD465DF8047B70470044025880B483B08A
:1043A00000AF7860074B1B6C23F0FE427B68013B3B
:1043B0001B06044913430B6400BF0C37BD465DF870
:1043C000047B70470044025880B485B000AF786029
:1043D0000A4BD3F8D82009497B681343C1F8D83079
:1043E000064BD3F8D8207B681340FB60FB6800BF06
:1043F0001437BD465DF8047B704700BF0044025887
:1044000080B485B000AF78600A4BD3F8E02009494A
:104410007B681343C1F8E030064BD3F8E0207B689B
:104420001340FB60FB6800BF1437BD465DF8047B9A
:10443000704700BF0044025880B485B000AF786078
:104440000A4BD3F8E82009497B681343C1F8E830E8
:10445000064BD3F8E8207B681340FB60FB6800BF85
:104460001437BD465DF8047B704700BF0044025816
:1044700080B485B000AF78600A4BD3F8F0200949CA
:104480007B681343C1F8F030064BD3F8F0207B680B
:104490001340FB60FB6800BF1437BD465DF8047B2A
:1044A000704700BF0044025880B485B000AF786008
:1044B0000A4BD3F8F42009497B681343C1F8F43060
:1044C000064BD3F8F4207B681340FB60FB6800BF09
:1044D0001437BD465DF8047B704700BF00440258A6
:1044E00080B483B000AF7860054B5A6804497B689C
:1044F00013434B6000BF0C37BD465DF8047B70472B
:104500000004005880B487B000AF78603960184A62
:104510003B6803F00303023352F823203B681B0C73
:10452000DB4302EA03013B681B0C3B613B6993FAE6
:10453000A3F3FB60FB687B617B69002B01D1202327
:1045400003E07B69B3FA83F3DBB203F01F037A68FD
:104550009A4007483B6803F003030A43023340F8DC
:10456000232000BF1C37BD465DF8047B704700BFA9
:104570000004005880B483B000AF7860064B1B681D
:1045800023F00F0204497B6813430B6000BF0C3714
:10459000BD465DF8047B70470020005280B400AF38
:1045A000044B1B6803F00F031846BD465DF8047BFF
:1045B000704700BF0020005280B483B000AF786025
:1045C000064BDB6823F03F0204497B681343CB6052
:1045D00000BF0C37BD465DF8047B704700480258A9
:1045E00080B483B000AF7860064B9B6923F44042EF
:1045F00004497B6813438B6100BF0C37BD465DF8EF
:10460000047B70470048025880B483B000AF7860E4
:104610007B681B6843F080027B681A6000BF0C3720
:10462000BD465DF8047B704780B483B000AF78600E
:104630007B681B6823F080027B681A6000BF0C3720
:10464000BD465DF8047B704780B485B000AF7860EC
:1046500039603B68012B28D03B68042B23D03B6892
:10466000102B1ED03B68402B19D03B68B3F5807FE0
:1046700013D03B68B3F5806F0DD03B68B3F5805F16
:1046800007D03B68B3F5803F01D107230EE0082334
:104690000CE006230AE0052308E0042306E00323D8
:1046A00004E0022302E0012300E00023FB737B68A7
:1046B00018331946FB7B0B4AD35C0B44BB60BB68C9
:1046C0001A68FB7B0849CB5C194604238B40DB430B
:1046D0001A40BB681A6000BF1437BD465DF8047B02
:1046E000704700BFD4260108E026010880B485B0D9
:1046F00000AF786039603B68012B28D03B68042B01
:1047000023D03B68102B1ED03B68402B19D03B6850
:10471000B3F5807F13D03B68B3F5806F0DD03B6855
:10472000B3F5805F07D03B68B3F5803F01D1072325
:104730000EE008230CE006230AE0052308E004232A
:1047400006E0032304E0022302E0012300E000234B
:10475000FB737B6818331946FB7B0A4AD35C0B4416
:10476000BB60BB681A68FB7B0749CB5C1946082312
:104770008B401A43BB681A6000BF1437BD465DF812
:10478000047B7047D4260108E026010880B483B07A
:1047900000AF786039607B685B6823F070023B682B
:1047A0001A437B685A6000BF0C37BD465DF8047B36
:1047B000704780B483B000AF786039607B685B6815
:1047C00023F470023B681A437B685A6000BF0C37C1
:1047D000BD465DF8047B704780B483B000AF78605D
:1047E0007B689B6823F080027B689A6000BF0C376F
:1047F000BD465DF8047B704780B483B000AF78603D
:104800007B681B6843F001027B681A6000BF0C37AD
:10481000BD465DF8047B704780B483B000AF78601C
:104820007B681B6823F000527B681A6000BF0C375E
:10483000BD465DF8047B704780B489B000AF7860F6
:1048400039607B680833FB60FB6853E8003FBB605E
:10485000BB6823F060423B685B071343FB617B68E6
:104860000833FA69BA617B617969BA6941E8002362
:104870003B613B69002BE4D100BF00BF2437BD463C
:104880005DF8047B704780B489B000AF7860396010
:104890007B680833FB60FB6853E8003FBB60BB6884
:1048A00023F060623B685B061343FB617B6808335F
:1048B000FA69BA617B617969BA6941E800233B61B1
:1048C0003B69002BE4D100BF00BF2437BD465DF833
:1048D000047B704780B483B000AF78607B685B680E
:1048E00023F490427B685A607B689B6823F02A021D
:1048F0007B689A6000BF0C37BD465DF8047B70474B
:1049000080B483B000AF78607B68DB6903F4001388
:10491000B3F5001F01D1012300E0002318460C3736
:10492000BD465DF8047B704780B483B000AF78600B
:104930007B68DB6903F48003B3F5800F01D10123A9
:1049400000E0002318460C37BD465DF8047B704735
:1049500080B485B000AFF860B9607A60FB68196810
:10496000BB6803FB03F213465B001344DB4301EA1D
:104970000302BB6803FB03F3796801FB03F31A43EB
:10498000FB681A6000BF1437BD465DF8047B7047B2
:1049900080B485B000AFF860B9607A60FB68D96810
:1049A000BB6803FB03F213465B001344DB4301EADD
:1049B0000302BB6803FB03F3796801FB03F31A43AB
:1049C000FB68DA6000BF1437BD465DF8047B7047B2
:1049D00080B483B000AF786039603B681A047B68AC
:1049E0009A6100BF0C37BD465DF8047B704700003C
:1049F00080B500AF0320FFF7BDFD00BFFFF7CEFD80
:104A00000346032BFAD10420FFF7D6FD0020FFF761
:104A1000E7FDFFF7FFF800BFFFF70CF90346012B96
:104A2000FAD1FFF71BF900BFFFF728F90346012B66
:104A3000FAD10220FFF724FAFFF75AFAFFF768FAD3
:104A4000FFF776FA0220FFF799FA0020FFF780FAC5
:104A50000520FFF7C1FA6E20FFF7A6FA0120FFF745
:104A6000D1FA0420FFF7E4FA0220FFF7F7FAFFF784
:104A70001BFA00BFFFF728FA0346012BFAD10820E2
:104A8000FFF746F90320FFF70DF900BFFFF71EF906
:104A90000346182BFAD10020FFF726F90820FFF76C
:104AA00037F94020FFF748F94FF48060FFF758F9D5
:104AB0004020FFF769F94020FFF77AF9064803F034
:104AC000FBFE0F2002F076FA0346002B01D001F026
:104AD00084FC00BF80BD00BF8055C82080B500AFFA
:104AE000FFF7F6FA0220FFF719FB0020FFF700FBA3
:104AF0000520FFF741FB5020FFF726FB0520FFF7BD
:104B000051FB0220FFF764FB0220FFF777FBFFF762
:104B1000BBFA00BFFFF7C8FA0346012BFAD1FFF733
:104B2000A7FB0320FFF7CAFB0020FFF7B1FB202003
:104B3000FFF7F2FB8120FFF7D7FB0220FFF702FC13
:104B40000220FFF715FC0220FFF728FCFFF76CFBA3
:104B500000BFFFF779FB0346012BFAD100BF00BF6E
:104B600080BD000080B594B000AF07F14003002283
:104B70001A605A609A6007F1280300221A605A608E
:104B80009A60DA601A615A6107F1180300221A600C
:104B90005A609A60DA603B4600221A605A609A6056
:104BA000DA601A615A610020FFF756F92020FFF7FA
:104BB0000BFC0420FFF724FC0120FFF721FC01235C
:104BC0003B6003237B6000233B613B461946304832
:104BD00002F041FE4FF04070FFF782FC00212D48AB
:104BE000FEF710FE00233B640023BB6407F1400383
:104BF0001946284802F01CFF0023BB620023FB6219
:104C000000233B6300237B630023FB6307F128033E
:104C10001946204802F064FF0023BB610023FB61BA
:104C200007F1180319461C4802F0AAFE1948FEF7BE
:104C3000FFFD1848FEF70EFE184B1B689B09184A2B
:104C4000A2FB03239A0913469B0013445B001A46F8
:104C5000144BA3FB0223DB08FB6402E0FB6C013B6B
:104C6000FB64FB6C002BF9D10F4A06210948FEF7C3
:104C700032FD00220C490748FEF759FD40F2FF7251
:104C800009490448FEF77EFD00BF5037BD4680BD90
:104C90000008025800200240002302405C05002466
:104CA000632D3E05CDCCCCCC0200300480B58AB05B
:104CB00000AF07F1180300221A605A609A603B4661
:104CC00000221A605A609A60DA601A615A61002004
:104CD000FFF7C2F82020FFF777FB0120FFF790FBDA
:104CE0004FF04070FFF7FCFB00212748FEF78AFDDC
:104CF0000023BB6100233B6207F1180319462248D9
:104D000002F096FE00233B6000237B600023BB6023
:104D10000023FB6000237B613B4619461A4802F0E2
:104D2000DFFE1948FEF784FD1748FEF793FD174B89
:104D30001B689B09164AA2FB03239A0913469B0092
:104D400013445B001A46134BA3FB0223DB087B6270
:104D500002E07B6A013B7B627B6A002BF9D1012276
:104D600006210948FEF7B7FC002201210648FEF79C
:104D7000DEFC40F2FF7201210348FEF703FD00BF95
:104D80002837BD4680BD00BF002102405C050024DD
:104D9000632D3E05CDCCCCCC80B594B000AF07F1EF
:104DA000400300221A605A609A6007F1280300222B
:104DB0001A605A609A60DA601A615A6107F1180342
:104DC00000221A605A609A60DA603B4600221A603C
:104DD0005A609A60DA601A615A610020FFF73CF865
:104DE0004FF08070FFF70CFB0420FFF709FB8020D9
:104DF000FFF706FB4FF04060FFF772FB04233B60B8
:104E000003237B6000233B613B4619462F4802F099
:104E100022FD00212E48FEF7F5FC00233B64002311
:104E2000BB6407F140031946294802F001FE002344
:104E3000BB620023FB6200233B6300237B630023F0
:104E4000FB6307F128031946214802F049FE0023BD
:104E5000BB610023FB6100233B6207F11803194685
:104E60001C4802F08DFD1A48FEF7E2FC1848FEF7D8
:104E7000F1FC194B1B689B09184AA2FB03239A09F2
:104E800013469B0013445B001A46154BA3FB0223F9
:104E9000DB08FB6402E0FB6C013BFB64FB6C002B5A
:104EA000F9D1012206210A48FEF715FC0022012152
:104EB0000748FEF73CFC40F2FF7201210448FEF770
:104EC00061FC00BF5037BD4680BD00BF001C0258CA
:104ED00000600258006302585C050024632D3E0503
:104EE000CDCCCCCC80B58CB000AF07F1180300223C
:104EF0001A605A609A60DA601A615A613B46002271
:104F00001A605A609A60DA601A615A614FF0005074
:104F1000FFF792FA0120FFF773FA20233B60032387
:104F20007B6000233B613B4619460E4802F093FC30
:104F30000023BB610023FB6100237B620023BB6273
:104F40000023FB6207F118031A460749074805F0DA
:104F500046FB05490548FEF791FC00BF3037BD46CA
:104F600080BD00BF00000258720040350074004050
:104F700080B582B000AF1D4B1D4A1A6000233B7004
:104F800080237B70E123BB700023FB7000233B7107
:104F900000237B71154A3B465360144B01221A7261
:104FA000124B144ADA60114B134A1A610F4B40F24C
:104FB000F4525A610D4805F077FB0346002B01D0EF
:104FC00001F00BFA342200210C480DF045FA0B4B8E
:104FD00021221A60094B4FF440325A61074B0022DC
:104FE0001A6100BF0837BD4680BD00BF240B0024F6
:104FF0000080024014060024B4050024F00A0024B6
:1050000080B500AF2E4B2F4A1A602D4B00229A60BC
:105010002B4B0022DA602A4B01221A74284B002203
:105020005A74274B00229A74254B0A225A61244B4A
:1050300002229A61224B0222DA61214B02221A6279
:105040001F4B01225A621E4B01229A621C4B012205
:10505000DA621B4B01221A63194B00225A63184B68
:1050600000229A63164B0022DA63154B01221A6460
:10507000134B05225A64124B00229A64104B0422EF
:10508000DA640F4B00221A650D4B04225A650C4B53
:1050900000229A650A4B0022DA65094B01221A6642
:1050A000074B00225A66064B05229A66044805F013
:1050B00017FF0346002B01D001F08FF900BF80BD20
:1050C000AC0B002400A0004080B500AF2E4B2F4A4F
:1050D0001A602D4B00229A602B4B0022DA602A4B7B
:1050E00001221A74284B00225A74274B00229A740A
:1050F000254B0A225A61244B02229A61224B02223A
:10510000DA61214B02221A621F4B01225A621E4BA6
:1051100001229A621C4B0122DA621B4B01221A63A4
:10512000194B00225A63184B00229A63164B002237
:10513000DA63154B01221A64134B05225A64124B91
:1051400000229A64104B0422DA640F4B00221A6585
:105150000D4B04225A650C4B00229A650A4B002223
:10516000DA65094B01221A66074B00225A66064B84
:1051700005229A66044805F0B3FE0346002B01D0D1
:1051800001F02BF900BF80BD4C0C002400A40040AE
:1051900080B58EB000AF07F11C0300221A605A6080
:1051A0009A60DA601A615A619A613B1D00221A60A6
:1051B0005A609A60DA601A615A612248FEF741FE2D
:1051C0002020FFF71DF94FF440437B600223BB60B2
:1051D0000023FB6001233B6101237B610423BB614E
:1051E0003B1D1946184802F036FB8020FFF75CF99A
:1051F0001648FEF7FFFC002200211448FEF7D2FCFF
:105200001248FEF7E7FC1148FEF7BCFC0F48FEF71A
:10521000A9FC0023FB610E4B3B6200237B62002351
:10522000BB620023FB6200233B6300237B6307F127
:105230001C031946054806F0BBFE00BF3837BD46C3
:1052400080BD00BF0C08000300140258001C005869
:10525000724E406080B59AB000AF07F1340334223B
:10526000002118460DF0F8F83B463422002118467C
:105270000DF0F2F84E4B4F4A1A604D4B00225A6027
:105280004B4B00229A604A4B0022DA60484B0022C6
:105290001A61474B07225A61454B03229A61444BDE
:1052A0000E22DA61424B05221A62414B40F28E22F5
:1052B0005A623F4B40F2E5129A623D4B4FF4257221
:1052C000DA623B4B40F2E7121A63394B002283F853
:1052D0003420374B002283F83520354B002283F8E9
:1052E0003620334806F0A0FE0346002B01D001F023
:1052F00074F800237B630023BB630023FB6300235C
:105300003B6400237B640023BB640023FB644FF4F5
:1053100080633B6505237B650023BB650023FB653C
:1053200000233B66002387F86430002387F865304C
:10533000002387F8663007F13403002219461C4821
:1053400006F042FF0346002B01D001F046F800238F
:105350003B6000237B600023BB600023FB600023D5
:105360003B6100237B610023BB614FF48063FB61E1
:1053700005233B6200237B620023BB620023FB62A8
:10538000002387F83030002387F83130002387F876
:1053900032303B4601221946054806F015FF034608
:1053A000002B01D001F019F800BF6837BD4680BD61
:1053B000EC0C00240010005080B586B000AF3B46D6
:1053C00000221A605A609A60DA601A615A612A4BA8
:1053D0002A4A1A60284B01225A60274B00229A6001
:1053E000254B0022DA60244B20221A61224B012235
:1053F0005A61214B00229A611F4B0022DA611E4B39
:1054000000221A621C4B01225A621B4B00229A6234
:10541000194B0022DA62184B00221A63164B002245
:105420005A63154B08229A63134B0022DA63124B1E
:1054300000221A64104807F09FF80346002B01D0A1
:1054400000F0CBFF01237B600123BB604FF0011311
:10545000FB600B4B3B613B4641F2883219460648E4
:1054600007F096F90346002B01D000F0B6FF00BF0D
:105470001837BD4680BD00BF940D00240050005277
:105480000100000180B58AB000AF07F110030022CF
:105490001A605A609A60DA601A615A613B460022CB
:1054A0001A605A609A60DA60344B354A1A60334B9E
:1054B00001225A60314B00229A60304B4FF08062DB
:1054C000DA602E4B20221A612C4B01225A612B4BA1
:1054D00000229A61294B0022DA61284B00221A62CD
:1054E000264B01225A62254B00229A62234B00224E
:1054F000DA62224B00221A63204B00225A631F4BB0
:1055000008229A631D4B0022DA631C4B00221A64A6
:105510001A4807F031F80346002B01D000F05DFF78
:1055200002237B610223BB61164BFB61164B3B627E
:1055300007F1100341F288321946104807F028F9A4
:105540000346002B01D000F048FF00233B600023FE
:105550007B600223BB600023FB603B4641F2883244
:105560001946064807F0C6F80346002B01D000F0A4
:1055700034FF00BF2837BD4680BD00BFF40D0024B6
:1055800000A00052020001000200000180B500AF3F
:10559000584B594A1A60574B00225A64554B032204
:1055A0005A60544B40229A64524B0022DA64514BA9
:1055B00000221A654F4B01229A604E4B00225A611D
:1055C0004C4B0022DA614B4B0022DA60494B00223F
:1055D000DA62484B00221A63464B00225A63454B5D
:1055E000002283F83820434B0022DA63414B4FF40A
:1055F00080721A643F4B08225A653E4B01229A651D
:105600003C4B0022DA653B4B00221A66394B0022E4
:105610005A66384B00229A66364B0022DA66354BC2
:1056200001221A67334B00225A67324807F08AFE7C
:105630000346002B01D000F0D0FE304B304A1A60F8
:105640002E4B00225A642D4B00225A602B4B4022D5
:105650009A642A4B0022DA64284B00221A65274BF1
:1056600000229A60254B00225A61244B00229A6145
:10567000224B0022DA61214B224A1A621F4B002280
:10568000DA601E4B0022DA621C4B00221A631B4BAD
:1056900000225A63194B002283F83820174B00224E
:1056A000DA63164B4FF480721A64144B08225A6561
:1056B000124B01229A65114B0022DA650F4B002232
:1056C0001A660E4B00225A660C4B00229A660B4B50
:1056D0000022DA66094B01221A67084B00225A673A
:1056E000064807F02FFE0346002B01D000F075FEA0
:1056F00000BF80BD540E002404580140EC0E00246D
:105700002458014000EE020080B5A0B000AF07F1C0
:105710006C0300221A605A609A60DA601A6107F11D
:105720004C032022002118460CF096FE07F11C03C2
:105730003022002118460CF08FFE3B1D00221A601B
:105740005A609A60DA601A615A610120FEF790FE91
:105750000023A7F86C3000233B674FF6FF737B678D
:105760000023BB670023FB6707F16C03194634482D
:1057700008F0F8FD3248FEF757FF4FF480513048EB
:10578000FEF7B4FF6023FB6400233B6500237B65C9
:105790000023BB650023FB6500237B660023BB66FB
:1057A00007F14C031A464FF48051254808F07AFE61
:1057B0004FF480512248FEF747FF00212048FEF7B2
:1057C000E5FF00211E48FEF7F4FF1D48FFF704F82F
:1057D0000023FB6100233B6200237B62002387F8E8
:1057E000283000237B854FF40053FB6200233B638A
:1057F0000023BB634FF00073FB6300233B64002373
:10580000BB6407F11C0319460D4808F0ABFE1020DD
:10581000FEF7F6FD4FF480437B600223BB6000235C
:10582000FB6000233B6100237B610123BB613B1DC7
:105830001946044802F00FF800BF8037BD4680BD0E
:10584000000001400010025880B594B000AF07F18D
:105850003C0300221A605A609A60DA601A6107F10C
:105860001C032022002118460CF0F6FD3B1D0022EF
:105870001A605A609A60DA601A615A610420FEF771
:10588000DBFD0023BB8700233B644FF6FF737B6483
:105890000023BB6407F13C0319463B4808F062FD56
:1058A0003948FEF7C1FE10213748FEF71FFF60237D
:1058B000FB6100233B6200237B620023BB62002369
:1058C000FB6207F11C031A4610212F4808F0EAFD7D
:1058D00010212D48FEF7B8FE4FF480712A48FEF7DC
:1058E00005FF07F11C031A464FF48071264808F0A3
:1058F000D9FD4FF480712448FEF7A6FE4FF4805185
:105900002148FEF7F3FE07F11C031A464FF48051BD
:105910001D4808F0C7FD4FF480511B48FEF794FE68
:1059200000211948FEF732FF1748FEF755FF022005
:10593000FEF766FD0820FEF763FD80237B600223EF
:10594000BB600023FB6000233B6100237B610223DB
:10595000BB613B1D19460D4801F07DFF4FF44043EC
:105960007B600223BB600023FB6000233B610023BC
:105970007B610223BB613B1D1946054801F06BFFAB
:1059800000BF5037BD4680BD0008004000040258EB
:10599000000C025880B594B000AF07F13C03002220
:1059A0001A605A609A60DA601A6107F11C032022BB
:1059B000002118460CF050FD3B1D00221A605A6071
:1059C0009A60DA601A615A610820FEF735FD0023FB
:1059D000BB8700233B644FF0FF337B640023BB6431
:1059E00007F13C0319461F4808F0BCFC1D48FEF7B0
:1059F0001BFE01211B48FEF779FE6023FB6100239B
:105A00003B6200237B620023BB620023FB6207F141
:105A10001C031A460121134808F044FD01211148D6
:105A2000FEF712FE00210F48FEF7B0FE0D48FEF70C
:105A3000D3FE0120FEF7E4FC01237B600223BB6060
:105A40000023FB6000233B6100237B610223BB61D9
:105A50003B1D1946044801F0FEFE00BF5037BD460D
:105A600080BD00BF000C00400000025880B584B02B
:105A700000AF3B1D00221A605A609A60154B164A0F
:105A80001A60144B41F27B525A60124B00229A600A
:105A9000104B40F2CF72DA600E4B00229A610D4833
:105AA00007F09EFE0346002B01D000F096FC002379
:105AB0007B600023FB603B1D1946064808F008FB8D
:105AC0000346002B01D000F088FC00BF1037BD4614
:105AD00080BD00BF840F00240010004080B586B058
