:020000040800F2
:1000000000000524A92B0108856F00088B6F0008EC
:10001000916F0008976F00089D6F000800000000B6
:10002000000000000000000000000000E1260108C0
:10003000A36F00080000000031290108C121010858
:10004000F92B0108F92B0108F92B0108F92B0108FC
:10005000F92B0108F92B0108F92B0108F92B0108EC
:10006000F92B0108F92B0108F92B0108B16F0008E1
:10007000BF6F0008F92B0108F92B0108F92B0108C3
:10008000F92B0108F92B0108F92B01088938000820
:100090001D350008F92B0108F92B0108F92B01087F
:1000A000F92B0108F92B0108F92B0108F92B01089C
:1000B000CD6F0008F92B0108F92B0108F92B010875
:1000C000F92B0108F92B0108F92B0108F92B01087C
:1000D000F92B0108F92B0108F92B0108F92B01086C
:1000E000F92B0108F92B010800000000F92B010889
:1000F000F92B0108F92B0108F92B0108F92B01084C
:10010000F92B0108F92B0108F92B0108F92B01083B
:10011000F92B0108F92B0108F92B0108F92B01082B
:10012000F92B0108F92B0108F92B0108F92B01081B
:10013000F92B0108F92B0108F92B0108F92B01080B
:1001400000000000000000000000000000000000AF
:10015000F92B0108F92B0108F92B0108F92B0108EB
:10016000F92B0108F92B0108F92B0108F92B0108DB
:10017000F92B0108F92B0108F92B0108F92B0108CB
:10018000F92B0108F92B0108F92B0108F92B0108BB
:10019000F92B0108F92B0108F92B0108F92B0108AB
:1001A000F92B0108F92B0108F92B010800000000C8
:1001B000F92B0108F92B0108F92B0108F92B01088B
:1001C000F92B0108F92B01080000000000000000D5
:1001D0000000000000000000F92B010800000000F2
:1001E000000000000000000000000000000000000F
:1001F0000000000000000000F92B0108F92B0108A5
:10020000F92B0108F92B010800000000F92B010867
:10021000F92B0108E16F0008EF6F0008F92B0108C6
:10022000F92B010800000000F92B01080000000074
:10023000F92B0108F92B010800000000F92B010837
:10024000F92B0108F92B0108F92B0108F92B0108FA
:10025000F92B0108F92B0108F92B0108F92B0108EA
:10026000F92B0108F92B0108F92B0108F92B0108DA
:10027000F92B0108F92B0108F92B010800000000F7
:10028000F92B0108F92B0108F92B0108F92B0108BA
:1002900000000000F92B0108F92B0108F92B0108D7
:1002A000F92B0108F92B0108F92B0108F92B01089A
:1002B000F92B0108F92B0108F92B0108F92B01088A
:0C02C000F92B0108FD6F00081170000808
:1002D0000348044B834202D0034B03B118477047D5
:1002E0003C0600243C060024000000000548064BA4
:1002F0001B1AD90F01EBA301491002D0034B03B124
:10030000184770473C0600243C060024000000000B
:1003100010B5064C237843B9FFF7DAFF044B13B14D
:100320000448AFF300800123237010BD00070024B0
:1003300000000000D831010808B5054B1BB1054984
:100340000548AFF30080BDE80840FFF7CFBF00BF0E
:100350000000000004070024D831010880B400AF79
:10036000044BDB681B0A03F007031846BD465DF823
:10037000047B704700ED00E080B483B000AF03461B
:10038000FB80B7F90630002B0BDBFB8803F01F0264
:100390000749B7F906305B09012000FA02F241F87B
:1003A000232000BF0C37BD465DF8047B704700BFBB
:1003B00000E100E080B483B000AF03463960FB8009
:1003C000B7F90630002B0ADB3B68DAB20C49B7F903
:1003D00006301201D2B20B4483F800230AE03B68D6
:1003E000DAB20849FB8803F00F03043B1201D2B2D2
:1003F0000B441A7600BF0C37BD465DF8047B70478E
:1004000000E100E000ED00E080B489B000AFF860EA
:10041000B9607A60FB6803F00703FB61FB69C3F115
:100420000703042B28BF0423BB61FB690433062B9D
:1004300002D9FB69033B00E000237B614FF0FF32F0
:10044000BB6902FA03F3DA43BB681A407B699A403E
:100450004FF0FF317B6901FA03F3D9437B680B400E
:10046000134318462437BD465DF8047B70470000EF
:1004700080B584B000AF0346FB710023FB60FB79BD
:10048000002B02D0012B24D047E0314BFB60FB68EE
:100490001B79002B44D1FB682E4A1A60FFF75EFFE0
:1004A0000346002200211846FFF7AEFF0346194617
:1004B0001320FFF77FFF1320FFF75EFF01220121CA
:1004C00024480BF0EDFF0022012122480CF01EF819
:1004D00026E0214BFB60FB681B79002B22D1FB68D7
:1004E0001E4A1A60FFF73AFF034600220021184611
:1004F000FFF78AFF034619461420FFF75BFF14201D
:10050000FFF73AFF0122012114480BF0C9FF002236
:10051000012112480BF0FAFF04E00023FB6002E027
:1005200000BF00E000BFFB68002B0CD0FB681B790C
:10053000002B08D1FB6801221A71FB6800225A7156
:10054000FB6800229A71FB6818461037BD4680BDD3
:100550001C070024684B002424070024084C0024B6
:1005600080B590B000AFF860B9607A60FB7000238E
:10057000FB63FB68002B00F0FE80FB681B79012BFE
:1005800040F0F980FB681B68BB63FB78002B04D14B
:100590007B687B610023BB6104E07B687B614FF07B
:1005A0008043BB6197F84830002B01D1002301E064
:1005B0004FF00053FB6197F85830002B01D1002316
:1005C00001E04FF48013BB6297F85430002B01D147
:1005D000002301E04FF40013FB62FB6C3B62FB6CF9
:1005E000082B40F28F80FB6C0C3B342B00F28E808A
:1005F00001A252F823F000BFCD0600080D07000845
:100600000D0700080D070008D50600080D070008B3
:100610000D0700080D070008DD0600080D0700089B
:100620000D0700080D070008E50600080D07000883
:100630000D0700080D0700080D0700080D0700084A
:100640000D0700080D070008ED0600080D0700085B
:100650000D0700080D0700080D0700080D0700082A
:100660000D0700080D0700080D0700080D0700081A
:100670000D0700080D0700080D0700080D0700080A
:100680000D0700080D070008F50600080D07000813
:100690000D0700080D0700080D0700080D070008EA
:1006A0000D0700080D0700080D0700080D070008DA
:1006B0000D0700080D0700080D0700080D070008CA
:1006C0000D0700080D070008FD0600084FF4102371
:1006D0003B621CE04FF420233B6218E04FF43023D0
:1006E0003B6214E04FF440233B6210E04FF4502390
:1006F0003B620CE04FF460233B6208E04FF4702350
:100700003B6204E0FB6C1B043B6200E000BF4FF463
:1007100000033B634FF000437B620AF0F1FCF86397
:1007200000BFBB6B1B68D3F8C43003F40013002B6D
:1007300007D00121F86B03F079FA02463B6D934232
:10074000EFD207F11403BA681946B86B0BF069FCD5
:100750000346002B07D0B86B0BF090FE0246FB6DF2
:100760001A60012308E0B86B0BF088FE0246FB6DAF
:100770001A60002300E0002318464037BD4680BDC4
:1007800080B592B000AFF8607A603B600B46FB72B8
:1007900000237B61FB68002B00F0B680FB681B79AF
:1007A000012B40F0B180FB681B687B640AF0A8FC59
:1007B00003467B61FB7A402B25D0FB7A412B22D06C
:1007C0000AE07B690121184603F030FA0246BB6E4D
:1007D000934201D2012398E0FB7A1946786C0BF022
:1007E000E9FD0346002BECD00DE07B6901211846A2
:1007F00003F01CFA0246BB6E934204D2FB6E002249
:100800001A60012381E0F97A07F118027B68786C9D
:100810000BF062FC0346002BE7D1BA693B681A6013
:10082000FB69002B14BF01230023DBB21A463B6D8A
:100830001A70FB6A002B14BF01230023DBB21A4697
:100840003B6E1A703B6B002B14BF01230023DBB2FD
:100850001A467B6E1A703B6ADAB27B6D1A707B6A3D
:100860001B0C87F8433097F84330082B32D997F8A0
:100870004330093B062B32D801A252F823F000BFC7
:100880009D080008A5080008AD080008B508000884
:10089000BD080008C5080008CD080008BB6D0C2283
:1008A0001A701DE0BB6D10221A7019E0BB6D142286
:1008B0001A7015E0BB6D18221A7011E0BB6D202272
:1008C0001A700DE0BB6D30221A7009E0BB6D40223A
:1008D0001A7005E0BB6D97F843201A7000E000BF66
:1008E0007B6ADAB2FB6D1A70FB7A402B02D0FB7A7E
:1008F000412B07D1FB7A1946786C0BF0A1FD02461B
:10090000FB6E1A60002300E0002318464837BD46FE
:1009100080BD00BF80B584B000AF78607B68002BDD
:1009200009D07B681B79012B05D17B681B68FB60B4
:10093000F8680BF083FA00BF1037BD4680BD000099
:1009400080B483B000AF0346FB71FB79012B02D06A
:10095000022B02D003E0054B02E0054B00E0002330
:1009600018460C37BD465DF8047B7047684B002481
:10097000084C002480B588B002AFB9607A603B6053
:100980000346FB73FB7B1846FFF7DAFF78617B6950
:10099000002B07D03B6A00933B687A68B968786996
:1009A0000BF070FA00BF1837BD4680BD80B483B02D
:1009B00000AF03463960FB80B7F90630002B0ADB35
:1009C0003B68DAB20C49B7F906301201D2B20B44D7
:1009D00083F800230AE03B68DAB20849FB8803F099
:1009E0000F03043B1201D2B20B441A7600BF0C373E
:1009F000BD465DF8047B704700E100E000ED00E0DB
:100A000080B584B000AFF860B9607A60FB689BB2D3
:100A10000F3B9BB21BB279681846FFF7C7FF00BFB8
:100A20001037BD4680BD000080B584B000AF78604F
:100A30007B681B68FB60FB680133BB600DE0FB68F3
:100A40009B000D4A1344184603F03CFB0B4B1B68FC
:100A5000002B08D1B86802F003FA094B1B78DBB20F
:100A6000002BECD100E000BF002003F0B2FA00231D
:100A700018461037BD4680BD38070024680700249B
:100A80000000002480B584B000AF7860224B1B6862
:100A90001B68002B0CBF01230023DBB21A461F4B3F
:100AA0001A7029E01E4803F00DFB0123FB6012E0E1
:100AB000194B1A68FB6813440C331B78002B07D1C1
:100AC000FB68013B9B00174A1344184603F018FBD0
:100AD000FB680133FB60FB68022BE9DD002002F0BC
:100AE000BFF90D4B1B681B68002B14BF01230023AB
:100AF000DBB21A460C4B1A70084B1B78DBB2002B8A
:100B0000D0D1786800F012F8002003F062FA0023D8
:100B100018461037BD4680BD683201080000002429
:100B200034070024380700242C07002490B58BB02C
:100B300004AF7860354B01221A6000237B612CE002
:100B40007B699B00324A1344184603F0D9FA0346E6
:100B5000002B0AD04FF0500383F31188BFF36F8F3F
:100B6000BFF34F8F3B6100BFFEE77B699B00284AC4
:100B70001344184603F0E2FA0346002B0AD04FF064
:100B8000500383F31188BFF36F8FBFF34F8FFB6068
:100B900000BFFEE77B6901337B617B69012BCFDD01
:100BA00000237B6122E01B497A691346DB009B1A14
:100BB0009B000B44184A03926C4603F1100207CACB
:100BC00084E807000FCB03F00FFA0346002B0AD08E
:100BD0004FF0500383F31188BFF36F8FBFF34F8F34
:100BE000BB6000BFFEE77B6901337B617B69012B42
:100BF000D9DD0A4B00221A7002F0A8FB084803F066
:100C00007FFA002318461C37BD4690BD68070024B4
:100C1000380700246C070024640700240000002427
:100C20003007002480B584B002AF78603960324B61
:100C300027221A60304B26225A600AF011FA04F07B
:100C4000A7FC04F01BFD05F0BFFF04F05BFD04F002
:100C5000FDFD04F071FE04F015FF04F059FF04F0EF
:100C60009FFF05F001F805F063F805F0C3F805F003
:100C700073F905F0D7F905F059FA05F015FB05F001
:100C8000B3FB05F057FC05F037FE05F0D1FE05F08B
:100C900074FF05F06BFF05F0B9FC05F019FD05F0D8
:100CA0004FFD05F085FD05F0D5FD05F0E7FC0123BE
:100CB00000930123022200210120FFF75BFE0123A4
:100CC00000930123022200210220FFF753FE0B4B69
:100CD0001B6800221A6002F009FC02F0E1F8022011
:100CE0009FED070A03F006F8064803F0EBF900232E
:100CF00018460837BD4680BDA407002468320108A5
:100D00000AD7A33C3007002480B483B000AF034669
:100D1000FB80B7F90630002B0BDBFB8803F01F02CA
:100D20000749B7F906305B09012000FA02F241F8E1
:100D3000232000BF0C37BD465DF8047B704700BF21
:100D400000E100E080B582B000AF78607B68002BE6
:100D500008D07B681B79012B04D17B681B6818467F
:100D60000BF0BDF800BF0837BD4680BD80B400AFB2
:100D70000E4B5A7B0132D2B25A730C4B5B7B042B65
:100D800002D90A4B00225A73084B9A7B0132D2B225
:100D90009A73064B9B7B092B02D9044B00229A7352
:100DA00000BFBD465DF8047B704700BF784A002451
:100DB00080B483B000AF78607B6800221A727B68D1
:100DC00001225A607B6801221A637B6801225A6300
:100DD0007B6800229A637B6800229A637B6803F138
:100DE00038027B68DA627B6801221A727B68002213
:100DF0005A7200BF0C37BD465DF8047B7047000097
:100E000080B582B000AF78607B6800225A607B6852
:100E10004FF0FF321A637B684FF0FF325A637B68F2
:100E200000221A707B68012283F8A0207B68184694
:100E3000FFF7BEFF7B68DB6A1B68012B1ED17B6856
:100E4000D96A4FF000024FF00003C1E902237B682A
:100E5000DB6A103348220021184612F0CDF87B6877
:100E6000D96A4FF00002074BC1E916237B68D96AA3
:100E70004FF000024FF00003C1E9182300BF08370C
:100E8000BD4680BD0000F03F80B5A0B000AF87ED4B
:100E9000020B786039603B685B7A002B02D03B68BC
:100EA00000225A723B68DB6A1B68012B49D03B6801
:100EB000DB6A00221A713B68DB6A01221A603B6818
:100EC000D96A4FF000024FF00003C1E902233B68EA
:100ED000DB6A103348220021184612F08DF83B6877
:100EE000D96A4FF000028C4BC1E916233B68D96ADE
:100EF0004FF000024FF00003C1E918233B68DB6AA2
:100F000001221A713B68D96A4FF000024FF00003CA
:100F1000C1E902233B68DB6A1033482200211846EE
:100F200012F06AF83B68D96A4FF000027A4BC1E9C7
:100F300016233B68D96A4FF000024FF00003C1E965
:100F400018233B68DB6AD3E91623C7E91C233B68F7
:100F5000DB6AD3E90223C7E91E2300237B6611E085
:100F60003B68DA6A7B6E0233DB001344D3E900236B
:100F7000796EC900803139447039C1E900237B6E34
:100F800001337B667B6E082BEADD3B68DB6AD3E9C5
:100F90001823C7E916234FF000024FF00003C7E9FA
:100FA0001A2379684FF000024FF00003C1E90023D3
:100FB00097ED1E6B97ED027B36EE077B87ED1E7B70
:100FC00097ED167BB5EE407BF1EE10FA12D197ED5E
:100FD0001C7BFDEEC77B17EE903A013BDB008033B4
:100FE0003B44703B93ED007B97ED1E6B36EE077B29
:100FF00087ED1A7B97ED1C7BFDEEC77B17EE903AD1
:10100000013BDB0080333B44A3F17001D7E90223AD
:10101000C1E9002397ED1C7BB2EE026BB4EE467B78
:10102000F1EE10FA08D097ED1C7BB7EE006B37EEAF
:10103000067B87ED1C7B2BE04FF00002364BC7E9A7
:101040001C234FF000024FF00003C7E91E230723C3
:101050007B661AE07B6EDB0080333B44703B93ED94
:10106000006B7B6E0133DB0080333B44703B93EDC0
:10107000007B36EE077B7B6EDB0080333B44703BAE
:1010800083ED007B7B6E013B7B667B6E002BE1DAA0
:1010900097ED167BB5EE407BF1EE10FA08D197ED97
:1010A0001A6BB2EE045B86EE057B7B6883ED007BFA
:1010B0003B68D96AD7E91E23C1E902233B68DB6A92
:1010C000103307F110014822184612F01FF83B6850
:1010D000D96AD7E91C23C1E9162397ED167BB5EE33
:1010E000C07BF1EE10FA0ADD3B68DB6A97ED167BF8
:1010F000B7EE006B37EE467B83ED187B07E03B686D
:10110000D96A4FF000024FF00003C1E9182300BF75
:101110008037BD4680BD00BF0000F03F80B483B083
:1011200000AF78607B681B78002B1BD17B680122A5
:101130001A707B685B68012B14D17B681B7A002BCB
:1011400010D07B68DB6A1B68012B03D17B68DB6AEC
:1011500002221A607B684FF0FF321A637B684FF0FF
:10116000FF325A6300BF0C37BD465DF8047B704701
:1011700080B582B000AF78607B6800221A707B680F
:1011800001221A747B6801225A600120FFF770F96E
:1011900002467B68DA607B68DB681846FFF7D2FDA1
:1011A0007B6801221A7200BF0837BD4680BD80B53A
:1011B0008AB006AF786039603B68D86807F10C03E5
:1011C000059300230493002303934FF47A7302934F
:1011D0000323019300230093002340F21122796836
:1011E000FFF7BEF900BF1037BD4680BD80B582B0A5
:1011F00000AF78607B681B78002B0FD17B680122E1
:101200001A707B685B68012B08D17B681B7A002B06
:1012100004D07B68DB681846FFF77CFB00BF08370B
:10122000BD4680BD80B582B000AF78607B6800228B
:101230001A707B6801221A747B6801225A600120AF
:10124000FFF716F902467B68DA607B68DB681846B0
:10125000FFF778FD7B6801221A7200BF0837BD4690
:1012600080BD80B58AB006AF786039603B68D868C9
:1012700007F10C03059300230493002303934FF419
:101280007A730293032301930023009300234FF406
:1012900004727968FFF764F900BF1037BD4680BD5E
:1012A00080B582B000AF78607B681B78002B0FD1CF
:1012B0007B6801221A707B685B68012B08D17B6810
:1012C0001B7A002B04D07B68DB681846FFF722FBF3
:1012D00000BF0837BD4680BD80B483B000AF7860E2
:1012E0007B6800221A727B6801225A607B680122A7
:1012F0001A637B6801225A637B6800229A637B68C9
:1013000000229A637B6803F138027B68DA627B68AB
:1013100001221A727B6800225A7200BF0C37BD4648
:101320005DF8047B7047000080B594B000AFFFF714
:101330001DFDC14B93EDEA7BB0EE470B11F088FC2D
:1013400087ED0C0B97ED0C0B02F03AFC0346002BDB
:1013500006D197ED0C0B02F00DFC0346002B06D0D6
:101360004FF000024FF00003C7E90C2307E09FEDA8
:10137000AE1B97ED0C0B11F043FC87ED0C0B97EDBA
:101380000C7BB5EEC07BF1EE10FA0BD597ED0C7B24
:10139000B1EE477BFCEEC77B17EE903A9BB25B4207
:1013A0009BB206E097ED0C7BFCEEC77B17EE903A04
:1013B0009BB2A24A02F500521386A04B03F50053DC
:1013C0001B8E1B0A9BB21AB29C4B03F500531B8E5B
:1013D0001B021BB213431BB29AB2984B03F5005386
:1013E0005A86954B93EDEC7BB0EE470B11F030FC39
:1013F00087ED0C0B97ED0C0B02F0E2FB0346002B84
:1014000006D197ED0C0B02F0B5FB0346002B06D07E
:101410004FF000024FF00003C7E90C2307E09FEDF7
:10142000821B97ED0C0B11F0EBFB87ED0C0B97ED8E
:101430000C7BB5EEC07BF1EE10FA0BD597ED0C7B73
:10144000B1EE477BFCEEC77B17EE903A9BB25B4256
:101450009BB206E097ED0C7BFCEEC77B17EE903A53
:101460009BB2764A02F500529386744B03F5005303
:101470009B8E1B0A9BB21AB2704B03F500539B8ED6
:101480001B021BB213431BB29AB26C4B03F5005301
:10149000DA86694B93EDEE7BB0EE470B11F0D8FB8B
:1014A00087ED0C0B97ED0C0B02F08AFB0346002B2B
:1014B00006D197ED0C0B02F05DFB0346002B06D026
:1014C0004FF000024FF00003C7E90C2307E09FED47
:1014D000581B97ED0C0B11F093FB87ED0C0B97ED60
:1014E0000C7BB5EEC07BF1EE10FA0CD597ED0C7BC2
:1014F000B1EE477BFCEEC77BC7ED017A3B79DBB2EF
:101500005B42DBB207E097ED0C7BFCEEC77BC7EDDF
:10151000017A3B79DBB2494A02F5005282F8663023
:101520000023BB620023FB84454B3B620223FB8408
:101530003A6ABB6A1344FA8C4249184611F0E6FD38
:1015400041494248FFF78DFE3B4B93EDF07BB0EEF7
:10155000470B11F07DFB87ED0C0B97ED0C0B02F0A8
:101560002FFB0346002B06D197ED0C0B02F002FB7C
:101570000346002B06D04FF000024FF00003C7E9EE
:101580000C2307E09FED2A1B97ED0C0B11F038FBA5
:1015900087ED0C0B97ED0C7BB5EEC07BF1EE10FAEE
:1015A0000CD597ED0C7BB1EE477BFCEEC77BC7ED0E
:1015B000017A3B79DBB25B42DBB207E097ED0C7B53
:1015C000FCEEC77BC7ED017A3B79DBB21B4A02F523
:1015D000005282F869300023FB6100237B831C4B9F
:1015E0007B6102237B837A69FB6913447A8B1949F7
:1015F000184611F08BFD18491848FFF7D8FD184A16
:1016000042F210031344D3E90023C7E90E23144B1D
:1016100003F5005393F8A030002B23D00023FB6286
:1016200028E000BFAFF30080000000000000F040A1
:10163000000000000000704008000024B0070024F3
:1016400017280024E227002400490024162800243B
:101650001A280024E627002414490024192800240D
:1016600030280024AA4B5A68AA4B03F50053DB6DBF
:10167000D31AFB62A64B5B68A64A02F50052D365FB
:10168000A44B03F50053002283F8A020A24B93ED56
:10169000927BB5EEC07BF1EE10FA16D99E4B93ED1E
:1016A000947BB5EEC07BF1EE10FAACBF01230023B2
:1016B000DBB283F00103DBB2002B08D0954B03F5BE
:1016C000005393F8A130002B01D0012300E0002348
:1016D000DAB2904B03F5005383F8A1208F4990486C
:1016E0009FED890BFFF7D0FB8A4B03F5005393F86E
:1016F000A230002B0BD0874B03F50053002283F858
:10170000A220854BD3E9AE23C7E9122306E0854B1F
:1017100003F5025353E90223C7E912237E4B93EDED
:101720009E7B97ED0E6BB4EEC76BF1EE10FA04DD05
:10173000D7E90E23C7E90C2304E0774BD3E95A23FA
:10174000C7E90C23744B93ED9C6B97ED0C7B26EE55
:10175000076B704B03F5015313ED027B36EE477BAD
:1017600087ED0C7B6C4B93EDA27B97ED0C6BB4EE8D
:10177000C76BF1EE10FA05DD674BD3E9A223C7E989
:101780000C230EE0644B93EDA47B97ED0C6BB4EE51
:10179000C76BF1EE10FA04D55F4BD3E9A423C7E978
:1017A0000C23604B03F5025313ED026B97ED0C7B9A
:1017B00026EE076B574A42F22003134413ED024B07
:1017C000554B93EDA85B84EE057B36EE477B87EDAA
:1017D0000C7B514B93EDAA7B97ED0C6BB4EEC76B72
:1017E000F1EE10FA05DD4C4BD3E9AA23C7E90C232F
:1017F0000EE0494B93EDAC7B97ED0C6BB4EEC76BF1
:10180000F1EE10FA04D5444BD3E9AC23C7E90C231D
:1018100097ED0C5B97ED126B85EE067B87ED107BE9
:101820003C4B03F5005393F89D30002B1ED1394AF1
:1018300041F6F073134493ED006B374B93EDB05BBF
:10184000FB6A07EE903AB8EE677B25EE075B314BFB
:1018500003F5015393ED007B25EE077B36EE077B06
:101860002C4A41F6F073134483ED007B2A4B93ED31
:10187000067B97ED106B26EE077B87ED127B264BE0
:1018800093ED006B97ED107B26EE076B214A41F636
:10189000F073134493ED007B36EE476B1E4B93EDD4
:1018A000187B26EE077B1B4B03F5015383ED007B72
:1018B000194B93ED1E7B97ED106B26EE077B87EDA2
:1018C000027B154B93EDC07BB5EEC07BF1EE10FAB9
:1018D00016D9114B93EDC27BB5EEC07BF1EE10FA39
:1018E000ACBF01230023DBB283F00103DBB2002B8A
:1018F0001AD0084B03F5005393F8A330002B13D0F4
:10190000012312E0AFF3008000000000000000009F
:10191000784A00243028002408000024D0490024FC
:1019200028280024B00700240023DAB2B04B03F5C6
:10193000005383F8A320AF49AF489FEDAB0BFFF7EF
:10194000A3FAAB4B03F5005393F8A430002B0BD054
:10195000A74B03F50053002283F8A420A74BD3E93B
:10196000D023C7E9102307E0A54A42F270031344CD
:10197000D3E90023C7E91023A04B93EDB67B97ED85
:101980000E6BB4EEC76BF1EE10FACCBF012300234F
:10199000DBB283F00103DBB2002B04D0974BD3E919
:1019A0008C23C7E90E23954B93EDB46B97ED0E7B1B
:1019B00026EE076B8E4A42F25003134413ED027B6E
:1019C00036EE477B87ED0C7B8C4B93EDBA7B97ED26
:1019D0000C6BB4EEC76BF1EE10FA05DD874BD3E963
:1019E000BA23C7E90C230EE0844B93EDBC7B97ED43
:1019F0000C6BB4EEC76BF1EE10FA04D57F4BD3E954
:101A0000BC23C7E90C237E4A42F27003134493EDD2
:101A1000006B97ED0C7B26EE076B754A42F22003B4
:101A2000134413ED024B754B93EDCA5B84EE057BBB
:101A300036EE477B87ED0C7B704B93EDCC7B97EDBF
:101A40000C6BB4EEC76BF1EE10FA05DD6B4BD3E90E
:101A5000CC23C7E90C230EE0684B93EDCE7B97EDCA
:101A60000C6BB4EEC76BF1EE10FA04D5634BD3E9FF
:101A7000CE23C7E90C2397ED0C5B97ED106B85EE39
:101A8000067B87ED0E7B5A4B03F5005393F89E308F
:101A9000002B1DD1564B03F5005393ED006B574BB4
:101AA00093EDD25BFB6A07EE903AB8EE677B25EECA
:101AB000075B4F4A42F25003134493ED007B25EE3F
:101AC000077B36EE077B4A4B03F5005383ED007B23
:101AD0004A4B93ED026B97ED0E7B26EE076B444B62
:101AE00003F5005393ED007B36EE476B434B93EDCC
:101AF0001A7B26EE077B3E4A42F25003134483EDE5
:101B0000007B3B4B03F5005313ED026B97ED027B1B
:101B100036EE076B364B03F5015393ED007B36EE43
:101B2000077B334B03F5015303ED027B304B03F589
:101B30000053002283F89D202D4B03F5005313ED35
:101B4000026B2E4B93EDB25B97ED127B25EE077B7C
:101B500036EE077B264B03F5005303ED027B274B44
:101B600093ED206B97ED0E7B26EE076B204A42F239
:101B70001003134413ED027B36EE076B1C4A42F24E
:101B80005003134493ED007B36EE077B184A42F274
:101B90005003134403ED027B154B03F50053002261
:101BA00083F89E20124A42F21003134413ED026B95
:101BB000124B93ED085B97ED0E7B25EE075B0F4B09
:101BC00093EDD47B25EE077B36EE077B084A42F285
:101BD0001003134403ED027B0A4B5A6801325A602A
:101BE00000BF5037BD4680BD00000000000000006F
:101BF000302800242849002420280024080000243C
:101C0000B0070024784A002480B58CB000AFA24B06
:101C100003F5005393F89F30002B02D00023BB60E4
:101C200007E09E4B9A689C4B03F500539B6DD31ABB
:101C3000BB609A4B9B68984A02F500529365964B9D
:101C400003F50053002283F89F20934B03F50053C4
:101C500093F89A30002B1DD18F4B03F5FF5313EDF2
:101C6000026B8F4B93EDDA5BBB6807EE903AB8EEF0
:101C7000677B25EE075B884A42F22003134493ED0D
:101C8000007B25EE077B36EE077B834B03F5FF5386
:101C900003ED027B804B5B7A002B02D07E4B00224F
:101CA0005A727D4BDB6A1B68012B5BD07A4BDB6A77
:101CB00000221A71784BDB6A01221A60764BD96ACE
:101CC0004FF000024FF00003C1E90223724BDB6AC0
:101CD000103341F638720021184611F08DF96E4B21
:101CE000DA6A41F65073134419464FF000026D4B07
:101CF00041E90223684BDA6A41F6507313441946EE
:101D00004FF000024FF00003C1E90023624BDB6A91
:101D100001221A71604BD96A4FF000024FF00003A4
:101D2000C1E902235C4BDB6A103341F638720021B3
:101D3000184611F061F9584BDA6A41F650731344B2
:101D400019464FF00002574B41E90223524BDA6A21
:101D500041F65073134419464FF000024FF0000350
:101D6000C1E900234C4BDA6A41F65073134453E93E
:101D70000223C7E90823484BDB6AD3E90223C7E9FA
:101D80000A230023FB6010E0434BDA6AFB6802334E
:101D9000DB001344D3E900234348F968C900014438
:101DA000C1E90023FB680133FB60FB6840F2E632C7
:101DB0009342E9DD384BDA6A41F650731344D3E9B4
:101DC0000023C7E900234FF000024FF00003C7E9EA
:101DD00004234FF000024FF00003C7E906232E4B07
:101DE00003F5FF5313ED027B97ED0A6B36EE077B8D
:101DF00087ED0A7B97ED007BB5EE407BF1EE10FAA4
:101E000011D197ED087BFDEEC77B17EE903A013BB1
:101E1000254ADB00134493ED007B97ED0A6B36EE09
:101E2000077B87ED047B97ED087BFDEEC77B17EE04
:101E3000903A591E184B03F5FF5353E902231A48F1
:101E4000C9000144C1E9002397ED087B9FED106BA9
:101E5000B4EE467BF1EE10FA08D097ED087BB7EEB2
:101E6000006B37EE067B87ED087B3AE04FF000020F
:101E70000C4BC7E908234FF000024FF00003C7E9FD
:101E80000A2340F2E533FB6028E000BFAFF3008097
:101E90000000000000388F4030280024784A0024D9
:101EA000080000240000F03FB0070024B64AFB6899
:101EB000DB00134493ED006BFB680133B24ADB0097
:101EC000134493ED007B36EE077BAF4AFB68DB00E3
:101ED000134483ED007BFB68013BFB60FB68002B38
:101EE000E4DA97ED007BB5EE407BF1EE10FA07D116
:101EF00097ED046B9FEDA05B86EE057B87ED067B7F
:101F0000A24BD96AD7E90A23C1E902239F4BDB6AB6
:101F1000103341F638729C49184611F0F7F89B4B84
:101F2000DA6A41F6507313441946D7E9082341E9A8
:101F3000022397ED007BB5EEC07BF1EE10FA0DDDCC
:101F4000924BDA6A97ED007BB7EE006B37EE467B7B
:101F500041F65073134483ED007B0BE08B4BDA6A40
:101F600041F65073134419464FF000024FF000033E
:101F7000C1E90023864B93EDDE6B854B93EDD87B57
:101F800036EE475B824B93EDE06B814B93EDE27B4A
:101F900036EE477B85EE076B97ED067B26EE076BEB
:101FA0007B4B93EDD87B36EE077B87ED087B774B39
:101FB00003F5005393F89B30002B1DD1734B03F5B1
:101FC000FF5393ED006B724B93EDE45BBB6807EE40
:101FD000903AB8EE677B25EE075B6C4A42F230031D
:101FE000134413ED027B25EE077B36EE077B674B30
:101FF00003F5FF5383ED007B644B03F5005393F827
:102000009C30002B1FD1614A41F6F073134413ED4D
:10201000026B5F4B93EDE65BBB6807EE903AB8EE60
:10202000677B25EE075B594A42F23003134493ED78
:10203000007B25EE077B36EE077B544A41F6F073B2
:10204000134403ED027B524B93ED046B97ED087B39
:1020500026EE076B4D4B03F5FF5393ED007B36EEF9
:10206000476B4B4B93ED1C7B26EE077B474A42F2B6
:102070003003134403ED027B444B03F5005300226D
:1020800083F89A20424B93EDE86B9FED3D5B85EE24
:10209000067B3E4A42F22003134483ED007B3B4B18
:1020A00003F50053002283F89B20384B03F50053BF
:1020B000002283F89C20364B93ED0A6B97ED087B4A
:1020C00026EE077B314A42F23003134483ED007B56
:1020D0002F4B93F8BD35012B07D12D4B03F594639E
:1020E000D3E90023C7E9062306E0294B03F59663ED
:1020F00053E90223C7E90623254B03F5A66393EDB5
:10210000007B97ED066BB4EEC76BF1EE10FA0BDDBA
:102110001F4B03F59A6353E902231C4842F2200146
:10212000014441E902231CE0194B93ED226B97ED2A
:10213000087B26EE076B154A41F6F073134413ED46
:10214000027B36EE076B114A42F23003134413ED63
:10215000027B36EE077B0D4A42F22003134403ED67
:10216000027B0C4B9A6801329A6000BF3037BD4643
:1021700080BD00BFAFF300800000000000408F4032
:102180000000000000000000B007002430280024F8
:1021900008000024784A002480B5A8B006AF924B0E
:1021A00003F50053B3F888309AB2904B03F500530F
:1021B0001A828F4B93F8BE35012B07D18C4B03F558
:1021C0009263D3E90023C7E9202306E0884B03F597
:1021D000946353E90223C7E92023834B03F500539B
:1021E000B3F88A309AB2814B03F500539A827E4B42
:1021F00003F50053B3F88C309AB27C4B03F50053CF
:102200001A83794B03F50053B3F88E309AB2774BAB
:1022100003F500539A83744B03F50053B3F89030E1
:102220009AB2724B03F500531A846F4B03F50053B7
:10223000B3F892309AB26D4B03F500539A846A4B0F
:1022400003F50053B3F894309AB2684B03F500538A
:102250001A85654B03F50053B3F896309AB2634B79
:1022600003F500539A85624B03F5A86313ED027BD7
:1022700097ED206BB4EEC76BF1EE10FACCBF0123E3
:102280000023DBB283F00103DBB2002B45D0584BB7
:1022900003F59A6393ED007BB0EE470B10F0D8FC8A
:1022A00087ED1E0B97ED1E0B01F08AFC0346002BF9
:1022B00006D197ED1E0B01F05DFC0346002B06D006
:1022C0004FF000024FF00003C7E91E2307E09FED27
:1022D000441B97ED1E0B10F093FC87ED1E0B97ED42
:1022E0001E7BB5EEC07BF1EE10FA0BD597ED1E7B91
:1022F000B1EE477BFCEEC77B17EE903A9BB25B4298
:102300009BB206E097ED1E7BFCEEC77B17EE903A82
:102310009BB2364A02F500521382344B03F5005348
:102320001B8A1B0A9BB21AB2304B03F500531B8A5F
:102330001B021BB213431BB29AB22C4B03F5005382
:102340005A822B4B03F5A86393ED007B97ED206B2E
:10235000B4EEC76BF1EE10FACCBF01230023DBB261
:1023600083F00103DBB2002B4FD0214B03F59C63BC
:1023700013ED027BB0EE470B10F06AFC87ED1E0BED
:1023800097ED1E0B01F01CFC0346002B06D197EDC8
:102390001E0B01F0EFFB0346002B06D04FF00002AE
:1023A0004FF00003C7E91E2307E09FED0D1B97EDDB
:1023B0001E0B10F025FC87ED1E0B97ED1E7BB5EE76
:1023C000C07BF1EE10FA15D597ED1E7BB1EE477B81
:1023D000FCEEC77B17EE903A9BB25B429BB210E0DB
:1023E000000000000000F04030280024B007002466
:1023F0000800002497ED1E7BFCEEC77B17EE903A99
:102400009BB2A34A02F500529382A14B03F50053FD
:102410009B8A1B0A9BB21AB29D4B03F500539B8A01
:102420001B021BB213431BB29AB2994B03F5005324
:10243000DA82984B03F5AA6313ED027B97ED206BCC
:10244000B4EEC76BF1EE10FACCBF01230023DBB270
:1024500083F00103DBB2002B45D08E4B03F59C6368
:1024600093ED007BB0EE470B10F0F2FB87ED1E0BF7
:1024700097ED1E0B01F0A4FB0346002B06D197ED50
:102480001E0B01F077FB0346002B06D04FF0000235
:102490004FF00003C7E91E2307E09FED7B1B97ED7C
:1024A0001E0B10F0ADFB87ED1E0B97ED1E7BB5EEFE
:1024B000C07BF1EE10FA0BD597ED1E7BB1EE477B9A
:1024C000FCEEC77B17EE903A9BB25B429BB206E0F4
:1024D00097ED1E7BFCEEC77B17EE903A9BB26C4AE1
:1024E00002F5005213836A4B03F500531B8B1B0A42
:1024F0009BB21AB2664B03F500531B8B1B021BB237
:1025000013431BB29AB2624B03F500535A83614BDB
:1025100003F5AA6393ED007B97ED206BB4EEC76BD8
:10252000F1EE10FACCBF01230023DBB283F00103EC
:10253000DBB2002B45D0574B03F59E6313ED027BB6
:10254000B0EE470B10F084FB87ED1E0B97ED1E0BD2
:1025500001F036FB0346002B06D197ED1E0B01F070
:1025600009FB0346002B06D04FF000024FF000039A
:10257000C7E91E2307E09FED441B97ED1E0B10F0EB
:102580003FFB87ED1E0B97ED1E7BB5EEC07BF1EE9A
:1025900010FA0BD597ED1E7BB1EE477BFCEEC77BA7
:1025A00017EE903A9BB25B429BB206E097ED1E7B22
:1025B000FCEEC77B17EE903A9BB2354A02F500520B
:1025C0009383334B03F500539B8B1B0A9BB21AB2C8
:1025D0002F4B03F500539B8B1B021BB213431BB203
:1025E0009AB22B4B03F50053DA832A4B03F5AC6305
:1025F00013ED027B97ED206BB4EEC76BF1EE10FA92
:10260000CCBF01230023DBB283F00103DBB2002B3C
:102610004DD0204B03F59E6393ED007BB0EE470B4E
:1026200010F016FB87ED1E0B97ED1E0B01F0C8FA9C
:102630000346002B06D197ED1E0B01F09BFA0346D3
:10264000002B06D04FF000024FF00003C7E91E2315
:1026500007E09FED0D1B97ED1E0B10F0D1FA87EDF3
:102660001E0B97ED1E7BB5EEC07BF1EE10FA13D575
:1026700097ED1E7BB1EE477BFCEEC77B17EE903AE1
:102680009BB25B429BB20EE0000000000000F040F5
:10269000B00700240800002497ED1E7BFCEEC77BEA
:1026A00017EE903A9BB2A44A02F500521384A24B53
:1026B00003F500531B8C1B0A9BB21AB29E4B03F509
:1026C00000531B8C1B021BB213431BB29AB29A4BD2
:1026D00003F500535A84994B03F5AC6393ED007BEB
:1026E00097ED206BB4EEC76BF1EE10FACCBF01236F
:1026F0000023DBB283F00103DBB2002B45D08F4B0C
:1027000003F5966393ED007BB0EE470B10F0A0FA53
:1027100087ED1E0B97ED1E0B01F052FA0346002BBE
:1027200006D197ED1E0B01F025FA0346002B06D0CB
:102730004FF000024FF00003C7E91E2307E09FEDB2
:102740007C1B97ED1E0B10F05BFA87ED1E0B97EDCF
:102750001E7BB5EEC07BF1EE10FA0BD597ED1E7B1C
:10276000B1EE477BFCEEC77B17EE903A9BB25B4223
:102770009BB206E097ED1E7BFCEEC77B17EE903A0E
:102780009BB26D4A02F5005293846B4B03F50053E4
:102790009B8C1B0A9BB21AB2674B03F500539B8CB0
:1027A0001B021BB213431BB29AB2634B03F50053D7
:1027B000DA84624B03F5AE6313ED027B97ED206B79
:1027C000B4EEC76BF1EE10FACCBF01230023DBB2ED
:1027D00083F00103DBB2002B45D0584B03F598631F
:1027E00013ED027BB0EE470B10F032FA87ED1E0BB3
:1027F00097ED1E0B01F0E4F90346002B06D197ED8F
:102800001E0B01F0B7F90346002B06D04FF0000273
:102810004FF00003C7E91E2307E09FED451B97ED2E
:102820001E0B10F0EDF987ED1E0B97ED1E7BB5EE3C
:10283000C07BF1EE10FA0BD597ED1E7BB1EE477B16
:10284000FCEEC77B17EE903A9BB25B429BB206E070
:1028500097ED1E7BFCEEC77B17EE903A9BB2364A93
:1028600002F500521385344B03F500531B8D1B0AF0
:102870009BB21AB2304B03F500531B8D1B021BB2E7
:1028800013431BB29AB22C4B03F500535A852B4BC2
:1028900003F5AE6393ED007B97ED206BB4EEC76B51
:1028A000F1EE10FACCBF01230023DBB283F0010369
:1028B000DBB2002B4FD0214B03F5986393ED007BE7
:1028C000B0EE470B10F0C4F987ED1E0B97ED1E0B11
:1028D00001F076F90346002B06D197ED1E0B01F0AF
:1028E00049F90346002B06D04FF000024FF00003D9
:1028F000C7E91E2307E09FED0E1B97ED1E0B10F09E
:102900007FF987ED1E0B97ED1E7BB5EEC07BF1EED8
:1029100010FA15D597ED1E7BB1EE477BFCEEC77B19
:1029200017EE903A9BB25B429BB210E0AFF300808F
:10293000000000000000F040B00700240800002460
:1029400097ED1E7BFCEEC77B17EE903A9BB2B04A28
:1029500002F500529385AE4B03F500539B8D1B0A85
:102960009BB21AB2AA4B03F500539B8D1B021BB2FC
:1029700013431BB29AB2A64B03F50053DA8500232A
:102980003B670023A7F86E30A24BBB660223A7F873
:102990006E30BA6E3B6F1344B7F86E209E491846EE
:1029A00010F0B4FB00237B660023A7F862309B4B3A
:1029B000FB650223A7F86230FA6D7B6E1344B7F80B
:1029C00062209749184610F0A1FB0023BB65002345
:1029D000A7F85630934B3B650223A7F856303A6D63
:1029E000BB6D1344B7F856208F49184610F08EFB84
:1029F0000023FB640023A7F84A308C4B7B6402233E
:102A0000A7F84A307A6CFB6C1344B7F84A2088491F
:102A1000184610F07BFB874B03F58053D3F89C0FCF
:102A200007F11003059300230493002303934FF44D
:102A30007A73029308230193002300930023082252
:102A40007449FDF78DFD00233B640023FB877A4B1F
:102A5000BB630223FB87BA6B3B6C1344FA8F774945
:102A6000184610F053FB00237B6300237B86744BD6
:102A7000FB6202237B86FA6A7B6B13447A8E714970
:102A8000184610F043FB0023BB620023FB846E4B0F
:102A90003B620223FB843A6ABB6A1344FA8C6B499B
:102AA000184610F033FB0023FB6100237B83684B47
:102AB0007B6102237B837A69FB6913447A8B6549C6
:102AC000184610F023FB5B4B03F58053D3F8AC0F93
:102AD00007F11003059300230493002303934FF49D
:102AE0007A730293082301930023009300230922A1
:102AF0005149FDF735FD4F4A41F6D073134493ED2C
:102B0000006B554B03F58A6313ED027B36EE077BB2
:102B1000484A41F6D073134483ED007B454A41F6A1
:102B2000D073134493ED006B4B4B03F58A6393ED25
:102B3000007BB4EEC76BF1EE10FA07DD464B03F5F0
:102B40008663D3E90023C7E91E2306E0424B03F561
:102B5000886353E90223C7E91E2397ED1E7BB5EE78
:102B6000C07BF1EE10FA00DC6AE13B4B93EDF27BA7
:102B7000B0EE470B10F06CF887ED1E0B97ED1E0BB7
:102B800001F01EF80346002B06D197ED1E0B00F056
:102B9000F1FF0346002B06D04FF000024FF0000378
:102BA000C7E91E2307E09FED181B97ED1E0B10F0E1
:102BB00027F887ED1E0B97ED1E7BB5EEC07BF1EE7F
:102BC00010FA0CD597ED1E7BB1EE477BFCEEC77B70
:102BD000C7ED017A3B79DBB25B42DBB207E097EDF0
:102BE0001E7BFCEEC77BC7ED017A3B79DBB23B7302
:102BF000104B03F5005393F89830052B2ED905237D
:102C00007B6731E0AFF300800000000000007040FF
:102C1000B007002406280024C22700240828002426
:102C2000C62700240A280024CA2700240C280024D0
:102C3000CE270024302800240E280024D227002488
:102C400010280024D627002412280024DA27002484
:102C500014280024DE270024080000247C4B03F500
:102C6000005393F898307B677A4A7B6F7A33DB00A6
:102C7000134493ED007BB0EE470B0FF0E9FF87EDB7
:102C80001E0B97ED1E0B00F09BFF0346002B06D199
:102C900097ED1E0B00F06EFF0346002B06D04FF0A1
:102CA00000024FF00003C7E91E2307E09FED661BFB
:102CB00097ED1E0B0FF0A4FF87ED1E0B97ED1E7B0B
:102CC000B5EEC07BF1EE10FA0CD597ED1E7BB1EEA0
:102CD000477BFCEEC77BC7ED017A3B79DBB25B42F9
:102CE000DBB207E097ED1E7BFCEEC77BC7ED017AF8
:102CF0003B79DBB27B73564B03F5005393F8993065
:102D0000052B02D905237B6705E0514B03F50053E2
:102D100093F899307B674F4A7B6F8033DB00134415
:102D200093ED007BB0EE470B0FF092FF87ED1E0B8B
:102D300097ED1E0B00F044FF0346002B06D197EDE4
:102D40001E0B00F017FF0346002B06D04FF00002C9
:102D50004FF00003C7E91E2307E09FED3B1B97EDF3
:102D60001E0B0FF04DFF87ED1E0B97ED1E7BB5EE92
:102D7000C07BF1EE10FA0CD597ED1E7BB1EE477BD0
:102D8000FCEEC77BC7ED017A3B79DBB25B42DBB27D
:102D900007E097ED1E7BFCEEC77BC7ED017A3B7920
:102DA000DBB2BB7307F10C032B491846FEF7FFF9A2
:102DB00007F10C0329491846FEF753FA244B03F593
:102DC000005393F89820234B93F8BB351344DAB2A1
:102DD0001F4B03F5005383F898201D4B03F5005358
:102DE00093F898201B4B93F8A0309A4207D9194BBF
:102DF00093F8B725164B03F5005383F89820144B2E
:102E000003F5005393F89920124B93F8BC35134403
:102E1000DAB20F4B03F5005383F899200C4B03F5FE
:102E2000005393F899200B4B93F8A1309A4207D99D
:102E3000084B93F8B825064B03F5005383F8992007
:102E400000BF8837BD4680BD000000000000704014
:102E50003028002408000024EC480024D84800242E
:102E600080B582B000AF78607B68022B0FD07B68A2
:102E7000022B0FDC7B68002B03D07B68012B03D077
:102E800008E0FEF751FA06E0FEF7BEFE03E0FFF7AA
:102E900083F900E000BF00BF0837BD4680BD0000D9
:102EA00080B500AFBE4B03F5A66353E90223BD48CE
:102EB00042F22001014441E90223B94B03F5A0632A
:102EC00053E90223B74842F210010144C1E900234B
:102ED000B34BB3F89825B34B03F50053A3F8882000
:102EE000AF4BB3F89A25AF4B03F50053A3F88A20F4
:102EF000AB4BB3F89C25AB4B03F50053A3F88C20E8
:102F0000A74BB3F89E25A74B03F50053A3F88E20DB
:102F1000A34BB3F8A025A34B03F50053A3F89020CF
:102F20009F4BB3F8A2259F4B03F50053A3F89220C3
:102F30009B4BB3F8A4259B4B03F50053A3F89420B7
:102F4000974BB3F8A625974B03F50053A3F89620AB
:102F5000944B03F58053002283F8902F914B03F597
:102F600080531A460123C2F8943F0120FDF780FAEE
:102F700003468C4A02F58052C2F89C3F894B03F508
:102F80008053D3F89C3F1846FDF7DCFE854B03F5D4
:102F90008053012283F8982F824B03F5805300223F
:102FA00083F8A02F7F4B03F580531A460123C2F804
:102FB000A43F0120FDF75CFA03467A4A02F58052ED
:102FC000C2F8AC3F774B03F58053D3F8AC3F1846BB
:102FD000FDF7B8FE734B03F58053012283F8A82F49
:102FE0006F4B03F58863D3E900236E4841F6D07137
:102FF0000144C1E900236A4B93F8B925694B03F5F5
:10300000005383F89820664B93F8BA25654B03F577
:10301000005383F899206448FEF7AAF86348FEF746
:1030200001F95F4BB3F88225614B03F500531A8118
:103030005B4BB3F888255E4B03F500539A80584BE1
:10304000B3F884255A4B03F50053DA80544BB3F898
:103050008025574B03F500535A81514BB3F87C251B
:10306000534B03F500539A814D4BB3F87825504BE1
:1030700003F50053DA814A4BB3F88E254C4B03F528
:1030800000531A80464BB3F88C25494B03F5005387
:103090005A80444B03F58053002283F8C02F414BE4
:1030A00003F580531A460123C2F8C43F0120FDF7FF
:1030B000DFF903463B4A02F58052C2F8CC3F394B58
:1030C00003F58053D3F8CC3F1846FDF73BFE354B54
:1030D00003F58053012283F8C82F3648FEF7A2F883
:1030E0003548FEF745F82E4BD3E9DC232D4901F591
:1030F000FF5141E902232A4BD3E91023294901F565
:10310000FF51C1E90023264BD3E91623254841F698
:10311000F071014441E90223224B00225A60214B05
:103120004FF0FF321A631F4B4FF0FF325A631D4BB3
:1031300000221A701B48FEF7CFF81A4BDB6A1B6897
:10314000012B27D1174BD96A4FF000024FF0000333
:10315000C1E90223134BDB6A103341F638720021B8
:1031600018460FF049FF0F4BDA6A41F650731344CB
:1031700019464FF00002114B41E90223094BDA6A6C
:1031800041F65073134419464FF000024FF000030C
:10319000C1E90023034B03F50053012210E000BFF7
:1031A0000800002430280024EC480024D8480024DB
:1031B000B007002400490024144900240000F03F17
:1031C00083F8A2205C4B03F50053012283F8A4206E
:1031D0005A4BD3E9A023584901F5015141E9022393
:1031E000564BD3E90C23544841F6F0710144C1E930
:1031F0000023524BD3E912234F4901F5005141E915
:1032000002234E4BD3E9B8234B4842F2500101440C
:1032100041E90223494BD3E90E23474901F5005107
:10322000C1E90023454BD3E91423434842F210017E
:10323000014441E902234248FDF7E2FD4148FDF720
:10324000DFFD3D4B03F58053002283F8B02F3A4B4E
:1032500003F580531A460123C2F8B43F0020FDF75E
:1032600007F90346344A02F58052C2F8BC3F324B9C
:1032700003F58053D3F8BC3F1846FDF763FD2E4B92
:1032800003F58053012283F8B82F2C4B03F58C6390
:1032900053E902232C4841F6F071014441E902232D
:1032A000264BB3F89025284B03F58053A3F8F02F55
:1032B000224BB3F89225244B03F58053A3F8F22F49
:1032C0001E4BB3F89425204B03F58053A3F8F42F3D
:1032D0001A4BB3F896251C4B03F58053A3F8F62F31
:1032E000154B03F50053012283F8A020124B03F580
:1032F0000053012283F89D200F4B03F50053012258
:1033000083F89E200C4B03F50053012283F89F2085
:10331000094B03F50053012283F89A20064B03F56D
:103320000053012283F89B20034B03F50053012235
:1033300083F89C2000BF80BD3028002408000024B2
:10334000D049002428490024B007002480B500AFEC
:103350005F4B03F5805393F8C03F002B1BD15C4BB0
:1033600003F58053012283F8C02F594B03F5805396
:10337000D3F8C43F012B0ED1554B03F5805393F87E
:10338000C83F002B07D0524B03F58053D3F8CC3FF6
:103390001846FDF7BFFA4F48FDF782FF4E48FDF78C
:1033A00025FF4B4B03F5805393F8B03F002B1BD107
:1033B000474B03F58053012283F8B02F444B03F5AC
:1033C0008053D3F8B43F012B0ED1414B03F580530A
:1033D00093F8B83F002B07D03D4B03F58053D3F84B
:1033E000BC3F1846FDF796FA3C48FDF797FE3C486F
:1033F000FDF794FE364B1B78002B1BD1344B01227A
:103400001A70334B5B68012B14D1314B1B7A002BA4
:1034100010D02F4BDB6A1B68012B03D12C4BDB6ACE
:1034200002221A602A4B4FF0FF321A63284B4FF0EA
:10343000FF325A63264B03F5805393F8903F002BDD
:103440001BD1234B03F58053012283F8902F204B8F
:1034500003F58053D3F8943F012B0ED11C4B03F599
:10346000805393F8983F002B07D0194B03F58053F6
:10347000D3F89C3F1846FDF74DFA154B03F58053E2
:1034800093F8A03F002B1BD1114B03F58053012271
:1034900083F8A02F0E4B03F58053D3F8A43F012BE4
:1034A0000ED10B4B03F5805393F8A83F002B07D0A8
:1034B000074B03F58053D3F8AC3F1846FDF72AFAC3
:1034C0000848FDF793FE0848FDF7EAFE00BF80BDFF
:1034D000302800240049002414490024D049002445
:1034E00028490024EC480024D848002480B500AFC7
:1034F000042208492320FDF783FA1420FDF704FC79
:10350000032205492220FDF77BFA1320FDF7FCFB7F
:1035100000BF80BD1D3500088938000880B590B017
:1035200008AF974B5B6D03F00103002B07D0944B62
:103530001B6D03F00103002B01D0012300E00023E9
:10354000002B00F093818E4B01221A658D4B1B7866
:10355000DBB2012B40F08A818B4B03F58053D3F80B
:10356000CC0F3B1D079301230693884B0593884B93
:103570000493884B0393884B0293884B0193884BA9
:103580000093884B884A4021FDF7FAF8874B03F5F2
:103590008053002283F8942F844B03F5805300223C
:1035A00083F8962F814B03F580531A460023C2F807
:1035B0009C3F7E4B03F5FD5319464FF000024FF040
:1035C0000003C1E90023794B03F5805393F8923F40
:1035D000032B1BD1754B03F58053D3F8983FB3F100
:1035E000FF3F13D0714B03F58053D3F8983FB3F5E9
:1035F000C87F0BD16D4B03F5805393F8913F002B9F
:1036000004D1032268496A480FF080FD0023FB6162
:1036100000237B83674B7B6102237B837A69FB6991
:1036200013447A8B194664480FF070FD5F4B03F525
:10363000805393F8923F032B1CD15C4B03F58053CE
:10364000D3F8983FB3F1FF3F14D0584B03F58053A4
:10365000D3F8983F40F2911293420BD1534B03F5AC
:10366000805393F8913F002B04D103224E495348D5
:103670000FF04CFD00233B610023FB81504BBB60EE
:103680000223FB81BA683B691344FA8919464D4805
:103690000FF03CFD454B03F5005393F85030EB2BF6
:1036A00010D0EB2B36DCA82B16D0A82B32DC8A2BC3
:1036B00026D08A2B2EDC4A2B01DC492B2AE05F2BFB
:1036C00014D027E0394B03F58053B3F8FC2F374B68
:1036D00003F50053DA811DE0344B03F58053B3F852
:1036E000FC2F324B03F500539A8113E02F4B03F567
:1036F0008053B3F8FC2F2D4B03F500535A8109E09A
:103700002A4B03F58053B3F8FC2F284B03F50053E5
:103710001A8100BF254B03F5005393F85330EB2B70
:1037200010D0EB2B5ADCA82B16D0A82B56DC8A2BFA
:103730004AD08A2B52DC4A2B01DC492B4EE05F2B0E
:1037400014D04BE0194B03F58053B3F8FE2F174B01
:1037500003F50053DA8041E0144B03F58053B3F8CE
:10376000FE2F124B03F500539A8037E00F4B03F501
:103770008053B3F8FE2F0D4B03F500535A802DE014
:1037800000A400400000002430280024402700242A
:1037900045270024472700244227002443270024EC
:1037A000412700244827002458270024B00700247C
:1037B0000028002401280024AC270024032800242A
:1037C00004280024AE2700242D4B03F58053B3F8C2
:1037D000FE2F2B4B03F500531A8000BF284B03F537
:1037E0000053DA89274B03F50053A3F88820244BB4
:1037F00003F500535A88234B03F50053A3F8942094
:103800001F4B03F500531A881E4B03F50053A3F812
:1038100096201B4B03F500539A891A4B03F500536E
:10382000A3F88A20164B03F500535A89154B03F56C
:103830000053A3F88C20124B03F500531A89114B47
:1038400003F50053A3F88E200D4B03F50053DA88DF
:103850000C4B03F50053A3F89020094B03F50053DC
:103860009A88084B03F50053A3F89220BFF36F8F9B
:1038700000BFBFF34F8F00BF00BF2037BD4680BDE4
:10388000B00700243028002480B59CB008AFA04BBE
:103890005B6D03F00103002B07D09D4B1B6D03F004
:1038A0000103002B01D0012300E00023002B00F0D6
:1038B0002581974B01221A65964B1B78DBB2012BB1
:1038C00040F01C81944B03F58053D3F8BC0F3B1D93
:1038D000079301230693914B0593914B0493914BCE
:1038E0000393914B0293914B0193914B0093914B16
:1038F000914A4021FCF744FF904B03F5805300228E
:1039000083F83C2F8D4B03F58053002283F83E2F24
:103910008A4B03F580531A460023C2F8443F874A76
:1039200041F65073134419464FF000024FF0000364
:1039300041E90223814B03F5805393F83A3F082B6A
:103940001AD17E4B03F58053D3F8403FB3F1FF3FCC
:1039500012D07A4B03F58053D3F8403F012B0BD1A3
:10396000764B03F5805393F8393F002B04D108229E
:10397000714973480FF0CAFB0023FB640023A7F8CA
:103980004A30704B7B640223A7F84A307A6CFB6C98
:103990001344B7F84A2019466B480FF0B7FB0023D1
:1039A0003B640023FB87694BBB630223FB87BA6B35
:1039B0003B6C1344FA8F194665480FF0A7FB5F4B29
:1039C00003F5805393F83A3F082B1AD15B4B03F56C
:1039D0008053D3F8403FB3F1FF3F12D0574B03F56C
:1039E0008053D3F8403F042B0BD1544B03F5805345
:1039F00093F8393F002B04D108224F4955480FF066
:103A000085FB00237B6300237B86524BFB620223F2
:103A10007B86FA6A7B6B13447A8E19464E480FF008
:103A200075FB0023BB620023FB844C4B3B620223EB
:103A3000FB843A6ABB6A1344FA8C194648480FF073
:103A400065FB3E4B03F5805393F83A3F082B1AD1A0
:103A50003A4B03F58053D3F8403FB3F1FF3F12D008
:103A6000364B03F58053D3F8403F052B0BD1334B36
:103A700003F5805393F8393F002B04D108222E49D7
:103A800038480FF043FB0023FB6100237B83354B59
:103A90007B6102237B837A69FB6913447A8B194625
:103AA00031480FF033FB00233B610023FB812F4B98
:103AB000BB600223FB81BA683B691344FA8919464B
:103AC0002B480FF023FB1D4B03F5005393F83930BF
:103AD00007EE903AB8EE677B184A41F6F07313444C
:103AE00003ED027B154A41F6F073134453E90223B8
:103AF000094842F210010144C1E90023BFF36F8F6E
:103B000000BFBFF34F8F00BF00BF5037BD4680BD21
:103B100000A000400000002430280024E8260024F3
:103B2000ED260024EF260024EA260024EB260024BC
:103B3000E9260024F026002400270024B0070024F2
:103B4000E8270024EC270024A0270024EE270024E7
:103B5000A2270024F0270024A4270024F227002411
:103B6000A6270024F8270024A8270024FA270024E9
:103B7000AA27002480B483B000AF87ED000B0E4B62
:103B800093ED007B97ED006BB4EE476BF1EE10FA0E
:103B900009D00A4B93ED007B97ED006BB4EE476BB9
:103BA000F1EE10FA01D1012300E0002318460C3792
:103BB000BD465DF8047B7047C8050024D00500248D
:103BC00080B483B000AF87ED000B97ED006B97EDED
:103BD000007BB4EE476BF1EE10FA01D7012300E051
:103BE000002318460C37BD465DF8047B7047000083
:103BF00010B54FF0804482B0636A019307F080FAF9
:103C00000090626A019B9A4207D3009B4FF47A723C
:103C1000019802FB030002B010BD07F071FA636A5D
:103C20004FF47A7202FB003002B010BD10B50446AA
:103C300041B9FFF7DDFFA042A0EB040038BF00F15F
:103C4000FF3010BD07F05CFAA042A0EB040038BFC3
:103C500000F1FF3010BD00BF80B483B000AF034659
:103C60003960FB80B7F90630002B0ADB3B68DAB21B
:103C70000C49B7F906301201D2B20B4483F8002385
:103C80000AE03B68DAB20849FB8803F00F03043B03
:103C90001201D2B20B441A7600BF0C37BD465DF854
:103CA000047B704700E100E000ED00E080B582B0E9
:103CB00000AF7860034800F023FA00BF0837BD4624
:103CC00080BD00BF3407002480B582B000AF7860AB
:103CD0007868FCF7D7FE00BF0837BD4680BD80B5C9
:103CE00082B000AF78607868FCF79EFE00BF0837AE
:103CF000BD4680BD80B58CB000AF87ED010A38604D
:103D000000218B4800F0C7F9B862BB6A002B0AD0CB
:103D10004FF0500383F31188BFF36F8FBFF34F8FC2
:103D20007B6200BFFEE70021824800F0B4F9B86270
:103D3000BB6A002B0AD04FF0500383F31188BFF306
:103D40006F8FBFF34F8F3B6200BFFEE77A4B282295
:103D50001A61794B00229A61774B80229A82764BC6
:103D6000764A07CA03C31A7000227549724800F0E8
:103D7000FDF8B862BB6A002B0AD04FF0500383F302
:103D80001188BFF36F8FBFF34F8FFB6100BFFEE75A
:103D90000023FB6273E06B49FB6AFA6A41F8232057
:103DA000FB6A9B00684A13440021184600F073F92F
:103DB000B862BB6A002B0AD04FF0500383F311881E
:103DC000BFF36F8FBFF34F8FBB6100BFFEE7FB6A8E
:103DD000C3F1270318465D49FA6A1346DB009B1AB4
:103DE0009B000B44103318605849FA6A1346DB00F5
:103DF0009B1A9B000B4410331B68002B0AD14FF019
:103E0000500383F31188BFF36F8FBFF34F8F7B6134
:103E100000BFFEE74D49FA6A1346DB009B1A9B0080
:103E20000B44183300221A604849FA6A1346DB0033
:103E30009B1A9B000B44143380221A80FA6A1346A3
:103E4000DB009B1A9B00414A9818FB6A9B003D4A85
:103E500013441A463E4900F089F8B862BB6A002B49
:103E60000AD04FF0500383F31188BFF36F8FBFF375
:103E70004F8F3B6100BFFEE7FB6A0133FB62FB6AC9
:103E8000012B88DD02214FF0FF30FFF7E5FE314BBB
:103E900000221A60304B00221A60D7ED017A9FEDA4
:103EA0002F7A67EE877AFCEEE77A17EE902A2A4B94
:103EB0005A60294B01229A60264B1B681A46264BF2
:103EC000DA60274B274A92E8030018600433198010
:103ED00002330A0C1A7024491F4800F097F8B862A0
:103EE000BB6A002B0AD04FF0500383F31188BFF355
:103EF0006F8FBFF34F8FFB6000BFFEE74FF47A7107
:103F0000154800F0A4F8B862BB6A002B0AD04FF045
:103F1000500383F31188BFF36F8FBFF34F8FBB60E4
:103F200000BFFEE70CF068FF00BF3037BD4680BD24
:103F3000340700243007002448070024F03101082A
:103F4000C93C000840070024380700246C070024FF
:103F5000DF3C0008A84A0024884A002400007A4474
:103F6000984A0024FC310108AD3C000880B588B0B7
:103F700002AFF860B9607A60FB68002B01D10123C1
:103F800023E0F968FB68988AFB681B69FA681832B5
:103F9000019200937B680246B8680CF034FD7861AA
:103FA000FB689B69002B0AD14FF0500383F3118803
:103FB000BFF36F8FBFF34F8F3B6100BFFEE77B699D
:103FC000012B14BF01230023DBB218461837BD466E
:103FD00080BD80B582B000AF786000200CF09AFE02
:103FE00000BF0837BD4680BD84B080B500AF07F183
:103FF000080C8CE80F003B6A18460CF08BFE00237F
:104000001846BD46BDE8804004B0704790B585B005
:1040100002AF786039607B6803F110007B685968F3
:104020007B689A687B68DC683B68009323460DF0E8
:1040300065FD02467B681A607B681B68002B01D017
:10404000002300E0012318460C37BD4690BD90B513
:1040500085B002AF786039607B68002B16D07B6832
:104060001B68002B12D07B681C680CF0E1FF024635
:104070003B6800930023012120460DF09BFD034681
:10408000012B14BF01230023DBB200E001231846FB
:104090000C37BD4690BD80B582B000AF7860396006
:1040A0003B6819460A200BF0C2FE02467B681A6084
:1040B0007B68002B01D0002300E00123184608375D
:1040C000BD4680BD80B582B000AF78607B68002BB4
:1040D00003D07B681B68002B01D101230CE07B68B7
:1040E0001B684FF0FF3118460CF04EF90346012BC8
:1040F00014BF01230023DBB218460837BD4680BD3C
:1041000080B582B000AF78607B68002B03D07B68FD
:104110001B68002B01D101230CE07B681868002389
:10412000002200210BF0B6FE0346012B14BF012331
:104130000023DBB218460837BD4680BD80B582B08B
:1041400000AF78607B68002B06D07B681B68184640
:104150000CF026FA002300E0012318460837BD467C
:1041600080BD000080B400AF044BDB681B0A03F085
:1041700007031846BD465DF8047B704700ED00E07C
:1041800080B483B000AF0346FB80B7F90630002B44
:104190000BDBFB8803F01F020749B7F906305B0908
:1041A000012000FA02F241F8232000BF0C37BD467F
:1041B0005DF8047B704700BF00E100E080B483B08D
:1041C00000AF03463960FB80B7F90630002B0ADBED
:1041D0003B68DAB20C49B7F906301201D2B20B448F
:1041E00083F800230AE03B68DAB20849FB8803F051
:1041F0000F03043B1201D2B20B441A7600BF0C37F6
:10420000BD465DF8047B704700E100E000ED00E092
:1042100080B489B000AFF860B9607A60FB6803F0E1
:104220000703FB61FB69C3F10703042B28BF0423C9
:10423000BB61FB690433062B02D9FB69033B00E039
:1042400000237B614FF0FF32BB6902FA03F3DA43CC
:10425000BB681A407B699A404FF0FF317B6901FAD5
:1042600003F3D9437B680B40134318462437BD46FC
:104270005DF8047B704780B487B000AFF860B96028
:104280007A60FB6830331A46BB681B0A9B0003F058
:104290000C0313447B617B691A68BB6803F01F033E
:1042A0001F2101FA03F3DB431A407B689B0E03F0E6
:1042B0001F01BB6803F01F0301FA03F31A437B6974
:1042C0001A6000BF1C37BD465DF8047B704780B4A0
:1042D00087B000AFF860B9607A60FB6814331A46A3
:1042E000BB685B0E9B0003F0040313447B617B6996
:1042F0001A68BB681B0D03F01F03072101FA03F3C3
:10430000DB431A40BB681B0D03F01F03796801FAF9
:1043100003F31A437B691A6000BF1C37BD465DF882
:10432000047B704780B485B000AFF860B9607A60F4
:10433000FB681A4A934215D1FB68D3F8B020BB68DA
:10434000C3F31303DB431A407B6803F018031449DB
:10435000D940BB680B40C3F313031A43FB68C3F88F
:10436000B02014E0FB68D3F8C020BB68C3F313038C
:10437000DB431A407B6803F018030949D940BB6846
:104380000B40C3F313031A43FB68C3F8C02000BFFC
:104390001437BD465DF8047B704700BF00600258CB
:1043A000FFFF0F0080B483B000AF786039607B6896
:1043B0001A69064B13403A681A437B681A6100BFBA
:1043C0000C37BD465DF8047B704700BFFCFBFFFF68
:1043D00080B483B000AF78607B689A68044B134068
:1043E0007A68936000BF0C37BD465DF8047B704768
:1043F000C0FFFF5F80B483B000AF78607B689A68CD
:10440000054B134043F080527B689A6000BF0C3725
:10441000BD465DF8047B7047C0FFFF6F80B483B07A
:1044200000AF786039607B681A683B6803F010035E
:10443000022101FA03F3DB431A407B681A6000BFD4
:104440000C37BD465DF8047B7047000080B487B030
:1044500000AFF860B9607A60FB687B610D4ABB68A9
:1044600013441B781A467B6913441B6823F0C0026F
:104470000849BB680B441B7819467B690B441946F5
:104480007B6813430B6000BF1C37BD465DF8047B9F
:10449000704700BF6C32010880B487B000AFF8608D
:1044A000B9607A60FB687B610D4ABB6813441B7876
:1044B0001A467B6913441B6823F490720849BB6851
:1044C0000B441B7819467B690B4419467B681343E0
:1044D0000B6000BF1C37BD465DF8047B704700BF12
:1044E0006C32010880B487B000AFF860B9607A60C0
:1044F000FB687B610D4ABB6813441B781A467B69D5
:1045000013441B6823F400720849BB680B441B78F2
:1045100019467B690B4419467B6813430B6000BF47
:104520001C37BD465DF8047B704700BF6C32010844
:1045300080B487B000AFF860B9607A60FB687B61D7
:104540000D4ABB6813441B781A467B6913441B68E9
:1045500023F480620849BB680B441B7819467B69C9
:104560000B4419467B6813430B6000BF1C37BD46E4
:104570005DF8047B704700BF6C32010880B487B0DF
:1045800000AFF860B9607A60FB687B610D4ABB6878
:1045900013441B781A467B6913441B6823F4C052EA
:1045A0000849BB680B441B7819467B690B441946C4
:1045B0007B6813430B6000BF1C37BD465DF8047B6E
:1045C000704700BF6C32010880B487B000AFF8605C
:1045D000B9607A60FB687B610D4ABB6813441B7845
:1045E0001A467B6913441B6823F4C0420849BB6820
:1045F0000B441B7819467B690B4419467B681343AF
:104600000B6000BF1C37BD465DF8047B704700BFE0
:104610006C32010880B487B000AFF860B9607A608E
:10462000FB687B610D4ABB6813441B781A467B69A3
:1046300013441B6823F440320849BB680B441B78C1
:1046400019467B690B4419467B6813430B6000BF16
:104650001C37BD465DF8047B704700BF6C32010813
:1046600080B485B000AFF860B9607A60BA68124B68
:1046700013449B00FA6811498A4201D1002200E0EC
:10468000202213441B6823F0FF02B9680A4B0B4435
:104690009B00F9680948814201D1002100E02021F6
:1046A0000B4419467B6813430B6000BF1437BD46AB
:1046B0005DF8047B704700BF0082001000000240DC
:1046C00080B485B000AF786039607B68FB600C4ACD
:1046D0003B6813441B781A46FB6813445B6908491E
:1046E0003A680A4412781146FA680A4423F004032F
:1046F000536100BF1437BD465DF8047B704700BFAF
:104700006C32010880B483B000AF78607B681B68AE
:1047100023F400327B681A6000BF0C37BD465DF899
:10472000047B704780B483B000AF78607B681B68FF
:1047300023F400227B681A6000BF0C37BD465DF889
:10474000047B704780B485B000AFF860B9607A60D0
:10475000FB68DA68064B1340B9687A680A431A4363
:10476000FB68DA6000BF1437BD465DF8047B704714
:1047700001F8FFFF80B483B000AF78607B68DB682E
:1047800023F400427B68DA6000BF0C37BD465DF859
:10479000047B704780B483B000AF78607B685B684F
:1047A00043F000727B685A6000BF0C37BD465DF86D
:1047B000047B704780B400AF054B1B68044A43F488
:1047C0008033136000BFBD465DF8047B704700BFB7
:1047D0000044025880B400AF074B1B6803F4003359
:1047E000B3F5003F01D1012300E000231846BD4688
:1047F0005DF8047B704700BF0044025880B400AFEE
:10480000054B1B68044A43F48053136000BFBD4648
:104810005DF8047B704700BF0044025880B400AFCD
:10482000074B1B6803F40053B3F5005F01D101236C
:1048300000E000231846BD465DF8047B704700BFCA
:104840000044025880B483B000AF7860064B1B6907
:1048500023F0070204497B6813430B6100BF0C3748
:10486000BD465DF8047B70470044025880B400AF39
:10487000044B1B6903F038031846BD465DF8047B02
:10488000704700BF0044025880B483B000AF786026
:10489000064B9B6923F4706204497B6813438B6168
:1048A00000BF0C37BD465DF8047B704700440258DA
:1048B00080B483B000AF7860064B9B6923F00F0291
:1048C00004497B6813438B6100BF0C37BD465DF81C
:1048D000047B70470044025880B483B000AF786016
:1048E000064BDB6923F0700204497B681343CB61FC
:1048F00000BF0C37BD465DF8047B7047004402588A
:1049000080B483B000AF7860064BDB6923F4E062CB
:1049100004497B681343CB6100BF0C37BD465DF88B
:10492000047B70470044025880B483B000AF7860C5
:10493000064B9B6923F0700204497B6813438B612B
:1049400000BF0C37BD465DF8047B70470044025839
:1049500080B483B000AF7860064B1B6A23F070020E
:1049600004497B6813430B6200BF0C37BD465DF8FA
:10497000047B70470044025880B485B000AF786073
:104980007B68DAB2104B1344FB60FB681A687B68E3
:10499000190E7B681B0A03F01F0301FA03F3DB43C4
:1049A0001A407B681B0CD9B27B681B0A03F01F03FB
:1049B00001FA03F31A43FB681A6000BF1437BD46BF
:1049C0005DF8047B704700BF4C44025880B582B04C
:1049D00000AF78607868FFF7CFFF00BF0837BD46AB
:1049E00080BD80B582B000AF78607868FFF7C4FF03
:1049F00000BF0837BD4680BD80B483B000AF78608B
:104A0000064B9B6D23F4403204497B6813438B654E
:104A100000BF0C37BD465DF8047B70470044025868
:104A200080B483B000AF7860064B9B6A23F003022A
:104A300004497B6813438B6200BF0C37BD465DF8A9
:104A4000047B70470044025880B400AF054B1B68DC
:104A5000044A43F08073136000BFBD465DF8047BD9
:104A6000704700BF0044025880B400AF074B1B687A
:104A700003F00073B3F1007F01D1012300E00023B4
:104A80001846BD465DF8047B704700BF00440258DD
:104A900080B400AF054BDB6A044A43F48033D36231
:104AA00000BFBD465DF8047B704700BF004402585C
:104AB00080B400AF054BDB6A044A43F40033D36291
:104AC00000BFBD465DF8047B704700BF004402583C
:104AD00080B400AF054BDB6A044A43F48023D36201
:104AE00000BFBD465DF8047B704700BF004402581C
:104AF00080B483B000AF7860074BDB6A23F002021A
:104B00007B685B0004491343CB6200BF0C37BD4692
:104B10005DF8047B704700BF0044025880B483B046
:104B200000AF7860074BDB6A23F00C027B689B00C8
:104B300004491343CB6200BF0C37BD465DF8047BCC
:104B4000704700BF0044025880B483B000AF786063
:104B5000074B1A6B074B13407A68013A0449134319
:104B60000B6300BF0C37BD465DF8047B704700BF88
:104B70000044025800FEFFFF80B483B000AF7860AD
:104B8000074B9B6A23F47C727B681B010449134327
:104B90008B6200BF0C37BD465DF8047B704700BFD9
:104BA0000044025880B483B000AF7860074B1B6BA1
:104BB00023F47E427B68013B5B02044913430B6391
:104BC00000BF0C37BD465DF8047B704700440258B7
:104BD00080B483B000AF7860074B1B6B23F4FE02F8
:104BE0007B68013B1B04044913430B6300BF0C3774
:104BF000BD465DF8047B70470044025880B483B022
:104C000000AF7860074B1B6B23F0FE427B68013BD3
:104C10001B06044913430B6300BF0C37BD465DF808
:104C2000047B70470044025880B400AF054B1B68FA
:104C3000044A43F08063136000BFBD465DF8047B07
:104C4000704700BF0044025880B400AF074B1B6898
:104C500003F00063B3F1006F01D1012300E00023F2
:104C60001846BD465DF8047B704700BF00440258FB
:104C700080B400AF054BDB6A044A43F40023D362DF
:104C800000BFBD465DF8047B704700BF004402587A
:104C900080B483B000AF7860074BDB6A23F020025A
:104CA0007B685B0104491343CB6200BF0C37BD46F0
:104CB0005DF8047B704700BF0044025880B483B0A5
:104CC00000AF7860074BDB6A23F0C0027B689B0172
:104CD00004491343CB6200BF0C37BD465DF8047B2B
:104CE000704700BF0044025880B483B000AF7860C2
:104CF000074B9A6B074B13407A68013A04491343F8
:104D00008B6300BF0C37BD465DF8047B704700BF66
:104D10000044025800FEFFFF80B483B000AF78600B
:104D2000074B9B6A23F47C327B681B0304491343C3
:104D30008B6200BF0C37BD465DF8047B704700BF37
:104D40000044025880B483B000AF7860074B9B6B7F
:104D500023F47E427B68013B5B02044913438B636F
:104D600000BF0C37BD465DF8047B70470044025815
:104D700080B483B000AF7860074B9B6B23F4FE02D6
:104D80007B68013B1B04044913438B6300BF0C3752
:104D9000BD465DF8047B70470044025880B483B080
:104DA00000AF7860074B9B6B23F0FE427B68013BB2
:104DB0001B06044913438B6300BF0C37BD465DF8E7
:104DC000047B70470044025880B400AF054B1B6859
:104DD000044A43F08053136000BFBD465DF8047B76
:104DE000704700BF0044025880B400AF074B1B68F7
:104DF00003F00053B3F1005F01D1012300E0002371
:104E00001846BD465DF8047B704700BF0044025859
:104E100080B400AF054BDB6A044A43F08073D36271
:104E200000BFBD465DF8047B704700BF00440258D8
:104E300080B483B000AF7860074BDB6A23F4007264
:104E40007B685B0204491343CB6200BF0C37BD464D
:104E50005DF8047B704700BF0044025880B483B003
:104E600000AF7860074BDB6A23F440627B689B02EB
:104E700004491343CB6200BF0C37BD465DF8047B89
:104E8000704700BF0044025880B483B000AF786020
:104E9000074B1A6C074B13407A68013A04491343D5
:104EA0000B6400BF0C37BD465DF8047B704700BF44
:104EB0000044025800FEFFFF80B483B000AF78606A
:104EC000074B9B6A23F07C727B681B0504491343E4
:104ED0008B6200BF0C37BD465DF8047B704700BF96
:104EE0000044025880B483B000AF7860074B1B6C5D
:104EF00023F47E427B68013B5B02044913430B644D
:104F000000BF0C37BD465DF8047B70470044025873
:104F100080B483B000AF7860074B1B6C23F4FE02B3
:104F20007B68013B1B04044913430B6400BF0C372F
:104F3000BD465DF8047B70470044025880B483B0DE
:104F400000AF7860074B1B6C23F0FE427B68013B8F
:104F50001B06044913430B6400BF0C37BD465DF8C4
:104F6000047B70470044025880B485B000AF78607D
:104F70000A4BD3F8D82009497B681343C1F8D830CD
:104F8000064BD3F8D8207B681340FB60FB6800BF5A
:104F90001437BD465DF8047B704700BF00440258DB
:104FA00080B485B000AF78600A4BD3F8E02009499F
:104FB0007B681343C1F8E030064BD3F8E0207B68F0
:104FC0001340FB60FB6800BF1437BD465DF8047BEF
:104FD000704700BF0044025880B485B000AF7860CD
:104FE0000A4BD3F8E82009497B681343C1F8E8303D
:104FF000064BD3F8E8207B681340FB60FB6800BFDA
:105000001437BD465DF8047B704700BF004402586A
:1050100080B485B000AF78600A4BD3F8F02009491E
:105020007B681343C1F8F030064BD3F8F0207B685F
:105030001340FB60FB6800BF1437BD465DF8047B7E
:10504000704700BF0044025880B485B000AF78605C
:105050000A4BD3F8F42009497B681343C1F8F430B4
:10506000064BD3F8F4207B681340FB60FB6800BF5D
:105070001437BD465DF8047B704700BF00440258FA
:1050800080B483B000AF7860054B5A6804497B68F0
:1050900013434B6000BF0C37BD465DF8047B70477F
:1050A0000004005880B487B000AF78603960184AB7
:1050B0003B6803F00303023352F823203B681B0CC8
:1050C000DB4302EA03013B681B0C3B613B6993FA3B
:1050D000A3F3FB60FB687B617B69002B01D120237C
:1050E00003E07B69B3FA83F3DBB203F01F037A6852
:1050F0009A4007483B6803F003030A43023340F831
:10510000232000BF1C37BD465DF8047B704700BFFD
:105110000004005880B483B000AF7860064B1B6871
:1051200023F00F0204497B6813430B6000BF0C3768
:10513000BD465DF8047B70470020005280B400AF8C
:10514000044B1B6803F00F031846BD465DF8047B53
:10515000704700BF0020005280B483B000AF786079
:10516000064BDB6823F03F0204497B681343CB60A6
:1051700000BF0C37BD465DF8047B704700480258FD
:1051800080B483B000AF7860064B9B6923F4404243
:1051900004497B6813438B6100BF0C37BD465DF843
:1051A000047B70470048025880B483B000AF786039
:1051B0007B681B6843F080027B681A6000BF0C3775
:1051C000BD465DF8047B704780B483B000AF786063
:1051D0007B681B6823F080027B681A6000BF0C3775
:1051E000BD465DF8047B704780B485B000AF786041
:1051F00039603B68012B28D03B68042B23D03B68E7
:10520000102B1ED03B68402B19D03B68B3F5807F34
:1052100013D03B68B3F5806F0DD03B68B3F5805F6A
:1052200007D03B68B3F5803F01D107230EE0082388
:105230000CE006230AE0052308E0042306E003232C
:1052400004E0022302E0012300E00023FB737B68FB
:1052500018331946FB7B0B4AD35C0B44BB60BB681D
:105260001A68FB7B0849CB5C194604238B40DB435F
:105270001A40BB681A6000BF1437BD465DF8047B56
:10528000704700BF743201088032010880B485B0D5
:1052900000AF786039603B68012B28D03B68042B55
:1052A00023D03B68102B1ED03B68402B19D03B68A5
:1052B000B3F5807F13D03B68B3F5806F0DD03B68AA
:1052C000B3F5805F07D03B68B3F5803F01D107237A
:1052D0000EE008230CE006230AE0052308E004237F
:1052E00006E0032304E0022302E0012300E00023A0
:1052F000FB737B6818331946FB7B0A4AD35C0B446B
:10530000BB60BB681A68FB7B0749CB5C1946082366
:105310008B401A43BB681A6000BF1437BD465DF866
:10532000047B7047743201088032010880B483B076
:1053300000AF786039607B685B6823F070023B687F
:105340001A437B685A6000BF0C37BD465DF8047B8A
:10535000704780B483B000AF786039607B685B6869
:1053600023F470023B681A437B685A6000BF0C3715
:10537000BD465DF8047B704780B483B000AF7860B1
:105380007B689B6823F080027B689A6000BF0C37C3
:10539000BD465DF8047B704780B483B000AF786091
:1053A0007B681B6843F001027B681A6000BF0C3702
:1053B000BD465DF8047B704780B483B000AF786071
:1053C0007B681B6823F000527B681A6000BF0C37B3
:1053D000BD465DF8047B704780B489B000AF78604B
:1053E00039607B680833FB60FB6853E8003FBB60B3
:1053F000BB6823F060423B685B071343FB617B683B
:105400000833FA69BA617B617969BA6941E80023B6
:105410003B613B69002BE4D100BF00BF2437BD4690
:105420005DF8047B704780B489B000AF7860396064
:105430007B680833FB60FB6853E8003FBB60BB68D8
:1054400023F060623B685B061343FB617B680833B3
:10545000FA69BA617B617969BA6941E800233B6105
:105460003B69002BE4D100BF00BF2437BD465DF887
:10547000047B704780B483B000AF78607B685B6862
:1054800023F490427B685A607B689B6823F02A0271
:105490007B689A6000BF0C37BD465DF8047B70479F
:1054A00080B483B000AF78607B68DB6903F40013DD
:1054B000B3F5001F01D1012300E0002318460C378B
:1054C000BD465DF8047B704780B483B000AF786060
:1054D0007B68DB6903F48003B3F5800F01D10123FE
:1054E00000E0002318460C37BD465DF8047B70478A
:1054F00080B485B000AFF860B9607A60FB68196865
:10550000BB6803FB03F213465B001344DB4301EA71
:105510000302BB6803FB03F3796801FB03F31A433F
:10552000FB681A6000BF1437BD465DF8047B704706
:1055300080B485B000AFF860B9607A60FB68D96864
:10554000BB6803FB03F213465B001344DB4301EA31
:105550000302BB6803FB03F3796801FB03F31A43FF
:10556000FB68DA6000BF1437BD465DF8047B704706
:1055700080B483B000AF786039603B681A047B6800
:105580009A6100BF0C37BD465DF8047B7047000090
:1055900080B500AF0320FFF7BDFD00BFFFF7CEFDD4
:1055A0000346032BFAD10420FFF7D6FD0020FFF7B6
:1055B000E7FDFFF7FFF800BFFFF70CF90346012BEB
:1055C000FAD1FFF71BF900BFFFF728F90346012BBB
:1055D000FAD10220FFF724FAFFF75AFAFFF768FA28
:1055E000FFF776FA0220FFF799FA0020FFF780FA1A
:1055F0000520FFF7C1FA6E20FFF7A6FA0120FFF79A
:10560000D1FA0420FFF7E4FA0220FFF7F7FAFFF7D8
:105610001BFA00BFFFF728FA0346012BFAD1082036
:10562000FFF746F90320FFF70DF900BFFFF71EF95A
:105630000346182BFAD10020FFF726F90820FFF7C0
:1056400037F94020FFF748F94FF48060FFF758F929
:105650004020FFF769F94020FFF77AF9064803F088
:10566000FBFE0F2002F076FA0346002B01D001F07A
:1056700084FC00BF80BD00BF8055C82080B500AF4E
:10568000FFF7F6FA0220FFF719FB0020FFF700FBF7
:105690000520FFF741FB5020FFF726FB0520FFF711
:1056A00051FB0220FFF764FB0220FFF777FBFFF7B7
:1056B000BBFA00BFFFF7C8FA0346012BFAD1FFF788
:1056C000A7FB0320FFF7CAFB0020FFF7B1FB202058
:1056D000FFF7F2FB8120FFF7D7FB0220FFF702FC68
:1056E0000220FFF715FC0220FFF728FCFFF76CFBF8
:1056F00000BFFFF779FB0346012BFAD100BF00BFC3
:1057000080BD000080B594B000AF07F140030022D7
:105710001A605A609A6007F1280300221A605A60E2
:105720009A60DA601A615A6107F1180300221A6060
:105730005A609A60DA603B4600221A605A609A60AA
:10574000DA601A615A610020FFF756F92020FFF74E
:105750000BFC0420FFF724FC0120FFF721FC0123B0
:105760003B6003237B6000233B613B461946304886
:1057700002F041FE4FF04070FFF782FC00212D48FF
:10578000FEF710FE00233B640023BB6407F14003D7
:105790001946284802F01CFF0023BB620023FB626D
:1057A00000233B6300237B630023FB6307F1280393
:1057B0001946204802F064FF0023BB610023FB610F
:1057C00007F1180319461C4802F0AAFE1948FEF713
:1057D000FFFD1848FEF70EFE184B1B689B09184A80
:1057E000A2FB03239A0913469B0013445B001A464D
:1057F000144BA3FB0223DB08FB6402E0FB6C013BC0
:10580000FB64FB6C002BF9D10F4A06210948FEF717
:1058100032FD00220C490748FEF759FD40F2FF72A5
:1058200009490448FEF77EFD00BF5037BD4680BDE4
:10583000000802580020024000230240E405002432
:10584000632D3E05CDCCCCCC0200300480B58AB0AF
:1058500000AF07F1180300221A605A609A603B46B5
:1058600000221A605A609A60DA601A615A61002058
:10587000FFF7C2F82020FFF777FB0120FFF790FB2E
:105880004FF04070FFF7FCFB00212748FEF78AFD30
:105890000023BB6100233B6207F11803194622482D
:1058A00002F096FE00233B6000237B600023BB6078
:1058B0000023FB6000237B613B4619461A4802F037
:1058C000DFFE1948FEF784FD1748FEF793FD174BDE
:1058D0001B689B09164AA2FB03239A0913469B00E7
:1058E00013445B001A46134BA3FB0223DB087B62C5
:1058F00002E07B6A013B7B627B6A002BF9D10122CB
:1059000006210948FEF7B7FC002201210648FEF7F0
:10591000DEFC40F2FF7201210348FEF703FD00BFE9
:105920002837BD4680BD00BF00210240E4050024A9
:10593000632D3E05CDCCCCCC80B594B000AF07F143
:10594000400300221A605A609A6007F1280300227F
:105950001A605A609A60DA601A615A6107F1180396
:1059600000221A605A609A60DA603B4600221A6090
:105970005A609A60DA601A615A610020FFF73CF8B9
:105980004FF08070FFF70CFB0420FFF709FB80202D
:10599000FFF706FB4FF04060FFF772FB04233B600C
:1059A00003237B6000233B613B4619462F4802F0EE
:1059B00022FD00212E48FEF7F5FC00233B64002366
:1059C000BB6407F140031946294802F001FE002399
:1059D000BB620023FB6200233B6300237B63002345
:1059E000FB6307F128031946214802F049FE002312
:1059F000BB610023FB6100233B6207F118031946DA
:105A00001C4802F08DFD1A48FEF7E2FC1848FEF72C
:105A1000F1FC194B1B689B09184AA2FB03239A0946
:105A200013469B0013445B001A46154BA3FB02234D
:105A3000DB08FB6402E0FB6C013BFB64FB6C002BAE
:105A4000F9D1012206210A48FEF715FC00220121A6
:105A50000748FEF73CFC40F2FF7201210448FEF7C4
:105A600061FC00BF5037BD4680BD00BF001C02581E
:105A70000060025800630258E4050024632D3E05CF
:105A8000CDCCCCCC80B58CB000AF07F11803002290
:105A90001A605A609A60DA601A615A613B460022C5
:105AA0001A605A609A60DA601A615A614FF00050C9
:105AB000FFF792FA0120FFF773FA20233B600323DC
:105AC0007B6000233B613B4619460E4802F093FC85
:105AD0000023BB610023FB6100237B620023BB62C8
