:020000040800F2
:100000000000052411B40008893E00088D3E000858
:10001000913E0008953E0008993E0008000000004F
:1000200000000000000000000000000081B0000897
:100030009D3E00080000000011B1000839AD000825
:1000400061B4000861B4000861B4000861B400083C
:1000500061B4000861B4000861B4000861B400082C
:1000600061B4000861B4000861B40008A13E000852
:10007000A53E000861B4000861B4000861B400083E
:1000800061B4000861B4000819040008A93E000822
:10009000A50F000861B4000861B4000861B400084D
:1000A00061B4000861B4000861B4000861B40008DC
:1000B000B53E000861B4000861B4000861B40008EE
:1000C00061B4000861B4000861B4000861B40008BC
:1000D00061B4000861B4000861B4000861B40008AC
:1000E00061B4000861B400080000000061B40008B9
:1000F00061B4000861B4000861B4000861B400088C
:1001000061B4000861B4000861B4000861B400087B
:1001100061B4000861B4000861B4000861B400086B
:10012000B503000861B4000861B4000861B40008B8
:1001300061B4000861B4000861B4000861B400084B
:1001400000000000000000000000000000000000AF
:1001500061B4000861B4000861B4000861B400082B
:1001600061B4000861B4000861B4000861B400081B
:1001700061B4000861B4000861B4000861B400080B
:1001800061B4000861B4000861B4000861B40008FB
:1001900061B4000861B4000861B4000861B40008EB
:1001A00061B4000861B4000861B4000800000000F8
:1001B00061B4000861B4000861B4000861B40008CB
:1001C00061B4000861B400080000000000000000F5
:1001D000000000000000000061B400080000000002
:1001E000000000000000000000000000000000000F
:1001F000000000000000000061B4000861B40008C5
:1002000061B4000861B400080000000061B4000897
:1002100061B40008C13E0008C53E000861B4000892
:1002200061B400080000000061B400080000000094
:1002300061B4000861B400080000000061B4000867
:1002400061B4000861B4000861B4000861B400083A
:1002500061B4000861B4000861B4000861B400082A
:1002600061B4000861B4000861B4000861B400081A
:1002700061B4000861B4000861B400080000000027
:1002800061B4000861B4000861B4000861B40008FA
:100290000000000061B4000861B4000861B4000807
:1002A00061B4000861B4000861B4000861B40008DA
:1002B00061B4000861B4000861B4000861B40008CA
:0C02C00061B40008C93E0008D53E0008EB
:1002D0000348044B834202D0034B03B118477047D5
:1002E0007C0000247C000024000000000548064B30
:1002F0001B1AD90F01EBA301491002D0034B03B124
:10030000184770477C0000247C0000240000000097
:1003100010B5064C237843B9FFF7DAFF044B13B14D
:100320000448AFF300800123237010BD4001002476
:100330000000000030B9000808B5054B1BB10549A5
:100340000548AFF30080BDE80840FFF7CFBF00BF0E
:10035000000000004401002430B900080369DA6895
:1003600012F4406F22D1427A022A08D0427A042A3B
:1003700005D0427A082A02D01A68110716D51A68E1
:10038000D20602D510221A604272427A102A0DD08B
:10039000427A082A0CBF012220224272002099686A
:1003A000034A0A4042F004029A60704701207047F5
:1003B000C0FFFF7F154916488A794B69825C9858BF
:1003C00003EB020CC0061ED5186880061CD504205D
:1003D000487220209860985810F4907F15D1985852
:1003E00020F0010010B40C6898500A49DCF80400B1
:1003F000014021435DF8044BCCF80410995841F0BA
:100400000101995070477047704770475C010024A4
:1004100094B900080000FFFF704700BF70B40029C6
:1004200000F0BE80954C036BA04200F0E9804FF0D5
:10043000010CC3F38413C4690CFA03F3614543EA66
:100440000403C36100F0A880036B0229C469C3F3ED
:1004500004330CFA03F343EA0403C36100F09C8005
:10046000036B0329C469C3F384430CFA03F343EA1F
:100470000403C36100F09080036B0429C469C3F3D3
:1004800004630CFA03F343EA0403C36100F08480BD
:10049000436B0529C56900F1300403F01F030CFA12
:1004A00003F343EA0503C36176D0436B0629C569AC
:1004B000C3F384130CFA03F343EA0503C3616BD05F
:1004C000436B0729C569C3F304330CFA03F343EA0A
:1004D0000503C36160D0436B0829C569C3F3844336
:1004E0000CFA03F343EA0503C36155D0436B0125BE
:1004F000C6690929C3F3046305FA03F343EA060353
:10050000C36149D0A3680A29C66903F01F0305FA2D
:1005100003F343EA0603C3613ED0A3680B29C6690F
:10052000C3F3841305FA03F343EA0603C36133D02C
:10053000A3680C29C669C3F3043305FA03F343EA3D
:100540000603C36128D0A3680D29C669C3F3844399
:1005500005FA03F343EA0603C3611DD0A3680E291D
:10056000C669C3F3046305FA03F343EA0603C361F0
:1005700012D0E3681029C66903F01F0305FA03F3DC
:1005800043EA0603C36107D1E368C169C3F3841377
:1005900005FA03F30B43C36182B3C36C5B0A05E046
:1005A00062B33649C36C88425CD05B0A012103F018
:1005B0001F03C46901FA03F38A4243EA0403C361D7
:1005C0001CD0C36C022AC469C3F3C43301FA03F319
:1005D00043EA0403C36111D0C36C032AC469C3F3A3
:1005E000445301FA03F343EA0403C36106D0C36C26
:1005F000C269DB0E01FA03F31343C36170BC704799
:1006000001292BD00229036B28D00329036B25D0A5
:100610000429036B22D00529436B1FD00629436BA5
:100620001CD00729436B19D00829436B16D0134BF4
:100630000929586B12D00A29986B0FD00B29986B97
:100640000CD00C29986B09D00D29986B06D00E2977
:10065000986B03D01029D86B00D1DB6B002ACDD06A
:10066000064BDB6C012AC9D0044B022AD96CC5D0D9
:10067000032AD96CC2D0DB6CC0E700BF006002580F
:10068000012903690BD0DA6C12F4C07F00D17047E6
:100690009968084A0A4042F008029A607047DA688E
:1006A00012F4406FF3D09968024A0A4042F0040203
:1006B0009A607047C0FFFF7FF0B43D4D0469AC42C3
:1006C0002CD13C4D4FF0000C012B2C6185F807C05C
:1006D00021D032B36B7A082B1DD0C668012942693C
:1006E0000768EE606A6190F806C02F6085F806C062
:1006F000037904982B71236B23F00F0343EA000363
:10070000236303D0042921D002291AD008232948C1
:100710006B72F0BC70472846F0BC70470020F0BCFC
:100720007047AB7A082BF6D0437902296B7103D05E
:1007300008232048AB72EFE7636843F0400363602F
:10074000F6E7636843F008036360DFE7E1681A4B8C
:1007500041F00301194813F80C30E160D1188860AA
:10076000D05820F4C05040F48050D050D05820F4DD
:10077000C04040F48050D050CE6006EB8706086938
:100780000E61D05840F48020D0500D484C68204075
:1007900038434860D15841F01001D150D15841F050
:1007A0000401D150D15841F00101D150AEE700BF52
:1007B000002002405C01002494B90008402002405F
:1007C0000000FFFF03699A68D20705D49968034ABD
:1007D0000A4042F001029A60704700BFC0FFFF7FED
:1007E00038B5036933B1012947D00429044603D041
:1007F000022925D0012038BDD968012011F4406FAD
:10080000F9D1607221499868014041F00401996072
:10081000637A042BFCD1A3791D486169C35C10463F
:10082000CB58E16813F4002F23684FEA830208BF16
:1008300001EB83010BF016F808230020637238BD2A
:10084000437A202B05D0437A042B02D0437A102B15
:10085000D0D10F490820A37960721046CB5C616942
:10086000CD58236815F40025E1680AD101EB830116
:100870009A000AF0F7FF284638BDBDE83840FFF778
:100880006DBD9A000AF0EEFF002038BDC0FFFF7F6B
:1008900094B90008036930B49C68E40705D59D68E5
:1008A000244C2C4044F002049C605C68250603D56F
:1008B0005C6824F080045C605C68E40603D55C68D6
:1008C00024F010045C608AB1012903D002292CD0E5
:1008D000042914D0002282710271196BC26021F0C8
:1008E0000F0102604261196330BC704702294271F6
:1008F000FAD15A6822F0400230BC5A6070478179C0
:100900000D4C4269615C0D4C555825F00105555060
:10091000555825F004055550555825F010055550EB
:100920000A4451680C405460D4E75A6822F0080227
:100930005A60CFE7C0FFFF7F94B900080000FFFFB7
:1009400003699868C00710B483B005D59C68204837
:10095000204040F0020098609868C2B91D4A01F436
:10096000803102400A4342F000429A609A68002AAD
:10097000FCDB04230193019B2BB1019B013B019301
:10098000019B002BF9D103B05DF8044B7047012A9D
:10099000104A01F4803102EA000242EA010210D05A
:1009A00042F000429A609A68002AFCDB9868094A83
:1009B00002400A4342F040429A609A68002AD8DA1C
:1009C000FBE742F040429A609A68002AD1DAFBE7DE
:1009D000C0FFFF7FC0FFFE3F012821D1F8B5114DB8
:1009E0002E790EB10F48F8BD0F4B04460F4FDB6850
:1009F0000F4B2F6083F814634FF480121A60024685
:100A00000146384606F014FA32462146384606F0CA
:100A100027FA2B79002BE5D12846AC80AB71F8BDC5
:100A2000002070477801002400ED00E0EC0700246E
:100A300000E100E02DE9F0418AB00D469DF840C08C
:100A4000129E9DF84C109DF8507010B10479012C45
:100A500004D0002420460AB0BDE8F081003BD0F865
:100A60000080019218BF0123BCF1000C4FEA837390
:100A700018BF4FF0010C003F02934FEA4C7318BFB0
:100A800001270039039318BF0121119B3F05490538
:100A9000082B0697079128D81B0404934FF40003F2
:100AA00008934FF00043059305F000FC074603E070
:100AB00001F0B6FBB04207D8D8F800300121384623
:100AC000D3F8C4309B02F3D42A4601A9404606F06D
:100AD00075F80346404603B91C4606F0A3F9159B7A
:100AE000186020460AB0BDE8F0810C3B342B1CD8BE
:100AF000DFE803F0361B1B1B321B1B1B2E1B1B1BB3
:100B00002A1B1B1B1B1B1B1B261B1B1B1B1B1B1B1B
:100B10001B1B1B1B1B1B1B1B221B1B1B1B1B1B1B1E
:100B20001B1B1B1B1B1B1B1B1E00119B0493B5E7F0
:100B30004FF470230493B1E74FF460230493ADE7BF
:100B40004FF450230493A9E74FF440230493A5E7FF
:100B50004FF430230493A1E74FF4202304939DE73F
:100B60004FF41023049399E72DE9F04715468CB014
:100B70000022DDF86880019210B10679012E04D0C0
:100B8000002630460CB0BDE8F0870C461F46D0F872
:100B9000009005F08BFBA4F1400A01905FFA8AFAFD
:100BA000BAF1010F05D812E0019801F039FB404578
:100BB000E7D82146484606F009F901210028F3D07C
:100BC00005E00198012101F02BFB404557D82B4649
:100BD00002AA2146484606F029F80028F1D1029BD6
:100BE000039A3B60003A079B149918BF0122003B0F
:100BF00019980A7018BF0123189A1370089B003BBC
:100C000018BF0123DDE904120370159B1970C2F3AC
:100C10000743082B0ED816990B70179BBAF1010FDA
:100C20001A70ADD82146484606F0EEF81B9B002608
:100C30001860A6E7093B062BEFD8DFE803F01C1885
:100C400014100C080400402316990B70E5E73023BC
:100C500016990B70E1E7202316990B70DDE7182336
:100C600016990B70D9E7142316990B70D5E710234A
:100C700016990B70D1E70C2316990B70CDE7002362
:100C80001B9A13607DE700BF10B10379012B00D0E0
:100C90007047006805F004BF022810B404D104486E
:100CA0005DF8044B05F04EBF5DF8044B704700BF84
:100CB000EC0700240F3803B280B2002B06DB1201D0
:100CC0000649D2B2194481F80023704700F00F00A2
:100CD0001201034BD2B203441A76704700E100E0E0
:100CE000FCEC00E0F8B50D4D03682A7882B10C4C9D
:100CF0005E1C0C4F04EB830403E001F025F82B7815
:100D000033B1204601F0F6FB3B683046002BF4D0AF
:100D1000002001F0A7FB0020F8BD00BF0000002468
:100D20002802002448020024F0B5264D0122264B5B
:100D300085B005F110061A60284601F0E9FB03466C
:100D40002846043563BB01F0F3FB044688BBB5427B
:100D5000F2D11E4F1E4EC4EBC4030396013407EBC1
:100D6000830303F1100207CA8DE807000FCB01F0DF
:100D70007DFB054658B9042CEDD1164B187001F0D7
:100D800017F9154801F0C4FB284605B0F0BD4FF037
:100D9000500383F31188BFF36F8FBFF34F8FFEE7CC
:100DA0004FF0500383F31188BFF36F8FBFF34F8F62
:100DB000FEE74FF0500383F31188BFF36F8FBFF34B
:100DC0004F8FFEE72802002448020024A8010024D7
:100DD0004C02002400000024A40100242DE9F84F57
:100DE000274B8146274D1C682368B3FA83F35B09C0
:100DF0002B702B78002B39D0DFF89C80224F234EAC
:100E000008F1040A12E0A389E3B1E38903B3B4F85B
:100E100010B00020BBF1000F23D000F095FF236835
:100E2000003B18BF01233B702B78FBB1304601F02B
:100E300061FB6389002BE6D1404601F069FBA38981
:100E4000002BE2D1504601F063FBE389002BDED199
:100E50000F4801F05DFBB4F810B00020BBF1000FAB
:100E6000DBD10C4801F054FB5846D6E74846FFF763
:100E70005BFF002001F0F6FA0020BDE8F88F00BF0C
:100E80009CB9000800000024A00100249C0100245B
:100E90003002002434020024280200240000000054
:100EA0009FED377B384B2421252010B583ED007B47
:100EB00082B0C3E9020105F0BDF901F043FB01F086
:100EC000EFFB02F0EBFD01F057FC002201212F485F
:100ED000FFF7A4FA01F01CFD002201212C48FFF7C6
:100EE0009DFA01F085FD002201212A48FFF796FABC
:100EF00001F012FE01F060FE01F094FE01F0C0FE70
:100F000001F0ECFE01F05AFF01F0C4FF02F000F81E
:100F100002F05CF802F0B4F802F046F902F0F0F9E1
:100F200002F0D2FB02F086FC02F03CFD02F038FD3C
:100F300002F054FA02F0B0FA02F000FB02F050FBAB
:100F400002F088FB02F072FA02220123002110460F
:100F500000930C46FFF7A0FE0F4B1B681C6001F0CE
:100F60002DF900F001FF9FED0D0A042001F08AF930
:100F70000B4801F0BFFA204602B010BDAFF300806D
:100F80002700000026000000180200240020024074
:100F900000210240006002589CB900086F12033B18
:100FA000A4010024774B5A6DD10709D51A6DD207D9
:100FB00006D50121744A196513788B42D8B204D042
:100FC000BFF36F8FBFF34F8F7047F0B58BB06F4C8F
:100FD0006F4D402109AB04F11806CDE90603631DEE
:100FE0003246286DCDE90434E31D0393A31C02931C
:100FF000E31C0193631C009304F10803FFF7B4FDA5
:101000000023A07800222371A3710328E3604FF02E
:101010000003C4E9042353D0B4F88F100428A4F8C3
:1010200062105AD0B4F892300628A4F8643005D182
:10103000A06840F29112904200F08E8094F89120C6
:10104000B4F896C0A82AA4F866C06FD0EB2A65D081
:101050005F2A73D0B4F86C20B4F86A30B4F86EE04C
:1010600094F88E0012B28A28A4F884203FD0A828D1
:101070004CD05F2842D0B4F87400B4F87270B4F861
:10108000701094F8956000B2A5F8DE308A2EA4F8AE
:10109000860014BFB4F868C0A4F868C0A5F8E0C022
:1010A000A5F8D870A5F8DA10A5F8DCE0A5F8D4000A
:1010B000A5F8D620BFF36F8FBFF34F8F0BB0F0BDF5
:1010C000A368B3F5C87F52D0B4F88F10B4F892304B
:1010D000A4F86210A4F86430B0E7A26840F291135B
:1010E0009A4232D0B4F89230A4F86430A6E7B4F84B
:1010F0007400B4F87270A4F87010C2E70F46A4F838
:101100007210B4F87400B4F87010BAE70846A4F886
:101110007410B4F87270B4F87010B2E79E46A4F878
:101120006E30B4F86C20B4F86A3099E71A46A4F827
:101130006C30B4F86EE0B4F86A3091E7B4F86C2023
:10114000B4F86EE0A4F86A308AE76378002BC9D15E
:10115000A369C4F89130C5E76278002A7FF46EAFC6
:10116000B288A069A4F89920C4F8950066E763786E
:10117000002BA9D1228BB378A4F88E2084F890306C
:10118000A2E700BF00A40040000000245002002499
:1011900020030024000000002DE9F0412DED0C8B10
:1011A0004B7AB0EE409B92B00E4607460BB100233F
:1011B0004B72F56A2B68012B40F08F806B4605F16E
:1011C000100848221846414695ED16BB95ED02DB06
:1011D00095ED188BFDEECB7B3DEE09DB17EE904ACB
:1011E0000AF040FB0346013C9FED612BB4EE428BBD
:1011F00087ED002BF1EE10FA00F0A780E400B2EECC
:10120000027B04F148020DEB0204B4EE47BB04ED8F
:10121000129BF1EE10FA29D0B7EE007B3BEE07BB34
:10122000B5EE408BF1EE10FA05D1B2EE046B82EE12
:10123000067B87ED007B19464822404685ED02DBA0
:101240000AF010FBB5EEC08BF36AF1EE10FA83EDF5
:1012500016BB40F38380B7EE007B38EE478B83EDFF
:10126000188B12B0BDEC0C8BBDE8F0819DED0E6BC0
:101270009DED101B9DED0C3B9DED0A7B36EE011B99
:10128000B7EE00BB31EE033B9DED084B8DED0E1B21
:1012900033EE071B9DED065B31EE044B9DED046BB9
:1012A00034EE055B9DED027B35EE066B8DED0C3B60
:1012B00036EE077B9DED003B9FED2DDB8DED0A1B90
:1012C00033EE073B8DED084B8DED065B8DED046B2A
:1012D0008DED027B8DED003BA2E79FED25AB002459
:1012E0004FF00108B7EE00CB05F11000C5F8008003
:1012F000482221462C71B0EE4A8BB0EE4CBB85EDF6
:1013000002AB0AF025FAF06A4822214680F80480F0
:10131000103080ED12CB80ED14AB00ED02AB0AF083
:1013200017FAF56A6B46482205F11008184641463F
:1013300095ED02DB85ED16CB85ED18AB3DEE09DBB7
:101340000AF090FA034687ED00AB12AA02EBC40242
:10135000E40012ED122B3DEE022B50E79FED048BC3
:1013600083ED188B12B0BDEC0C8BBDE8F08100BF93
:101370000000000000000000F0B5A74D4FF0000E87
:10138000A64CB5F80AC0A8890CF10101EB89BCFA9A
:101390008CFCA34F89B201334FEA5C1C05299BB238
:1013A0006CF3070E28BF00216981411CB0FA80F060
:1013B00089B240090A2960F30F2EE06B28BF002193
:1013C000642BA5F812E028BF0023A9810421EB813A
:1013D0002B8A01339BB2B3F5FA7F2DED0A8B83B0D4
:1013E00028BF002301AA2B82FFF7FAF9DDED017A6D
:1013F0009FED736BB8EE677B97ED005B37EE467B36
:1014000087EE050B20EE060BB4EEC60BF1EE10FADC
:1014100000F3E881B5EEC00BF1EE10FA00F1E581C2
:1014200080498148FFF7B8FE94F8E6306A68002BDF
:1014300000F0DE8100237D4E01930023C4F8B82024
:10144000A4F8E6309FED5E7B97ED206B96ED2E8B3A
:10145000B0EE47ABA8EE06ABB4EEC7ABF1EE10FAB8
:101460000DDCB5EEC0ABF1EE10FA08D49FED567B63
:101470002AEE07ABB5EEC0ABF1EE10FA01DD9FED41
:1014800054ABB3EE067BB4EEC78BF1EE10FA40F32B
:10149000A6819FED516B9FED527B28EE068B28EEC7
:1014A000078B6349634894ED267B9FED4F0B38EE25
:1014B000478BFFF771FEB5EEC08BF1EE10FA01D845
:1014C0009FED438B96ED326B9FED497B26EE088BAB
:1014D00038EE477BB5EEC07BF1EE10FA01D89FEDF8
:1014E0003C7B94F8E83023B100239FED436B84F8F4
:1014F000E83094F8E43087EE069B002B00F07C8106
:1015000094ED187B9FED32CB9FED2D6B9FED3C5BF7
:1015100099EE0C7B484949489FED3BBB9FED320B50
:1015200029EE0BBB27EE067B29EE059B84ED287B7D
:10153000FFF732FEB3EE067B96ED2E5BB4EEC75B93
:10154000F1EE10FA00F32181B0EE4C6B9FED287B99
:1015500096ED301B87EE013B9FED2D7B23EE073B85
:1015600094ED2A7B93EE067BB5EEC07BF1EE10FA8C
:1015700001D89FED177B9FED124B97ED266B002353
:10158000B0EE442B84F8E930A5EE062BB4EEC42B64
:10159000F1EE10FA54DCB5EEC02BF1EE10FA4FD498
:1015A0009FED096B22EE062BB5EEC02BF1EE10FA83
:1015B00046DC9FED0D6B22EE062B43E0AFF300807F
:1015C0000000000000005940CDCCCCCCCCCCE43F96
:1015D00000000000000000007B14AE47E17A843F69
:1015E000C3724F232CF732400000000000208240DD
:1015F000000000000088B3400000000000C08240EE
:10160000DF2203C139D5413F0E107D663A6AE13FC2
:101610009A9999999999F13F58060024200300243A
:10162000A0B900081004002408030024500200247C
:10163000B00500241803002408050024100300242A
:101640009FED7B2B21EE074B9FED7B7B34EE477BA1
:10165000B5EEC07BF1EE10FA01D89FED757B94F8E2
:10166000EA3023B100239FED761B84F8EA3094F82A
:10167000E53087EE013B002B00F09E8094ED1C7B53
:1016800034EE424B00239FED706B9FED691B94ED90
:101690001ECB84EE062BA4F8E43093EE017BB0EE73
:1016A0004C4B9FED6B6B9FED6C0BA3EE064BA3EECB
:1016B00000CB9FED6B6B27EE067B94ED1A6B84EDF0
:1016C0001ECB37EE044B36EE099B36EE0B6B84EDEA
:1016D0002C7B94ED287B84ED2A4B84ED1A6B37EE3E
:1016E000097B84ED267B9FED607BB4EEC72BF1EE8A
:1016F00010FA5EDCB4EEC12BF1EE10FA11D49FEDBE
:101700005C4B9FED5D6B9FED5E7B22EE042B22EE2A
:10171000062B82EE074BB4EEC14BF1EE10FA00F24D
:1017200083809FED492B9FED4E7B9FED573B9AEEBB
:10173000028B9FED4D6B88EE072B82EE037BB4EEA0
:10174000C67BF1EE10FA03DD86EE073B27EE037B46
:10175000EB7C7BB19FED462B9FED476B9FED483BAC
:1017600027EE027B84ED201B27EE067B87EE036BC2
:1017700084ED226BAB7C0BB184ED245B6B68013391
:101780006B6003B0BDEC0A8BF0BD9FED417B9FED1C
:10179000424B9FED436B25EE077BA7EE046BB7EE44
:1017A000007BB4EEC76BF1EE10FA36DDB0EE476B9E
:1017B000CCE69FED3D1BB4E7DDED011A9FED3C7BD0
:1017C000B8EE611B94ED1C0B21EE071BB0EE407BC5
:1017D00094ED2C6BA1EE067B84ED1C7B50E79FED16
:1017E000148B5EE6B0EE460B1AE69FED110B17E682
:1017F000D4F8B830D31A1EE6DDED015A9FED2C4B1C
:10180000B8EE655B94ED187B25EE045B94ED286BD8
:10181000A5EE067B84ED187B74E6B4EECC6BF1EE9E
:1018200010FA7FF593AE8FE6B1EE441B79E700BF67
:101830000000000000000000000000000088B3402D
:101840000000000000C08240000000000020824034
:10185000DF2203C139D5413F0E107D663A6AE13F70
:1018600000000000000059400000000000C0674078
:1018700000000000C0FFDF40CD3B7F669EA0F63F2A
:101880000000000000E0704048E17A14AE47E13FFC
:101890007B14AE47E17A843F85EB51B81E85F33F58
:1018A000295C8FC2F528CCBFE0C1D86353D8DFC014
:1018B000FCA9F1D24D62603F2DE9F047524D534CE7
:1018C000B5F8D460B5F8D820B5F8DA30A4F85820C7
:1018D000A4F85A30B5F8DC30B5F8D680A4F85C30FE
:1018E000B5F8DE302DED028B95ED248BA4F85E303B
:1018F00088B0B5F8E030BBFE488BB0EE480BA4F8DA
:10190000603000F085FC002854D000221346A4F873
:101910007630B3B24FF008090026A4F87A305BBAEB
:1019200007AF4FF47A7AA4F87C301FFA88F8A4F84D
:10193000A330B4F85830A4F878205BBAA4F8A120FA
:1019400005974A46A4F87E30A4F8A530B4F85A307A
:1019500000965BBA2E49CDE90366A4F88030A4F85E
:10196000A7303346CDE9019AE869FFF763F8B4F888
:101970005E10B4F8602033460597CDF808A0A4F8AF
:10198000AD10E86AA4F8AF200922B4F85C502149F0
:10199000CDF804900096A4F88280A4F8AB80A4F857
:1019A000A950CDE90366FFF745F808B0BDEC028BFE
:1019B000BDE8F087B0EE480B00F010FC0028A4D181
:1019C000B0EE480B9FED0E1B09F04EFDB5EEC00BBF
:1019D000F1EE10FA0AD5B1EE400BBCEEC00B10EEE2
:1019E000103A5B425ABA9BB292B290E7FCEEC07BCF
:1019F00017EE903A5ABA9BB292B288E7AFF30080E2
:101A0000000000000000F0402003002450020024E9
:101A1000F1020024F90200242DE9F047544E2DED87
:101A2000028B96ED228B8AB0BBFE488BB0EE480B42
:101A300000F0EEFB00284DD0002213464D4CDFF89D
:101A40004081A4F8883098F8A230A4F88A2084F85D
:101A50009B3096ED208BBBFE488BB0EE480B00F020
:101A6000D7FB002852D000231A46002509AF4FF0BB
:101A700003094FF47A7AA4F88C302B46A4F89C2002
:101A800040F211223C49D6F8B80105970095CDE9FE
:101A90000355CDE9019AFEF7CDFF98F8A330B4F8CD
:101AA0008A2084F89E302B46A4F89F204FF40472BD
:101AB0003249D6F8A4010597CDF808A0CDF80490D6
:101AC0000095CDE90355FEF7B5FF0AB0BDEC028BDA
:101AD000BDE8F087B0EE480B00F080FB0028ABD1EA
:101AE000B0EE480B9FED201B09F0BEFCB5EEC00B1D
:101AF000F1EE10FA25D5B1EE400BBCEEC00B10EEA6
:101B0000103A5B425ABA1BB292B297E7B0EE480B5A
:101B100000F064FB0028A6D1B0EE480B9FED121B2D
:101B200009F0A2FCB5EEC00BF1EE10FA11D5B1EE42
:101B3000400BBCEEC00B10EE103A5B429AB21BB2E7
:101B400093E7FCEEC07B17EE903A5ABA1BB292B202
:101B500074E7FCEEC07BCDED077ABDF81C20BDF923
:101B60001C3082E7AFF30080000000000000F0406E
:101B70002003002450020024EB020024EE02002483
:101B8000A0B90008000000002DE9F0412DED028B06
:101B90008CB00023684C4FF47A720AA80521CDE975
:101BA0000430CDE90223CDE90031D2226349E06857
:101BB000FEF740FFB7EE005BB2EE086B94ED167BCC
:101BC00037EE057BB4EEC67B84ED167BF1EE10FAA2
:101BD00004DD0CB0BDEC028BBDE8F08194F8E2307E
:101BE000574D052B574A28BF052392F8A42005EB33
:101BF000C3038DF8242093ED008BBBFE488BB0EE21
:101C0000480B00F005FB002850D0002394F8E32097
:101C10008DF82530052A134628BF052305EBC3059B
:101C200095ED008BBBFE488BB0EE480B00F0F0FA50
:101C3000002855D0002300250BAE03274FF47A78F7
:101C400009A98DF8263040F211222B46D4F8E00184
:101C500005960095CDE90355CDE90178FEF7EAFE3A
:101C60002B4609A94FF40472D4F8CC010596CDF89F
:101C70000880CDE90355CDE90057FEF7DBFE94F867
:101C8000E22094F8E33001320133D2B2DBB2062A0B
:101C900028BF2A46062B28BF2B4684F8E22084F86A
:101CA000E3300CB0BDEC028BBDE8F081B0EE480B28
:101CB00000F094FA0028A8D1B0EE480B9FED1C1B51
:101CC00009F0D2FBB5EEC00BF1EE10FA22D5B1EE61
:101CD000400BBCEEC00B10EE103A5B42DBB295E756
:101CE000B0EE480B00F07AFA0028A3D1B0EE480B12
:101CF0009FED0F1B09F0B8FBB5EEC00BF1EE10FA2B
:101D00000FD5B1EE400BBCEEC00B10EE103A5B42AB
:101D1000DBB290E7FCEEC07BCDED077A9DF81C307E
:101D200074E7FCEEC07BCDED077A9DF81C3082E7AE
:101D30000000000000007040200300244ABA0008A0
:101D400058BA0008A0B9000803280BD8DFE800F053
:101D500008060402FFF718BFFFF75EBEFFF7ACBD31
:101D6000FFF70ABB704700BF70B50120894C002304
:101D70008AB060602370FEF72FFEE06018B103792F
:101D8000012B00F0E68001200023207284F8D4317A
:101D900084F8E401C4F8D801FEF71EFEC4F8E0019F
:101DA00018B10379012B00F0D8800120002384F8BA
:101DB000DC0184F8C03184F8D001C4F8C401FEF716
:101DC0000BFEC4F8CC0118B10379012B00F0C980D7
:101DD0000120002384F8C80184F8AC3184F8BC01E8
:101DE000C4F8B001FEF7F8FDC4F8B80118B10379E2
:101DF000012B00F0BA800120002384F8B40184F89C
:101E0000983184F8A801C4F89C01FEF7E5FDC4F8F8
:101E1000A40118B10379012B00F0AB80012000234D
:101E200084F8A00123746061FEF7D6FDE06118B16B
:101E30000379012B00F0A18001200023207684F893
:101E400020306062FEF7C8FDE06218B10379012B13
:101E500000F097800022504B0120C4E92623C4E9FA
:101E60002A2300234D4A84F82800A2F1A80184F80F
:101E70009032C4F8C832C4F8BC22002284F8E83199
:101E8000C4F8203284F84430454B84F8E80084F8E4
:101E9000EA0084F83003C4F89402A4F8980284F8A5
:101EA0008802C4F8EC01C4F81412A4F8F001A0648C
:101EB000C4E9B000C4E98600C4E91A23FEF78CFD2A
:101EC000206510B10379012B5FD0364B0125364ACE
:101ED0000026236403A8009684F84C5084F83060F0
:101EE00065638DF812600395ADF81050CDE90632A8
:101EF000A2F5E052042308924FF480721946ADF81F
:101F000024202A46FEF7D8FB02223146E063FEF782
:101F100017FDE06BFEF756FC2946E06BFEF7B0FBC1
:101F2000224A40F2011384F8385084F8F06084F8B3
:101F30009051C4F8F450C4F82861C4F81C21A4F8E6
:101F4000F85084F8E650A4F8E430C4E948550AB0E3
:101F500070BD006804F014FE15E7006804F010FE80
:101F600023E7006804F00CFE32E7006804F008FE86
:101F700041E7006804F004FE50E7006804F000FE4A
:101F80005AE7006804F0FCFD64E7006804F0F8FD1F
:101F90009BE700BF2003002400002C40E80500243C
:101FA00000002440000000300020024048040024CB
:101FB00010B5814C94F830302BB90123626B9A42F2
:101FC00084F8303077D094F8F03033B90122D4F867
:101FD000F430934284F8F02076D094F8903233B9FC
:101FE0000122D4F89432934284F890227ED094F85F
:101FF000E8313BB90122D4F8EC31934284F8E8216E
:1020000000F0878094F8443033B90122A36C9342E6
:1020100084F8442000F0AA80237C2BB90122636954
:102020009342227400F0918094F8203033B9012259
:10203000636A934284F8202000F08F8094F8AC31DA
:1020400033B90122D4F8B031934284F8AC2173D073
:1020500094F898313BB90122D4F89C31934284F82A
:10206000982100F09E8023782BB901226368934267
:10207000227000F0848094F8D4313BB90122D4F866
:10208000D831934284F8D42100F0818094F8C03193
:1020900033B90122D4F8C431934284F8C02100D06E
:1020A00010BD94F8C831002BFAD0D4F8CC01BDE8AB
:1020B0001040FEF7E9BD94F83830002B83D004219E
:1020C000E06BFEF7E7FB7EE794F8F830002B84D056
:1020D000D4F81C311A68012A01D102221A604FF08B
:1020E000FF324FF0FF33C4E9482376E794F8983283
:1020F000002B3FF47CAFD4F8BC321A68012A01D11E
:1021000002221A604FF0FF324FF0FF33C4E9B023D0
:102110006DE794F8F031002B3FF474AFD4F814322B
:102120001A68012A01D102221A604FF0FF324FF0E3
:10213000FF33C4E9862365E794F8B431002B87D0D8
:10214000D4F8B801FEF7A0FD82E7237E002B3FF410
:102150006BAFE069FEF798FD66E794F82830002B36
:102160003FF46CAFE06AFEF78FFD67E794F84C3000
:10217000002B3FF451AF206DFEF786FD4CE7237A2C
:10218000002B3FF478AFE068FEF77EFD73E794F82C
:10219000DC31002B3FF47AAFD4F8E001FEF774FD98
:1021A00074E794F8A031002B3FF45DAFD4F8A4019C
:1021B000FEF76AFD57E700BF20030024032205490C
:1021C000232008B5FEF776FD034B4FF480121A600A
:1021D00008BD00BFA50F000800E100E00A4B93ED29
:1021E000007BB4EE407BF1EE10FA0AD0074B93ED82
:1021F000007BB4EE407BF1EE10FA0CBF0120002012
:1022000070470120704700BF080000241000002420
:10221000B4EE400BF1EE10FA6CBF012000207047C5
:1022200030B5044683B089B94FF080456B6A01939D
:1022300004F03CF800906A6A019B9A4210D3009A1D
:102240004FF47A71019B01FB023302E004F02EF897
:102250000346181BA34238BF00F1FF3003B030BD66
:1022600004F024F86B6A4FF47A7202FB0033F0E753
:10227000014800F04DB900BF9C010024FEF7AEBD3F
:10228000FEF730BD2DE9F843002156482DED028BB5
:10229000B0EE408A00F024F940B14FF0500383F3D0
:1022A0001188BFF36F8FBFF34F8FFEE701464E4893
:1022B00000F016F9034640B14FF0500383F3118844
:1022C000BFF36F8FBFF34F8FFEE7484D2821484A79
:1022D000802729612C46A861AF8207CA03C428461B
:1022E000227044491A4600F09BF8044640B14FF072
:1022F000500383F31188BFF36F8FBFF34F8FFEE757
:10230000DFF814913C4E3D4DDFF81081002130463E
:1023100049F8044F00F0E4F80346C4F1270C0436F2
:10232000013428464A464146002B52D1AB611C3548
:1023300045F80CCC25F8087C00F072F8034600281C
:102340003ED1042CE2D1DFED2E7A20202D4C2E4AF6
:1023500028EE270A2D49E36081F82300BCEEC00A6D
:10236000236092E803002A4A2061012013600A0CCE
:10237000A182A06020462749A27584ED010A00F0E1
:1023800083F840B14FF0500383F31188BFF36F8F90
:10239000BFF34F8FFEE74FF47A71204600F086F8C6
:1023A00040B14FF0500383F31188BFF36F8FBFF339
:1023B0004F8FFEE7BDEC028BBDE8F84307F004BF8A
:1023C0004FF0500383F31188BFF36F8FBFF34F8F2C
:1023D000FEE74FF0500383F31188BFF36F8FBFF315
:1023E0004F8FFEE79C010024A401002480010024FB
:1023F00088BA00087D22000828020024A8010024D1
:1024000000007A446C06002494BA000800ED00E055
:102410008C06002471220008340200248122000866
:10242000E8B1134600F1180230B50446056983B0DF
:10243000084621460192A28A009507F00BFEA36987
:1024400023B1013818BF012003B030BD4FF0500355
:1024500083F31188BFF36F8FBFF34F8FFEE7012027
:10246000704700BF002007F029BE00BF84B008B548
:102470000DF1080C8CE80F00089807F01FFE0020F3
:10248000BDE8084004B0704710B582B00446009122
:102490004168D0E90223103008F0B2FB0346B0FADD
:1024A00080F02360400902B010BD00BFA8B130B574
:1024B000056883B075B10C4607F01CFF0023024687
:1024C00001212846009408F003FC013818BF0120C0
:1024D00003B030BD012003B030BD0120704700BF04
:1024E00010B504460A2006F0A9FC0346002023602C
:1024F00010BD00BF50B1006840B14FF0FF3108B5CA
:1025000007F04CF8013818BF012008BD01207047C2
:1025100058B1006848B108B500231A46194606F0BC
:10252000D3FC013818BF012008BD0120704700BF4F
:1025300028B1006808B507F0BBF9002008BD0120EC
:10254000704700BF514A08B5136823F00F0343F0EA
:1025500003031360136803F00F03032BFAD14C49F4
:102560004C4ACB6823F03F0343F00403CB608B69F4
:1025700023F440438B61136843F480331360136882
:102580009903FCD51168434B41F4805111601A68DE
:102590009204FCD5986A404A20F003003D4940F07F
:1025A00002009862D86A40F48030D862D86A40F459
:1025B0000030D862D86A40F48020D862D86A40F0EF
:1025C0000C00D862D86A20F00200D862986A20F421
:1025D0007C7040F020009862186B024042F02B02A1
:1025E0001A631A6B22F47E421A631A6B22F4FE02FB
:1025F00042F408121A631A6B22F0FE4242F0807213
:102600001A631A6842F080721A600B689B01FCD54D
:102610008B69204A23F00F0343F008038B610B6999
:1026200023F0070343F003030B61136903F038033E
:10263000182BFAD19369194823F470639361936955
:1026400023F00F0343F008039361D36923F0700371
:1026500043F04003D361D36923F4E06343F4806320
:10266000D361936923F0700343F040039361136ACD
:1026700023F0700343F04003136202F035FE0F2095
:1026800002F086F808B172B6FEE708BD00200052DD
:10269000004802580044025800FEFFFF8055C82041
:1026A000324B334AD96A41F40021D962D96A41F0E8
:1026B000C001D962D96A21F02001D962996A21F456
:1026C0007C3141F400519962996B0A4042F00F024B
:1026D0009A639A6B22F47E4242F400729A639A6B78
:1026E00022F4FE0242F480329A639A6B22F0FE4298
:1026F00042F080729A631A6842F080621A601A6827
:102700001201FCD5D96A1A4A41F080711748D96282
:10271000D96A41F44061D962D96A21F40071D96261
:10272000996A21F07C7141F480119962196C0A4018
:1027300042F003021A641A6C22F47E4242F40072E0
:102740001A641A6C22F4FE0242F480321A641A6C83
:1027500022F0FE4242F080721A641A6842F08052FF
:102760001A6003689B00FCD5704700BF0044025804
:1027700000FEFFFF0000000030B55B4B97B0002467
:102780005A480AA95A4D0F940394109406940C9435
:1027900015940994CDE90D44CDE90444CDE91144E3
:1027A000CDE91344CDE907449A6D22F440329A658D
:1027B000D3F8D82042F02002C3F8D820D3F8D8208C
:1027C00002F020020292029AD3F8E02042F00402C2
:1027D000C3F8E020D3F8E02002F004020192019A4D
:1027E000D3F8E02042F00102C3F8E020D3F8E03053
:1027F0009FED3B7B03F001030093009B8DED0A7B73
:1028000002F00EF93B4A3C4803A9536843F0407379
:102810005360D0F82028394B22F0FF0242F0090221
:10282000C0F8202828461A6922F0C0021A611A69E5
:1028300022F440321A611A6922F490721A611A69FC
:1028400022F400721A611A6942F480621A611A69EC
:1028500022F4C05242F400621A611A6922F4C042A2
:1028600042F400521A615A6A22F004025A62244B5E
:102870002A6913402B610394059402F08BF910A987
:1028800028461594CDE91044CDE9124402F0BAF976
:102890004FF40022002306A91A48CDE9062302F0CE
:1028A00041F9A968184A194B0A40AA60AA6813405E
:1028B00043F08053AB602B6B23F4F86343F4207335
:1028C0002B63AB6923F0070343F00403AB61D5F836
:1028D000C03023F48063C5F8C03017B030BD00BFEE
:1028E00001000000030000000044025800080258E4
:1028F0000020024000040058000002400004024092
:10290000FCFBFFFF00230240C0FFFF5FC0FFFF6F23
:1029100030B5304B8DB000252F48304C03A90395BE
:10292000069504950B95CDE90755CDE909559A6DA6
:1029300022F440329A65D3F8D82042F02002C3F83E
:10294000D820D3F8D82002F020020292029AD3F8BD
:10295000E02042F00102C3F8E020D3F8E03003F0B9
:1029600001030193019B436843F040734360204699
:1029700022691B4B13402361059502F00BF90022DD
:10298000002306A920460B95CDE90623CDE90823AF
:1029900002F038F9A0681349134B0140134AA160B3
:1029A000A1680B4043F08053A360D2F8303123F488
:1029B000F863C2F83031D2F8143123F00703C2F8BB
:1029C0001431D4F8C03023F00103C4F8C0300DB086
:1029D00030BD00BF004402580004005800210240EE
:1029E000FCFBFFFFC0FFFF5FC0FFFF6F0020024046
:1029F00030B5414B97B000244049414D0F940394AA
:102A0000109406940C94159409943E48CDE90D4415
:102A1000CDE90444CDE91144CDE91344CDE907449F
:102A20009A6D22F440329A65D3F8E02042F0807229
:102A3000C3F8E020D3F8E02002F080720292029AFC
:102A4000D3F8E02042F00402C3F8E020D3F8E020FD
:102A500002F004020192019AD3F8E02042F08002D1
:102A6000C3F8E0200422D3F8E03003F080030093A1
:102A7000009B4B6843F040634B6003230AA90E940C
:102A8000CDE90A2301F0CCFF2A691F4B03A9284690
:102A900013402B610394059402F07CF810A928469A
:102AA0001594CDE91044CDE9124402F0ABF84FF48F
:102AB0000022002306A915480894CDE9062302F058
:102AC00031F8A968124A134B0A40AA60AA68134059
:102AD00043F08053AB602B6B23F4F8632B636B697B
:102AE00023F007036B61D5F8B03023F00103C5F87C
:102AF000B03017B030BD00BF004402580004005889
:102B000000600258001C0258FCFBFFFF00630258E3
:102B1000C0FFFF5FC0FFFF6F30B5234B8FB00024B5
:102B200020200321214D02940A9407940D94CDE9AD
:102B30000344CDE90544CDE90B44D3F8E82042F045
:102B40000052C3F8E820D3F8E82002F000520192C6
:102B5000019AD3F8E02042F00102C3F8E020D3F854
:102B6000E03003F00103CDE90801009308A9104803
:102B7000009B01F055FF02AA0E49284607949FEDDD
:102B8000087BCDE905448DED027B03F09FFB2B68AC
:102B900023F400332B600FB030BD00BFAFF30080D3
:102BA00000000000000000000044025800740040D3
:102BB000000002587200403510B5144882B0144924
:102BC0000023144A4FF0010C016000921249134A8D
:102BD000ADF8043040F2F453C0F804D080F808C0D7
:102BE0004361C0E9031203F0A9FB08B172B6FEE726
:102BF0000B4C01463022201D08F0AAFD21224FF483
:102C000040332260636102B010BD00BFC4060024DF
:102C1000008002400080E100DC0000247C000024F1
:102C20009006002438B51448002301220421022410
:102C3000124D8374028205608166C0E90233C0E9E7
:102C40000C23C0E90E33C0E91231C0E91431C0E9E8
:102C50001633C0E918230A23C0E90644C0E9084234
:102C6000C0E90A22C0E91021436103F019FD08B14F
:102C700072B6FEE738BD00BF4C07002400A000403C
:102C800014480221012238B5002305240162124DA7
:102C9000837402820560C0E906110421C0E9023391
:102CA000C0E90D33C0E90F32C0E91143C0E9131385
:102CB000C0E91513C0E91732C0E919340A23C0E985
:102CC0000922C0E90B22436103F0EAFC08B172B6A5
:102CD000FEE738BDEC07002400A4004030B5314ABF
:102CE00091B00024304D02A930480E94CDE9024441
:102CF000CDE90444CDE90644CDE90844CDE90A44D0
:102D0000CDE90C44D2F8583423F44073C2F8583457
:102D1000D5F8E03043F02003C5F8E030D5F8E030D6
:102D2000049403F0200301934FF44043019A0122DD
:102D3000029302230393012305930423CDE9062381
:102D400001F06EFED5F8F430194808A943F080036D
:102D5000C5F8F430D5F8F43003F080030093009AFE
:102D60004268144B42F000724260C2681340124A3B
:102D7000C360C36823F40043C360036823F40023E3
:102D80000360036823F40033036000230E94CDE94D
:102D900008420022CDE90A44CDE90C2304F056FA9A
:102DA00011B030BD004002580044025800140258CF
:102DB000001C005801F8FFFF724E406070B59AB0D9
:102DC00034220021314C6846052508F0C1FC34222C
:102DD00000210DEB020008F0BBFC00232C4A4FF44D
:102DE0002571A386204684F83630C4E900230722E3
:102DF000C4E90233C4E9043203220E23A26140F283
:102E00008E22C4E9073540F2E513C4E9092340F2F4
:102E1000E713C4E90B1304F051FA08B172B6FEE7E8
:102E20004FF48066024606906946ADF830008DF892
:102E300032000796CDE90000CDE90200CDE904009B
:102E4000CDE90850CDE90A00204604F0A5FA034672
:102E500008B172B6FEE70DA920460122ADF8643034
:102E60008DF86630CDE90D33CDE90F33CDE911335F
:102E7000CDE91336CDE91553CDE9173304F08CFABB
:102E800008B172B6FEE71AB070BD00BF8C0800240E
:102E90000010005030B520221A4C002387B00125C5
:102EA000194922610822204600930593C4E90015C0
:102EB000C4E90233C4E90553C4E90733C4E909533B
:102EC000C4E90B33C4E90D32C4E90F33CDE9013352
:102ED000CDE9033304F032FB08B172B6FEE74FF0E0
:102EE00001120A4B69462046039241F2883204934C
:102EF000CDE9015504F0DCFB08B172B6FEE707B07E
:102F000030BD00BF34090024005000520100000110
:102F100010B501222A4C2B4800234FF080618AB063
:102F200023640493009309930393C4E900022020CF
:102F3000C4E902310821C4E904022046C4E9063389
:102F4000C4E90832C4E90A33C4E90C33C4E90E13F6
:102F5000CDE90533CDE90733CDE9013304F0EEFACD
:102F600008B172B6FEE70223174A04A92046079269
:102F700041F28832CDE9053303F18073089304F000
:102F800097FB08B172B6FEE79FED097B41F28832EC
:102F9000694620468DED007B9FED077B8DED027B22
:102FA00004F04AFB08B172B6FEE70AB010BD00BFDC
:102FB000000000000000000002000000000000000F
:102FC0009409002400A0005202000100F8B527482F
:102FD000002301242649032240274FF48076082548
:102FE00043640160C3644260036587648460436135
:102FF000C361C360436380F838304565C0E90B3373
:10300000C0E90F36C0E91643C0E91833C0E91A33E6
:10301000C0E91C4304F070FE08B172B6FEE7034637
:103020001448154A43608360C361C360436380F8FA
:103030003830C363436787640260C0E91063C0E946
:103040001333C0E90533C0E90B33C0E91733C0E9D6
:103050001933C0E91B34094BC0E91554036204F06D
:103060004BFE08B172B6FEE7F8BD00BFF4090024BC
:10307000045801408C0A00242458014000EE02004C
:103080002DE970430024A2B0444E202221460EA810
:1030900007944FF00008424D4FF00009CDE903447A
:1030A000CDE9054408F054FB3022214616A808F06B
:1030B0004FFB03A92846CDE90844CDE90A44CDE9F0
:1030C0000C44D6F8F03043F00103C6F8F030D6F8DF
:1030D000F03003F001030293029B4FF6FF73059358
:1030E00005F0B2FA2B680EAA4FF48051284623F05F
:1030F00080032B60EB6943F40063EB616023CDE94F
:1031000014890E93CDE90F44CDE9114405F034FB49
:10311000EB694FF4005216A923F480632846EB6153
:103120006B6823F070036B606B6823F470036B6053
:10313000AB6823F08003AB604FF0007318941E93CC
:1031400000238DF86440ADF866401D941F942194CF
:10315000CDE91689CDE91A2305F09EFCD6F8E030BA
:103160004FF4804208A943F010034FF000084FF0DD
:1031700001090C48C6F8E030D6F8E0300892022287
:1031800003F010030B940193019BCDE90924CDE9D1
:103190000C8901F045FC22B0BDE870830044025860
:1031A0000000014000100258F0B5002497B0504FC5
:1031B000202221460EA807944FF080454D4ECDE9C0
:1031C0000344CDE9054408F0C3FA03A93046CDE92C
:1031D0000844CDE90A44CDE90C44D7F8E83043F07F
:1031E0000403C7F8E830D7F8E83003F0040302938B
:1031F000029B4FF6FF73059305F026FA33686021B2
:103200000EAA304623F080033360D5F8183843F413
:103210000063C5F818381294CDE90E141021CDE9D9
:10322000104405F0A9FAD5F818380EAA4FF48071A9
:1032300023F480633046C5F81838D5F81C3843F0BD
:103240000803C5F81C3805F097FAD5F81C380EAA03
:103250004FF4805123F004033046C5F81C38D5F8EC
:103260001C3843F40063C5F81C3805F085FAD5F81E
:103270001C38802208A923F480631F48C5F81C3835
:103280000225736823F070037360B36823F0800332
:10329000B3600026D7F8E0302B43C7F8E030D7F80A
:1032A000E0302B400193019BD7F8E03043F0080356
:1032B000C7F8E030D7F8E03002270A9403F008039B
:1032C0000B940093009BCDE90825CDE90C6701F034
:1032D000A7FB4FF4404308A9084809950893CDE996
:1032E0000A44CDE90C6701F09BFB17B0F0BD00BFAD
:1032F000004402580008004000040258000C025824
:10330000F0B5002497B0324E202221460EA8079433
:103310004FF080472F4DCDE90344CDE9054408F037
:1033200017FA03A92846CDE90844CDE90A44CDE9B6
:103330000C44D6F8E83043F00803C6F8E830D6F875
:10334000E83003F008030293029B4FF0FF3305932C
:1033500005F07AF92B6860200EAA012123F0800382
:103360002B60D7F8183C43F00803C7F8183C1294B8
:10337000CDE90E042846CDE9104405F0FDF9D7F853
:10338000183C012208A923F004031348C7F8183C8D
:1033900002276B6823F070036B60AB6823F0800337
:1033A000AB60D6F8E0301343C6F8E030D6F8E03032
:1033B00000260892022203F001030B940193019B63
:1033C000CDE90924CDE90C6701F02AFB17B0F0BD67
:1033D00000440258000C00400000025810B511488B
:1033E00041F27B51104C002384B040F2CF72A361B4
:1033F0000193C4E900012046C4E90232CDE9023359
:1034000004F014FE08B172B6FEE7034601A9204697
:103410000193039305F0AEF808B172B6FEE704B06D
:1034200010BD00BF00100040BC0B002410B50023ED
:1034300086B0174A40F6BD20019301A9154CCDE98D
:103440000233CDE90433D2F8E83043F02003C2F868
:10345000E830D2F8E83040F2E732ADF80400204618
:1034600003F0200303920093009B05F0EDF823681E
:1034700043F080032360636823F0700343F020036C
:103480006360A36823F08003A36006B010BD00BF93
:10349000004402580014004010B5002386B0234AAF
:1034A00005932348CDE90133CDE90333D2F8F01079
:1034B00041F40031C2F8F010D2F8F02002F40032EA
:1034C0000092009AC268C2F30222C2F10701101DE5
:1034D000042928BF04210628164898BF1A464FF031
:1034E000FF3388BF033A8B40DB4303F0050393406F
:1034F0001B01DBB280F875334FF40013C3600E4C30
:1035000040F2252000234CF24F32ADF8040001A90F
:10351000204602930392CDE9043305F095F8236821
:1035200023F08003236006B010BD00BF00440258A2
:1035300000ED00E000E100E00044014010B5002390
:1035400086B0234A05932348CDE90133CDE90333FF
:10355000D2F8F01041F48021C2F8F010D2F8F02037
:1035600002F480220092009AC268C2F30222C2F1E1
:103570000701101D042928BF04210628164898BFFA
:103580001A464FF0FF3388BF033A8B40DB4303F00A
:10359000050393401B01DBB280F876334FF48003C0
:1035A000C3600E4C40F2252000234CF24F32ADF8A0
:1035B000040001A9204602930392CDE9043305F0EB
:1035C00043F8236843F08003236006B010BD00BFBA
:1035D0000044025800ED00E000E100E00048014036
:1035E00010B51A4840F22522194C00238AB047F63C
:1035F000BC01236104930193C4E9000280222046A8
:10360000C4E90231A261CDE90533CDE90733CDE943
:10361000023304F00BFD08B172B6FEE7002300226E
:1036200004A92046CDE9042304F02AFE034608B18C
:1036300072B6FEE701A920460193039304F09AFFB6
:1036400008B172B6FEE70AB010BD00BF00E000404E
:10365000240B002410B51A4840F22522194C0023EF
:103660008AB041F62501236104930193C4E9000265
:1036700080222046C4E90231A261CDE90533CDE9BB
:103680000733CDE9023304F0D1FC08B172B6FEE78E
:103690000023002204A92046CDE9042304F0F0FD14
:1036A000034608B172B6FEE701A9204601930393D1
:1036B00004F060FF08B172B6FEE70AB010BD00BFAB
:1036C00000E40040700B002470B5202290B000216F
:1036D0004FF4E1360DEB02000C250C4608F038F8EB
:1036E0004F4B02A94F48CDE90244CDE90444CDE94E
:1036F0000644D3F8F02042F01002C3F8F020D0F8CE
:10370000542422F03802C0F85424D3F8F02002F0F8
:1037100010020192019AD3F8E02042F00202C3F8AD
:10372000E0204FF44042D3F8E03003F0020300936E
:10373000022300983C48CDE9022300220423CDE96E
:103740000444CDE9062301F06BF9384B08A9384849
:10375000D3F8002822F0FF0242F02902C3F8002823
:103760001A6922F0C0021A611A6922F440321A6101
:103770001A6922F490721A611A6922F400721A61AD
:103780001A6942F480621A611A6922F4C0521A61FD
:103790001A6922F4C0421A615A6A22F004025A627B
:1037A000CDE90846CDE90A44CDE90C45CDE90E4402
:1037B00005F0B8F91E4A02F1080353E8003F23F070
:1037C000604302F1080040E800310029F3D1184AB3
:1037D00002F1080353E8003F23F0606302F10800A0
:1037E00040E800310029F3D1136801F1804123F052
:1037F000005301F588311360536823F490435360FC
:10380000936823F02A039360136843F00103136065
:10381000CB699A02FCD5CB695B02F9D510B070BDBB
:1038200000440258004002580004025800000240C0
:103830000010014070B5202290B000214FF4E13615
:103840000DEB02000C250C4607F082FF4F4B02A93E
:103850004F48CDE90244CDE90444CDE90644D3F80C
:10386000E82042F48022C3F8E820D0F8542422F063
:103870000702C0F85424D3F8E82002F48022019211
:10388000019AD3F8E02042F00802C3F8E0204FF498
:103890004072D3F8E03003F008030093022300984D
:1038A0003C48CDE9022300220723CDE90444CDE9B9
:1038B000062301F0B5F8384B08A93848D3F8042896
:1038C00022F0FF0242F02D02C3F804289A6A22F087
:1038D000C0029A629A6A22F440329A629A6A22F488
:1038E00090729A629A6A22F400729A629A6A42F418
:1038F00080629A629A6A22F4C0529A629A6A22F4A8
:10390000C0429A62DA6B22F00402DA63CDE908461B
:10391000CDE90A44CDE90C45CDE90E4405F002F9A4
:103920004FF0402202F6080353E8003F23F06043C3
:1039300002F6080040E800310029F3D14FF04022A0
:1039400002F6080353E8003F23F0606302F6080024
:1039500040E800310029F3D1104B1A6822F00052E0
:103960001A605A6822F490425A609A6822F02A0239
:103970009A601A6842F001021A60DA699102FCD575
:10398000DA695202F9D510B070BD00BF0044025888
:1039900000400258000C025800000240004800405D
:1039A000704700BF3A4B82B03A49D3F8D8203A4822
:1039B00042F00102C3F8D820D3F8D82002F0010267
:1039C0000192019AD3F8D82042F00202C3F8D8201D
:1039D000D3F8D83003F002030093009BCB68C3F305
:1039E0000223C3F107011A1D042928BF0421062A56
:1039F00088BFDA1E4FF0FF3398BF00228B40DB43B5
:103A000003F0050393401B01DBB280F80B334FF446
:103A1000006303601F4B2048DB68C3F30223C3F13C
:103A200007011A1D042928BF0421062A88BFDA1EAF
:103A30004FF0FF3398BF00228B40DB4303F00503B8
:103A400093401B01DBB280F80C334FF480530360CA
:103A5000104B1148DB68C3F30223C3F107011A1DA1
:103A6000042928BF0421062A88BFDA1E4FF0FF333D
:103A700098BF00228B40DB4303F0050393401B01FA
:103A8000DBB280F838334FF08073436002B0704788
:103A90000044025800ED00E000E100E02DE9F04FA5
:103AA000CE4B93B00024CE48DFF84CB301251194DF
:103AB0000CA9089402260E940B94DFF840A3DFF8BB
:103AC0004093C84FDFF83C83CDE90F44CDE909446A
:103AD000D3F8E02042F00202C3F8E020D3F8E0205F
:103AE00002F002020792079AD3F8E02042F0400267
:103AF000C3F8E020D3F8E02002F040020692069AD4
:103B0000D3F8E02042F00802C3F8E020D3F8E02028
:103B100002F008020592059AD3F8E02042F0010273
:103B2000C3F8E020D3F8E02002F001020492049AE6
:103B3000D3F8E02042F01002C3F8E020D3F8E020F0
:103B400002F010020392039AD3F8E02042F004023C
:103B5000C3F8E020D3F8E02002F004020292029AB7
:103B6000D3F8E02042F08002C3F8E020D3F8E02050
:103B700002F080020192019AD3F8E02042F0200284
:103B8000C3F8E020D3F8E03003F020030093009B5B
:103B9000954B83614FF0D163CBF81830934BCAF843
:103BA00018304FF44023C9F818304FF00053BB6170
:103BB0004FF4C003C8F8183040F20243CDE90C3589
:103BC00000F02EFF30220A2358460DEB02010C9222
:103BD000119310940D96CDE90E4400F021FF4FF49F
:103BE000D16258460CA90C924FF4005BCDE90D54FC
:103BF000CDE90F4400F014FF4AF230120CA95046F0
:103C00000C92CDE90D54CDE90F4400F009FF0CA949
:103C100048461094CDE90CB400F002FF0A230CA929
:103C2000734811934FF48063CDE90D640C93CDE993
:103C30000F4400F0F5FE4FF400730CA96C480C9390
:103C40000D94109400F0ECFE4FF482630CA93846FA
:103C50000D960C9303230E930923CDE90F44119382
:103C600000F0DEFE08230CA950460C93CDE90D545C
:103C7000CDE90F4600F0D4FE0C2348460CA94FF0C6
:103C800005090C93CDE90D54CDE90F4400F0C8FEB1
:103C900080230CA940460C93CDF84490CDE90D64E7
:103CA000CDE90F4400F0BCFE4FF400630CA9384688
:103CB0000C930D96CDF844901094CDE90E4400F08D
:103CC000AFFE0CA93846CDF830B0CDE90D54CDE9A2
:103CD0000F4400F0A5FE60230CA940460C930D95FF
:103CE0001094CDE90E4400F09BFE424A4FF47063FD
:103CF000926893FAA3F322F47062002B00F0AB8079
:103D0000B3FA83F3062101FA03F3134339498B60B5
:103D1000F023CA6893FAA3F322F0F002002B00F01C
:103D2000A080B3FA83F3052101FA03F31343314969
:103D3000CB600F230A6993FAA3F322F00F02002B42
:103D400000F08D80B3FA83F3042101FA03F31343E7
:103D500028490B610F234A6993FAA3F322F00F025B
:103D6000002B7AD0B3FA83F3072101FA03F3214938
:103D700013430024042240F2011601254B6108A8D8
:103D80000A94ADF82C608DF82E50CDE9082400F08F
:103D90004DFD2023ADF82C600DEB030008938DF84A
:103DA0002E50CDE9094400F041FD4FF4807308A87E
:103DB000ADF82C6008938DF82E50CDE9094400F041
:103DC00035FD4FF4805308A80A94ADF82C608DF8A7
:103DD0002E50CDE9083400F029FD15E000440258CA
:103DE000000C02580014025800000204000038A120
:103DF0000000025800040058001002580018025831
:103E000000080258001C025817481849C468184A8C
:103E100024F03004174BC460CC6824F44064CC60B8
:103E2000D46824F44034D460DC6824F04074DC604E
:103E3000046824F030040460086820F440600860DE
:103E4000116821F4403111601A6822F040721A6042
:103E500013B0BDE8F08F062357E7072387E7042355
:103E600075E7052362E700BF0018025800140258E6
:103E700000100258001C02580368B3F1804F00D0B4
:103E8000704702F007BA00BFFEE700BFFEE700BFC1
:103E9000FEE700BFFEE700BFFEE700BF704700BFC0
:103EA000704700BF704700BF014803F03FB800BF34
:103EB0004C070024014804F0A5BA00BF140C0024EC
:103EC000704700BF704700BF014804F09BBA00BFB5
:103ED000240B0024014804F095BA00BF700B0024A5
:103EE0000B4B00220F216FF0010010B4D3F8F44007
:103EF00083B044F00204C3F8F440D3F8F43003F084
:103F000002030193019B03B05DF8044B02F034B946
:103F1000004402583C4B026870B59A428CB04FF096
:103F20000004CDE90644CDE908440A9401D00CB060
:103F300070BD364B0B2536480226D3F8D82042F404
:103F40000042C3F8D820D3F8D82002F400420092EF
:103F5000009AD3F8D82042F48032C3F8D820D3F89E
:103F6000D82002F480320192019AD3F8D82042F48A
:103F70000032C3F8D820D3F8D82002F400320292DD
:103F8000029AD3F8E02042F00402C3F8E020D3F80C
:103F9000E02002F004020392039AD3F8E02042F0FA
:103FA0000202C3F8E020D3F8E02002F002020492FB
:103FB000049AD3F8E02042F00102C3F8E020322254
:103FC000D3F8E0300A9503F0010305930223059925
:103FD00006A9CDE9062301F0D7FE4FF4705306A9D8
:103FE0000C48069309940A95CDE9076401F0CCFECC
:103FF000862306A90848079606930A95CDE9084442
:1040000001F0C2FE0CB070BD0080024000440258B6
:104010000008025800040258000002580000000086
:1040200045490023026810B58A428AB0CDE90433BD
:10403000CDE90633089330D0404B9A4201D00AB004
:1040400010BD3F4A3F49136D23F0405313650B6881
:104050000133012B0B6059D0394B092404A93A488C
:10406000D3F8E02042F00202C3F8E020D3F8E030B9
:10407000089403F002039FED2C7B0393039B8DEDCB
:10408000047B01F081FE00220521142002F074F867
:10409000142002F0AFF80AB010BD294A2949136D67
:1040A00023F0405313650B680133012B0B6020D0C4
:1040B000234B092404A92548D3F8E02042F08002CC
:1040C000C3F8E020D3F8E030089403F080039FEDBC
:1040D000187B0193019B8DED047B01F055FE0022BE
:1040E0000521132002F048F8132002F083F80AB0EB
:1040F00010BDD2F8EC3043F48073C2F8EC30D2F843
:10410000EC3003F480730093009BD1E7D2F8EC30DD
:1041100043F48073C2F8EC30D2F8EC3003F48073CF
:104120000293029B98E700BF6000000002000000BD
:10413000006000000200000000A0004000A4004059
:1041400000440258080C002400040258001C0258C5
:10415000194A08B50368934218D0184A934200D010
:1041600008BD174A1368013B136033B9154AD2F8EA
:10417000EC3023F48073C2F8EC301348602101F076
:104180002BFF1420BDE8084002F042B80C4A136827
:10419000013B136033B90B4AD2F8EC3023F480733F
:1041A000C2F8EC3009484FF4C04101F015FF13206C
:1041B000BDE8084002F02CB800A0004000A4004078
:1041C000080C00240044025800040258001C025845
:1041D000694B026870B59A428EB04FF00004CDE989
:1041E0000844CDE90A440C9401D00EB070BD634B75
:1041F0000E2663480225D3F8E42042F00802C3F8F3
:10420000E420D3F8E42002F008020092009AD3F8E8
:10421000E02042F00202C3F8E020D3F8E02002F0F0
:1042200002020192019AD3F8E02042F00802C3F89A
:10423000E020D3F8E02002F008020292029AD3F8BC
:10424000E02042F01002C3F8E020D3F8E02002F0B2
:1042500010020392039AD3F8E02042F00102C3F85F
:10426000E020D3F8E02002F001020492049AD3F88F
:10427000E02042F04002C3F8E020D3F8E02002F052
:1042800040020592059AD3F8E02042F08002C3F87C
:10429000E020D3F8E02002F080020692069AD3F8DC
:1042A000E02042F00402C3F8E02040F20332D3F8E9
:1042B000E0300C9603F0040307930223079908A942
:1042C000CDE9082301F060FD492308A92D48089392
:1042D0000B940C96CDE9095401F056FD4BF60303FF
:1042E00008A929480893CDE90954CDE90B4601F006
:1042F0004BFD4FF4807308A9244808930D23CDE9A2
:104300000954CDE90B4301F03FFD4FF4814308A967
:104310001F480893CDE90954CDE90B4601F034FD5F
:1043200048F6087308A91B480893CDE90954CDE95C
:104330000B4601F029FDC02308A917480893CDE9D1
:104340000954CDE90B4601F01FFD582308A90F4879
:104350000893CDE90954CDE90B4601F015FD102273
:10436000092308A90B480C93CDE90825CDE90A4497
:1043700001F00AFD0EB070BD00100050004402585C
:1043800000040258000C02580010025800000258A5
:1043900000180258001C0258000802588C490023DB
:1043A00002682DE9F0438A4291B0CDE90A33CDE9A4
:1043B0000C330E935ED0874B9A4202D011B0BDE809
:1043C000F083854A8549D36C23F03003D3640B68AE
:1043D0000133012B0B6000F0EE807F4B40F60300B1
:1043E00002210324D3F8D42009250227002642F411
:1043F0000022C3F8D420D3F8D42002F4002207927C
:10440000079AD3F8E02042F04002C3F8E020D3F846
:10441000E02002F040020892089AD3F8E02042F02F
:104420002002C3F8E020D3F8E0300D9403F020031D
:104430000E95CDE90A0109930AA96948099B01F083
:10444000A3FC4FF4A0530AA965480E94CDE90A379E
:10445000CDE90C6401F098FC41F20F030AA9614810
:104460000B970E950A93CDE90C6401F08DFC11B009
:10447000BDE8F083584A5949D36C23F03003D36424
:104480000B680133012B0B6000F08880524B4FF416
:10449000007002210324D3F8D4204FF0090802262B
:1044A000002542F480420A274FF00409C3F8D420C3
:1044B000D3F8D42002F480420192019AD3F8E0208C
:1044C00042F04002C3F8E020D3F8E02002F04002BE
:1044D0000292029AD3F8E02042F00802C3F8E020EA
:1044E000D3F8E02002F008020392039AD3F8E02008
:1044F00042F01002C3F8E020D3F8E02002F01002EE
:104500000492049AD3F8E02042F00202C3F8E020BB
:10451000D3F8E0300D9403F00203CDF83880CDE9F4
:104520000A0105930AA92E48059B01F02DFCB02332
:104530000AA92D480E97CDE90A36CDE90C5401F0B1
:1045400023FC0AA92948CDF83880CDE90A96CDE99F
:104550000C5401F019FC40230AA921480A93CDE923
:104560000B65CDE90D4701F00FFC4FF460530AA92C
:104570001D480A93CDF838800D94CDE90B6501F004
:1045800003FC0AA91A48CDF828900B960E97CDE99E
:104590000C5401F0F9FB11B0BDE8F083D2F8D4302F
:1045A00043F40013C2F8D430D2F8D43003F400132B
:1045B0000093009B6AE7D2F8D43043F40013C2F8AA
:1045C000D430D2F8D43003F400130693069B04E7EA
:1045D0000050005200A00052004402580C0C00246D
:1045E0000018025800140258000C0258001002581B
:1045F00000040258264A0368934210B584B007D0DD
:10460000244A93422BD0244A934210D004B010BDC8
:10461000224BD3F8E82042F01002C3F8E820D3F888
:10462000E83003F010030193019B04B010BD1B4B55
:10463000A22000220521D3F8EC4044F00074C3F816
:10464000EC40D3F8EC3003F000730393039B01F0CC
:1046500093FDA22004B0BDE8104001F0CBBD0F4B8C
:10466000A12000220521D3F8EC4044F08074C3F867
:10467000EC40D3F8EC3003F080730293029B01F01E
:104680007BFDA12004B0BDE8104001F0B3BD00BF28
:104690000010004000E0004000E4004000440258E8
:1046A000354A0368934210B588B004D0334A934228
:1046B0002ED008B010BD32490446324BD1F85024F8
:1046C00022F00702C1F850241A686AB9D1F8F00440
:1046D00001F5806140F48000C1F8F000D1F8F010DD
:1046E00001F48001009100990132402002211A60FA
:1046F00006239FED1D7BCDE9020102A92248069306
:104700008DED047B01F040FB23681C4A9342D0D11D
:104710001B491C4BD1F8502422F00702C1F8502449
:104720001A686AB9D1F8F00401F5806140F480009C
:10473000C1F8F000D1F8F01001F480010191019965
:104740000132062111481A6000220023069102A9B5
:104750009FED077BCDE904238DED027B01F014FB77
:1047600008B010BDAFF300800000000000000000A2
:10477000C00300000200000004580140245801401A
:1047800000400258100C0024001002580014025877
:104790000F2801D90120704730B501468BB00022A7
:1047A00004461C2001F0E8FC1C2001F023FD1B4BFB
:1047B0001B4A694602A81460D3F8E82042F00102BF
:1047C000C3F8E820D3F8E83003F001030193019B1C
:1047D00000F03CFF079BC3B900F0F0FE114B002234
:1047E000114C4FF08045A3FB001340F2E731204607
:1047F00025609B0CA260013BC4E90312636003F0D7
:1048000015FC30B101200BB030BD00F0D7FE4000E8
:10481000E4E7204603F0CCFCF5E700BF0044025873
:104820001C00002483DE1B43140C0024034630B418
:10483000007B00284DD01A68002A75D100205A68E4
:104840000AB3597B4FF0B04511F0010FD5F89040F5
:1048500014BF1443944311F0020FC5F890404FF079
:10486000B044D4F8941014BF11439143C4F8941089
:10487000997B41B1022900F09680032900F08A80DB
:1048800001297DD001209A68002A4BD0597B4FF036
:10489000B04511F0010FD5F8A04014BF1443944364
:1048A00011F0020FC5F8A0404FF0B044D4F8A410A6
:1048B00014BF11439143C4F8A4109B7B93B3022B04
:1048C00054D0032B00F0A380012B00F09680012030
:1048D00028E04FF0B0421D68D2F8801021EA0501AF
:1048E000C2F88010D2F890105C6821EA0401C2F886
:1048F00090109968D2F8A03023EA0103C2F8A030E2
:10490000D2F8843023EA0503C2F88430D2F8943018
:1049100023EA0403C2F89430D2F8A43023EA010356
:10492000C2F8A43030BC7047597B4FF0B044CD077B
:10493000D4F880004CBF1043904311F0020FC4F82C
:1049400080004FF0B040D0F8841014BF1143914361
:10495000C0F88410997B00293FF470AF022941D040
:10496000032935D0012928D0012068E74FF0B04352
:10497000196C21EA02011964596C0A435A64D1E79F
:104980004FF0B0414C6A24EA02044C620C6A2243A4
:104990000A6278E74FF0B0410C6A14430C624C6A2B
:1049A00022434A626FE74FF0B0410C6A24EA0204E6
:1049B0000C624C6A22434A6265E74FF0B041002026
:1049C0004C6824EA02044C600C6822430A6036E713
:1049D0004FF0B04100200C6814430C604C68224337
:1049E0004A602CE74FF0B04100200C6824EA020432
:1049F0000C604C6822434A6021E74FF0B043596C89
:104A000021EA02015964196C0A431A648AE74FF0DB
:104A1000B043196C11431964596C0A435A6481E715
:104A20002DE9F04F0C6894FAA4F2B2FA82F234FA4B
:104A300002F367D04FF0010C6FEA040E19E007FB98
:104A400007F3C6680F6903EB430903FB07F726EA80
:104A500009086FEA090B47EA0807C760076803FB04
:104A600005F507EA0B032B430360013234FA02F326
:104A700048D00CFA02F313EA0407F6D04D6807FB9E
:104A800007F36E1E03EB4309012E6FEA090BD6D81C
:104A9000D0F808A0022D8E682AEA090A06FB03F85E
:104AA000CE6848EA0A0806FB04FA0E69C0F80880D6
:104AB000D0F804800EEA080848EA0A08C0F8048022
:104AC0004FEA1728D0F80CA008FB08F82AEA090AD0
:104AD00006FB03F908FB08F849EA0A09C0F80C903C
:104AE000BCD1FF2F11D803FB03F74E69D0F820800B
:104AF00006FB07F9C7EB071728EA070747EA090784
:104B00000762ABE70020BDE8F08F4E69476A06FBFD
:104B100008F9C8EB081827EA080747EA09074762B7
:104B20009CE700BF174B0246984220D0164B9B686B
:104B3000DB4303F001035BB14868144B10B4946885
:104B400040B9096823405DF8044B0B4393607047FC
:104B50000120704723400C68034300202343D1E920
:104B6000024123435DF8044B0B43936070470848B0
:104B7000A3F5007380689B680343DB4303F00103E4
:104B8000D9E700BF0023024000600258E030C0FFB8
:104B900000200240826812F0010216D10346154837
:104BA000834210B4DC6812D088680A680243124855
:104BB00020400243DA601A690020496822F07042FE
:104BC0005DF8044B0A431A617047012070470B4897
:104BD00020400C68082C02D00C3C102C05D98C68A5
:104BE0002043044C1043E060E5E7054A52F82420D6
:104BF000F5E700BF00600258E3BFFFFFE7BFFFFF1C
:104C00009CBA00088268D3071AD403460D4AC068CC
:104C100010B402404C68086802430CB18868024333
:104C2000C8680243D1E90401024300200A43DA6064
:104C30001A6B22F00F0222435DF8044B1A6370478F
:104C4000012070471CC0F0FF5C498B6A03F003032E
:104C5000012B30B400F0AA80022B00F0A080002BC2
:104C600000F0928000220023544DC0E9003383609D
:104C7000A96A2C6BEB6AC1F3051113F0010302D092
:104C80006B6BC3F3CC0300297CD0C4F3080401345C
:104C900007EE104A494CE56AED0323D507EE903A3A
:104CA000F8EEC76A246BF8EEE74A07EE902A9FED0C
:104CB000445AC4F34624F8EEE75A07EE901AE4EE9D
:104CC000856A0134F8EEE77A85EEA76A07EE904A26
:104CD000F8EEE77A26EE266AC6EE276AFCEEE66A6A
:104CE000C0ED006A354CE56AAD0323D507EE903A76
:104CF000F8EEC76A246BF8EEE74A07EE902A9FEDBC
:104D0000305AC4F30644F8EEE75A07EE901AE4EE80
:104D1000856A0134F8EEE77A85EEA76A07EE904AD5
:104D2000F8EEE77A26EE266AC6EE276AFCEEE66A19
:104D3000C0ED016A214CE56A6D0323D507EE902A88
:104D4000B8EEC77A9FED1E5AF8EEE76A07EE901AA2
:104D5000B8EEE76A07EE903A236BF8EEE77AC6EE14
:104D6000865AC3F306630133A7EE857A07EE903ABD
:104D7000F8EEE77A65EE876A86EEA77ABCEEC77A28
:104D800080ED027A30BC70470A6812F004023FF4EA
:104D90006AAF0B680B4AC3F3C103DA4063E70A68E2
:104DA00012F400323FF45FAF074A5CE70A68074B32
:104DB00012F4807218BF1A4655E700BF004402582B
:104DC000000000390090D00340787D0100093D00CB
:104DD0005C498B6A03F00303012B30B400F0AA8016
:104DE000022B00F0A080002B00F092800022002314
:104DF000544DC0E900338360A96AAC6BEB6AC1F320
:104E0000053113F0100302D0EB6BC3F3CC03002980
:104E10007CD0C4F30804013407EE104A494CE56A1B
:104E20002D0323D507EE903AF8EEC76AA46BF8EE8F
:104E3000E74A07EE902A9FED445AC4F34624F8EE61
:104E4000E75A07EE901AE4EE856A0134F8EEE77A45
:104E500085EEA76A07EE904AF8EEE77A26EE266A14
:104E6000C6EE276AFCEEE66AC0ED006A354CE56ADC
:104E7000ED0223D507EE903AF8EEC76AA46BF8EE80
:104E8000E74A07EE902A9FED305AC4F30644F8EE45
:104E9000E75A07EE901AE4EE856A0134F8EEE77AF5
:104EA00085EEA76A07EE904AF8EEE77A26EE266AC4
:104EB000C6EE276AFCEEE66AC0ED016A214CE56A9F
:104EC000AD0223D507EE902AB8EEC77A9FED1E5AA1
:104ED000F8EEE76A07EE901AB8EEE76A07EE903A46
:104EE000A36BF8EEE77AC6EE865AC3F30663013386
:104EF000A7EE857A07EE903AF8EEE77A65EE876AD4
:104F000086EEA77ABCEEC77A80ED027A30BC704795
:104F10000A6812F004023FF46AAF0B680B4AC3F34D
:104F2000C103DA4063E70A6812F400323FF45FAF6E
:104F3000074A5CE70A68074B12F4807218BF1A46EA
:104F400055E700BF00440258000000390090D0032C
:104F500040787D0100093D00624A936A03F0030333
:104F6000012B10B400F0A580022B00F09B80002BD9
:104F700000F08C805B4C0023C0E900338360A26AA0
:104F8000216CE46AC2F30552E4057CD506EE903A42
:104F9000544C646CC4F3CC0407EE104A002A72D05F
:104FA000002B70D04F4BC1F30801DC6A013107EED2
:104FB000901A61021FD506EE102AF8EEE64AF8EEC6
:104FC000C73A1B6CB8EEC66A9FED474AF8EEE75A3F
:104FD000C3F3462384EE865A013306EE103AE3EE1D
:104FE000845AB8EEC66A25EE255AC5EE065AFCEE7E
:104FF000E55AC0ED005A3B4BD96A0C021FD506EEAC
:10500000102AF8EEE64AF8EEC73A1B6CB8EEC66A0C
:105010009FED354AF8EEE75AC3F3064384EE865A0D
:10502000013306EE103AE3EE845AB8EEC66A25EE76
:10503000255AC5EE065AFCEEE55AC0ED015A294B39
:10504000D96AC9011FD506EE102AF8EEE66AB8EE55
:10505000C77A1B6CB8EEC65ADFED235AF8EEE77A32
:10506000C3F3066386EE856A0133E7EE257A07EE21
:10507000103AB8EEC77A66EE276AC6EE877AFCEE7B
:10508000E77AC0ED027A5DF8044B70471368590760
:105090007FF570AF1268154BC2F3C102D34006EE24
:1050A000903A0CE013689C037FF564AFDFED106A63
:1050B00005E01368DB057FF55DAFDFED0E6A0022CA
:1050C000084BC0E9002282609A6A196CDB6AC2F35D
:1050D000055213F4807307EE103A4FF001033FF4CA
:1050E0005DAF55E700440258000000390090D0033E
:1050F00040787D0100093D00704AC0F30421030E91
:1051000052FA80F28B40D2F84C241340CB4010B5B9
:1051100040EA03406A4C84B0A0420CD03DD8694BB1
:10512000984200F089801FD9674B984212D003F54E
:105130007D4398420AD1654B186810F0005003D0A7
:1051400001A8FFF709FF029804B010BDA3F5803352
:10515000984254D15D4B186810F00060F4D001A85B
:10516000FFF736FE0298EFE7A3F54073984246D169
:10517000564B1B6903F03803182B43D8DFE803F0C4
:105180008B424242424242429B424242424242425D
:10519000924242424242424294004D4B984216D0C3
:1051A0000DD94C4B984203D003F54073984226D159
:1051B000464B186FC0F34000C00304B010BDA3F508
:1051C0008033984210D003F57D43984208D13F4A7E
:1051D000414B106810F4807018BF184604B010BD21
:1051E000A3F5803398420AD1384B186810F00400B8
:1051F000AAD01B683948C3F3C103D840A4E70020F4
:1052000004B010BD0020314B99699A69DB69C1F384
:10521000032102F00F02C3F30213314C615CA25C64
:1052200001F01F01E35C02F01F02C84003F01F03FE
:10523000D040D84004B010BD244B1B6903F03803A4
:10524000182B0ED8DFE803F0200D0D0D0D0D0D0D00
:10525000350D0D0D0D0D0D0D1E0D0D0D0D0D0D0D45
:1052600019000020194B99699A69DB69C1F3032180
:1052700002F00F02C3F30223CFE701A8FFF7E4FC1B
:105280000198EFE71748EDE7104B14481B68C3F38C
:10529000C103D840E6E70D4B10481B68C3F3C103B8
:1052A000D840B0E70F48AEE701A8FFF7CDFC019862
:1052B000A9E70948D6E70848A5E700BF004002581B
:1052C0000803020708030007080301070044025807
:1052D000080304070800050700093D000090D003FB
:1052E000E0BA000840787D01014B1860704700BFAC
:1052F000240000243B4B30B49A6A9C6ADD6A14F4A3
:105300007C7F596BC4F3051038D0C1F3CC0105F094
:10531000010502F0030205FB01F1012A07EE901AD4
:10532000B8EEE77A02D0022A4ED04AB307EE900ACE
:105330009FED2D5AF8EEE77A1B6BC5EE276ADFED7D
:105340002B5AC3F3080307EE903AB7EE006AF8EE63
:10535000E77AE7EE257A77EE867A66EEA76A214B42
:105360001B6BC3F34623013307EE903AB8EEE77A9E
:10537000C6EE877AFCEEE77A17EE900A30BC7047EB
:105380001A68920627D5196807EE900A184AF7EEB0
:10539000005A1B6BC1F3C101F8EEE77A9FED135A77
:1053A000C3F30803CA4006EE903A06EE102AF8EE60
:1053B000E66AB8EEC66AE7EE056A86EE277A76EE0A
:1053C000A56A66EE876ACAE707EE900A9FED095A5A
:1053D000F8EEE77AB0E707EE900A9FED075AF8EE8D
:1053E000E77AA9E7004402580024744A0000003913
:1053F0000090D00320BCBE4B0024744C474A136974
:1054000003F03803102B04D0182B0DD01BB14448E7
:10541000704744487047136899064AD51368424854
:10542000C3F3C103D8407047936A30B4946AD56A15
:1054300014F47C7F516BC4F3051038D0C1F3CC0158
:1054400005F0010503F0030305FB01F1012B07EE55
:10545000901AB8EEE77A02D0022B2CD093B307EE65
:10546000900A9FED325AF8EEE77A136BC5EE276A81
:10547000DFED2F5AC3F3080307EE903AB7EE006A48
:10548000F8EEE77AE7EE257A77EE867A66EEA76A97
:10549000224B1B6BC3F34623013307EE903AB8EE61
:1054A000E77AC6EE877AFCEEE77A17EE900A30BC10
:1054B00070471D48704707EE900A9FED1E5AF8EEA0
:1054C000E77AD2E713689B0620D5146807EE900AA6
:1054D0001549F7EE005A136BC4F3C104F8EEE77AEE
:1054E0009FED135AC3F30803E14006EE903A06EE2F
:1054F000101AF8EEE66AB8EEC66AE7EE056A86EEBE
:10550000277A76EEA56A66EE876AC1E707EE900A0B
:105510009FED095AF8EEE77AA7E700BF004402586A
:1055200000093D0040787D010090D0030024744ABA
:105530000000003920BCBE4B0024744C184A38B51A
:10554000136903F03803102B1AD0182B23D0CBB1DA
:105550001448134B14499A699B69C2F30322134CF4
:1055600003F00F03124D8A5CCB5C02F01F0220FA9D
:1055700002F203F01F0022FA00F02A60206038BD1A
:105580000C48E6E713689B0608D513680A48C3F37E
:10559000C103D840DDE7FFF7ADFEDAE70648D8E7FC
:1055A0000044025800093D0064BB000828000024A4
:1055B0002400002440787D010090D0031C4A38B5B7
:1055C000136903F03803102B21D0182B2AD003B312
:1055D0001848174A18499369184CC3F30323184D08
:1055E000CB5C03F01F03D840936903F00F032860DE
:1055F000CB5C03F01F0320FA03F32360D269C2F3EC
:105600000212885C00F01F0023FA00F038BD0D483C
:10561000DFE713689B0608D513680B48C3F3C10383
:10562000D840D6E7FFF766FED3E70748D1E700BFCB
:105630000044025800093D0064BB00082800002413
:105640002400002440787D010090D003134B3F22BA
:1056500002601A6902F0070242609A6902F47062FD
:1056600082609A6902F00F02C2609A6902F07002C9
:105670000261DA6902F070024261DA6902F4E06202
:1056800082611B6A10B403F07003054CC361236888
:105690005DF8044B03F00F030B60704700440258A1
:1056A000002000524F4A70B4916A956AD66A15F488
:1056B0007C3FC5F30533D46B5DD0C4F3CC04C6F393
:1056C000001601F0030106FB04F4012907EE904ADD
:1056D000B8EEE77A03D0022976D0002950D007EE41
:1056E000903A9FED415AF8EEE77A936BC5EE276A40
:1056F000DFED3E5AC3F3080307EE903AB7EE006AB7
:10570000F8EEE77AE7EE257A77EE867A66EEA76A14
:10571000344AB7EE006A936BC3F3462307EE903A20
:10572000F8EEE77A70BC77EE867A86EEA77ABCEE62
:10573000C77A80ED007A936BC3F3064307EE903A85
:10574000F8EEE77A77EE867A86EEA77ABCEEC77A2D
:1057500080ED017A936BC3F3066307EE103AB8EE5F
:10576000C77A37EE067AC6EE877AFCEEE77A17EE4E
:10577000903A8360704770BCC0E900338360704723
:105780001168890627D5146807EE903A1849F7EE94
:10579000005A936BC4F3C102F8EEE77A9FED135AF7
:1057A000C3F30803D14006EE903A06EE101AF8EE65
:1057B000E66AB8EEC66AE7EE056A86EE277A76EE06
:1057C000A56A66EE876AA3E707EE903A9FED095A4D
:1057D000F8EEE77A89E707EE903A9FED075AF8EE80
:1057E000E77A82E7004402580024744A0000003936
:1057F0000090D00320BCBE4B0024744C4F4A70B4C0
:10580000916A956AD66A15F07C7FC5F30553546C8E
:105810005DD0C4F3CC04C6F3002601F0030106FBFF
:1058200004F4012907EE904AB8EEE77A03D0022982
:1058300076D0002950D007EE903A9FED415AF8EE0D
:10584000E77A136CC5EE276ADFED3E5AC3F308030F
:1058500007EE903AB7EE006AF8EEE77AE7EE257ABF
:1058600077EE867A66EEA76A344AB7EE006A136C62
:10587000C3F3462307EE903AF8EEE77A70BC77EE72
:10588000867A86EEA77ABCEEC77A80ED007A136C32
:10589000C3F3064307EE903AF8EEE77A77EE867A9E
:1058A00086EEA77ABCEEC77A80ED017A136CC3F35B
:1058B000066307EE103AB8EEC77A37EE067AC6EE00
:1058C000877AFCEEE77A17EE903A8360704770BCF7
:1058D000C0E90033836070471168890627D51468D2
:1058E00007EE903A1849F7EE005A136CC4F3C10260
:1058F000F8EEE77A9FED135AC3F30803D14006EEA2
:10590000903A06EE101AF8EEE66AB8EEC66AE7EECE
:10591000056A86EE277A76EEA56A66EE876AA3E7C1
:1059200007EE903A9FED095AF8EEE77A89E707EE1D
:10593000903A9FED075AF8EEE77A82E70044025862
:105940000024744A000000390090D00320BCBE4BF4
:105950000024744C4F4A70B4916A956AD66A15F463
:105960007C7FC5F30513546B5DD0C4F3CC0406F003
:10597000010601F0030106FB04F4012907EE904A39
:10598000B8EEE77A7FD0022976D0002950D007EE12
:10599000903A9FED415AF8EEE77A136BC5EE276A0D
:1059A000DFED3E5AC3F3080307EE903AB7EE006A04
:1059B000F8EEE77AE7EE257A77EE867A66EEA76A62
:1059C000344AB7EE006A136BC3F3462307EE903AEE
:1059D000F8EEE77A70BC77EE867A86EEA77ABCEEB0
:1059E000C77A80ED007A136BC3F3064307EE903A53
:1059F000F8EEE77A77EE867A86EEA77ABCEEC77A7B
:105A000080ED017A136BC3F3066307EE103AB8EE2C
:105A1000C77A37EE067AC6EE877AFCEEE77A17EE9B
:105A2000903A8360704770BCC0E900338360704770
:105A300011688906ABD5146807EE903A1849F7EE5D
:105A4000005A136BC4F3C102F8EEE77A9FED135AC4
:105A5000C3F30803D14006EE903A06EE101AF8EEB2
:105A6000E66AB8EEC66AE7EE056A86EE277A76EE53
:105A7000A56A66EE876AA3E707EE903A9FED095A9A
:105A8000F8EEE77A89E707EE903A9FED075AF8EECD
:105A9000E77A82E7004402580024744C0000003981
:105AA0000090D00320BCBE4B0024744AB0F5807F28
:105AB00000B585B057D0B0F5806F1AD0B0F5006F43
:105AC00000F0AD80B0F5805F60D0B0F5002F00F041
:105AD000BC80B0F5803F00F0E580B0F5804F00F06D
