:020000040800F2
:100000000000052461AA0008F9360008FD36000842
:100010000137000805370008093700080000000014
:10002000000000000000000000000000D1A6000851
:100030000D3700080000000061A7000881A3000838
:10004000B1AA0008B1AA0008B1AA0008B1AA000824
:10005000B1AA0008B1AA0008B1AA0008B1AA000814
:10006000B1AA0008B1AA0008B1AA00081137000817
:1000700015370008B1AA0008B1AA0008B1AA000803
:10008000B1AA0008B1AA0008B50300081937000892
:1000900025370008B1AA0008B1AA0008B1AA0008D3
:1000A000B1AA0008B1AA0008B1AA0008B1AA0008C4
:1000B00031370008B1AA0008B1AA0008B1AA0008A7
:1000C000B1AA0008B1AA0008B1AA0008B1AA0008A4
:1000D000B1AA0008B1AA0008B1AA0008B1AA000894
:1000E000B1AA0008B1AA000800000000B1AA0008E7
:1000F000B1AA0008B1AA0008B1AA0008B1AA000874
:10010000B1AA0008B1AA0008B1AA0008B1AA000863
:10011000B1AA0008B1AA0008B1AA0008B1AA000853
:100120003D370008B1AA0008B1AA0008B1AA00082A
:10013000B1AA0008B1AA0008B1AA0008B1AA000833
:1001400000000000000000000000000000000000AF
:10015000B1AA0008B1AA0008B1AA0008B1AA000813
:10016000B1AA0008B1AA0008B1AA0008B1AA000803
:10017000B1AA0008B1AA0008B1AA0008B1AA0008F3
:10018000B1AA0008B1AA0008B1AA0008B1AA0008E3
:10019000B1AA0008B1AA0008B1AA0008B1AA0008D3
:1001A000B1AA0008B1AA0008B1AA00080000000026
:1001B000B1AA0008B1AA0008B1AA0008B1AA0008B3
:1001C000B1AA0008B1AA0008000000000000000069
:1001D0000000000000000000B1AA000800000000BC
:1001E000000000000000000000000000000000000F
:1001F0000000000000000000B1AA0008B1AA000839
:10020000B1AA0008B1AA000800000000B1AA0008C5
:10021000B1AA00084137000845370008B1AA000814
:10022000B1AA000800000000B1AA00080000000008
:10023000B1AA0008B1AA000800000000B1AA000895
:10024000B1AA0008B1AA0008B1AA0008B1AA000822
:10025000B1AA0008B1AA0008B1AA0008B1AA000812
:10026000B1AA0008B1AA0008B1AA0008B1AA000802
:10027000B1AA0008B1AA0008B1AA00080000000055
:10028000B1AA0008B1AA0008B1AA0008B1AA0008E2
:1002900000000000B1AA0008B1AA0008B1AA000835
:1002A000B1AA0008B1AA0008B1AA0008B1AA0008C2
:1002B000B1AA0008B1AA0008B1AA0008B1AA0008B2
:0C02C000B1AA00084937000855370008B3
:1002D0000348044B834202D0034B03B118477047D5
:1002E0007C0000247C000024000000000548064B30
:1002F0001B1AD90F01EBA301491002D0034B03B124
:10030000184770477C0000247C0000240000000097
:1003100010B5064C237843B9FFF7DAFF044B13B14D
:100320000448AFF300800123237010BD4001002476
:100330000000000080AF000808B5054B1BB105495F
:100340000548AFF30080BDE80840FFF7CFBF00BF0E
:10035000000000004401002480AF00080369DA684F
:1003600012F4406F22D1427A022A08D0427A042A3B
:1003700005D0427A082A02D01A68110716D51A68E1
:10038000D20602D510221A604272427A102A0DD08B
:10039000427A082A0CBF012220224272002099686A
:1003A000034A0A4042F004029A60704701207047F5
:1003B000C0FFFF7F704700BF70B4002900F0BE800F
:1003C000954C036BA04200F0E9804FF0010CC3F3A1
:1003D0008413C4690CFA03F3614543EA0403C3615F
:1003E00000F0A880036B0229C469C3F304330CFA3C
:1003F00003F343EA0403C36100F09C80036B032909
:10040000C469C3F384430CFA03F343EA0403C361EE
:1004100000F09080036B0429C469C3F304630CFAF1
:1004200003F343EA0403C36100F08480436B0529AE
:10043000C56900F1300403F01F030CFA03F343EA2B
:100440000503C36176D0436B0629C569C3F38413E2
:100450000CFA03F343EA0503C3616BD0436B07292E
:10046000C569C3F304330CFA03F343EA0503C3611C
:1004700060D0436B0829C569C3F384430CFA03F3C6
:1004800043EA0503C36155D0436B0125C6690929B9
:10049000C3F3046305FA03F343EA0603C36149D0D7
:1004A000A3680A29C66903F01F0305FA03F343EAA8
:1004B0000603C3613ED0A3680B29C669C3F3841346
:1004C00005FA03F343EA0603C36133D0A3680C299A
:1004D000C669C3F3043305FA03F343EA0603C361B1
:1004E00028D0A3680D29C669C3F3844305FA03F332
:1004F00043EA0603C3611DD0A3680E29C669C3F38E
:10050000046305FA03F343EA0603C36112D0E36808
:100510001029C66903F01F0305FA03F343EA060333
:10052000C36107D1E368C169C3F3841305FA03F318
:100530000B43C36182B3C36C5B0A05E062B3364907
:10054000C36C88425CD05B0A012103F01F03C469BD
:1005500001FA03F38A4243EA0403C3611CD0C36C6B
:10056000022AC469C3F3C43301FA03F343EA040360
:10057000C36111D0C36C032AC469C3F3445301FAA5
:1005800003F343EA0403C36106D0C36CC269DB0E04
:1005900001FA03F31343C36170BC704701292BD0E8
:1005A0000229036B28D00329036B25D00429036B90
:1005B00022D00529436B1FD00629436B1CD0072985
:1005C000436B19D00829436B16D0134B0929586B7C
:1005D00012D00A29986B0FD00B29986B0CD00C29DC
:1005E000986B09D00D29986B06D00E29986B03D013
:1005F0001029D86B00D1DB6B002ACDD0064BDB6C09
:10060000012AC9D0044B022AD96CC5D0032AD96C5F
:10061000C2D0DB6CC0E700BF00600258012903694B
:100620000BD0DA6C12F4C07F00D170479968084A89
:100630000A4042F008029A607047DA6812F4406F8C
:10064000F3D09968024A0A4042F004029A60704767
:10065000C0FFFF7F30B4254C0569A5422ED1244C44
:100660004FF0000C012B256184F807C023D042B362
:10067000637A082B1FD0C3680129029AE3600368DC
:100680002360436963618379A371037923712B6BC1
:1006900023F00F0343EA02032B6307D0042920D081
:1006A000022903D16B6843F008036B6008231048EC
:1006B000637230BC7047204630BC7047002030BCAD
:1006C0007047A37A082BF6D043790229637103D0CF
:1006D00008230748A372EFE76B6843F040036B60A1
:1006E000F6E7EB6843F00303EB60DFE7002002402E
:1006F0005C01002403699A68D20705D49968034A0B
:100700000A4042F001029A60704700BFC0FFFF7FBD
:1007100010B4046934B1012943D00429034605D03B
:1007200002291FD001205DF8044B7047E1680120C9
:1007300011F4406FF7D158721E49A068014041F092
:100740000401A16021680907FCD593F804C06FF08B
:100750004041206C614442F82100082200202260C0
:100760005A72E0E7417A202902D0216808071CD597
:10077000082121602168C90602D510212160597223
:10078000587A082193F804C05972A0F110006FF054
:100790004043216CB0FA80F06344400942F82310D2
:1007A000C1E75DF8044BFFF7D9BD597A1029B9D1DB
:1007B000DEE700BFC0FFFF7F036930B49C68E40739
:1007C00005D59D68174C2C4044F002049C605C6881
:1007D000250603D55C6824F080045C605C68E40650
:1007E00003D55C6824F010045C606AB1022914D05F
:1007F000002282710271196BC26021F00F01026048
:100800004261196330BC704702294271FAD15A68BB
:1008100022F0400230BC5A6070475A6822F0080249
:100820005A60E5E7C0FFFF7F03699868C00710B40E
:1008300083B005D59C682048204040F002009860B5
:100840009868C2B91D4A01F4803102400A4342F05F
:1008500000429A609A68002AFCDB04230193019B02
:100860002BB1019B013B0193019B002BF9D103B0FC
:100870005DF8044B7047012A104A01F4803102EA06
:10088000000242EA010210D042F000429A609A68E7
:10089000002AFCDB9868094A02400A4342F04042C1
:1008A0009A609A68002AD8DAFBE742F040429A60E0
:1008B0009A68002AD1DAFBE7C0FFFF7FC0FFFE3F46
:1008C000012821D1F8B5114D2E790EB10F48F8BD90
:1008D0000F4B04460F4FDB680F4B2F6083F81463F8
:1008E0004FF480121A6002460146384605F0C6FDF4
:1008F00032462146384605F0D9FD2B79002BE5D14B
:100900002846AC80AB71F8BD002070477801002408
:1009100000ED00E01006002400E100E02DE9F041C8
:100920008AB00D469DF840C0129E9DF84C109DF86F
:10093000507010B10479012C04D0002420460AB074
:10094000BDE8F081003BD0F80080019218BF012380
:10095000BCF1000C4FEA837318BF4FF0010C003F4D
:1009600002934FEA4C7318BF01270039039318BF55
:100970000121119B3F054905082B0697079128D8AF
:100980001B0404934FF4000308934FF000430593B6
:1009900005F0CCF8074603E001F078F8B04207D83C
:1009A000D8F8003001213846D3F8C4309B02F3D484
:1009B0002A4601A9404605F023FD0346404603B9F7
:1009C0001C4605F055FD159B186020460AB0BDE891
:1009D000F0810C3B342B1CD8DFE803F0361B1B1BCB
:1009E000321B1B1B2E1B1B1B2A1B1B1B1B1B1B1B1E
:1009F000261B1B1B1B1B1B1B1B1B1B1B1B1B1B1B3C
:100A0000221B1B1B1B1B1B1B1B1B1B1B1B1B1B1B2F
:100A10001E00119B0493B5E74FF470230493B1E7D4
:100A20004FF460230493ADE74FF450230493A9E7F8
:100A30004FF440230493A5E74FF430230493A1E738
:100A40004FF4202304939DE74FF41023049399E778
:100A500010B10379012B00D07047006805F060BC2D
:100A6000F8B50D4D03682A7882B10C4C5E1C0C4F12
:100A700004EB830403E000F013FE2B7833B120462F
:100A800001F06EF93B683046002BF4D0002001F0F5
:100A90001FF90020F8BD00BF00000024E801002479
:100AA000F80100242C4B01222C4830B585B01A6087
:100AB00001F064F900283CD1284801F06FF90028C2
:100AC00040D1274801F05AF998BB254801F066F952
:100AD000002837D1234C244D04F11003039593E8EB
:100AE00007008DE8070094E80F0001F0F5F8B8B9A9
:100AF00004F12C0303951C3493E807008DE80700EC
:100B000094E80F0001F0E8F8044648B9174B187054
:100B100000F0D0FE164801F031F9204605B030BD96
:100B20004FF0500383F31188BFF36F8FBFF34F8FE4
:100B3000FEE74FF0500383F31188BFF36F8FBFF3CD
:100B40004F8FFEE74FF0500383F31188BFF36F8F91
:100B5000BFF34F8FFEE700BFF8010024E801002437
:100B6000EC010024A8010024FC0100240000002462
:100B7000A40100242DE9F84F1E4B81461E4D1C6830
:100B80002368B3FA83F35B092B702B784BB3DFF840
:100B900074801A4F1A4E08F1040A0EE094F80AB055
:100BA0000020BBF1000F17D000F07AFD2368003B56
:100BB00018BF01233B702B789BB1304601F0D0F871
:100BC000637A002BEAD1404601F0D8F894F80AB0D5
:100BD0000020BBF1000FE7D1504601F0CFF8584696
:100BE000E2E74846FFF75EFF002001F071F80020C1
:100BF000BDE8F88FE4AF000800000024A001002445
:100C00009C010024E80100242F4B2621272010B549
:100C10000024C3E9000104F04DFF01F0C9F801F020
:100C200077F902F073FB01F0DFF922460121274832
:100C3000FFF7C2FB01F0A4FA224601212448FFF786
:100C4000BBFB01F00DFB224601212248FFF7B4FB5C
:100C500001F09AFB01F0E8FB01F01CFC01F048FCFC
:100C600001F074FC01F0E2FC01F04CFD01F088FDA4
:100C700001F0E4FD01F03CFE01F0CEFE01F078FF52
:100C800002F05AF902F00EFA02F0C4FA02F0C0FAC9
:100C900001F0DCFF02F038F802F088F802F0D8F832
:100CA00002F010F901F0FAFF0B4B1B681C6000F01A
:100CB00003FD9FED0A0A022000F01AFF084801F028
:100CC0004FF8204610BD00BFE00100240020024084
:100CD0000021024000600258E4AF00086F12033B9D
:100CE000A4010024000000002DE9F0412DED0C8B43
:100CF0004B7AB0EE409B92B00E4607460BB10023F4
:100D00004B72F56A2B68012B40F08F806B4605F122
:100D1000100848221846414695ED16BB95ED02DBBA
:100D200095ED188BFDEECB7B3DEE09DB17EE904A7F
:100D30000AF0C0F80346013C9FED612BB4EE428BF4
:100D400087ED002BF1EE10FA00F0A780E400B2EE80
:100D5000027B04F148020DEB0204B4EE47BB04ED44
:100D6000129BF1EE10FA29D0B7EE007B3BEE07BBE9
:100D7000B5EE408BF1EE10FA05D1B2EE046B82EEC7
:100D8000067B87ED007B19464822404685ED02DB55
:100D90000AF090F8B5EEC08BF36AF1EE10FA83ED2D
:100DA00016BB40F38380B7EE007B38EE478B83EDB4
:100DB000188B12B0BDEC0C8BBDE8F0819DED0E6B75
:100DC0009DED101B9DED0C3B9DED0A7B36EE011B4E
:100DD000B7EE00BB31EE033B9DED084B8DED0E1BD6
:100DE00033EE071B9DED065B31EE044B9DED046B6E
:100DF00034EE055B9DED027B35EE066B8DED0C3B15
:100E000036EE077B9DED003B9FED2DDB8DED0A1B44
:100E100033EE073B8DED084B8DED065B8DED046BDE
:100E20008DED027B8DED003BA2E79FED25AB00240D
:100E30004FF00108B7EE00CB05F11000C5F80080B7
:100E4000482221462C71B0EE4A8BB0EE4CBB85EDAA
:100E500002AB09F0A5FFF06A4822214680F8048021
:100E6000103080ED12CB80ED14AB00ED02AB09F039
:100E700097FFF56A6B46482205F11008184641466F
:100E800095ED02DB85ED16CB85ED18AB3DEE09DB6C
:100E90000AF010F8034687ED00AB12AA02EBC40279
:100EA000E40012ED122B3DEE022B50E79FED048B78
:100EB00083ED188B12B0BDEC0C8BBDE8F08100BF48
:100EC0000000000000000000F0B5D54D4FF0000616
:100ED000D44C042195F809E095F80AC00EF10103FD
:100EE000BEFA8EFEE06BDBB24FEA5E1E0A2B6EF39B
:100EF000070628BF00236B720CF10103BCFA8CFCBF
:100F0000DBB24FEA5C1C642B6CF30F2628BF002376
:100F1000A5F80B60AB72C44E2DED0E8B83B001AA09
:100F2000FFF7F6FBDDED017A9FEDA96BB8EE677B6D
:100F300096ED005B37EE467B87EE058B28EE068B41
:100F4000B4EEC68BF1EE10FA31DCB5EEC08BF1EEEB
:100F500010FA00F1938194F8A8306A6873B3002303
:100F600001930023C4F8A020A4F8A8309FED987B3B
:100F700096ED1E6BB0EE47DBA6EE08DBB4EEC7DBEA
:100F8000F1EE10FA1EDCB5EEC0DBF1EE10FA00F166
:100F900072819FED917B2DEE07DBB3EE067BB4EE05
:100FA000C78BF1EE10FA16DC9FED8DCB17E094F8AD
:100FB000A830B0EE468B6A68002BD0D1D4F8A030B0
:100FC000D31ACDE79FED88DBB3EE067BB4EEC78B7B
:100FD000F1EE10FAE8DDB6EE08CB28EE0CCB934923
:100FE000934894ED20AB9FED820BFFF77DFE3CEE26
:100FF0004AABB5EEC0ABF1EE10FA01D89FED78AB7D
:101000008C4F97ED0A6B9FED7C7B26EE0AAB3AEE98
:10101000477BB5EEC07BF1EE10FA01D89FED707BF7
:1010200094F8AA3023B100239FED756B84F8AA30A1
:1010300094F8A63087EE069B002B41D094ED126BFE
:101040009FED677B9FED625B9FED6FBB99EE076B3A
:10105000B4EEC7DB29EE0BBBF1EE10FA26EE056B02
:1010600084ED226B9FED6A6B29EE069B40F30981AC
:10107000B0EE47DB94ED24EB3CEE4EEBB5EEC0EB6F
:10108000F1EE10FA01D89FED56EB9FED517B96EDF6
:10109000246B0023B0EE475B84F8AB30A6EE085B10
:1010A000B4EEC75BF1EE10FA1BDCB5EEC05BF1EEFF
:1010B00010FA00F1D8809FED48CB25EE0CCB12E062
:1010C000DDED015A9FED544BB8EE655B94ED126B6C
:1010D00025EE045B94ED227BA5EE076B84ED126B8D
:1010E000AEE79FED41CB9FED420B53495348FFF7CD
:1010F000FBFD97ED085B9FED406B25EE0EEB3EEEA2
:10110000466BB5EEC06BF1EE10FA01D89FED346B73
:1011100094F8AC3023B100239FED395B84F8AC30F8
:1011200094F8A73086EE052B002B00F0898094ED13
:10113000166B9FED2B4B94ED180B9FED355B92EEEC
:10114000046B0022EB7AA4F8A620B0EE403B9FEDA2
:101150002E1BA2EE053BA2EE010B9FED1D5B26EEC2
:10116000056B94ED145B84ED180B36EE033B35EE06
:10117000099B35EE0B5B84ED266B94ED226B84EDC1
:10118000243B84ED145B36EE096B84ED206B93B148
:10119000B4EEC4CBF1EE10FA68DDB2EE046B34EEBF
:1011A0004E4B3DEE4ADB84EE065B8DEE067B84ED16
:1011B0001A5B84ED1C7B2B7B0BB184ED1E8B6B6863
:1011C00001336B6003B0BDEC0E8BF0BDAFF300805C
:1011D0000000000000005940CDCCCCCCCCCCE43F8A
:1011E000000000000000000000000000004050402F
:1011F0000000000000208240000000000088B34092
:101200000000000000C082400E107D663A6AE13F97
:10121000DF2203C139D5413FFCA9F1D24D62603FC5
:101220008004002430020024E8AF0008D803002422
:10123000280200240002002430030024200200249D
:10124000DDED017A9FED126BB8EE674B94ED163B26
:1012500024EE064BB0EE436B94ED265BA4EE056BDB
:1012600084ED166B65E79FED0CCB3CE79FED0C4BD7
:101270002CEE044B91E79FED08DBA5E69FED068B76
:1012800069E69FED077B2DEE07DBF3E6AFF3008009
:10129000FCA9F1D24D62603F000000000000000098
:1012A00000000000002082402DE9F047524E2DED55
:1012B000028B96ED1A8B88B0BBFE488BB0EE480BC4
:1012C00000F0DCFB002848D0002213464B4C96ED82
:1012D0001C8BA380E280BBFE488BB0EE480B00F075
:1012E000CDFB002855D000221346DFF81C910025C5
:1012F000238107AF99F8B6304FF003084FF47A7A9C
:101300006281237340F21122E3883D49A4F80D3035
:101310002B46D6F8D00003950095CDE90457CDE9CA
:10132000018AFFF7FBFA99F8B7306289E3732B461D
:1013300022824FF404723349D6F8BC000597CDF8E9
:1013400008A0CDF804800095CDE90355FFF7E6FA33
:1013500008B0BDEC028BBDE8F087B0EE480B00F0A2
:1013600073FB0028B0D1B0EE480B9FED211B09F0B4
:10137000A3FBB5EEC00BF1EE10FA26D5B1EE400B93
:10138000BCEEC00B10EE103A5B425ABA1BB292B2DE
:101390009CE7B0EE480B00F057FB0028A3D1B0EE5D
:1013A000480B9FED131B09F087FBB5EEC00BF1EE68
:1013B00010FA12D5B1EE400BBCEEC00B10EE103A95
:1013C0005B425ABA1BB292B28FE7FCEEC07B17EEBB
:1013D000903A5ABA1BB292B278E7FCEEC07B17EE95
:1013E000903A5ABA1BB292B27FE700BFAFF30080C7
:1013F000000000000000F040300200240002002441
:101400000C0200240F020024E8AF000800000000D6
:101410002DE9F0479E4D2DED028B95ED1E8B8CB086
:10142000BBFE488BB0EE480B00F028FB002856D0DE
:10143000002213460024974E974F0DF128094FF0D4
:10144000080A4FF47A78338007F1CB0123460394DE
:101450000094E869CDE9044972805246CDE901A8BB
:10146000FFF75CFAD7F8D330CDF804A006F11201EB
:1014700000940922E86ACDE90449CDE90284C6F85E
:10148000123097F8D730B37597F8D830F375738862
:1014900033832346FFF742FA0523D22207F1BE0128
:1014A000E868CDF814900094CDE90138CDE9034403
:1014B0002346FFF733FAB7EE005BB2EE086B95ED0B
:1014C000107B37EE057BB4EEC67B85ED107BF1EE2D
:1014D00010FA21DD0CB0BDEC028BBDE8F087B0EE58
:1014E000480B00F0B1FA0028A2D1B0EE480B9FEDF6
:1014F000641B09F0E1FAB5EEC00BF1EE10FA40F111
:10150000AE80B1EE400BBCEEC00B10EE103A5B4269
:101510005ABA9BB292B28DE795F8A4305F4C052B76
:1015200097F8B82028BF05238DF8242004EBC303C7
:1015300093ED008BBBFE488BB0EE480B00F09EFA9B
:10154000002851D0002395F8A5208DF82530052AD4
:10155000134628BF052304EBC30494ED008BBBFEA8
:10156000488BB0EE480B00F089FA002856D00023D3
:1015700000240BAE03274FF47A7809A98DF82630A2
:1015800040F211222346D5F8F80005960094CDE9E3
:101590000344CDE90178FFF7C1F9234609A94FF4C7
:1015A0000472D5F8E4000596CDF80880CDE903442F
:1015B000CDE90047FFF7B2F995F8A43095F8A520DA
:1015C00001330132DBB2D2B2062B28BF2346052AF3
:1015D00085F8A4308CBF85F8A54085F8A5200CB00F
:1015E000BDEC028BBDE8F087B0EE480B00F02CFAA2
:1015F0000028A7D1B0EE480B9FED231B09F05CFA41
:10160000B5EEC00BF1EE10FA22D5B1EE400BBCEEF8
:10161000C00B10EE103A5B42DBB294E7B0EE480B21
:1016200000F012FA0028A2D1B0EE480B9FED161B75
:1016300009F042FAB5EEC00BF1EE10FA17D5B1EE93
:10164000400BBCEEC00B10EE103A5B42DBB28FE7F2
:10165000FCEEC07BCDED077A9DF81C3073E7FCEE05
:10166000C07B17EE903A5ABA9BB292B2E2E6FCEE19
:10167000C07BCDED077A9DF81C3079E7AFF3008091
:10168000000000000000F04000000000000070407A
:101690003002002400020024E8AF0008C8B00008AF
:1016A000012803D0022805D010B17047FFF7FCBD18
:1016B000FFF70ABCFFF7ACBE70B50120784C0023E1
:1016C0008AB060612374FFF7FBF8E06118B1037919
:1016D000012B00F0C88001200023207684F8203000
:1016E0006062FFF7EDF8E06218B10379012B00F0BA
:1016F000BE800120002384F8280023706060FFF77B
:10170000DFF8E06018B10379012B00F0B48001200C
:101710000023207284F8EC3084F8FC00C4F8F00058
:10172000FFF7CEF8C4F8F80018B10379012B00F0E8
:10173000A6800120002384F8F40084F8D83084F8CF
:10174000E800C4F8DC00FFF7BBF8C4F8E40018B107
:101750000379012B00F097800120002384F8E0003A
:1017600084F8C43084F8D400C4F8C800FFF7A8F89F
:10177000C4F8D00018B10379012B00F08880012053
:10178000002384F8CC0084F8B03084F8C000C4F89A
:10179000B400FFF795F8C4F8BC0010B10379012B31
:1017A00079D000223F4B0125002600203E4984F8D5
:1017B000B85084F8AA5084F8AC5084F8A86184F832
:1017C0004852C4F8AC51C4F8E061A4F8B05184F8B0
:1017D000006184F8A051C4F80451C4F83861A4F839
:1017E000085184F8306084F838606563069608967E
:1017F0008DF812600395C4E91423C4E918232B4B18
:10180000A3F1A802C4F8D4314FF48073C4F82C219A
:10181000274AADF82430042307922A46C4E9200160
:10182000C4E92401C4E97655294603A8C4E94C5506
:10183000ADF810500096FEF70DFF31460222E0632E
:10184000FEF7F2FFE06BFEF755FF2946E06BFEF76F
:10185000E5FE40F2011384F8385084F8A850A4F84B
:10186000A6300AB070BD006804F0ACFD33E7006834
:1018700004F0A8FD3DE7006804F0A4FD47E7006818
:1018800004F0A0FD55E7006804F09CFD64E70068E3
:1018900004F098FD73E7006804F094FD81E700BF51
:1018A000300200240000244000002C4010040024DA
:1018B0000020024010B5634C94F830302BB901235E
:1018C000626B9A4284F830305DD094F8A83133B915
:1018D0000122D4F8AC31934284F8A8215CD094F86A
:1018E000003133B90122D4F80431934284F8002145
:1018F00064D094F8C43033B90122D4F8C83093428C
:1019000084F8C4206CD094F8B03033B90122D4F8F4
:10191000B430934284F8B0206BD0237C23B90122E9
:101920006369934222746DD094F820302BB9012260
:10193000636A934284F820206BD0237823B9012274
:101940006368934222706CD094F8EC3033B9012272
:10195000D4F8F030934284F8EC2069D094F8D83071
:1019600033B90122D4F8DC30934284F8D82000D077
:1019700010BD94F8E030002BFAD0D4F8E400BDE8B4
:101980001040FFF765B894F83830002B9DD0114611
:10199000E06BFEF711FF98E794F8B031002B9ED072
:1019A000D4F8D4311A68012A01D102221A604FF00A
:1019B000FF324FF0FF33C4E9762390E794F8083103
:1019C000002B96D0D4F82C311A68012A01D10222BA
:1019D0001A604FF0FF324FF0FF33C4E94C2388E721
:1019E00094F8CC30002B8ED0D4F8D000FFF730F82C
:1019F00089E794F8B830002B8FD0D4F8BC00FFF7FB
:101A000027F88AE7237E002B8ED0E069FFF720F8C5
:101A10008AE794F82830002B8FD0E06AFFF718F897
:101A20008BE7237A002B8FD0E068FFF711F88BE764
:101A300094F8F430002B91D0D4F8F800FFF708F8B0
:101A40008CE700BF300200240A4B93ED007BB4EE1C
:101A5000407BF1EE10FA0AD0074B93ED007BB4EE19
:101A6000407BF1EE10FA0CBF0120002070470120EE
:101A7000704700BF0800002410000024B4EE400BA3
:101A8000F1EE10FA6CBF01200020704730B504461B
:101A900083B089B94FF080456B6A019304F046F832
:101AA00000906A6A019B9A4210D3009A4FF47A71AF
:101AB000019B01FB023302E004F038F80346181BD7
:101AC000A34238BF00F1FF3003B030BD04F02EF860
:101AD0006B6A4FF47A7202FB0033F0E7014800F0C2
:101AE0004DB900BF9C010024FFF744B8FEF7B8BF12
:101AF000F8B5002156482DED028BB0EE408A00F07B
:101B000025F940B14FF0500383F31188BFF36F8F75
:101B1000BFF34F8FFEE701464E4800F017F903462A
:101B200040B14FF0500383F31188BFF36F8FBFF3C1
:101B30004F8FFEE7484D2821484A802629612C46D0
:101B4000A861AE8207CA03C44549284622701A46D6
:101B500000F09CF8014640B14FF0500383F3118828
:101B6000BFF36F8FBFF34F8FFEE73E4D3E482960B6
:101B700000F0ECF8002858D13C4C27233C492A4679
:101B8000A06120462361A68200F080F8014600286B
:101B900054D1012737486F6000F0D8F8002844D1AD
:101BA000262360632A1D3249E36204F11C00268665
:101BB00000F06CF80346002840D1DFED2F7A2F4A61
:101BC00028EE270A2E4C2F4DA760BCEEC00A2B60D2
:101BD0002360E36084ED010A92E803000A0C2061AF
:101BE000A18220462849A27500F084F840B14FF048
:101BF000500383F31188BFF36F8FBFF34F8FFEE75E
:101C00004FF47A71204600F087F840B14FF050034E
:101C100083F31188BFF36F8FBFF34F8FFEE7BDECE7
:101C2000028BBDE8F84007F0F3BD4FF0500383F39B
:101C30001188BFF36F8FBFF34F8FFEE74FF0500354
:101C400083F31188BFF36F8FBFF34F8FFEE700BFA1
:101C50009C010024A401002480010024F8B00008A5
:101C6000E91A0008F0010024E8010024A80100247A
:101C7000ED1A0008EC01002400007A4404B10008C9
:101C800090040024B0040024DD1A0008E8B11346D3
:101C900000F1180230B50446056983B008462146B4
:101CA0000192A28A009507F0F9FCA36923B10138DB
:101CB00018BF012003B030BD4FF0500383F31188EB
:101CC000BFF36F8FBFF34F8FFEE70120704700BF58
:101CD000002007F017BD00BF84B008B50DF1080C57
:101CE0008CE80F00089807F00DFD0020BDE80840C3
:101CF00004B0704710B582B0044600914168D0E945
:101D00000223103008F0A0FA0346B0FA80F02360F6
:101D1000400902B010BD00BFA8B130B5056883B05E
:101D200075B10C4607F00AFE002302460121284641
:101D3000009408F0F1FA013818BF012003B030BD5B
:101D4000012003B030BD0120704700BF10B504462C
:101D50000A2006F099FB03460020236010BD00BF57
:101D600050B1006840B14FF0FF3108B506F03CFFBC
:101D7000013818BF012008BD0120704758B1006824
:101D800048B108B500231A46194606F0C3FB0138CE
:101D900018BF012008BD0120704700BF28B10068AE
:101DA00008B507F0A9F8002008BD0120704700BF62
:101DB000524A08B5136823F00F0343F0030313607E
:101DC000136803F00F03032BFAD14D494D4ACB683A
:101DD00023F03F0343F00403CB608B6923F44043BB
:101DE0008B61136843F48033136013689903FCD547
:101DF0001168444B41F4805111601A689204FCD57B
:101E0000986A414A20F003003E4940F0020098627F
:101E1000D86A40F48030D862D86A40F40030D86282
:101E2000D86A40F48020D862D86A20F00C0040F0D4
:101E30000800D862D86A20F00200D862986A20F4BC
:101E40007C7040F050009862186B024042F06D02C6
:101E50001A631A6B22F47E421A631A6B22F4FE0292
:101E600042F440321A631A6B22F0FE4242F0807252
:101E70001A631A6842F080721A600B689B01FCD5E5
:101E80008B69204A23F00F0343F008038B610B6931
:101E900023F0070343F003030B61136903F03803D6
:101EA000182BFAD19369194823F4706393619369ED
:101EB00023F00F0343F008039361D36923F0700309
:101EC00043F04003D361D36923F4E06343F48063B8
:101ED000D361936923F0700343F040039361136A65
:101EE00023F0700343F04003136202F03DFE0F2025
:101EF00002F08EF808B172B6FEE708BD002000526D
:101F0000004802580044025800FEFFFF8055C820D8
:101F1000334B344AD96A41F40021D962D96A21F09D
:101F2000C00141F08001D962D96A21F02001D96253
:101F3000996A21F47C3141F4A0419962996B0A407D
:101F400042F04F029A639A6B22F47E4242F400629E
:101F50009A639A6B22F4FE0242F480329A639A6B7F
:101F600022F0FE4242F080729A631A6842F0806268
:101F70001A601A681201FCD5D96A1A4A41F08071B8
:101F80001748D962D96A41F44061D962D96A21F40B
:101F90000071D962996A21F07C7141F000719962F7
:101FA000196C0A4042F080021A641A6C22F47E42D4
:101FB00042F400721A641A6C22F4FE0242F4803277
:101FC0001A641A6C22F0FE4242F080721A641A6897
:101FD00042F080521A6003689B00FCD5704700BF36
:101FE0000044025800FEFFFF30B55B4B97B0002461
:101FF0005A480AA95A4D0F940394109406940C94CD
:1020000015940994CDE90D44CDE90444CDE911447A
:10201000CDE91344CDE907449A6D22F440329A6524
:10202000D3F8D82042F02002C3F8D820D3F8D82023
:1020300002F020020292029AD3F8E02042F0040259
:10204000C3F8E020D3F8E02002F004020192019AE4
:10205000D3F8E02042F00102C3F8E020D3F8E030EA
:102060009FED3B7B03F001030093009B8DED0A7B0A
:1020700002F016F93B4A3C4803A9536843F0407309
:102080005360D0F82028394B22F0FF0242F00902B9
:10209000C0F8202828461A6922F0C0021A611A697D
:1020A00022F440321A611A6922F490721A611A6994
:1020B00022F400721A611A6942F480621A611A6984
:1020C00022F4C05242F400621A611A6922F4C0423A
:1020D00042F400521A615A6A22F004025A62244BF6
:1020E0002A6913402B610394059402F093F910A917
:1020F00028461594CDE91044CDE9124402F0C2F906
:102100000022002306A91B48CDE9062302F04AF964
:10211000A968194A194B0A40AA60AA68134043F0FB
:102120008053AB602B6B23F4F86343F420732B6371
:10213000AB6923F0070343F00403AB61D5F8C0306B
:1021400023F48063C5F8C03017B030BDAFF3008012
:10215000010000000300000000440258000802587B
:102160000020024000040058000002400004024029
:10217000FCFBFFFF00230240C0FFFF5FC0FFFF6FBB
:1021800030B5304B8DB000252F48304C03A9039556
:10219000069504950B95CDE90755CDE909559A6D3E
:1021A00022F440329A65D3F8D82042F02002C3F8D6
:1021B000D820D3F8D82002F020020292029AD3F855
:1021C000E02042F00102C3F8E020D3F8E03003F051
:1021D00001030193019B436843F040734360204631
:1021E00022691B4B13402361059502F013F900226D
:1021F000002306A920460B95CDE90623CDE9082347
:1022000002F040F9A0681349134B0140134AA16042
:10221000A1680B4043F08053A360D2F8303123F41F
:10222000F863C2F83031D2F8143123F00703C2F852
:102230001431D4F8C03023F00103C4F8C0300DB01D
:1022400030BD00BF00440258000400580021024085
:10225000FCFBFFFFC0FFFF5FC0FFFF6F00200240DD
:1022600030B5404B97B000243F49404D0F94039444
:10227000109406940C94159409943D48CDE90D44AE
:10228000CDE90444CDE91144CDE91344CDE9074437
:102290009A6D22F440329A65D3F8E02042F08072C1
:1022A000C3F8E020D3F8E02002F080720292029A94
:1022B000D3F8E02042F00402C3F8E020D3F8E02095
:1022C00002F004020192019AD3F8E02042F0800269
:1022D000C3F8E0200422D3F8E03003F08003009339
:1022E000009B4B6843F040634B6003230AA90E94A4
:1022F000CDE90A2301F0D4FF2A691E4B03A9284621
:1023000013402B610394059402F084F810A9284629
:102310001594CDE91044CDE9124402F0B3F800223F
:10232000002306A914480894CDE9062302F03AF8E0
:10233000A968124A124B0A40AA60AA68134043F0E7
:102340008053AB602B6B23F4F8632B636B6923F032
:1023500007036B61D5F8B03023F00103C5F8B03046
:1023600017B030BD00440258000400580060025805
:10237000001C0258FCFBFFFF00630258C0FFFF5F18
:10238000C0FFFF6F0000000030B5234B8FB000246A
:1023900020200321214D02940A9407940D94CDE945
:1023A0000344CDE90544CDE90B44D3F8E82042F0DD
:1023B0000052C3F8E820D3F8E82002F0005201925E
:1023C000019AD3F8E02042F00102C3F8E020D3F8EC
:1023D000E03003F00103CDE90801009308A910489B
:1023E000009B01F05DFF02AA0E49284607949FED6D
:1023F000087BCDE905448DED027B03F0A7FB2B683C
:1024000023F400332B600FB030BD00BFAFF300806A
:10241000000000000000000000440258007400406A
:10242000000002587200403510B5144882B01449BB
:102430000023144A4FF0010C016000921249134A24
:10244000ADF8043040F2F453C0F804D080F808C06E
:102450004361C0E9031203F0B1FB08B172B6FEE7B5
:102460000B4C01463022201D08F09AFC21224FF42B
:1024700040332260636102B010BD00BFE804002455
:10248000008002400080E100DC0000247C00002489
:10249000B404002414480221012238B50023052485
:1024A0000162124D837402820560C0E906110421A5
:1024B000C0E90233C0E90D33C0E90F32C0E911436E
:1024C000C0E91313C0E91513C0E91732C0E9193484
:1024D0000A23C0E90922C0E90B22436103F020FD71
:1024E00008B172B6FEE738BD7005002400A00040B8
:1024F00014480221012238B5002305240162124D3F
:10250000837402820560C0E906110421C0E9023328
:10251000C0E90D33C0E90F32C0E91143C0E913131C
:10252000C0E91513C0E91732C0E919340A23C0E91C
:102530000922C0E90B22436103F0F2FC08B172B634
:10254000FEE738BD1006002400A4004030B5314A33
:1025500091B00024304D02A930480E94CDE90244D8
:10256000CDE90444CDE90644CDE90844CDE90A4467
:10257000CDE90C44D2F8583423F44073C2F85834EF
:10258000D5F8E03043F02003C5F8E030D5F8E0306E
:10259000049403F0200301934FF44043019A012275
:1025A000029302230393012305930423CDE9062319
:1025B00001F076FED5F8F430194808A943F08003FD
:1025C000C5F8F430D5F8F43003F080030093009A96
:1025D0004268144B42F000724260C2681340124AD3
:1025E000C360C36823F40043C360036823F400237B
:1025F0000360036823F40033036000230E94CDE9E5
:1026000008420022CDE90A44CDE90C2304F044F944
:1026100011B030BD00400258004402580014025866
:10262000001C005801F8FFFF724E406070B59AB070
:1026300034220021314C6846052508F0B1FB3422D4
:1026400000210DEB020008F0ABFB00232C4A4FF4F5
:102650002571A386204684F83630C4E9002307227A
:10266000C4E90233C4E9043203220E23A26140F21A
:102670008E22C4E9073540F2E513C4E9092340F28C
:10268000E713C4E90B1304F03FF908B172B6FEE793
:102690004FF48066024606906946ADF830008DF82A
:1026A00032000796CDE90000CDE90200CDE9040033
:1026B000CDE90850CDE90A00204604F093F903461D
:1026C00008B172B6FEE70DA920460122ADF86430CC
:1026D0008DF86630CDE90D33CDE90F33CDE91133F7
:1026E000CDE91336CDE91553CDE9173304F07AF966
:1026F00008B172B6FEE71AB070BD00BFB006002484
:102700000010005030B520221A4C002387B001255C
:10271000194922610822204600930593C4E9001557
:10272000C4E90233C4E90553C4E90733C4E90953D2
:10273000C4E90B33C4E90D32C4E90F33CDE90133E9
:10274000CDE9033304F020FA08B172B6FEE74FF08A
:1027500001120A4B69462046039241F288320493E3
:10276000CDE9015504F0CAFA08B172B6FEE707B028
:1027700030BD00BF58070024005000520100000186
:1027800010B501222A4C2B4800234FF080618AB0FB
:1027900023640493009309930393C4E90002202067
:1027A000C4E902310821C4E904022046C4E9063321
:1027B000C4E90832C4E90A33C4E90C33C4E90E138E
:1027C000CDE90533CDE90733CDE9013304F0DCF978
:1027D00008B172B6FEE70223174A04A92046079201
:1027E00041F28832CDE9053303F18073089304F098
:1027F00085FA08B172B6FEE79FED097B41F2883297
:10280000694620468DED007B9FED077B8DED027BB9
:1028100004F038FA08B172B6FEE70AB010BD00BF86
:1028200000000000000000000200000000000000A6
:10283000B807002400A0005202000100F8B52748A4
:10284000002301242649032240274FF480760825DF
:1028500043640160C36442600365876484604361CC
:10286000C361C360436380F838304565C0E90B330A
:10287000C0E90F36C0E91643C0E91833C0E91A337E
:10288000C0E91C4304F05EFD08B172B6FEE70346E2
:102890001448154A43608360C361C360436380F892
:1028A0003830C363436787640260C0E91063C0E9DE
:1028B0001333C0E90533C0E90B33C0E91733C0E96E
:1028C0001933C0E91B34094BC0E91554036204F005
:1028D00039FD08B172B6FEE7F8BD00BF1808002444
:1028E00004580140B00800242458014000EE0200C2
:1028F0002DE970430024A2B0444E202221460EA8A8
:1029000007944FF00008424D4FF00009CDE9034411
:10291000CDE9054408F044FA3022214616A808F013
:102920003FFA03A92846CDE90844CDE90A44CDE998
:102930000C44D6F8F03043F00103C6F8F030D6F876
:10294000F03003F001030293029B4FF6FF730593EF
:1029500005F0A0F92B680EAA4FF48051284623F009
:1029600080032B60EB6943F40063EB616023CDE9E6
:1029700014890E93CDE90F44CDE9114405F022FAF4
:10298000EB694FF4005216A923F480632846EB61EB
:102990006B6823F070036B606B6823F470036B60EB
:1029A000AB6823F08003AB604FF0007318941E9364
:1029B00000238DF86440ADF866401D941F94219467
:1029C000CDE91689CDE91A2305F08CFBD6F8E03065
:1029D0004FF4804208A943F010034FF000084FF075
:1029E00001090C48C6F8E030D6F8E030089202221F
:1029F00003F010030B940193019BCDE90924CDE969
:102A00000C8901F04DFC22B0BDE8708300440258EF
:102A10000000014000100258F0B5002497B0504F5C
:102A2000202221460EA807944FF080454D4ECDE957
:102A30000344CDE9054408F0B3F903A93046CDE9D4
:102A40000844CDE90A44CDE90C44D7F8E83043F016
:102A50000403C7F8E830D7F8E83003F00403029322
:102A6000029B4FF6FF73059305F014F9336860215C
:102A70000EAA304623F080033360D5F8183843F4AB
:102A80000063C5F818381294CDE90E141021CDE971
:102A9000104405F097F9D5F818380EAA4FF4807154
:102AA00023F480633046C5F81838D5F81C3843F055
:102AB0000803C5F81C3805F085F9D5F81C380EAAAE
:102AC0004FF4805123F004033046C5F81C38D5F884
:102AD0001C3843F40063C5F81C3805F073F9D5F8C9
:102AE0001C38802208A923F480631F48C5F81C38CD
:102AF0000225736823F070037360B36823F08003CA
:102B0000B3600026D7F8E0302B43C7F8E030D7F8A1
:102B1000E0302B400193019BD7F8E03043F00803ED
:102B2000C7F8E030D7F8E03002270A9403F0080332
:102B30000B940093009BCDE90825CDE90C6701F0CB
:102B4000AFFB4FF4404308A9084809950893CDE925
:102B50000A44CDE90C6701F0A3FB17B0F0BD00BF3C
:102B6000004402580008004000040258000C0258BB
:102B7000F0B5002497B0324E202221460EA80794CB
:102B80004FF080472F4DCDE90344CDE9054408F0CF
:102B900007F903A92846CDE90844CDE90A44CDE95F
:102BA0000C44D6F8E83043F00803C6F8E830D6F80D
:102BB000E83003F008030293029B4FF0FF330593C4
:102BC00005F068F82B6860200EAA012123F080032D
:102BD0002B60D7F8183C43F00803C7F8183C129450
:102BE000CDE90E042846CDE9104405F0EBF8D7F8FE
:102BF000183C012208A923F004031348C7F8183C25
:102C000002276B6823F070036B60AB6823F08003CE
:102C1000AB60D6F8E0301343C6F8E030D6F8E030C9
:102C200000260892022203F001030B940193019BFA
:102C3000CDE90924CDE90C6701F032FB17B0F0BDF6
:102C400000440258000C00400000025810B5114822
:102C500041F27B51104C002384B040F2CF72A3614B
:102C60000193C4E900012046C4E90232CDE90233F0
:102C700004F002FD08B172B6FEE7034601A9204642
:102C80000193039304F09CFF08B172B6FEE704B011
:102C900010BD00BF00100040E009002410B5002363
:102CA00086B0174A40F6BD20019301A9154CCDE925
:102CB0000233CDE90433D2F8E83043F02003C2F800
:102CC000E830D2F8E83040F2E732ADF804002046B0
:102CD00003F0200303920093009B04F0DBFF2368C2
:102CE00043F080032360636823F0700343F0200304
:102CF0006360A36823F08003A36006B010BD00BF2B
:102D0000004402580014004010B5002386B0234A46
:102D100005932348CDE90133CDE90333D2F8F01010
:102D200041F40031C2F8F010D2F8F02002F4003281
:102D30000092009AC268C2F30222C2F10701101D7C
:102D4000042928BF04210628164898BF1A464FF0C8
:102D5000FF3388BF033A8B40DB4303F00503934006
:102D60001B01DBB280F875334FF40013C3600E4CC7
:102D700040F2252000234CF24F32ADF8040001A9A7
:102D8000204602930392CDE9043304F083FF2368C5
:102D900023F08003236006B010BD00BF004402583A
:102DA00000ED00E000E100E00044014010B5002328
:102DB00086B0234A05932348CDE90133CDE9033397
:102DC000D2F8F01041F48021C2F8F010D2F8F020CF
:102DD00002F480220092009AC268C2F30222C2F179
:102DE0000701101D042928BF04210628164898BF92
:102DF0001A464FF0FF3388BF033A8B40DB4303F0A2
:102E0000050393401B01DBB280F876334FF4800357
:102E1000C3600E4C40F2252000234CF24F32ADF837
:102E2000040001A9204602930392CDE9043304F083
:102E300031FF236843F08003236006B010BD00BF5C
:102E40000044025800ED00E000E100E000480140CD
:102E500010B51A4840F22522194C00238AB047F6D3
:102E6000BC01236104930193C4E90002802220463F
:102E7000C4E90231A261CDE90533CDE90733CDE9DB
:102E8000023304F0F9FB08B172B6FEE7002300221A
:102E900004A92046CDE9042304F018FD034608B137
:102EA00072B6FEE701A920460193039304F088FE61
:102EB00008B172B6FEE70AB010BD00BF00E00040E6
:102EC0004809002410B51A4840F22522194C002365
:102ED0008AB041F62501236104930193C4E90002FD
:102EE00080222046C4E90231A261CDE90533CDE953
:102EF0000733CDE9023304F0BFFB08B172B6FEE739
:102F00000023002204A92046CDE9042304F0DEFCBE
:102F1000034608B172B6FEE701A920460193039368
:102F200004F04EFE08B172B6FEE70AB010BD00BF55
:102F300000E400409409002470B5202290B00021E4
:102F40004FF4E1360DEB02000C250C4607F028FF8C
:102F50004F4B02A94F48CDE90244CDE90444CDE9E5
:102F60000644D3F8F02042F01002C3F8F020D0F865
:102F7000542422F03802C0F85424D3F8F02002F090
:102F800010020192019AD3F8E02042F00202C3F845
:102F9000E0204FF44042D3F8E03003F00203009306
:102FA000022300983C48CDE9022300220423CDE906
:102FB0000444CDE9062301F073F9384B08A93848D9
:102FC000D3F8002822F0FF0242F02902C3F80028BB
:102FD0001A6922F0C0021A611A6922F440321A6199
:102FE0001A6922F490721A611A6922F400721A6145
:102FF0001A6942F480621A611A6922F4C0521A6195
:103000001A6922F4C0421A615A6A22F004025A6212
:10301000CDE90846CDE90A44CDE90C45CDE90E4499
:1030200005F0A6F81E4A02F1080353E8003F23F01A
:10303000604302F1080040E800310029F3D1184A4A
:1030400002F1080353E8003F23F0606302F1080037
:1030500040E800310029F3D1136801F1804123F0E9
:10306000005301F588311360536823F49043536093
:10307000936823F02A039360136843F001031360FD
:10308000CB699A02FCD5CB695B02F9D510B070BD53
:103090000044025800400258000402580000024058
:1030A0000010014070B5202290B000214FF4E136AD
:1030B0000DEB02000C250C4607F072FE4F4B02A9E7
:1030C0004F48CDE90244CDE90444CDE90644D3F8A4
:1030D000E82042F48022C3F8E820D0F8542422F0FB
:1030E0000702C0F85424D3F8E82002F480220192A9
:1030F000019AD3F8E02042F00802C3F8E0204FF430
:103100004072D3F8E03003F00803009302230098E4
:103110003C48CDE9022300220723CDE90444CDE950
:10312000062301F0BDF8384B08A93848D3F8042825
:1031300022F0FF0242F02D02C3F804289A6A22F01E
:10314000C0029A629A6A22F440329A629A6A22F41F
:1031500090729A629A6A22F400729A629A6A42F4AF
:1031600080629A629A6A22F4C0529A629A6A22F43F
:10317000C0429A62DA6B22F00402DA63CDE90846B3
:10318000CDE90A44CDE90C45CDE90E4404F0F0FF49
:103190004FF0402202F6080353E8003F23F060435B
:1031A00002F6080040E800310029F3D14FF0402238
:1031B00002F6080353E8003F23F0606302F60800BC
:1031C00040E800310029F3D1104B1A6822F0005278
:1031D0001A605A6822F490425A609A6822F02A02D1
:1031E0009A601A6842F001021A60DA699102FCD50D
:1031F000DA695202F9D510B070BD00BF0044025820
:1032000000400258000C02580000024000480040F4
:10321000704700BF3A4B82B03A49D3F8D8203A48B9
:1032200042F00102C3F8D820D3F8D82002F00102FE
:103230000192019AD3F8D82042F00202C3F8D820B4
:10324000D3F8D83003F002030093009BCB68C3F39C
:103250000223C3F107011A1D042928BF0421062AED
:1032600088BFDA1E4FF0FF3398BF00228B40DB434C
:1032700003F0050393401B01DBB280F80B334FF4DE
:10328000006303601F4B2048DB68C3F30223C3F1D4
:1032900007011A1D042928BF0421062A88BFDA1E47
:1032A0004FF0FF3398BF00228B40DB4303F0050350
:1032B00093401B01DBB280F80C334FF48053036062
:1032C000104B1148DB68C3F30223C3F107011A1D39
:1032D000042928BF0421062A88BFDA1E4FF0FF33D5
:1032E00098BF00228B40DB4303F0050393401B0192
:1032F000DBB280F838334FF08073436002B0704720
:103300000044025800ED00E000E100E02DE9F04F3C
:10331000CE4B93B00024CE48DFF84CB30125119476
:103320000CA9089402260E940B94DFF840A3DFF852
:103330004093C84FDFF83C83CDE90F44CDE9094401
:10334000D3F8E02042F00202C3F8E020D3F8E020F6
:1033500002F002020792079AD3F8E02042F04002FE
:10336000C3F8E020D3F8E02002F040020692069A6B
:10337000D3F8E02042F00802C3F8E020D3F8E020C0
:1033800002F008020592059AD3F8E02042F001020B
:10339000C3F8E020D3F8E02002F001020492049A7E
:1033A000D3F8E02042F01002C3F8E020D3F8E02088
:1033B00002F010020392039AD3F8E02042F00402D4
:1033C000C3F8E020D3F8E02002F004020292029A4F
:1033D000D3F8E02042F08002C3F8E020D3F8E020E8
:1033E00002F080020192019AD3F8E02042F020021C
:1033F000C3F8E020D3F8E03003F020030093009BF3
:10340000954B83614FF0D163CBF81830934BCAF8DA
:1034100018304FF44023C9F818304FF00053BB6107
:103420004FF4C003C8F8183040F20243CDE90C3520
:1034300000F036FF30220A2358460DEB02010C92B1
:10344000119310940D96CDE90E4400F029FF4FF42E
:10345000D16258460CA90C924FF4005BCDE90D5493
:10346000CDE90F4400F01CFF4AF230120CA950467F
:103470000C92CDE90D54CDE90F4400F011FF0CA9D9
:1034800048461094CDE90CB400F00AFF0A230CA9B9
:10349000734811934FF48063CDE90D640C93CDE92B
:1034A0000F4400F0FDFE4FF400730CA96C480C9320
:1034B0000D94109400F0F4FE4FF482630CA938468A
:1034C0000D960C9303230E930923CDE90F4411931A
:1034D00000F0E6FE08230CA950460C93CDE90D54EC
:1034E000CDE90F4600F0DCFE0C2348460CA94FF056
:1034F00005090C93CDE90D54CDE90F4400F0D0FE41
:1035000080230CA940460C93CDF84490CDE90D647E
:10351000CDE90F4400F0C4FE4FF400630CA9384617
:103520000C930D96CDF844901094CDE90E4400F024
:10353000B7FE0CA93846CDF830B0CDE90D54CDE931
:103540000F4400F0ADFE60230CA940460C930D958E
:103550001094CDE90E4400F0A3FE424A4FF470638C
:10356000926893FAA3F322F47062002B00F0AB8010
:10357000B3FA83F3062101FA03F3134339498B604D
:10358000F023CA6893FAA3F322F0F002002B00F0B4
:10359000A080B3FA83F3052101FA03F31343314901
:1035A000CB600F230A6993FAA3F322F00F02002BDA
:1035B00000F08D80B3FA83F3042101FA03F313437F
:1035C00028490B610F234A6993FAA3F322F00F02F3
:1035D000002B7AD0B3FA83F3072101FA03F32149D0
:1035E00013430024042240F2011601254B6108A870
:1035F0000A94ADF82C608DF82E50CDE9082400F027
:1036000055FD2023ADF82C600DEB030008938DF8D9
:103610002E50CDE9094400F049FD4FF4807308A80D
:10362000ADF82C6008938DF82E50CDE9094400F0D8
:103630003DFD4FF4805308A80A94ADF82C608DF836
:103640002E50CDE9083400F031FD15E00044025859
:10365000000C02580014025800000204000038A1B7
:1036600000000258000400580010025800180258C8
:1036700000080258001C025817481849C468184A24
:1036800024F03004174BC460CC6824F44064CC6050
:10369000D46824F44034D460DC6824F04074DC60E6
:1036A000046824F030040460086820F44060086076
:1036B000116821F4403111601A6822F040721A60DA
:1036C00013B0BDE8F08F062357E7072387E70423ED
:1036D00075E7052362E700BF00180258001402587E
:1036E00000100258001C02580368B3F1804F00D04C
:1036F000704702F00FBA00BFFEE700BFFEE700BF51
:10370000FEE700BFFEE700BFFEE700BF704700BF57
:10371000704700BF704700BF014802F02DBF00BFD7
:1037200070050024014802F027BF00BF10060024E6
:10373000014804F08DB900BF380A0024704700BF6B
:10374000704700BF704700BF014804F081B900BF57
:1037500048090024014804F07BB900BF9409002403
:103760000B4B00220F216FF0010010B4D3F8F4408E
:1037700083B044F00204C3F8F440D3F8F43003F00B
:1037800002030193019B03B05DF8044B02F034B9CE
:10379000004402583C4B026870B59A428CB04FF01E
:1037A0000004CDE90644CDE908440A9401D00CB0E8
:1037B00070BD364B0B2536480226D3F8D82042F48C
:1037C0000042C3F8D820D3F8D82002F40042009277
:1037D000009AD3F8D82042F48032C3F8D820D3F826
:1037E000D82002F480320192019AD3F8D82042F412
:1037F0000032C3F8D820D3F8D82002F40032029265
:10380000029AD3F8E02042F00402C3F8E020D3F893
:10381000E02002F004020392039AD3F8E02042F081
:103820000202C3F8E020D3F8E02002F00202049282
:10383000049AD3F8E02042F00102C3F8E0203222DB
:10384000D3F8E0300A9503F00103059302230599AC
:1038500006A9CDE9062301F0D7FE4FF4705306A95F
:103860000C48069309940A95CDE9076401F0CCFE53
:10387000862306A90848079606930A95CDE90844C9
:1038800001F0C2FE0CB070BD00800240004402583E
:10389000000802580004025800000258000000000E
:1038A00045490023026810B58A428AB0CDE9043345
:1038B000CDE90633089330D0404B9A4201D00AB08C
:1038C00010BD3F4A3F49136D23F0405313650B6809
:1038D0000133012B0B6059D0394B092404A93A4814
:1038E000D3F8E02042F00202C3F8E020D3F8E03041
:1038F000089403F002039FED2C7B0393039B8DED53
:10390000047B01F081FE00220521142002F074F8EE
:10391000142002F0AFF80AB010BD294A2949136DEE
:1039200023F0405313650B680133012B0B6020D04B
:10393000234B092404A92548D3F8E02042F0800253
:10394000C3F8E020D3F8E030089403F080039FED43
:10395000187B0193019B8DED047B01F055FE002245
:103960000521132002F048F8132002F083F80AB072
:1039700010BDD2F8EC3043F48073C2F8EC30D2F8CA
:10398000EC3003F480730093009BD1E7D2F8EC3065
:1039900043F48073C2F8EC30D2F8EC3003F4807357
:1039A0000293029B98E700BF600000000200000045
:1039B000006000000200000000A0004000A40040E1
:1039C000004402582C0A002400040258001C02582B
:1039D000194A08B50368934218D0184A934200D098
:1039E00008BD174A1368013B136033B9154AD2F872
:1039F000EC3023F48073C2F8EC301348602101F0FE
:103A00002BFF1420BDE8084002F042B80C4A1368AE
:103A1000013B136033B90B4AD2F8EC3023F48073C6
:103A2000C2F8EC3009484FF4C04101F015FF1320F3
:103A3000BDE8084002F02CB800A0004000A40040FF
:103A40002C0A00240044025800040258001C0258AA
:103A5000694B026870B59A428EB04FF00004CDE910
:103A60000844CDE90A440C9401D00EB070BD634BFC
:103A70000E2663480225D3F8E42042F00802C3F87A
:103A8000E420D3F8E42002F008020092009AD3F870
:103A9000E02042F00202C3F8E020D3F8E02002F078
:103AA00002020192019AD3F8E02042F00802C3F822
:103AB000E020D3F8E02002F008020292029AD3F844
:103AC000E02042F01002C3F8E020D3F8E02002F03A
:103AD00010020392039AD3F8E02042F00102C3F8E7
:103AE000E020D3F8E02002F001020492049AD3F817
:103AF000E02042F04002C3F8E020D3F8E02002F0DA
:103B000040020592059AD3F8E02042F08002C3F803
:103B1000E020D3F8E02002F080020692069AD3F863
:103B2000E02042F00402C3F8E02040F20332D3F870
:103B3000E0300C9603F0040307930223079908A9C9
:103B4000CDE9082301F060FD492308A92D48089319
:103B50000B940C96CDE9095401F056FD4BF6030386
:103B600008A929480893CDE90954CDE90B4601F08D
:103B70004BFD4FF4807308A9244808930D23CDE929
:103B80000954CDE90B4301F03FFD4FF4814308A9EF
:103B90001F480893CDE90954CDE90B4601F034FDE7
:103BA00048F6087308A91B480893CDE90954CDE9E4
:103BB0000B4601F029FDC02308A917480893CDE959
:103BC0000954CDE90B4601F01FFD582308A90F4801
:103BD0000893CDE90954CDE90B4601F015FD1022FB
:103BE000092308A90B480C93CDE90825CDE90A441F
:103BF00001F00AFD0EB070BD0010005000440258E4
:103C000000040258000C025800100258000002582C
:103C100000180258001C0258000802588C49002362
:103C200002682DE9F0438A4291B0CDE90A33CDE92B
:103C30000C330E935ED0874B9A4202D011B0BDE890
:103C4000F083854A8549D36C23F03003D3640B6835
:103C50000133012B0B6000F0EE807F4B40F6030038
:103C600002210324D3F8D42009250227002642F498
:103C70000022C3F8D420D3F8D42002F40022079203
:103C8000079AD3F8E02042F04002C3F8E020D3F8CE
:103C9000E02002F040020892089AD3F8E02042F0B7
:103CA0002002C3F8E020D3F8E0300D9403F02003A5
:103CB0000E95CDE90A0109930AA96948099B01F00B
:103CC000A3FC4FF4A0530AA965480E94CDE90A3726
:103CD000CDE90C6401F098FC41F20F030AA9614898
:103CE0000B970E950A93CDE90C6401F08DFC11B091
:103CF000BDE8F083584A5949D36C23F03003D364AC
:103D00000B680133012B0B6000F08880524B4FF49D
:103D1000007002210324D3F8D4204FF009080226B2
:103D2000002542F480420A274FF00409C3F8D4204A
:103D3000D3F8D42002F480420192019AD3F8E02013
:103D400042F04002C3F8E020D3F8E02002F0400245
:103D50000292029AD3F8E02042F00802C3F8E02071
:103D6000D3F8E02002F008020392039AD3F8E0208F
:103D700042F01002C3F8E020D3F8E02002F0100275
:103D80000492049AD3F8E02042F00202C3F8E02043
:103D9000D3F8E0300D9403F00203CDF83880CDE97C
:103DA0000A0105930AA92E48059B01F02DFCB023BA
:103DB0000AA92D480E97CDE90A36CDE90C5401F039
:103DC00023FC0AA92948CDF83880CDE90A96CDE927
:103DD0000C5401F019FC40230AA921480A93CDE9AB
:103DE0000B65CDE90D4701F00FFC4FF460530AA9B4
:103DF0001D480A93CDF838800D94CDE90B6501F08C
:103E000003FC0AA91A48CDF828900B960E97CDE925
:103E10000C5401F0F9FB11B0BDE8F083D2F8D430B6
:103E200043F40013C2F8D430D2F8D43003F40013B2
:103E30000093009B6AE7D2F8D43043F40013C2F831
:103E4000D430D2F8D43003F400130693069B04E771
:103E50000050005200A0005200440258300A0024D2
:103E60000018025800140258000C025800100258A2
:103E700000040258264A0368934210B584B007D064
:103E8000244A93422BD0244A934210D004B010BD50
:103E9000224BD3F8E82042F01002C3F8E820D3F810
:103EA000E83003F010030193019B04B010BD1B4BDD
:103EB000A22000220521D3F8EC4044F00074C3F89E
:103EC000EC40D3F8EC3003F000730393039B01F054
:103ED00093FDA22004B0BDE8104001F0CBBD0F4B14
:103EE000A12000220521D3F8EC4044F08074C3F8EF
:103EF000EC40D3F8EC3003F080730293029B01F0A6
:103F00007BFDA12004B0BDE8104001F0B3BD00BFAF
:103F10000010004000E0004000E40040004402586F
:103F2000354A0368934210B588B004D0334A9342AF
:103F30002ED008B010BD32490446324BD1F850247F
:103F400022F00702C1F850241A686AB9D1F8F004C7
:103F500001F5806140F48000C1F8F000D1F8F01064
:103F600001F48001009100990132402002211A6081
:103F700006239FED1D7BCDE9020102A9224806938D
:103F80008DED047B01F040FB23681C4A9342D0D1A5
:103F90001B491C4BD1F8502422F00702C1F85024D1
:103FA0001A686AB9D1F8F00401F5806140F4800024
:103FB000C1F8F000D1F8F01001F4800101910199ED
:103FC0000132062111481A6000220023069102A93D
:103FD0009FED077BCDE904238DED027B01F014FBFF
:103FE00008B010BDAFF3008000000000000000002A
:103FF000C0030000020000000458014024580140A2
:1040000000400258340A00240010025800140258DC
:104010000F2801D90120704730B501468BB000222E
:1040200004461C2001F0E8FC1C2001F023FD1B4B82
:104030001B4A694602A81460D3F8E82042F0010246
:10404000C3F8E820D3F8E83003F001030193019BA3
:1040500000F03CFF079BC3B900F0F0FE114B0022BB
:10406000114C4FF08045A3FB001340F2E73120468E
:1040700025609B0CA260013BC4E90312636003F05E
:10408000FBFA30B101200BB030BD00F0D7FE40008C
:10409000E4E7204603F0B2FBF5E700BF0044025816
:1040A0001C00002483DE1B43380A0024034630B47E
:1040B000007B00284DD01A68002A75D100205A686C
:1040C0000AB3597B4FF0B04511F0010FD5F890407D
:1040D00014BF1443944311F0020FC5F890404FF001
:1040E000B044D4F8941014BF11439143C4F8941011
:1040F000997B41B1022900F09680032900F08A8063
:1041000001297DD001209A68002A4BD0597B4FF0BD
:10411000B04511F0010FD5F8A04014BF14439443EB
:1041200011F0020FC5F8A0404FF0B044D4F8A4102D
:1041300014BF11439143C4F8A4109B7B93B3022B8B
:1041400054D0032B00F0A380012B00F096800120B7
:1041500028E04FF0B0421D68D2F8801021EA050136
:10416000C2F88010D2F890105C6821EA0401C2F80D
:1041700090109968D2F8A03023EA0103C2F8A03069
:10418000D2F8843023EA0503C2F88430D2F89430A0
:1041900023EA0403C2F89430D2F8A43023EA0103DE
:1041A000C2F8A43030BC7047597B4FF0B044CD0703
:1041B000D4F880004CBF1043904311F0020FC4F8B4
:1041C00080004FF0B040D0F8841014BF11439143E9
:1041D000C0F88410997B00293FF470AF022941D0C8
:1041E000032935D0012928D0012068E74FF0B043DA
:1041F000196C21EA02011964596C0A435A64D1E727
:104200004FF0B0414C6A24EA02044C620C6A22432B
:104210000A6278E74FF0B0410C6A14430C624C6AB2
:1042200022434A626FE74FF0B0410C6A24EA02046D
:104230000C624C6A22434A6265E74FF0B0410020AD
:104240004C6824EA02044C600C6822430A6036E79A
:104250004FF0B04100200C6814430C604C682243BE
:104260004A602CE74FF0B04100200C6824EA0204B9
:104270000C604C6822434A6021E74FF0B043596C10
:1042800021EA02015964196C0A431A648AE74FF063
:10429000B043196C11431964596C0A435A6481E79D
:1042A0002DE9F04F0C6894FAA4F2B2FA82F234FAD3
:1042B00002F367D04FF0010C6FEA040E19E007FB20
:1042C00007F3C6680F6903EB430903FB07F726EA08
:1042D00009086FEA090B47EA0807C760076803FB8C
:1042E00005F507EA0B032B430360013234FA02F3AE
:1042F00048D00CFA02F313EA0407F6D04D6807FB26
:1043000007F36E1E03EB4309012E6FEA090BD6D8A3
:10431000D0F808A0022D8E682AEA090A06FB03F8E5
:10432000CE6848EA0A0806FB04FA0E69C0F808805D
:10433000D0F804800EEA080848EA0A08C0F80480A9
:104340004FEA1728D0F80CA008FB08F82AEA090A57
:1043500006FB03F908FB08F849EA0A09C0F80C90C3
:10436000BCD1FF2F11D803FB03F74E69D0F8208092
:1043700006FB07F9C7EB071728EA070747EA09070B
:104380000762ABE70020BDE8F08F4E69476A06FB85
:1043900008F9C8EB081827EA080747EA090747623F
:1043A0009CE700BF174B0246984220D0164B9B68F3
:1043B000DB4303F001035BB14868144B10B494680D
:1043C00040B9096823405DF8044B0B439360704784
:1043D0000120704723400C68034300202343D1E9A8
:1043E000024123435DF8044B0B4393607047084838
:1043F000A3F5007380689B680343DB4303F001036C
:10440000D9E700BF0023024000600258E030C0FF3F
:1044100000200240826812F0010216D103461548BE
:10442000834210B4DC6812D088680A6802431248DC
:1044300020400243DA601A690020496822F0704285
:104440005DF8044B0A431A617047012070470B481E
:1044500020400C68082C02D00C3C102C05D98C682C
:104460002043044C1043E060E5E7054A52F824205D
:10447000F5E700BF00600258E3BFFFFFE7BFFFFFA3
:104480000CB100088268D3071AD403460D4AC068ED
:1044900010B402404C68086802430CB188680243BB
:1044A000C8680243D1E90401024300200A43DA60EC
:1044B0001A6B22F00F0222435DF8044B1A63704717
:1044C000012070471CC0F0FF5C498B6A03F00303B6
:1044D000012B30B400F0AA80022B00F0A080002B4A
:1044E00000F0928000220023544DC0E90033836025
:1044F000A96A2C6BEB6AC1F3051113F0010302D01A
:104500006B6BC3F3CC0300297CD0C4F308040134E3
:1045100007EE104A494CE56AED0323D507EE903AC1
:10452000F8EEC76A246BF8EEE74A07EE902A9FED93
:10453000445AC4F34624F8EEE75A07EE901AE4EE24
:10454000856A0134F8EEE77A85EEA76A07EE904AAD
:10455000F8EEE77A26EE266AC6EE276AFCEEE66AF1
:10456000C0ED006A354CE56AAD0323D507EE903AFD
:10457000F8EEC76A246BF8EEE74A07EE902A9FED43
:10458000305AC4F30644F8EEE75A07EE901AE4EE08
:10459000856A0134F8EEE77A85EEA76A07EE904A5D
:1045A000F8EEE77A26EE266AC6EE276AFCEEE66AA1
:1045B000C0ED016A214CE56A6D0323D507EE902A10
:1045C000B8EEC77A9FED1E5AF8EEE76A07EE901A2A
:1045D000B8EEE76A07EE903A236BF8EEE77AC6EE9C
:1045E000865AC3F306630133A7EE857A07EE903A45
:1045F000F8EEE77A65EE876A86EEA77ABCEEC77AB0
:1046000080ED027A30BC70470A6812F004023FF471
:104610006AAF0B680B4AC3F3C103DA4063E70A6869
:1046200012F400323FF45FAF074A5CE70A68074BB9
:1046300012F4807218BF1A4655E700BF00440258B2
:10464000000000390090D00340787D0100093D0052
:104650005C498B6A03F00303012B30B400F0AA809D
:10466000022B00F0A080002B00F09280002200239B
:10467000544DC0E900338360A96AAC6BEB6AC1F3A7
:10468000053113F0100302D0EB6BC3F3CC03002908
:104690007CD0C4F30804013407EE104A494CE56AA3
:1046A0002D0323D507EE903AF8EEC76AA46BF8EE17
:1046B000E74A07EE902A9FED445AC4F34624F8EEE9
:1046C000E75A07EE901AE4EE856A0134F8EEE77ACD
:1046D00085EEA76A07EE904AF8EEE77A26EE266A9C
:1046E000C6EE276AFCEEE66AC0ED006A354CE56A64
:1046F000ED0223D507EE903AF8EEC76AA46BF8EE08
:10470000E74A07EE902A9FED305AC4F30644F8EECC
:10471000E75A07EE901AE4EE856A0134F8EEE77A7C
:1047200085EEA76A07EE904AF8EEE77A26EE266A4B
:10473000C6EE276AFCEEE66AC0ED016A214CE56A26
:10474000AD0223D507EE902AB8EEC77A9FED1E5A28
:10475000F8EEE76A07EE901AB8EEE76A07EE903ACD
:10476000A36BF8EEE77AC6EE865AC3F3066301330D
:10477000A7EE857A07EE903AF8EEE77A65EE876A5B
:1047800086EEA77ABCEEC77A80ED027A30BC70471D
:104790000A6812F004023FF46AAF0B680B4AC3F3D5
:1047A000C103DA4063E70A6812F400323FF45FAFF6
:1047B000074A5CE70A68074B12F4807218BF1A4672
:1047C00055E700BF00440258000000390090D003B4
:1047D00040787D0100093D00624A936A03F00303BB
:1047E000012B10B400F0A580022B00F09B80002B61
:1047F00000F08C805B4C0023C0E900338360A26A28
:10480000216CE46AC2F30552E4057CD506EE903AC9
:10481000544C646CC4F3CC0407EE104A002A72D0E6
:10482000002B70D04F4BC1F30801DC6A013107EE59
:10483000901A61021FD506EE102AF8EEE64AF8EE4D
:10484000C73A1B6CB8EEC66A9FED474AF8EEE75AC6
:10485000C3F3462384EE865A013306EE103AE3EEA4
:10486000845AB8EEC66A25EE255AC5EE065AFCEE05
:10487000E55AC0ED005A3B4BD96A0C021FD506EE33
:10488000102AF8EEE64AF8EEC73A1B6CB8EEC66A94
:104890009FED354AF8EEE75AC3F3064384EE865A95
:1048A000013306EE103AE3EE845AB8EEC66A25EEFE
:1048B000255AC5EE065AFCEEE55AC0ED015A294BC1
:1048C000D96AC9011FD506EE102AF8EEE66AB8EEDD
:1048D000C77A1B6CB8EEC65ADFED235AF8EEE77ABA
:1048E000C3F3066386EE856A0133E7EE257A07EEA9
:1048F000103AB8EEC77A66EE276AC6EE877AFCEE03
:10490000E77AC0ED027A5DF8044B704713685907E7
:104910007FF570AF1268154BC2F3C102D34006EEAB
:10492000903A0CE013689C037FF564AFDFED106AEA
:1049300005E01368DB057FF55DAFDFED0E6A002251
:10494000084BC0E9002282609A6A196CDB6AC2F3E4
:10495000055213F4807307EE103A4FF001033FF451
:104960005DAF55E700440258000000390090D003C5
:1049700040787D0100093D00704AC0F30421030E18
:1049800052FA80F28B40D2F84C241340CB4010B541
:1049900040EA03406A4C84B0A0420CD03DD8694B39
:1049A000984200F089801FD9674B984212D003F5D6
:1049B0007D4398420AD1654B186810F0005003D02F
:1049C00001A8FFF709FF029804B010BDA3F58033DA
:1049D000984254D15D4B186810F00060F4D001A8E3
:1049E000FFF736FE0298EFE7A3F54073984246D1F1
:1049F000564B1B6903F03803182B43D8DFE803F04C
:104A00008B424242424242429B42424242424242E4
:104A1000924242424242424294004D4B984216D04A
:104A20000DD94C4B984203D003F54073984226D1E0
:104A3000464B186FC0F34000C00304B010BDA3F58F
:104A40008033984210D003F57D43984208D13F4A05
:104A5000414B106810F4807018BF184604B010BDA8
:104A6000A3F5803398420AD1384B186810F004003F
:104A7000AAD01B683948C3F3C103D840A4E700207B
:104A800004B010BD0020314B99699A69DB69C1F30C
:104A9000032102F00F02C3F30213314C615CA25CEC
:104AA00001F01F01E35C02F01F02C84003F01F0386
:104AB000D040D84004B010BD244B1B6903F038032C
:104AC000182B0ED8DFE803F0200D0D0D0D0D0D0D88
:104AD000350D0D0D0D0D0D0D1E0D0D0D0D0D0D0DCD
:104AE00019000020194B99699A69DB69C1F3032108
:104AF00002F00F02C3F30223CFE701A8FFF7E4FCA3
:104B00000198EFE71748EDE7104B14481B68C3F313
:104B1000C103D840E6E70D4B10481B68C3F3C1033F
:104B2000D840B0E70F48AEE701A8FFF7CDFC0198E9
:104B3000A9E70948D6E70848A5E700BF00400258A2
:104B4000080302070803000708030107004402588E
:104B5000080304070800050700093D000090D00382
:104B600050B1000840787D01014B1860704700BFCC
:104B7000240000243B4B30B49A6A9C6ADD6A14F42A
:104B80007C7F596BC4F3051038D0C1F3CC0105F01C
:104B9000010502F0030205FB01F1012A07EE901A5C
:104BA000B8EEE77A02D0022A4ED04AB307EE900A56
:104BB0009FED2D5AF8EEE77A1B6BC5EE276ADFED05
:104BC0002B5AC3F3080307EE903AB7EE006AF8EEEB
:104BD000E77AE7EE257A77EE867A66EEA76A214BCA
:104BE0001B6BC3F34623013307EE903AB8EEE77A26
:104BF000C6EE877AFCEEE77A17EE900A30BC704773
:104C00001A68920627D5196807EE900A184AF7EE37
:104C1000005A1B6BC1F3C101F8EEE77A9FED135AFE
:104C2000C3F30803CA4006EE903A06EE102AF8EEE7
:104C3000E66AB8EEC66AE7EE056A86EE277A76EE91
:104C4000A56A66EE876ACAE707EE900A9FED095AE1
:104C5000F8EEE77AB0E707EE900A9FED075AF8EE14
:104C6000E77AA9E7004402580024744A000000399A
:104C70000090D00320BCBE4B0024744C474A1369FB
:104C800003F03803102B04D0182B0DD01BB144486F
:104C9000704744487047136899064AD513684248DC
:104CA000C3F3C103D8407047936A30B4946AD56A9D
:104CB00014F47C7F516BC4F3051038D0C1F3CC01E0
:104CC00005F0010503F0030305FB01F1012B07EEDD
:104CD000901AB8EEE77A02D0022B2CD093B307EEED
:104CE000900A9FED325AF8EEE77A136BC5EE276A09
:104CF000DFED2F5AC3F3080307EE903AB7EE006AD0
:104D0000F8EEE77AE7EE257A77EE867A66EEA76A1E
:104D1000224B1B6BC3F34623013307EE903AB8EEE8
:104D2000E77AC6EE877AFCEEE77A17EE900A30BC97
:104D300070471D48704707EE900A9FED1E5AF8EE27
:104D4000E77AD2E713689B0620D5146807EE900A2D
:104D50001549F7EE005A136BC4F3C104F8EEE77A75
:104D60009FED135AC3F30803E14006EE903A06EEB6
:104D7000101AF8EEE66AB8EEC66AE7EE056A86EE45
:104D8000277A76EEA56A66EE876AC1E707EE900A93
:104D90009FED095AF8EEE77AA7E700BF00440258F2
:104DA00000093D0040787D010090D0030024744A42
:104DB0000000003920BCBE4B0024744C184A38B5A2
:104DC000136903F03803102B1AD0182B23D0CBB162
:104DD0001448134B14499A699B69C2F30322134C7C
:104DE00003F00F03124D8A5CCB5C02F01F0220FA25
:104DF00002F203F01F0022FA00F02A60206038BDA2
:104E00000C48E6E713689B0608D513680A48C3F305
:104E1000C103D840DDE7FFF7ADFEDAE70648D8E783
:104E20000044025800093D00D4B1000828000024C5
:104E30002400002440787D010090D0031C4A38B53E
:104E4000136903F03803102B21D0182B2AD003B399
:104E50001848174A18499369184CC3F30323184D8F
:104E6000CB5C03F01F03D840936903F00F03286065
:104E7000CB5C03F01F0320FA03F32360D269C2F373
:104E80000212885C00F01F0023FA00F038BD0D48C4
:104E9000DFE713689B0608D513680B48C3F3C1030B
:104EA000D840D6E7FFF766FED3E70748D1E700BF53
:104EB0000044025800093D00D4B100082800002435
:104EC0002400002440787D010090D003134B3F2242
:104ED00002601A6902F0070242609A6902F4706285
:104EE00082609A6902F00F02C2609A6902F0700251
:104EF0000261DA6902F070024261DA6902F4E0628A
:104F000082611B6A10B403F07003054CC36123680F
:104F10005DF8044B03F00F030B6070470044025828
:104F2000002000524F4A70B4916A956AD66A15F40F
:104F30007C3FC5F30533D46B5DD0C4F3CC04C6F31A
:104F4000001601F0030106FB04F4012907EE904A64
:104F5000B8EEE77A03D0022976D0002950D007EEC8
:104F6000903A9FED415AF8EEE77A936BC5EE276AC7
:104F7000DFED3E5AC3F3080307EE903AB7EE006A3E
:104F8000F8EEE77AE7EE257A77EE867A66EEA76A9C
:104F9000344AB7EE006A936BC3F3462307EE903AA8
:104FA000F8EEE77A70BC77EE867A86EEA77ABCEEEA
:104FB000C77A80ED007A936BC3F3064307EE903A0D
:104FC000F8EEE77A77EE867A86EEA77ABCEEC77AB5
:104FD00080ED017A936BC3F3066307EE103AB8EEE7
:104FE000C77A37EE067AC6EE877AFCEEE77A17EED6
:104FF000903A8360704770BCC0E9003383607047AB
:105000001168890627D5146807EE903A1849F7EE1B
:10501000005A936BC4F3C102F8EEE77A9FED135A7E
:10502000C3F30803D14006EE903A06EE101AF8EEEC
:10503000E66AB8EEC66AE7EE056A86EE277A76EE8D
:10504000A56A66EE876AA3E707EE903A9FED095AD4
:10505000F8EEE77A89E707EE903A9FED075AF8EE07
:10506000E77A82E7004402580024744A00000039BD
:105070000090D00320BCBE4B0024744C4F4A70B447
:10508000916A956AD66A15F07C7FC5F30553546C16
:105090005DD0C4F3CC04C6F3002601F0030106FB87
:1050A00004F4012907EE904AB8EEE77A03D002290A
:1050B00076D0002950D007EE903A9FED415AF8EE95
:1050C000E77A136CC5EE276ADFED3E5AC3F3080397
:1050D00007EE903AB7EE006AF8EEE77AE7EE257A47
:1050E00077EE867A66EEA76A344AB7EE006A136CEA
:1050F000C3F3462307EE903AF8EEE77A70BC77EEFA
:10510000867A86EEA77ABCEEC77A80ED007A136CB9
:10511000C3F3064307EE903AF8EEE77A77EE867A25
:1051200086EEA77ABCEEC77A80ED017A136CC3F3E2
:10513000066307EE103AB8EEC77A37EE067AC6EE87
:10514000877AFCEEE77A17EE903A8360704770BC7E
:10515000C0E90033836070471168890627D5146859
:1051600007EE903A1849F7EE005A136CC4F3C102E7
:10517000F8EEE77A9FED135AC3F30803D14006EE29
:10518000903A06EE101AF8EEE66AB8EEC66AE7EE56
:10519000056A86EE277A76EEA56A66EE876AA3E749
:1051A00007EE903A9FED095AF8EEE77A89E707EEA5
:1051B000903A9FED075AF8EEE77A82E700440258EA
:1051C0000024744A000000390090D00320BCBE4B7C
:1051D0000024744C4F4A70B4916A956AD66A15F4EB
:1051E0007C7FC5F30513546B5DD0C4F3CC0406F08B
:1051F000010601F0030106FB04F4012907EE904AC1
:10520000B8EEE77A7FD0022976D0002950D007EE99
:10521000903A9FED415AF8EEE77A136BC5EE276A94
:10522000DFED3E5AC3F3080307EE903AB7EE006A8B
:10523000F8EEE77AE7EE257A77EE867A66EEA76AE9
:10524000344AB7EE006A136BC3F3462307EE903A75
:10525000F8EEE77A70BC77EE867A86EEA77ABCEE37
:10526000C77A80ED007A136BC3F3064307EE903ADA
:10527000F8EEE77A77EE867A86EEA77ABCEEC77A02
:1052800080ED017A136BC3F3066307EE103AB8EEB4
:10529000C77A37EE067AC6EE877AFCEEE77A17EE23
:1052A000903A8360704770BCC0E9003383607047F8
:1052B00011688906ABD5146807EE903A1849F7EEE5
:1052C000005A136BC4F3C102F8EEE77A9FED135A4C
:1052D000C3F30803D14006EE903A06EE101AF8EE3A
:1052E000E66AB8EEC66AE7EE056A86EE277A76EEDB
:1052F000A56A66EE876AA3E707EE903A9FED095A22
:10530000F8EEE77A89E707EE903A9FED075AF8EE54
:10531000E77A82E7004402580024744C0000003908
:105320000090D00320BCBE4B0024744AB0F5807FAF
:1053300000B585B057D0B0F5806F1AD0B0F5006FCA
:1053400000F0AD80B0F5805F60D0B0F5002F00F0C8
:10535000BC80B0F5803F00F0E580B0F5804F00F0F4
:10536000FA80B0F5004F00F0BF80002005B05DF876
:1053700004FB984A936D03F46003B3F5800F00F0CB
:1053800089801ED9B3F5C00F29D0B3F5000FECD139
:10539000D36C116803F04053490702D5002B00F08D
:1053A000D4808C4A1268D00503D5B3F1805F00F039
:1053B0000E81884A12689103D7D5B3F1005FD4D12A
:1053C000A4E0002B3FD0B3F5001FCED1106810F041
:1053D000006005D001A8FFF7A5FD019800E07E4818
:1053E00005B05DF804FB7B4B1B6D03F00703042B3A
:1053F000BBD801A252F823F06554000859540008A4
:1054000075540008DF53000871540008714A136D89
:1054100003F4E043B3F5005F3CD035D9B3F5405F0A
:10542000DDD0B3F5804FA0D1D36C126803F04053A8
:105430005007B6D5002BB4D1664B68481B68C3F340
:10544000C103D840CCE7106810F00070C8D001A8A4
:10545000FFF7C0FE0298C3E75E4B186810F00060CB
:10546000BED0B7E75B4B186810F00070B8D0EEE71D
:10547000584A8DE7574B186810F00050B0D001A87B
:10548000FFF7FCFD0198ABE7002BDCD0B3F5805FA4
:105490009CD06AE7106810F00050A1D0EFE74D4AA9
:1054A000936D03F0E063B3F1007FF3D005D8002BD8
:1054B000C9D0B3F1807F89D057E7B3F1407F8ED058
:1054C000B3F1806F3FF464AF4FE7424A936D03F44A
:1054D0004033B3F5803F1BD0B3F5003F3FF458AFE6
:1054E000002B7FF442AF71E73A4A136D03F040534B
:1054F000B3F1805FA7D0B3F1005F77D0002B7FF4CA
:1055000034AF106810F400303FF46AAF344867E7F6
:10551000106810F000503FF463AF01A8FFF7AEFD34
:1055200003985DE72B4BDA6CD2039CD5186810F01A
:1055300000603FF455AF01A8FFF7F4FC03984FE774
:10554000106810F004003FF44BAF13682348C3F316
:10555000C103D84044E71F4A936D03F0E043B3F121
:10556000405FEDD010D8B3F1805F3FD0B3F1005F62
:1055700018D1184B186810F000503FF431AF01A853
:10558000FFF77CFD02982BE7B3F1804F19D0B3F100
:10559000A04F7FF4EAAE0F4B186810F400303FF4D0
:1055A0001FAFB3E7002B7FF4E0AEFFF707FC094B1A
:1055B0000C4A1B6AC3F30213D35C03F01F03D840E9
:1055C0000EE7044B186810F480703FF409AF0648EA
:1055D00006E700BF004402580080BB000090D003E3
:1055E00040787D01D4B1000800093D00054B1868E2
:1055F00010F000603FF4F4AE01A8FFF793FC0298AE
:10560000EEE600BF004402582DE9F04F0C6883B06D
:10561000002C00F0A3804FF0000C864F634601225F
:105620009A4012EA040E00F092804D6805F00309DA
:1056300009F1FF36012E40F29480B9F1030F40F0DA
:10564000CE8009FA0CF26FEA0208066815F4403FB2
:1056500006EA080642EA0602026078D0D7F8F4208B
:1056600023F0030803F003090F2642F0020208F1B9
:10567000B0484FEA8909C7F8F42008F58068D7F8E0
:10568000F42006FA09F602F002020192019AD8F813
:10569000082022EA0602684EB04224D006F5806651
:1056A000B04200F0A880654EB04200F0A980644E80
:1056B000B04200F09B80634EB04200F0AB80624E7F
:1056C000B04200F0AC80614EB04200F09E80604E6F
:1056D000B04200F0A9805F4EB0420CBF09260A26F6
:1056E00006FA09F63243C8F808204FF0B04215F424
:1056F000801F6FEA0E0612684FF0B0480CBF3240B0
:105700004EEA020215F4001FC8F80020D8F8042061
:105710004FF0B0480CBF32404EEA020215F4003F91
:10572000C8F80420D8F884204FF0B0480CBF3240AD
:105730004EEA0202ED034FF0B045C8F88420D8F8D5
:10574000802054BF32404EEA0202C5F88020013367
:105750000CF1020C34FA03F27FF461AF03B0BDE840
:10576000F08F4FF00308866808FA0CF826EA080A5A
:10577000CE686FEA080806FA0CF646EA0A06866062
:10578000C5F30016D0F804A09E402AEA0202324374
:105790004260C268B9F1020F8E6802EA080206FA96
:1057A0000CF646EA020609FA0CF2C6607FF44DAF29
:1057B0004FEAD30903F0070B0F2600EB89094FEAE4
:1057C0008B0BD9F820A006FA0BF62AEA060A0E6916
:1057D00006FA0BF646EA0A06C9F8206035E74FF0EC
:1057E000030808FA0CF86FEA0808D2E7032606FA5D
:1057F00009F6324377E7012606FA09F6324372E7E3
:10580000022606FA09F632436DE7062606FA09F67D
:10581000324368E7042606FA09F6324363E70526B1
:1058200006FA09F632435EE7072606FA09F632431E
:1058300059E700BF0044025800000258000802580F
:10584000000C0258001002580014025800180258A8
:10585000001C025800240258002900F0A0800023F8
:105860002DE9F04FDFF8589183B0DFF85881DFF869
:1058700058A1DFF858B14FF0010E0EFA03F212EA08
:10588000010C67D023F0030503F003040F26404505
:105890004D444FEA8404AF6806FA04F607EA0607A7
:1058A00001971BD0504516D058455AD03F4FB842AB
:1058B00061D03F4FB84263D03E4FB84256D03E4FC2
:1058C000B84267D03D4FB8426AD0DFF804E1704576
:1058D0005BD04FF00A0E0EFA04F400E00024019FA2
:1058E000A74219D14FF0B044D4F8807027EA0C07D2
:1058F000C4F88070D4F8847027EA0C07C4F8847068
:10590000676827EA0C076760276827EA0C072760A3
:10591000AC6824EA0604AC605D00032403F00706CB
:105920000F27AC400568B6002543B7400560DD0889
:1059300000EB85052E6A26EA07062E62C56825EA71
:105940000405C560456825EA02024260826822EAD1
:1059500004028260013331FA03F28CD103B0BDE856
:10596000F08F4FF0020E0EFA04F4B8E74FF0050E78
:105970000EFA04F4B3E74FF0030E0EFA04F4AEE7A8
:105980004FF0040E0EFA04F4A9E74FF0090E0EFAD8
:1059900004F4A4E74FF0060E0EFA04F49FE77047F4
:1059A0004FF0070E0EFA04F499E700BF000C0258FE
:1059B000001002580014025800180258001C025827
:1059C0000004005800000258000402580008025861
:1059D0000024025806494FF6FF0C0002054BCA6826
:1059E00000F4E06002EA0C0210430343CB6070470E
:1059F00000ED00E00000FA051B4BDB68C3F3022357
:105A000000B5C3F1070E03F1040CBEF1040F28BF6B
:105A10004FF0040EBCF1060F1AD9033B4FF0FF3CC8
:105A20000CFA03FC22EA0C024FF0FF3C00280CFAAF
:105A30000EFC21EA0C0101FA03F141EA02010ADB42
:105A400009010A4BC9B2034483F800135DF804FB53
:105A500000221346E8E700F00F000901044BC9B229
:105A6000034419765DF804FB00ED00E000E100E07E
:105A7000FCEC00E0002807DB012300F01F01034AD3
:105A800040098B4042F82030704700BF00E100E041
:105A900000280CDB4309012200F01F0004492033D9
:105AA000824041F82320BFF34F8FBFF36F8F7047C1
:105AB00000E100E010B50320124CFFF78BFFFFF769
:105AC000DDF8114B11499A699B69C2F3032203F077
:105AD0000F038A5CCB5C02F01F020D4903F01F0329
