:020000040800F2
:1000000000000524796E0008B1140008B714000838
:10001000BD140008C3140008C91400080000000043
:10002000000000000000000000000000B1690008AE
:10003000CF14000800000000016C0008896400086B
:10004000C96E0008C96E0008C96E0008C96E0008B4
:10005000C96E0008C96E0008C96E0008C96E0008A4
:10006000C96E0008C96E0008C96E0008C96E000894
:10007000C96E0008C96E0008C96E0008C96E000884
:10008000C96E0008C96E0008C96E0008DD140008BA
:10009000C96E0008C96E0008C96E0008C96E000864
:1000A000C96E0008C96E0008C96E0008C96E000854
:1000B000F1140008C96E0008C96E0008C96E000876
:1000C000C96E0008C96E0008C96E0008C96E000834
:1000D000C96E0008C96E0008C96E0008C96E000824
:1000E000C96E0008C96E000800000000C96E000853
:1000F000C96E0008C96E0008C96E0008C96E000804
:10010000C96E0008C96E0008C96E0008C96E0008F3
:10011000C96E0008C96E0008C96E0008C96E0008E3
:10012000C96E0008C96E0008C96E0008C96E0008D3
:10013000C96E0008C96E0008C96E0008C96E0008C3
:1001400000000000000000000000000000000000AF
:10015000C96E0008C96E0008C96E0008C96E0008A3
:10016000C96E0008C96E0008C96E0008C96E000893
:10017000C96E0008C96E0008C96E0008C96E000883
:10018000C96E0008C96E0008C96E0008C96E000873
:10019000C96E0008C96E0008C96E0008C96E000863
:1001A000C96E0008C96E0008C96E00080000000092
:1001B000C96E0008C96E0008C96E0008C96E000843
:1001C000C96E0008C96E00080000000000000000B1
:1001D0000000000000000000C96E000800000000E0
:1001E000000000000000000000000000000000000F
:1001F0000000000000000000C96E0008C96E000881
:10020000C96E0008C96E000800000000C96E000831
:10021000C96E0008C96E0008C96E0008C96E0008E2
:10022000C96E000800000000C96E00080000000050
:10023000C96E0008C96E000800000000C96E000801
:10024000C96E0008C96E0008C96E0008C96E0008B2
:10025000C96E0008C96E0008C96E0008C96E0008A2
:10026000C96E0008C96E0008C96E0008C96E000892
:10027000C96E0008C96E0008C96E000800000000C1
:10028000C96E0008C96E0008C96E0008C96E000872
:1002900000000000C96E0008C96E0008C96E0008A1
:1002A000C96E0008C96E0008C96E0008C96E000852
:1002B000C96E0008C96E0008C96E0008C96E000842
:0C02C000C96E0008C96E0008C96E000875
:1002D0000348044B834202D0034B03B118477047D5
:1002E0008400002484000024000000000548064B20
:1002F0001B1AD90F01EBA301491002D0034B03B124
:100300001847704784000024840000240000000087
:1003100010B5064C237843B9FFF7DAFF044B13B14D
:100320000448AFF300800123237010BD880000242F
:1003300000000000A874000808B5054B1BB1054972
:100340000548AFF30080BDE80840FFF7CFBF00BF0E
:10035000000000008C000024A874000880B400AFE6
:10036000044BDB681B0A03F007031846BD465DF823
:10037000047B704700ED00E080B483B000AF03461B
:10038000FB80B7F90630002B0BDBFB8803F01F0264
:100390000749B7F906305B09012000FA02F241F87B
:1003A000232000BF0C37BD465DF8047B704700BFBB
:1003B00000E100E080B483B000AF03463960FB8009
:1003C000B7F90630002B0ADB3B68DAB20C49B7F903
:1003D00006301201D2B20B4483F800230AE03B68D6
:1003E000DAB20849FB8803F00F03043B1201D2B2D2
:1003F0000B441A7600BF0C37BD465DF8047B70478E
:1004000000E100E000ED00E080B489B000AFF860EA
:10041000B9607A60FB6803F00703FB61FB69C3F115
:100420000703042B28BF0423BB61FB690433062B9D
:1004300002D9FB69033B00E000237B614FF0FF32F0
:10044000BB6902FA03F3DA43BB681A407B699A403E
:100450004FF0FF317B6901FA03F3D9437B680B400E
:10046000134318462437BD465DF8047B70470000EF
:1004700080B584B000AF0346FB710023FB60FB79BD
:10048000002B23D11E4BFB60FB681B79002B20D176
:10049000FB681C4A1A60FFF761FF03460022002137
:1004A0001846FFF7B1FF034619461320FFF782FFF6
:1004B0001320FFF761FF01220121124801F091FD95
:1004C000002201210F4801F0C3FD02E00023FB6080
:1004D00000E000BFFB68002B0CD0FB681B79002BF1
:1004E00008D1FB6801221A71FB6800225A71FB686F
:1004F00000229A71FB6818461037BD4680BD00BFC8
:10050000A40000241001002480B590B000AFF86072
:10051000B9607A60FB700023FB63FB68002B00F07E
:10052000FE80FB681B79012B40F0F980FB681B689B
:10053000BB63FB78002B04D17B687B610023BB612C
:1005400004E07B687B614FF08043BB6197F84830E3
:10055000002B01D1002301E04FF00053FB6197F81D
:100560005830002B01D1002301E04FF48013BB620F
:1005700097F85430002B01D1002301E04FF4001311
:10058000FB62FB6C3B62FB6C082B40F28F80FB6CC8
:100590000C3B342B00F28E8001A252F823F000BFF6
:1005A00075060008B5060008B5060008B50600087F
:1005B0007D060008B5060008B5060008B506000867
:1005C00085060008B5060008B5060008B50600084F
:1005D0008D060008B5060008B5060008B506000837
:1005E000B5060008B5060008B5060008B5060008FF
:1005F00095060008B5060008B5060008B50600080F
:10060000B5060008B5060008B5060008B5060008DE
:10061000B5060008B5060008B5060008B5060008CE
:10062000B5060008B5060008B5060008B5060008BE
:100630009D060008B5060008B5060008B5060008C6
:10064000B5060008B5060008B5060008B50600089E
:10065000B5060008B5060008B5060008B50600088E
:10066000B5060008B5060008B5060008B50600087E
:10067000A50600084FF410233B621CE04FF4202332
:100680003B6218E04FF430233B6214E04FF4402308
:100690003B6210E04FF450233B620CE04FF46023C8
:1006A0003B6208E04FF470233B6204E0FB6C1B04E8
:1006B0003B6200E000BF4FF400033B634FF0004398
:1006C0007B6203F075F8F86300BFBB6B1B68D3F85F
:1006D000C43003F40013002B07D00121F86B00F0A5
:1006E000D1F902463B6D9342EFD207F11403BA6889
:1006F0001946B86B01F008FC0346002B07D0B86B15
:1007000001F05DFC0246FB6D1A60012308E0B86B46
:1007100001F055FC0246FB6D1A60002300E0002347
:1007200018464037BD4680BD80B584B000AF7860C4
:100730007B68002B09D07B681B79012B05D17B6876
:100740001B68FB60F86801F019FB00BF1037BD465D
:1007500080BD000080B582B000AF7860174B1B6889
:100760001B68002B0CBF01230023DBB21A46144B7D
:100770001A700FE0134800F005FB00F0BDF80F4BB6
:100780001B681B68002B14BF01230023DBB21A4631
:100790000D4B1A700A4B1B78DBB2002BEAD1084BC9
:1007A00000221A70786800F011F8002000F083FA37
:1007B000002318460837BD4680BD00BF38750008C5
:1007C00000000024B4000024AC00002480B582B0F6
:1007D00000AF7860074B01221A60074B00221A70A5
:1007E00000F010F9054800F0EBFA0023184608372E
:1007F000BD4680BDD400002400000024B0000024C9
:1008000080B582B000AF7860396002F081FF00F0FF
:1008100035FD00F011F900F005FE00F09FFD094BD9
:100820001B6800221A6000F0D3F800209FED060A32
:1008300000F058F9054800F0A5FA002318460837DB
:10084000BD4680BD38750008CDCCCC3DB00000243D
:1008500080B483B000AF87ED000B0E4B93ED007BAF
:1008600097ED006BB4EE476BF1EE10FA09D00A4B2E
:1008700093ED007B97ED006BB4EE476BF1EE10FA51
:1008800001D1012300E0002318460C37BD465DF876
:10089000047B7047080000241000002480B483B05B
:1008A00000AF87ED000B97ED006B97ED007BB4EE8A
:1008B000476BF1EE10FA01D7012300E00023184640
:1008C0000C37BD465DF8047B704780B582B000AF41
:1008D00078607B68002B08D07B681B79012B04D1E2
:1008E0007B681B68184601F06DFA00BF0837BD46EB
:1008F00080BD00000000000080B58CB006AF324B18
:1009000093ED007BB0EE470B06F00AFB87ED040B7E
:1009100097ED040BFFF7C2FF0346002B06D197EDBE
:10092000040BFFF795FF0346002B06D04FF00002A3
:100930004FF00003C7E9042307E09FED211B97ED6B
:10094000040B06F0C5FA87ED040B97ED047BB5EEBA
:10095000C07BF1EE10FA0CD597ED047BB1EE477B2E
:10096000FCEEC77BC7ED017A3B79DBB25B42DBB2C1
:1009700007E097ED047BFCEEC77BC7ED017A3B797E
:10098000DBB2FB72114BD86807F10B0107F10C03C6
:10099000059300230493002303934FF47A73029387
:1009A0000123019300230093002340F21122FFF75B
:1009B000ABFD00BF1837BD4680BD00BFAFF3008060
:1009C000000000000000704018000024D80000243F
:1009D00080B500AF0A4B00221A70094B01225A6001
:1009E0000020FFF745FD0346054AD360044BDB6852
:1009F0001846FFF76AFF024B01221A7200BF80BD42
:100A0000D800002480B500AF0A4B1B78002B0FD113
:100A1000084B01221A70074B5B68012B08D1054B6C
:100A20001B7A002B04D0034BDB681846FFF77CFED3
:100A300000BF80BDD800002480B400AF00BFBD4619
:100A40005DF8047B704700BF10B54FF0804482B062
:100A5000636A019302F0ACFE0090626A019B9A42C5
:100A600007D3009B4FF47A72019802FB030002B097
:100A700010BD02F09DFE636A4FF47A7202FB0030F3
:100A800002B010BD10B5044641B9FFF7DDFFA0422A
:100A9000A0EB040038BF00F1FF3010BD02F088FE6B
:100AA000A042A0EB040038BF00F1FF3010BD00BF32
:100AB00080B582B000AF7860034800F081F900BFD4
:100AC0000837BD4680BD00BFB400002480B582B0A9
:100AD00000AF78607868FFF73DFE00BF0837BD467D
:100AE00080BD000080B588B000AF87ED010A386096
:100AF00000214C4800F02FF9F861FB69002B0AD067
:100B00004FF0500383F31188BFF36F8FBFF34F8F04
:100B1000BB6100BFFEE70021434800F01CF9F8610B
:100B2000FB69002B0AD04FF0500383F31188BFF309
:100B30006F8FBFF34F8F7B6100BFFEE73B4B2822D7
:100B40001A613A4B00229A61384B80229A82374BC5
:100B5000374A07CA03C31A7000223649334800F0E7
:100B600077F8F861FB69002B0AD04FF0500383F34C
:100B70001188BFF36F8FBFF34F8F3B6100BFFEE75C
:100B80002D4B00221A602D4B00221A60D7ED017AFE
:100B90009FED2B7A67EE877AFCEEE77A17EE902AC4
:100BA000264B5A60254B01229A60234B1B681A463C
:100BB000224BDA60234B244A92E803001860043386
:100BC000198002330A0C1A7020491C4800F07EF884
:100BD000F861FB69002B0AD04FF0500383F31188B2
:100BE000BFF36F8FBFF34F8FFB6000BFFEE74FF483
:100BF0007A71124800F08BF8F861FB69002B0AD07B
:100C00004FF0500383F31188BFF36F8FBFF34F8F03
:100C1000BB6000BFFEE704F053FA00BF2037BD46BB
:100C200080BD00BFB4000024B0000024B800002440
:100C3000C0740008CD0A00080C010024EC00002458
:100C400000007A44FC000024CC740008B10A0008BB
:100C500080B588B002AFF860B9607A60FB68002B9D
:100C600001D1012323E0F968FB68988AFB681B69BE
:100C7000FA681832019200937B680246B86804F063
:100C800026F87861FB689B69002B0AD14FF050036E
:100C900083F31188BFF36F8FBFF34F8F3B6100BFAA
:100CA000FEE77B69012B14BF01230023DBB218464A
:100CB0001837BD4680BD80B582B000AF7860002097
:100CC00004F08CF900BF0837BD4680BD90B585B0F3
:100CD00002AF786039607B6803F110007B68596867
:100CE0007B689A687B68DC683B680093234605F064
:100CF00069F802467B681A607B681B68002B01D08C
:100D0000002300E0012318460C37BD4690BD90B586
:100D100085B002AF786039607B68002B16D07B68A5
:100D20001B68002B12D07B681C6804F0E5FA0246B1
:100D30003B68009300230121204605F09FF80346FD
:100D4000012B14BF01230023DBB200E0012318466E
:100D50000C37BD4690BD80B582B000AF7860396079
:100D60003B6819460A2003F014FA02467B681A60B1
:100D70007B68002B01D0002300E0012318460837D0
:100D8000BD4680BD80B582B000AF78607B68002B27
:100D900003D07B681B68002B01D101230CE07B682A
:100DA0001B684FF0FF31184603F0A0FC0346012BEF
:100DB00014BF01230023DBB218460837BD4680BDAF
:100DC00080B582B000AF78607B68002B03D07B6871
:100DD0001B68002B01D101230CE07B6818680023FD
:100DE0000022002103F008FA0346012B14BF01235F
:100DF0000023DBB218460837BD4680BD80B400AF83
:100E0000054B1B68044A43F48033136000BFBD46A2
:100E10005DF8047B704700BF0044025880B400AF07
:100E2000074B1B6803F40033B3F5003F01D10123E6
:100E300000E000231846BD465DF8047B704700BF04
:100E40000044025880B483B000AF7860064B1B6941
:100E500023F0070204497B6813430B6100BF0C3782
:100E6000BD465DF8047B70470044025880B400AF73
:100E7000044B1B6903F038031846BD465DF8047B3C
:100E8000704700BF0044025880B483B000AF786060
:100E9000064B9B6923F4706204497B6813438B61A2
:100EA00000BF0C37BD465DF8047B70470044025814
:100EB00080B483B000AF7860064B9B6923F00F02CB
:100EC00004497B6813438B6100BF0C37BD465DF856
:100ED000047B70470044025880B483B000AF786050
:100EE000064BDB6923F0700204497B681343CB6136
:100EF00000BF0C37BD465DF8047B704700440258C4
:100F000080B483B000AF7860064BDB6923F4E06205
:100F100004497B681343CB6100BF0C37BD465DF8C5
:100F2000047B70470044025880B483B000AF7860FF
:100F3000064B9B6923F0700204497B6813438B6165
:100F400000BF0C37BD465DF8047B70470044025873
:100F500080B483B000AF7860064B1B6A23F0700248
:100F600004497B6813430B6200BF0C37BD465DF834
:100F7000047B70470044025880B483B000AF7860AF
:100F8000064B9B6A23F0030204497B6813438B6280
:100F900000BF0C37BD465DF8047B70470044025823
:100FA00080B400AF054B1B68044A43F080731360A4
:100FB00000BFBD465DF8047B704700BF0044025887
:100FC00080B400AF074B1B6803F00073B3F1007FE0
:100FD00001D1012300E000231846BD465DF8047BE3
:100FE000704700BF0044025880B400AF054BDB6A75
:100FF000044A43F48033D36200BFBD465DF8047BEE
:10100000704700BF0044025880B400AF054BDB6A54
:10101000044A43F00103D36200BFBD465DF8047B80
:10102000704700BF0044025880B483B000AF7860BE
:10103000074BDB6A23F002027B685B000449134321
:10104000CB6200BF0C37BD465DF8047B704700BF24
:101050000044025880B483B000AF7860074BDB6A6D
:1010600023F00C027B689B0004491343CB6200BF52
:101070000C37BD465DF8047B704700BF0044025842
:1010800080B483B000AF7860074B1A6B074B1340F6
:101090007A68013A044913430B6300BF0C37BD461D
:1010A0005DF8047B704700BF0044025800FEFFFF5C
:1010B00080B483B000AF7860074B9B6A23F47C72E6
:1010C0007B681B01044913438B6200BF0C37BD468C
:1010D0005DF8047B704700BF0044025880B483B0C1
:1010E00000AF7860074B1B6B23F47E427B68013BAB
:1010F0005B02044913430B6300BF0C37BD465DF828
:10110000047B70470044025880B483B000AF78601D
:10111000074B1B6B23F4FE027B68013B1B04044955
:1011200013430B6300BF0C37BD465DF8047B70476B
:101130000044025880B483B000AF7860074B1B6B4B
:1011400023F0FE427B68013B1B06044913430B63FB
:1011500000BF0C37BD465DF8047B70470044025861
:1011600080B483B000AF7860074B5A6B074B1340D5
:101170007A68D200044913434B6300BF0C37BD4665
:101180005DF8047B704700BF004402580700FFFF72
:1011900080B485B000AF78600A4BD3F8E0200949ED
:1011A0007B681343C1F8E030064BD3F8E0207B683E
:1011B0001340FB60FB6800BF1437BD465DF8047B3D
:1011C000704700BF0044025880B483B000AF78601D
:1011D000064B1B6823F00F0204497B6813430B6026
:1011E00000BF0C37BD465DF8047B704700200052FD
:1011F00080B400AF044B1B6803F00F031846BD46D4
:101200005DF8047B704700BF0020005280B483B0BB
:1012100000AF7860064BDB6823F03F0204497B682F
:101220001343CB6000BF0C37BD465DF8047B7047AD
:101230000048025880B483B000AF7860064B9B69C9
:1012400023F4404204497B6813438B6100BF0C3791
:10125000BD465DF8047B70470048025880B483B0F7
:1012600000AF786039603B681A047B689A6100BF00
:101270000C37BD465DF8047B7047000080B500AFB9
:101280000320FFF7A1FF00BFFFF7B2FF0346032BC8
:10129000FAD10220FFF7BAFF0020FFF7CBFFFFF7DC
:1012A000ADFD00BFFFF7BAFD0346012BFAD10220C6
:1012B000FFF762FEFFF798FE0220FFF7CBFE00204B
:1012C000FFF7B2FE0420FFF7F3FE8920FFF7D8FEF8
:1012D0000120FFF703FF0820FFF716FF0220FFF7AA
:1012E00029FF4FF48050FFF73BFFFFF78DFEFFF71C
:1012F00057FE00BFFFF764FE0346012BFAD108201A
:10130000FFF7D6FD0320FFF79DFD00BFFFF7AEFD01
:101310000346182BFAD10020FFF7B6FD0820FFF78F
:10132000C7FD4020FFF7D8FD4FF48060FFF7E8FDD0
:101330004020FFF7F9FD4020FFF70AFE064801F0C4
:1013400019FC0F2000F08AF90346002B01D000F0B1
:10135000AAF800BF80BD00BF8055C82080B500AF8F
:101360002E4B2F4A1A602D4B00229A602B4B0022E5
:10137000DA602A4B00221A74284B00225A74274B39
:1013800000229A74254B01225A61244B04229A614F
:10139000224B1B22DA61214B04221A621F4B0122CD
:1013A0005A621E4B04229A621C4B1B22DA621B4BB0
:1013B00004221A63194B00225A63184B00229A63C5
:1013C000164B0022DA63154B01221A64134B0522D7
:1013D0005A64124B00229A64104B0422DA640F4BB9
:1013E00000221A650D4B04225A650C4B00229A65A7
:1013F0000A4B0022DA65094B01221A66074B0022CC
:101400005A66064B05229A66044800F0D9FA03464C
:10141000002B01D000F047F800BF80BD1001002470
:1014200000A0004080B586B000AF3B4600221A60A5
:101430005A609A60DA601A615A610420FFF7A8FEC8
:101440008020FFF7A5FE1020FFF7A2FE0220FFF785
:101450009FFE4FF400510B48FFF700FF4FF400537D
:101460003B6001237B600023BB600023FB60002303
:101470003B613B461946034800F034FA00BF183779
:10148000BD4680BD0010025880B582B000AF7860C4
:101490007B681B68B3F1804F01D102F075F900BF82
:1014A0000837BD4680BD80B400AF72B600BFFEE70E
:1014B00080B400AFFEE780B400AFFEE780B400AFB9
:1014C000FEE780B400AFFEE780B400AFFEE780B473
:1014D00000AF00BFBD465DF8047B704780B500AF2C
:1014E000024800F02FFE00BF80BD00BF10010024A5
:1014F00080B500AF024802F04FFA00BF80BD00BFC8
:10150000B001002480B483B000AF7860064B1B6D3F
:1015100023F0405204497B6813430B6500BF0C372E
:10152000BD465DF8047B70470044025880B582B028
:1015300000AF0C4BD3F8F4300A4A43F00203C2F870
:10154000F430084BD3F8F43003F002037B607B687F
:1015500000220F216FF0010002F0A4F800BF08374D
:10156000BD4680BD0044025880B58AB000AF7860A7
:1015700007F1140300221A605A609A60DA601A6157
:101580007B681B68204A934239D10020FFF7BAFFDD
:101590001E4BD3F8EC301D4A43F48073C2F8EC3094
:1015A0001A4BD3F8EC3003F480733B613B69174B63
:1015B000D3F8E030154A43F00203C2F8E030134B91
:1015C000D3F8E03003F00203FB60FB684FF4407394
:1015D0007B610223BB610023FB6100233B62092383
:1015E0007B6207F114031946094801F0D5FC00227B
:1015F0000521132002F056F8132002F06DF800BF09
:101600002837BD4680BD00BF00A0004000440258FE
:101610000004025880B582B000AF78607B681B6818
:101620000B4A93420FD10B4BD3F8EC30094A23F409
:101630008073C2F8EC304FF44071074801F054FE5B
:10164000132002F057F800BF0837BD4680BD00BF29
:1016500000A00040004402580004025880B590B039
:1016600000AF78607B680F2B27D8002279681C2098
:1016700002F018F81C2002F02FF8294A7B6813604A
:10168000284BD3F8E830274A43F00103C2F8E8308A
:10169000244BD3F8E83003F00103FB60FB6807F14B
:1016A000100207F114031146184601F033FCBB6A1F
:1016B000BB63BB6B002B06D101E001232CE001F0E2
:1016C00013FCF86304E001F00FFC03465B00FB63CE
:1016D000FB6B154AA2FB03239B0C013B7B63134B63
:1016E0004FF080421A60114B40F2E732DA600F4A45
:1016F0007B6B53600D4B00221A610C4B00229A60E9
:101700000A4802F061F80346002B04D1074802F0B2
:10171000BDF8034600E0012318464037BD4680BDB2
:10172000200000240044025883DE1B43B001002443
:1017300080B485B000AFF860B9607A60FB68196862
:10174000BB6803FB03F213465B001344DB4301EA6F
:101750000302BB6803FB03F3796801FB03F31A433D
:10176000FB681A6000BF1437BD465DF8047B704704
:1017700080B485B000AFF860B9607A60FB685A68E1
:10178000BB68DB431A40BB68796801FB03F31A436B
:10179000FB685A6000BF1437BD465DF8047B704794
:1017A00080B485B000AFF860B9607A60FB68996872
:1017B000BB6803FB03F213465B001344DB4301EAFF
:1017C0000302BB6803FB03F3796801FB03F31A43CD
:1017D000FB689A6000BF1437BD465DF8047B704714
:1017E00080B485B000AFF860B9607A60FB68D968F2
:1017F000BB6803FB03F213465B001344DB4301EABF
:101800000302BB6803FB03F3796801FB03F31A438C
:10181000FB68DA6000BF1437BD465DF8047B704793
:1018200080B485B000AFF860B9607A60FB68196A6F
:10183000BB6803FB03F3BA6802FB03F3BA6803FB5C
:1018400002F213461B019B1ADB4301EA0302BB6849
:1018500003FB03F3B96801FB03F3B96801FB03F36E
:10186000796801FB03F31A43FB681A6200BF14375F
:10187000BD465DF8047B704780B485B000AFF8606A
:10188000B9607A60FB68596ABB681B0ABA68120AB9
:1018900002FB03F3BA68120A02FB03F3BA68120AE6
:1018A00003FB02F213461B019B1ADB4301EA03020E
:1018B000BB681B0AB968090A01FB03F3B968090A86
:1018C00001FB03F3B968090A01FB03F3796801FB23
:1018D00003F31A43FB685A6200BF1437BD465DF834
:1018E000047B704780B588B000AF786039603B6892
:1018F0001B683B613B6993FAA3F3FB60FB687B6168
:101900007B69002B01D1202303E07B69B3FA83F3C9
:10191000DBB2FB6148E03B681A680121FB6901FA10
:1019200003F31340BB61BB69002B3AD03B685B6893
:10193000012B03D03B685B68022B0ED13B689B6890
:101940001A46B9697868FFF72BFF3B6819683B684E
:10195000DB681A467868FFF70BFF3B681B691A467D
:10196000B9697868FFF73CFF3B685B68022B11D1CF
:10197000BB69FF2B07D83B685B691A46B969786871
:10198000FFF74EFF06E03B685B691A46B969786865
:10199000FFF772FF3B685B681A46B9697868FFF722
:1019A000C7FEFB690133FB613B681A68FB6922FAD9
:1019B00003F3002BAFD1002318462037BD4680BD6E
:1019C00080B598B000AF7860844A07F10C031146E7
:1019D0004C22184605F002FD7B68002B01D1012343
:1019E000C6E17B681B687E4A934206D17B681B6810
:1019F00003F580731A467B685A607B6893F89830C9
:101A0000DBB2002B06D17B68002283F8992078682E
:101A1000FFF7AAFD7B681B689A697B681B6822F048
:101A200010029A6101F0C4FEF86514E001F0C0FEF6
:101A30000246FB6DD31A0A2B0DD97B68D3F89C3074
:101A400043F001027B68C3F89C207B68032283F883
:101A5000982001238CE17B681B689B6903F00803D5
:101A6000082BE3D07B681B689A697B681B6842F08F
:101A700001029A6101F09CFEF86514E001F098FE05
:101A80000246FB6DD31A0A2B0DD97B68D3F89C3024
:101A900043F001027B68C3F89C207B68032283F833
:101AA0009820012364E17B681B689B6903F00103B4
:101AB000002BE3D07B681B689A697B681B6842F047
:101AC00002029A617B681B7C012B08D17B681B6832
:101AD0009A697B681B6822F040029A6107E07B6884
:101AE0001B689A697B681B6842F040029A617B68B8
:101AF0005B7C012B08D17B681B689A697B681B683B
:101B000042F480429A6107E07B681B689A697B68AF
:101B10001B6822F480429A617B689B7C012B08D170
:101B20007B681B689A697B681B6822F480529A6103
:101B300007E07B681B689A697B681B6842F48052E7
:101B40009A617B681B689B6923F440717B689A6883
:101B50007B681B680A439A617B681B689A697B688B
:101B60001B6822F0A4029A617B681B681A697B6873
:101B70001B6822F010021A617B68DB68012B08D118
:101B80007B681B689A697B681B6842F004029A6153
:101B900030E07B68DB68002B2CD07B68DB68022B95
:101BA00020D07B681B689A697B681B6842F08002C2
:101BB0009A617B681B681A697B681B6842F0100297
:101BC0001A617B68DB68032B14D17B681B689A69F8
:101BD0007B681B6842F020029A610BE0D474000815
:101BE00000A000407B681B689A697B681B6842F014
:101BF00020029A617B689B69013B5A067B68DB691E
:101C0000013B1B021A437B681B6A013B42EA03014A
:101C10007B685B69013B1A047B681B680A43DA61D5
:101C20007B689B68B3F5407F15D17B689B6A5A1E21
:101C30007B68DB6A013B1B021A437B681B6B013B21
:101C40001B0142EA03017B685B6A013B1A047B6863
:101C50001B680A43DA607B681B6E002B0AD07B6826
:101C60001B68D3F8C0107B685A6E7B681B680A43F8
:101C7000C3F8C0207B68DA6D7B681B6E1344002BB1
:101C800011D07B681B68D3F8C83023F007017B684C
:101C90009B6E9B0060333B4453F8542C7B681B685D
:101CA0000A43C3F8C8207B681B6C002B11D07B68EB
:101CB0001B68D3F8BC3023F007017B685B6C9B008A
:101CC00060333B4453F8542C7B681B680A43C3F8C9
:101CD000BC207B689B6C002B12D07B681B68D3F800
:101CE000BC3023F070017B68DB6C9B0060333B44AD
:101CF00053F8543C1A017B681B680A43C3F8BC20A4
:101D00007B681B6D002B12D07B681B68D3F8BC303E
:101D100023F4E0617B685B6D9B0060333B4453F8C8
:101D2000543C1A027B681B680A43C3F8BC207B68DA
:101D30001B68114A934207D17B685B689A687B688D
:101D40005B6822F003029A607B680022C3F894204B
:101D50007B680022C3F89C207B68012283F89820CE
:101D6000786800F003FD034687F85B3097F85B3036
:101D700018466037BD4680BD00A0004080B582B0E7
:101D800000AF78607B68002B01D1012316E07868F2
:101D900000F043F87B681B68DA6D7B681B6822F0F3
:101DA0000302DA657868FFF735FC7B680022C3F828
:101DB0009C207B68002283F898200023184608376F
:101DC000BD4680BD80B483B000AF78607B6893F877
:101DD0009830DBB2012B11D17B68022283F8982066
:101DE0007B681B689A697B681B6822F001029A6114
:101DF0007B680022C3F89C20002308E07B68D3F8AE
:101E00009C3043F004027B68C3F89C2001231846F1
:101E10000C37BD465DF8047B704780B485B000AFD9
:101E200078600023FB607B6893F89830DBB2022B6C
:101E30005BD17B681B689A697B681B6842F0010272
:101E40009A6113E0FB68322B0DD97B68D3F89C3084
:101E500043F001027B68C3F89C207B68032283F86F
:101E6000982001234AE0FB680133FB607B681B6814
:101E70009B6903F00103002BE4D00023FB607B6827
:101E80001B689A697B681B6822F010029A6113E054
:101E9000FB68322B0DD97B68D3F89C3043F00102EC
:101EA0007B68C3F89C207B68032283F89820012379
:101EB00024E0FB680133FB607B681B689B6903F0CF
:101EC0000803082BE4D07B681B689A697B681B6851
:101ED00042F002029A617B680022C3F894207B687A
:101EE000012283F89820002308E07B68D3F89C3017
:101EF00043F008027B68C3F89C200123184614377E
:101F0000BD465DF8047B704780B586B000AFF860D1
:101F1000B9607A60FB6893F89830DBB2022B41D14C
:101F2000FB681B68D3F8C03003F07C53002B09D149
:101F3000FB68D3F89C3043F02002FB68C3F89C2078
:101F4000012338E0FB681B68D3F8C43003F40013A6
:101F5000002B09D0FB68D3F89C3043F40072FB6877
:101F6000C3F89C20012326E0FB681B68D3F8C4302B
:101F70001B0C03F01F037B617B697A68B968F86802
:101F800000F07AFDFB681B6801217A6901FA02F210
:101F9000C3F8D02001227B699A40FB68C3F89420E3
:101FA000002308E0FB68D3F89C3043F00802FB688C
:101FB000C3F89C20012318461837BD4680BD80B465
:101FC00085B000AF78607B681B68D3F8C43003F03D
:101FD0003F03FB60FB6818461437BD465DF8047B81
:101FE000704780B487B000AFF860B9607A60FB6872
:101FF00093F89830FB75FB7D012B02D0FB7D022B03
:1020000016D17B68012B09D1FB681B68996DBB68F1
:10201000DA43FB681B680A409A6507E0FB681B68A7
:10202000996DFB681B68BA680A439A65002308E04B
:10203000FB68D3F89C3043F00202FB68C3F89C2095
:10204000012318461C37BD465DF8047B704700002D
:1020500080B487B000AFF860B9607A60FB6893F82D
:102060009830FB75FB7D012B02D0FB7D022B55D1F7
:10207000FB681B689A6DBB681340002B08D1FB6896
:102080001B68DA6DFB681B6842F00102DA6514E038
:10209000FB681B689A6DBB681340BA689A4208D106
:1020A000FB681B68DA6DFB681B6842F00202DA65A8
:1020B00003E0FB681B680322DA65BB6803F4007366
:1020C000002B09D0FB681B68D3F8E010FB681B6885
:1020D0007A680A43C3F8E020BB6803F48063002BEE
:1020E00009D0FB681B68D3F8E410FB681B687A68AA
:1020F0000A43C3F8E420FB681B68596DBA680F4BAC
:102100001340FA6812680B4353650D4B5A69BB685C
:102110009B0F0B4913434B61002308E0FB68D3F886
:102120009C3043F00202FB68C3F89C200123184650
:102130001C37BD465DF8047B704700BFFFFFCF3FF3
:1021400000A8004080B592B000AF7860904B1B694A
:102150009B077B648E4B5B699B077A6C13407B64A7
:102160007B681B681B6D03F470433B647B681B68D2
:102170005B6D3A6C13403B647B681B681B6D03F01E
:102180000F03FB637B681B685B6DFA6B1340FB639B
:102190007B681B681B6D03F0F003BB637B681B68E7
:1021A0005B6DBA6B1340BB637B681B681B6D03F0F0
:1021B00071537B637B681B685B6D7A6B13407B6339
:1021C0007B681B681B6D03F060733B637B681B6857
:1021D0005B6D3A6B13403B637B681B685B6D03F47C
:1021E0008073002B11D07B681B681B6D03F4807318
:1021F000002B0AD07B681B684FF480721A65644B11
:1022000000221A61786800F065FA7B681B685B6DD4
:1022100003F48063002B1ED07B681B681B6D03F4E6
:102220008063002B17D07B681B68D3F8DC30FB621F
:102230007B681B68D3F8E430FA6A1340FB627B6862
:102240001B684FF480621A65514B00221A61F96ACB
:10225000786800F016FA7B6C002B0DD07B681A684A
:10226000796C4C4B0B401365494A7B6C9B0F136197
:10227000796C786800F0C4F93B6C002B0DD07B685A
:102280001A68396C434B0B401365414A3B6C9B0FFA
:102290001361396C786800F0BEF9FB6B002B0DD030
:1022A0007B681A68F96B3B4B0B401365384AFB6B34
:1022B0009B0F1361F96B786800F0B8F9BB6B002BCA
:1022C0000DD07B681A68B96B324B0B401365304AEE
:1022D000BB6B9B0F1361B96B786800F0B2F97B6838
:1022E0001B685B6D03F40063002B11D07B681B68D7
:1022F0001B6D03F40063002B0AD07B681B684FF44E
:1023000000621A65224B00221A61786800F0A4F975
:102310007B681B685B6D03F40073002B1ED07B6829
:102320001B681B6D03F40073002B17D07B681B68C0
:10233000D3F8D830BB627B681B68D3F8E030BA6A48
:102340001340BB627B681B684FF400721A65104B28
:1023500000221A61B96A786800F088F97B681B6806
:102360005B6D03F40023002B16D07B681B681B6D8C
:1023700003F40023002B0FD07B681B684FF400226E
:102380001A65034B00221A61786800F085F903E0B2
:1023900000A80040FFFFCF3F7B681B685B6D03F424
:1023A0008033002B11D07B681B681B6D03F48033D6
:1023B000002B0AD07B681B684FF480321A658D4B66
:1023C00000221A61786800F071F97B681B685B6D08
:1023D00003F48023002B11D07B681B681B6D03F472
:1023E0008023002B0AD07B681B684FF480221A657B
:1023F000804B00221A61786800F062F97B681B68E4
:102400005B6D03F40033002B16D07B681B681B6DDB
:1024100003F40033002B0FD07B681B684FF40032AD
:102420001A65744B00221A617B68D3F89C3043F024
:1024300080027B68C3F89C203B6B002B0DD07B682F
:102440001A68396B6C4B0B4013656A4A3B6B9B0FE8
:102450001361396B786800F051F97B6B002B11D058
:102460007B681A68796B644B0B401365614A7B6B20
:102470009B0F13617B68D3F89C207B6B1A437B68AE
:10248000C3F89C207B681B685C4A934240F0A6809E
:102490007B685B689B6803F00303002B00F09E8061
:1024A0007B685B681B6A03F00F037B627B685B6879
:1024B0005B6A7A6A13407B627B685B681B6A03F025
:1024C00030033B627B685B685B6A3A6A13403B623D
:1024D0007B685B681B6A03F4C073FB617B685B68A5
:1024E0005B6AFA691340FB617B685B681B6A03F4F3
:1024F000FC43BB617B685B685B6ABA691340BB6184
:102500007B685B681B6A03F4F0237B617B685B6814
:102510005B6A7A6913407B617B6A002B07D07B681A
:102520005B687A6A1A62796A786800F0F2F83B6A46
:10253000002B07D07B685B683A6A1A62396A786850
:1025400000F0F2F87B685B685B6A03F04003002BE5
:102550001BD07B685B681B6A03F04003002B14D020
:102560007B685B68DB6B1B0C9BB23B617B685B68C9
:10257000DB6B03F03F03FB607B685B6840221A6201
:10258000FA683969786800F0DAF8FB69002B07D03F
:102590007B685B68FA691A62F969786800F0DBF8B1
:1025A000BB69002B0BD07B685B68BA691A627B68D9
:1025B000D3F89C20BB691A437B68C3F89C207B69D5
:1025C000002B0BD07B685B687A691A627B68D3F852
:1025D0009C207B691A437B68C3F89C207B68D3F8F6
:1025E0009C30002B02D0786800F07EF800BF48379E
:1025F000BD4680BD00A80040FFFFCF3F00A00040C7
:1026000080B483B000AF7860396000BF0C37BD463E
:102610005DF8047B704780B483B000AF78603960A8
:1026200000BF0C37BD465DF8047B704780B483B0B3
:1026300000AF7860396000BF0C37BD465DF8047BA1
:10264000704780B483B000AF7860396000BF0C374A
:10265000BD465DF8047B704780B483B000AF7860FE
:1026600000BF0C37BD465DF8047B704780B483B073
:1026700000AF7860396000BF0C37BD465DF8047B61
:10268000704780B483B000AF7860396000BF0C370A
:10269000BD465DF8047B704780B483B000AF7860BE
:1026A00000BF0C37BD465DF8047B704780B483B033
:1026B00000AF786000BF0C37BD465DF8047B704703
:1026C00080B483B000AF786000BF0C37BD465DF8C2
:1026D000047B704780B483B000AF786000BF0C37D4
:1026E000BD465DF8047B704780B483B000AF78606E
:1026F00000BF0C37BD465DF8047B704780B483B0E3
:1027000000AF7860396000BF0C37BD465DF8047BD0
:10271000704780B483B000AF7860396000BF0C3779
:10272000BD465DF8047B704780B483B000AF78602D
:10273000396000BF0C37BD465DF8047B704780B43C
:1027400085B000AFF860B9607A6000BF1437BD464D
:102750005DF8047B704780B483B000AF7860396067
:1027600000BF0C37BD465DF8047B704780B485B070
:1027700000AF78607B685B6BBB607B681B68D3F8DD
:102780008420A74B1340BA6891007A6812680B4303
:10279000C2F884307B681B68D3F8843023F47F014F
:1027A0007B689B6B1A047B681B680A43C3F8842010
:1027B0007B689B6BBA681344BB607B681B68D3F86B
:1027C0008820974B1340BA6891007A6812680B43CF
:1027D000C2F888307B681B68D3F8883023F4FE0188
:1027E0007B68DB6B1A047B681B680A43C3F888208C
:1027F0007B68DB6B5B00BA681344BB607B681B685B
:10280000D3F8A020864B1340BA6891007A6812680A
:102810000B43C2F8A0307B681B68D3F8A03023F4C8
:10282000FE017B681B6C1A047B681B680A43C3F8B3
:10283000A0207B681B6C7A68526C02FB03F3BA68B9
:102840001344BB607B681B68D3F8B020744B134003
:10285000BA6891007A6812680B43C2F8B0307B689E
:102860001B68D3F8B03023F4FE017B689B6C1A041C
:102870007B681B680A43C3F8B0207B689B6C7A684E
:10288000D26C02FB03F3BA681344BB607B681B681D
:10289000D3F8AC20624B1340BA6891007A68126892
:1028A0000B43C2F8AC307B681B6D7A68526D02FB3B
:1028B00003F3BA681344BB607B681B68D3F8F0204D
:1028C000574B1340BA6891007A6812680B43C2F8FC
:1028D000F0307B681B68D3F8F03023F47C117B6800
:1028E0009B6D1A047B681B680A43C3F8F0207B6861
:1028F0009B6D5B00BA681344BB607B681B68D3F8B0
:10290000C020474B1340BA6891007A6812680B43A5
:10291000C2F8C0307B681B68D3F8C03023F47C1148
:102920007B68DB6D1A047B681B680A43C3F8C02010
:102930007B681B68D3F8C03023F07C517B681B6E2A
:102940001A067B681B680A43C3F8C0207B685A6B71
:10295000344B13449A007B68DA667B68DA6E7B68D6
:102960009B6B9B001A447B681A677B681A6F7B68B5
:10297000DB6BDB001A447B685A677B685A6F7B68A5
:102980001B6C7968496C01FB03F39B001A447B685C
:102990009A677B689A6F7B689B6C7968C96C01FB4E
:1029A00003F39B001A447B68DA677B68DA6F7B6805
:1029B0001B6D7968496D01FB03F39B001A447B682A
:1029C000C3F880207B68D3F880207B689B6DDB0098
:1029D0001A447B68C3F884207B68D3F884207B6822
:1029E000DB6D7968896E01FB03F39B001A447B68F9
:1029F000C3F888207B68D3F888207B681B6E7968D1
:102A0000896E01FB03F39B001A447B68C3F8902096
:102A10007B68D3F89030044A934215D906E000BF92
:102A20000300FFFF002B0010FCD300407B68D3F8AD
:102A30009C3043F020027B68C3F89C207B68032213
:102A400083F89820012310E07B68DB6EFB6005E0D3
:102A5000FB6800221A60FB680433FB607B68D3F8D4
:102A60009030FA689A42F3D3002318461437BD46D3
:102A70005DF8047B704700BF80B489B000AFF86098
:102A8000B9607A603B60BB685B68002B0AD1BB68A9
:102A90001A69BB689B681A43BB681B689B04134395
:102AA000FB610AE0BB681A69BB689B681A43BB6894
:102AB0001B68134343F08043FB61BB681B6A1A0623
:102AC000BB68DB691A43BB689B691A43BB685B69D7
:102AD0001A43BB68DB6813433B61FB68D3F884206F
:102AE000FB689B6E396801FB03F39B001344BB61D9
:102AF000BB69FA691A60BB690433BB61BB693A6997
:102B00001A60BB690433BB6100237B6120E07B69F1
:102B100003337A6813441B781A067B690233796899
:102B20000B441B781B041A437B69013379680B44FF
:102B30001B781B02134379687A690A4412781A4396
:102B4000BB691A60BB690433BB617B6904337B6179
:102B5000BB68DB681B0C064AD35C1A467B69934250
:102B6000D5D300BF00BF2437BD465DF8047B704756
:102B70003C75000880B483B000AF7860044A7B687D
:102B8000136000BF0C37BD465DF8047B704700BF83
:102B90002C00002480B489B000AFB34B1B6903F054
:102BA0003803182B00F2558101A252F823F000BF20
:102BB000152C0008532E0008532E0008532E000831
:102BC000532E0008532E0008532E0008532E0008E1
:102BD0003B2C0008532E0008532E0008532E0008EB
:102BE000532E0008532E0008532E0008532E0008C1
:102BF000412C0008532E0008532E0008532E0008C5
:102C0000532E0008532E0008532E0008532E0008A0
:102C1000472C0008944B1B6803F02003002B09D0BD
:102C2000914B1B68DB0803F00303904A22FA03F37D
:102C3000BB6111E18D4BBB610EE18D4BBB610BE1C3
:102C40008C4BBB6108E1884B9B6A03F003037B61FB
:102C5000854B9B6A1B0903F03F033B61824BDB6A98
:102C600003F00103FB60804B5B6BDB08C3F30C03D9
:102C7000FA6802FB03F307EE903AF8EE677AC7EDC5
:102C8000027A3B69002B00F0E1807B69022B00F0A7
:102C900083807B69022B00F2A1807B69002B03D02B
:102CA0007B69012B56D099E06F4B1B6803F0200322
:102CB000002B2DD06C4B1B68DB0803F003036B4A21
:102CC00022FA03F37B607B6807EE903AF8EE676ABE
:102CD0003B6907EE903AF8EE677A86EEA77A624B88
:102CE0001B6BC3F3080307EE903AF8EE676A97EDA3
:102CF000026ADFED615AC6EE257A76EEA77AF7EE24
:102D0000006A77EEA67A67EE277AC7ED077A87E042
:102D10003B6907EE903AF8EE677ADFED586A86EE87
:102D2000A77A514B1B6BC3F3080307EE903AF8EEFA
:102D3000676A97ED026ADFED505AC6EE257A76EEA5
:102D4000A77AF7EE006A77EEA67A67EE277AC7EDE4
:102D5000077A65E03B6907EE903AF8EE677ADFEDB7
:102D6000486A86EEA77A404B1B6BC3F3080307EE55
:102D7000903AF8EE676A97ED026ADFED3F5AC6EEC9
:102D8000257A76EEA77AF7EE006A77EEA67A67EEF6
:102D9000277AC7ED077A43E03B6907EE903AF8EEF1
:102DA000677ADFED386A86EEA77A2F4B1B6BC3F389
:102DB000080307EE903AF8EE676A97ED026ADFEDD6
:102DC0002E5AC6EE257A76EEA77AF7EE006A77EEEF
:102DD000A67A67EE277AC7ED077A21E03B6907EE0E
:102DE000903AF8EE677ADFED266A86EEA77A1E4BF8
:102DF0001B6BC3F3080307EE903AF8EE676A97ED92
:102E0000026ADFED1D5AC6EE257A76EEA77AF7EE56
:102E1000006A77EEA67A67EE277AC7ED077A00BFD9
:102E2000114B1B6B5B0A03F07F0301333B603B6874
:102E300007EE903AB8EE677AD7ED076AC6EE877A62
:102E4000FCEEE77A17EE903ABB6105E00023BB6128
:102E500002E0074BBB6100BFBB6918462437BD4683
:102E60005DF8047B704700BF004402580090D00317
:102E700000093D000024F400000000460024744CCA
:102E80000024744A0024744B80B582B000AFFFF771
:102E900081FE0246104B9B691B0A03F00F030F498A
:102EA000CB5C03F01F0322FA03F37B600A4B9B69A0
:102EB00003F00F03094AD35C03F01F037A6822FA78
:102EC00003F3074A1360074A7B681360044B1B68CF
:102ED00018460837BD4680BD004402584C750008AE
:102EE000300000242C00002480B500AFFFF7CCFF99
:102EF0000246064BDB691B0903F007030449CB5C60
:102F000003F01F0322FA03F3184680BD0044025861
:102F10004C75000880B483B000AF786039607B687E
:102F20003F221A601A4B1B6903F007027B685A6044
:102F3000174B9B6903F470627B689A60144B9B6922
:102F400003F00F027B68DA60114B9B6903F070029B
:102F50007B681A610E4BDB6903F070027B685A6173
:102F60000B4BDB6903F4E0627B689A61084B1B6AD8
:102F700003F070027B68DA61064B1B6803F00F02F6
:102F80003B681A6000BF0C37BD465DF8047B704794
:102F9000004402580020005280B489B000AF78602D
:102FA00039600023FB61864B7B618CE13B681A68CA
:102FB0000121FB6901FA03F313403B613B69002BDC
:102FC00000F07E813B685B6803F00303012B05D0B2
:102FD0003B685B6803F00303022B30D17B689B687E
:102FE000BB61FB695B00032202FA03F3DB43BA69AE
:102FF0001340BB613B68DA68FB695B0002FA03F3CC
:10300000BA691343BB617B68BA699A607B685B6885
:10301000BB610122FB6902FA03F3DB43BA69134087
:10302000BB613B685B681B0903F00102FB6902FAA4
:1030300003F3BA691343BB617B68BA695A603B68A2
:103040005B6803F00303032B17D07B68DB68BB616D
:10305000FB695B00032202FA03F3DB43BA69134006
:10306000BB613B689A68FB695B0002FA03F3BA69CB
:103070001343BB617B68BA69DA603B685B6803F045
:103080000303022B23D1FB69DA087B68083253F86B
:103090002230BB61FB6903F007039B000F2202FA99
:1030A00003F3DB43BA691340BB613B681A69FB69F0
:1030B00003F007039B0002FA03F3BA691343BB61F1
:1030C000FB69DA087B680832B96943F822107B682B
:1030D0001B68BB61FB695B00032202FA03F3DB435D
:1030E000BA691340BB613B685B6803F00302FB698C
:1030F0005B0002FA03F3BA691343BB617B68BA69E8
:103100001A603B685B6803F44033002B00F0D88002
:103110002C4BD3F8F4302B4A43F00203C2F8F430BE
:10312000284BD3F8F43003F00203FB60FB68264A17
:10313000FB699B08023352F82330BB61FB6903F043
:1031400003039B000F2202FA03F3DB43BA69134027
:10315000BB617B681D4A93424AD07B681C4A9342FC
:103160002BD07B681B4A934225D07B681A4A934236
:103170001FD07B68194A934219D07B68184A934242
:1031800013D07B68174A93420DD07B68164A93424E
:1031900007D07B68154A934201D1092329E00A230D
:1031A00027E0072325E0062323E0052321E004236D
:1031B0001FE003231DE002231BE0012319E000BFF1
:1031C00080000058004402580004005800000258D3
:1031D0000004025800080258000C0258001002585F
:1031E0000014025800180258001C0258002402580B
:1031F0000023FA6902F0030292009340BA69134374
:10320000BB613849FB699B080233BA6941F8232046
:103210004FF0B0431B68BB613B69DB43BA691340A5
:10322000BB613B685B6803F48013002B03D0BA6971
:103230003B691343BB614FF0B042BB6913604FF071
:10324000B0435B68BB613B69DB43BA691340BB6158
:103250003B685B6803F40013002B03D0BA693B6939
:103260001343BB614FF0B042BB6953607B695B683D
:10327000BB613B69DB43BA691340BB613B685B6878
:1032800003F40033002B03D0BA693B691343BB61DD
:103290007B69BA695A607B691B68BB613B69DB4328
:1032A000BA691340BB613B685B6803F48033002B51
:1032B00003D0BA693B691343BB617B69BA691A6081
:1032C000FB690133FB613B681A68FB6922FA03F36F
:1032D000002B7FF46BAE00BF00BF2437BD465DF806
:1032E000047B70470004005880B487B000AF78605A
:1032F000396000237B61724B3B61D3E001227B6923
:1033000002FA03F33A681340FB60FB68002B00F0FD
:10331000C6806C4A7B699B08023352F82330BB603D
:103320007B6903F003039B000F2202FA03F3BA68E0
:103330001340BB607B68644A934231D07B68634A28
:1033400093422BD07B68624A934225D07B68614AC6
:1033500093421FD07B68604A934219D07B685F4AD2
:10336000934213D07B685E4A93420DD07B685D4ADE
:10337000934207D07B685C4A934201D1092310E055
:103380000A230EE007230CE006230AE0052308E0E9
:10339000042306E0032304E0022302E0012300E00B
:1033A00000237A6902F0030292009340BA689A42BD
:1033B00036D13B691A68FB68DB431A403B691A60E7
:1033C0003B695A68FB68DB431A403B695A604FF01F
:1033D000B0435A68FB68DB434FF0B04113404B6089
:1033E0004FF0B0431A68FB68DB434FF0B041134025
:1033F0000B607B6903F003039B000F2202FA03F3C7
:10340000BB60304A7B699B08023352F82310BB68CB
:10341000DA432C487B699B080A40023340F823209A
:103420007B681A687B695B00032101FA03F31A4386
:103430007B681A607B69DA087B68083253F82210CF
:103440007B6903F007039B000F2202FA03F3DB43BF
:103450007A69D20819407B68083243F822107B68E9
:10346000DA687B695B00032101FA03F3DB431A404E
:103470007B68DA607B685A6801217B6901FA03F393
:10348000DB431A407B685A607B689A687B695B0003
:10349000032101FA03F3DB431A407B689A607B69DE
:1034A00001337B613A687B6922FA03F3002B7FF4D6
:1034B00025AF00BF00BF1C37BD465DF8047B7047D9
:1034C0008000005800040058000002580004025810
:1034D00000080258000C025800100258001402584C
:1034E00000180258001C02580024025880B485B00D
:1034F00000AF78607B6803F00703FB600B4BDB6871
:10350000BB60BA684FF6FF031340BB60FB681A024A
:10351000BB681A43064B1343BB60044ABB68D360C5
:1035200000BF1437BD465DF8047B704700ED00E036
:103530000000FA0580B400AF044BDB681B0A03F0FF
:1035400007031846BD465DF8047B704700ED00E0B8
:1035500080B483B000AF0346FB80B7F90630002B80
:103560000BDBFB8803F01F020749B7F906305B0944
:10357000012000FA02F241F8232000BF0C37BD46BB
:103580005DF8047B704700BF00E100E080B483B0C9
:1035900000AF0346FB80B7F90630002B12DBFB8837
:1035A00003F01F020A49B7F906305B09012000FA4F
:1035B00002F2203341F82320BFF34F8F00BFBFF347
:1035C0006F8F00BF00BF0C37BD465DF8047B7047AE
:1035D00000E100E080B483B000AF03463960FB80B7
:1035E000B7F90630002B0ADB3B68DAB20C49B7F9B1
:1035F00006301201D2B20B4483F800230AE03B6884
:10360000DAB20849FB8803F00F03043B1201D2B27F
:103610000B441A7600BF0C37BD465DF8047B70473B
:1036200000E100E000ED00E080B489B000AFF86098
:10363000B9607A60FB6803F00703FB61FB69C3F1C3
:103640000703042B28BF0423BB61FB690433062B4B
:1036500002D9FB69033B00E000237B614FF0FF329E
:10366000BB6902FA03F3DA43BB681A407B699A40EC
:103670004FF0FF317B6901FA03F3D9437B680B40BC
:10368000134318462437BD465DF8047B704780B568
:1036900082B000AF78607868FFF728FF00BF083776
:1036A000BD4680BD80B586B000AF0346B9607A6084
:1036B000FB81FFF73FFF78617A68B9687869FFF7A7
:1036C000B3FF0246B7F90E3011461846FFF782FFE6
:1036D00000BF1837BD4680BD80B582B000AF03463D
:1036E000FB80B7F906301846FFF732FF00BF0837F6
:1036F000BD4680BD80B582B000AF0346FB80B7F900
:1037000006301846FFF742FF00BF0837BD4680BDB0
:1037100080B582B000AF0320FFF7B9FFFFF73AFA98
:103720000246154B9B691B0A03F00F031349CB5C40
:1037300003F01F0322FA03F37B600F4B9B6903F036
:103740000F030E4AD35C03F01F037A6822FA03F3D7
:103750000B4A13600B4A7B6813600F20FDF77EFF56
:103760000346002B01D0012302E0FDF7DFFE00231A
:1037700018460837BD4680BD004402584C75000805
:10378000300000242C00002480B400AF064B1B78CE
:103790001A46064B1B681344044A136000BFBD461B
:1037A0005DF8047B704700BF24000024FC01002466
:1037B00080B400AF034B1B681846BD465DF8047B20
:1037C000704700BFFC01002480B582B000AF786074
:1037D0007B68002B01D1012349E07B6893F83D30E1
:1037E000DBB2002B06D17B68002283F83C2078688E
:1037F00000F041F87B68022283F83D207B681A685C
:103800007B6804331946104600F00EFA7B680122EB
:1038100083F848207B68012283F83E207B680122E0
:1038200083F83F207B68012283F840207B680122D7
:1038300083F841207B68012283F842207B680122C3
:1038400083F843207B68012283F844207B680122AF
:1038500083F845207B68012283F846207B6801229B
:1038600083F847207B68012283F83D200023184617
:103870000837BD4680BD80B483B000AF786000BF1C
:103880000C37BD465DF8047B7047000080B485B0FE
:1038900000AF78607B6893F83D30DBB2012B01D03C
:1038A00001235EE07B68022283F83D207B681B6871
:1038B000DA687B681B6842F00102DA607B681B688B
:1038C0002B4A93422CD07B681B68B3F1804F27D0E2
:1038D0007B681B68274A934222D07B681B68264A74
:1038E00093421DD07B681B68244A934218D07B68A2
:1038F0001B68234A934213D07B681B68214A93427A
:103900000ED07B681B68204A934209D07B681B68F5
:103910001E4A934204D07B681B681D4A934215D10E
:103920007B681B689A681B4B1340FB60FB68062B87
:1039300015D0FB68B3F5803F11D07B681B681A680F
:103940007B681B6842F001021A6008E07B681B6814
:103950001A687B681B6842F001021A6000E000BF31
:10396000002318461437BD465DF8047B704700BF3E
:10397000000001400004004000080040000C00402E
:1039800000040140001800400040014000E00040F9
:1039900000E400400700010080B582B000AF78600D
:1039A0007B681B681B6903F00203022B22D17B6832
:1039B0001B68DB6803F00203022B1BD17B681B68CA
:1039C0006FF002021A617B6801221A777B681B681C
:1039D0009B6903F00303002B03D0786800F005F91E
:1039E00005E0786800F0F7F8786800F008F97B687F
:1039F00000221A777B681B681B6903F00403042B01
:103A000022D17B681B68DB6803F00403042B1BD105
:103A10007B681B686FF004021A617B6802221A77C8
:103A20007B681B689B6903F44073002B03D07868A4
:103A300000F0DBF805E0786800F0CDF8786800F079
:103A4000DEF87B6800221A777B681B681B6903F02D
:103A50000803082B22D17B681B68DB6803F008038E
:103A6000082B1BD17B681B686FF008021A617B680A
:103A700004221A777B681B68DB6903F00303002BC1
:103A800003D0786800F0B1F805E0786800F0A3F89A
:103A9000786800F0B4F87B6800221A777B681B68AE
:103AA0001B6903F01003102B22D17B681B68DB68B5
:103AB00003F01003102B1BD17B681B686FF0100202
:103AC0001A617B6808221A777B681B68DB6903F43C
:103AD0004073002B03D0786800F087F805E0786821
:103AE00000F079F8786800F08AF87B6800221A778D
:103AF0007B681B681B6903F00103012B0ED17B68F7
:103B00001B68DB6803F00103012B07D17B681B688E
:103B10006FF001021A617868FDF7B6FC7B681B68DC
:103B20001B6903F08003802B0ED17B681B68DB6868
:103B300003F08003802B07D17B681B686FF0800245
:103B40001A61786800F020F97B681B681B6903F430
:103B50008073B3F5807F0ED17B681B68DB6803F050
:103B60008003802B07D17B681B686FF480721A6119
:103B7000786800F013F97B681B681B6903F0400349
:103B8000402B0ED17B681B68DB6803F04003402BA1
:103B900007D17B681B686FF040021A61786800F0FB
:103BA00038F87B681B681B6903F02003202B0ED1BB
:103BB0007B681B68DB6803F02003202B07D17B6840
:103BC0001B686FF020021A61786800F0D3F800BF1C
:103BD0000837BD4680BD80B483B000AF786000BFB9
:103BE0000C37BD465DF8047B704780B483B000AFEE
:103BF000786000BF0C37BD465DF8047B704780B429
:103C000083B000AF786000BF0C37BD465DF8047B21
:103C1000704780B483B000AF786000BF0C37BD46FA
:103C20005DF8047B7047000080B485B000AF786019
:103C300039607B681B68FB607B68444A934213D001
:103C40007B68B3F1804F0FD07B68414A93420BD021
:103C50007B68404A934207D07B683F4A934203D037
:103C60007B683E4A934208D1FB6823F07003FB60F7
:103C70003B685B68FA681343FB607B68334A934296
:103C800027D07B68B3F1804F23D07B68304A9342C2
:103C90001FD07B682F4A93421BD07B682E4A9342E9
:103CA00017D07B682D4A934213D07B682C4A9342ED
:103CB0000FD07B682B4A93420BD07B682A4A9342F1
:103CC00007D07B68294A934203D07B68284A9342F5
:103CD00008D1FB6823F44073FB603B68DB68FA683B
:103CE0001343FB60FB6823F080023B685B6913436E
:103CF000FB607B68FA681A603B689A687B68DA62E6
:103D00003B681A687B689A627B68104A93420FD0BE
:103D10007B68124A93420BD07B68114A934207D0CA
:103D20007B68104A934203D07B680F4A934203D1C9
:103D30003B681A697B681A637B6801225A6100BF7D
:103D40001437BD465DF8047B704700BF000001409A
:103D50000004004000080040000C00400004014046
:103D600000400140004401400048014000E00040A4
:103D700000E4004080B483B000AF786000BF0C372F
:103D8000BD465DF8047B704780B483B000AF7860B7
:103D900000BF0C37BD465DF8047B704780B483B02C
:103DA00000AF786000BF0C37BD465DF8047B7047FC
:103DB00080B483B000AF78607B6803F108027B6851
:103DC0005A607B684FF0FF329A607B6803F108020B
:103DD0007B68DA607B6803F108027B681A617B68A4
:103DE00000221A6000BF0C37BD465DF8047B7047A7
:103DF00080B483B000AF78607B6800221A6100BF96
:103E00000C37BD465DF8047B704780B485B000AFC9
:103E1000786039607B685B68FB603B68FA685A6071
:103E2000FB689A683B689A60FB689B683A685A60CE
:103E3000FB683A689A603B687A681A617B681B681D
:103E40005A1C7B681A6000BF1437BD465DF8047BBE
:103E5000704780B485B000AF786039603B681B68FC
:103E6000BB60BB68B3F1FF3F03D17B681B69FB609C
:103E70000CE07B680833FB6002E0FB685B68FB607A
:103E8000FB685B681B68BA689A42F6D2FB685A689E
:103E90003B685A603B685B683A689A603B68FA68BE
:103EA0009A60FB683A685A603B687A681A617B6876
:103EB0001B685A1C7B681A6000BF1437BD465DF84A
:103EC000047B704780B485B000AF78607B681B6965
:103ED000FB607B685B687A6892689A607B689B6825
:103EE0007A6852685A60FB685B687A689A4203D1C4
:103EF0007B689A68FB685A607B6800221A61FB68DD
:103F00001B685A1EFB681A60FB681B68184614374A
:103F1000BD465DF8047B704780B584B000AF786023
:103F200039607B68FB60FB68002B0AD14FF05003BF
:103F300083F31188BFF36F8FBFF34F8FBB6000BF58
:103F4000FEE702F0FFFDFB681A68FB68DB6BF968AF
:103F5000096C01FB03F31A44FB689A60FB680022BA
:103F60009A63FB681A68FB685A60FB681A68FB680A
:103F7000DB6B013BF968096C01FB03F31A44FB6836
:103F8000DA60FB68FF2283F84420FB68FF2283F895
:103F900045203B68002B14D1FB681B69002B1AD00D
:103FA000FB681033184601F025FB0346002B12D0A6
:103FB0000C4B4FF080521A60BFF34F8FBFF36F8FDF
:103FC00009E0FB6810331846FFF7F2FEFB68243364
:103FD0001846FFF7EDFE02F0E5FD01231846103705
:103FE000BD4680BD04ED00E080B58EB002AFF86044
:103FF000B9607A603B60FB68002B0AD14FF0500338
:1040000083F31188BFF36F8FBFF34F8FBB6200BF85
:10401000FEE73B68002B0AD14FF0500383F3118871
:10402000BFF36F8FBFF34F8F7B6200BFFEE77B68EC
:10403000002B02D0BB68002B01D0012300E000233D
:10404000002B0AD14FF0500383F31188BFF36F8F19
:10405000BFF34F8F3B6200BFFEE77B68002B02D1AE
:10406000BB68002B01D1012300E00023002B0AD103
:104070004FF0500383F31188BFF36F8FBFF34F8F5F
:10408000FB6100BFFEE750237B617B69502B0AD0A8
:104090004FF0500383F31188BFF36F8FBFF34F8F3F
:1040A000BB6100BFFEE77B693B68FB62FB6A002BDC
:1040B0000DD0FB6A012283F8462097F83820FB6A6E
:1040C000009313467A68B968F86800F03FF8FB6A15
:1040D00018463037BD4680BD80B58AB002AFF86063
:1040E000B9601346FB71FB68002B0AD14FF05003F7
:1040F00083F31188BFF36F8FBFF34F8F3B6100BF16
:10410000FEE7FB68BA6802FB03F3FB61FB6950330F
:10411000184602F0FDF9B861BB69002B11D0BB69EC
:104120007B617B6950337B61BB69002283F8462049
:10413000FA79BB69009313467A69B968F86800F0A8
:1041400005F8BB6918462037BD4680BD80B584B0F0
:1041500000AFF860B9607A60FB70BB68002B03D1D8
:10416000BB69BA691A6002E0BB697A681A60BB6908
:10417000FA68DA63BB69BA681A640121B869FFF7A3
:10418000CBFEBB69FA7883F84C2000BF1037BD46E0
:1041900080BD80B586B000AF786039607B68002B49
:1041A0000AD14FF0500383F31188BFF36F8FBFF331
:1041B0004F8F3B6100BFFEE73A687B689A420AD99D
:1041C0004FF0500383F31188BFF36F8FBFF34F8F0E
:1041D000FB6000BFFEE7022200217868FFF77CFF4A
:1041E00078617B69002B02D07B693A689A637B69AE
:1041F00018461837BD4680BD80B58EB000AFF86058
:10420000B9607A603B6000237B63FB683B633B6B78
:10421000002B0AD14FF0500383F31188BFF36F8F47
:10422000BFF34F8FBB6200BFFEE7BB68002B03D11B
:104230003B6B1B6C002B01D1012300E00023002B02
:104240000AD14FF0500383F31188BFF36F8FBFF390
:104250004F8F7B6200BFFEE73B68022B03D13B6BB5
:10426000DB6B012B01D1012300E00023002B0AD1DD
:104270004FF0500383F31188BFF36F8FBFF34F8F5D
:104280003B6200BFFEE701F077FB0346002B02D143
:104290007B68002B01D1012300E00023002B0AD111
:1042A0004FF0500383F31188BFF36F8FBFF34F8F2D
:1042B000FB6100BFFEE702F045FC3B6B9A6B3B6B7A
:1042C000DB6B9A4202D33B68022B29D13A68B9686A
:1042D000386B00F02FFBF8623B6B5B6A002B10D051
:1042E0003B6B2433184601F085F90346002B13D0AD
:1042F0003F4B4FF080521A60BFF34F8FBFF36F8F69
:104300000AE0FB6A002B07D0394B4FF080521A604D
:10431000BFF34F8FBFF36F8F02F044FC012363E0C4
:104320007B68002B03D102F03DFC00235CE07B6B3B
:10433000002B06D107F11403184601F0BFF9012341
:104340007B6302F02FFC00F02BFF02F0FBFB3B6BCA
:1043500093F844305BB2B3F1FF3F03D13B6B0022D3
:1043600083F844203B6B93F845305BB2B3F1FF3FD9
:1043700003D13B6B002283F8452002F013FC3A1D69
:1043800007F114031146184601F0AEF90346002B5D
:1043900024D1386B00F0C6FB0346002B18D03B6BD2
:1043A00010337A681146184601F0D4F8386B00F0E3
:1043B00051FB00F003FF0346002B7FF47CAF0C4B56
:1043C0004FF080521A60BFF34F8FBFF36F8F72E7C9
:1043D000386B00F03FFB00F0F1FE6CE7386B00F04B
:1043E00039FB00F0EBFE002318463837BD4680BD90
:1043F00004ED00E080B590B000AFF860B9607A607D
:104400003B60FB68BB63BB6B002B0AD14FF05003D2
:1044100083F31188BFF36F8FBFF34F8FBB6200BF71
:10442000FEE7BB68002B03D1BB6B1B6C002B01D1DB
:10443000012300E00023002B0AD14FF0500383F347
:104440001188BFF36F8FBFF34F8F7B6200BFFEE712
:104450003B68022B03D1BB6BDB6B012B01D101232A
:1044600000E00023002B0AD14FF0500383F31188A2
:10447000BFF36F8FBFF34F8F3B6200BFFEE702F0C9
:1044800043FCEFF311824FF0500383F31188BFF325
:104490006F8FBFF34F8FFA61BB61FB697B63BB6BAF
:1044A0009A6BBB6BDB6B9A4202D33B68022B2FD11A
:1044B000BB6B93F8453087F83330BB6B9B6BFB626B
:1044C0003A68B968B86B00F035FA97F93330B3F150
:1044D000FF3F12D1BB6B5B6A002B16D0BB6B243342
:1044E000184601F087F80346002B0ED07B68002B9E
:1044F0000BD07B6801221A6007E097F83330013354
:10450000DBB25AB2BB6B83F845200123FB6301E0A9
:104510000023FB637B6B7B617B6983F3118800BFA6
:10452000FB6B18464037BD4680BD000080B58CB09F
:1045300000AFF860B9607A600023FB62FB68BB6281
:10454000BB6A002B0AD14FF0500383F31188BFF3ED
:104550006F8FBFF34F8F3B6200BFFEE7BB68002B3E
:1045600003D1BB6A1B6C002B01D1012300E00023A7
:10457000002B0AD14FF0500383F31188BFF36F8FE4
:10458000BFF34F8FFB6100BFFEE701F0F5F9034673
:10459000002B02D17B68002B01D1012300E0002316
:1045A000002B0AD14FF0500383F31188BFF36F8FB4
:1045B000BFF34F8FBB6100BFFEE702F0C3FABB6AD7
:1045C0009B6B7B627B6A002B1FD0B968B86A00F0D6
:1045D0001BFA7B6A5A1EBB6A9A63BB6A1B69002B73
:1045E0000FD0BB6A1033184601F004F80346002BC5
:1045F00007D03D4B4FF080521A60BFF34F8FBFF38F
:104600006F8F02F0CFFA012369E07B68002B03D1A2
:1046100002F0C8FA002362E0FB6A002B06D107F122
:104620001003184601F04AF80123FB6202F0BAFABF
:1046300000F0B6FD02F086FABB6A93F844305BB234
:10464000B3F1FF3F03D1BB6A002283F84420BB6A69
:1046500093F845305BB2B3F1FF3F03D1BB6A002250
:1046600083F8452002F09EFA3A1D07F11003114627
:10467000184601F039F80346002B23D1B86A00F040
:104680003BFA0346002B17D0BB6A24337A681146E5
:10469000184600F05FFFB86A00F0DCF900F08EFD0C
:1046A0000346002B89D1104B4FF080521A60BFF3A4
:1046B0004F8FBFF36F8F80E7B86A00F0CBF900F03F
:1046C0007DFD7AE7B86A00F0C5F900F077FDB86AB9
:1046D00000F012FA0346002B3FF46FAF0023184698
:1046E0003037BD4680BD00BF04ED00E080B58EB020
:1046F00000AF7860396000237B637B68FB62002336
:104700003B63FB6A002B0AD14FF0500383F31188FF
:10471000BFF36F8FBFF34F8F3B6200BFFEE7FB6AB3
:104720001B6C002B0AD04FF0500383F31188BFF3AA
:104730006F8FBFF34F8FFB6100BFFEE701F01CF9E5
:104740000346002B02D13B68002B01D1012300E07E
:104750000023002B0AD14FF0500383F31188BFF3DD
:104760006F8FBFF34F8FBB6100BFFEE702F0EAF926
:10477000FB6A9B6BBB62BB6A002B24D0BB6A5A1ED0
:10478000FB6A9A63FB6A1B68002B04D101F06AFA8A
:104790000246FB6A9A60FB6A1B69002B0FD0FB6A1A
:1047A0001033184600F026FF0346002B07D0544B69
:1047B0004FF080521A60BFF34F8FBFF36F8F02F03C
:1047C000F1F9012397E03B68002B11D13B6B002BE3
:1047D0000AD04FF0500383F31188BFF36F8FBFF3FC
:1047E0004F8F7B6100BFFEE702F0DCF9002382E01F
:1047F0007B6B002B06D107F10C03184600F05EFF1F
:1048000001237B6302F0CEF900F0CAFC02F09AF9B2
:10481000FB6A93F844305BB2B3F1FF3F03D1FB6A0C
:10482000002283F84420FB6A93F845305BB2B3F171
:10483000FF3F03D1FB6A002283F8452002F0B2F962
:104840003A4607F10C031146184600F04DFF0346A7
:10485000002B32D1F86A00F04FF90346002B26D026
:10486000FB6A1B68002B09D102F06CF9FB6A9B689C
:10487000184601F09FF8386302F094F9FB6A24337C
:104880003A681146184600F065FEF86A00F0E2F852
:1048900000F094FC0346002B7FF468AF184B4FF0F8
:1048A00080521A60BFF34F8FBFF36F8F5EE7F86AD5
:1048B00000F0D0F800F082FC58E7F86A00F0CAF87F
:1048C00000F07CFCF86A00F017F90346002B3FF477
:1048D0004DAF3B6B002B0DD002F034F9F86A00F0BD
:1048E00011F87862FB6A9B68796A184601F038F91A
:1048F00002F058F9002318463837BD4680BD00BF86
:1049000004ED00E080B485B000AF78607B685B6A3E
:10491000002B06D07B681B6B1B68C3F13803FB6060
:1049200001E00023FB60FB6818461437BD465DF8C4
:10493000047B704780B586B000AFF860B9607A60DC
:1049400000237B61FB689B6B3B61FB681B6C002B4E
:104950000DD1FB681B68002B4DD1FB689B68184686
:1049600001F090F87861FB6800229A6043E07B6870
:10497000002B19D1FB685868FB681B6C1A46B96894
:1049800002F02CFDFB685A68FB681B6C1A44FB683C
:104990005A60FB685A68FB689B689A422BD3FB6895
:1049A0001A68FB685A6026E0FB68D868FB681B6CD5
:1049B0001A46B96802F012FDFB68DA68FB681B6CE6
:1049C0005B421A44FB68DA60FB68DA68FB681B68C4
:1049D0009A4207D2FB689A68FB681B6C5B421A44D8
:1049E000FB68DA607B68022B05D13B69002B02D0A3
:1049F0003B69013B3B613B695A1CFB689A637B69DD
:104A000018461837BD4680BD80B582B000AF7860CB
:104A100039607B681B6C002B18D07B68DA687B6878
:104A20001B6C1A447B68DA607B68DA687B689B6879
:104A30009A4203D37B681A687B68DA607B68D9681E
:104A40007B681B6C1A46386802F0C8FC00BF083748
:104A5000BD4680BD80B584B000AF786002F072F8CA
:104A60007B6893F84530FB7311E07B685B6A002B31
:104A700012D07B682433184600F0BCFD0346002B9F
:104A800001D000F093FEFB7B013BDBB2FB7397F997
:104A90000F30002BE9DC00E000BF7B68FF2283F8C9
:104AA000452002F07FF802F04DF87B6893F844301F
:104AB000BB7311E07B681B69002B12D07B6810333D
:104AC000184600F097FD0346002B01D000F06EFE63
:104AD000BB7B013BDBB2BB7397F90E30002BE9DCEB
:104AE00000E000BF7B68FF2283F8442002F05AF800
:104AF00000BF1037BD4680BD80B584B000AF786080
:104B000002F020F87B689B6B002B02D10123FB6035
:104B100001E00023FB6002F045F8FB6818461037FF
:104B2000BD4680BD80B584B000AF786002F00AF861
:104B30007B689A6B7B68DB6B9A4202D10123FB6036
:104B400001E00023FB6002F02DF8FB6818461037E7
:104B5000BD4680BD80B485B000AF78603960002369
:104B6000FB6014E00F4AFB6852F83330002B0BD186
:104B70000C49FB683A6841F833200A4AFB68DB00BD
:104B800013447A685A6006E0FB680133FB60FB68F7
:104B9000072BE7D900BF00BF1437BD465DF8047B83
:104BA000704700BF0002002480B586B000AFF860F7
:104BB000B9607A60FB687B6101F0C4FF7B6993F8A0
:104BC00044305BB2B3F1FF3F03D17B69002283F82D
:104BD00044207B6993F845305BB2B3F1FF3F03D1CA
:104BE0007B69002283F8452001F0DCFF7B699B6B29
:104BF000002B06D17B6924337A68B968184600F027
:104C0000CDFC7869FFF726FF00BF1837BD4680BD91
:104C100080B58EB004AFF860B9607A603B607B6BA2
:104C2000002B0AD14FF0500383F31188BFF36F8F2D
:104C3000BFF34F8F3B6200BFFEE7BB6B002B0AD177
:104C40004FF0500383F31188BFF36F8FBFF34F8F83
:104C5000FB6100BFFEE74FF4C0733B613B69B3F5F6
:104C6000C07F0AD04FF0500383F31188BFF36F8FDA
:104C7000BFF34F8FBB6100BFFEE73B69BB6B002BEF
:104C80001ED07B6B002B1BD0BB6B7B627B6A7A6B6D
:104C90001A637B6A022283F87D21002303937B6AD7
:104CA000029307F1140301933B6B00933B687A680E
:104CB000B968F86800F052F8786A00F01FF901E06E
:104CC00000237B617B6918462837BD4680BD80B5CF
:104CD0008CB004AFF860B9603B601346FB80FB8882
:104CE0009B00184601F014FC78617B69002B0FD003
:104CF0004FF4C07001F00CFCF861FB69002B03D08D
:104D0000FB697A691A6305E0786901F0CDFC01E07E
:104D10000023FB61FB69002B17D0FB69002283F89D
:104D20007D21FA8800230393FB690293FB6A0193B8
:104D3000BB6A00933B68B968F86800F00FF8F8693F
:104D400000F0DCF80123BB6102E04FF0FF33BB61F0
:104D5000BB6918462037BD4680BD000080B588B0CD
:104D600000AFF860B9607A603B603B6B186B7B68A2
:104D70009B001A46A52102F0A7FA3B6B1A6B7968D3
:104D80006FF040430B449B001344BB61BB6923F0AD
:104D90000703BB61BB6903F00703002B0AD04FF088
:104DA000500383F31188BFF36F8FBFF34F8F7B6185
:104DB00000BFFEE7BB68002B1FD00023FB6112E0A1
:104DC000BA68FB69134419783A6BFB6913443433AE
:104DD0000A461A70BA68FB6913441B78002B06D088
:104DE000FB690133FB61FB690F2BE9D900E000BFD0
:104DF0003B6B002283F8432003E03B6B002283F8E7
:104E00003420BB6A372B01D93723BB623B6BBA6AAC
:104E1000DA623B6BBA6ADA643B6B00221A653B6B61
:104E200004331846FEF7E4FF3B6B18331846FEF7D1
:104E3000DFFF3B6B3A6B1A61BB6AC3F138023B6B15
:104E40009A613B6B3A6B5A623B6B0022C3F8782144
:104E50003B6B002283F87C213B6B58334FF49072FC
:104E60000021184602F030FA3B6B214ADA653B6BB1
:104E7000204A1A663B6B204A5A66396B4FF0010292
:104E80004FF00003C1E93C233B6B43F20E32A3F821
:104E9000F8203B6B4AF6CD32A3F8FA203B6B41F287
:104EA0003422A3F8FC203B6B4EF26D62A3F8FE2087
:104EB0003B6B4DF6EC62A3F800213B6B0522A3F897
:104EC00002213B6B0B22A3F804213A68F968B86908
:104ED00001F008FD02463B6B1A60FB6A002B02D012
:104EE000FB6A3A6B1A6000BF2037BD4680BD00BF29
:104EF000984D0024004E0024684E002480B582B0F6
:104F000000AF786001F01EFE2D4B1B6801332C4A68
:104F100013602C4B1B68002B09D12A4A7B68136055
:104F2000274B1B68012B10D100F064FC0DE0264BD1
:104F30001B68002B09D1234B1B68DA6A7B68DB6A8C
:104F40009A4202D81F4A7B681360204B1B680133CA
:104F50001E4A13601D4B1A687B685A647B68DA6AC4
:104F60001B4B1B689A4203D97B68DB6A184A1360A3
:104F70007B68DA6A13469B0013449B00154A1A4467
:104F80007B68043319461046FEF73FFF01F00AFE26
:104F90000D4B1B68002B0ED00A4B1B68DA6A7B682E
:104FA000DB6A9A4207D20C4B4FF080521A60BFF373
:104FB0004F8FBFF36F8F00BF0837BD4680BD00BF66
:104FC0001407002440020024200700243007002496
:104FD0001C0700244402002404ED00E080B584B0E6
:104FE00000AF786001F0AEFD7B68002B02D12C4B46
:104FF0001B6800E07B68FB60FB6804331846FEF723
:1050000061FFFB689B6A002B04D0FB6818331846CD
:10501000FEF758FF234B1B680133224A1360204BD5
:105020001B68FA689A420BD1FB68043319461E4884
:10503000FEF7EBFE1D4B1B6801331C4A136009E0B1
:105040001B4B1B68013B1A4A1360F86800F040FCD8
:1050500000F072FC01F0A6FD164B1B68002B1BD064
:105060000F4B1B68FA689A4216D1134B1B68002B32
:105070000AD04FF0500383F31188BFF36F8FBFF353
:105080004F8FBB6000BFFEE70C4B4FF080521A60A1
:10509000BFF34F8FBFF36F8F00BF1037BD4680BD8A
:1050A0004002002430070024E8060024FC06002407
:1050B00014070024200700243C07002404ED00E02E
:1050C00080B58AB004AF0023BB6000237B603A4602
:1050D000391D07F10803184601F0E6F939687B68C5
:1050E000BA68029201930023009300230A462449E0
:1050F0002448FFF78DFD0346234A1360224B1B68AB
:10510000002B02D001237B6101E000237B617B69DE
:10511000012B02D100F00EFE78617B69012B1BD1BF
:105120004FF0500383F31188BFF36F8FBFF34F8F9E
:105130003B6100BF154B1B685833154A1360154B74
:105140004FF0FF321A60144B01221A60134B0022F9
:105150001A6001F055FC0EE07B69B3F1FF3F0AD104
:105160004FF0500383F31188BFF36F8FBFF34F8F5E
:10517000FB6000BFFEE700BF1837BD4680BD00BF23
:1051800020750008C5570008380700244002002495
:10519000800000243407002420070024180700247E
:1051A00080B400AF044B1B680133034A136000BF97
:1051B000BD465DF8047B70473C07002480B584B091
:1051C00000AF0023FB600023BB60424B1B68002B39
:1051D0000AD14FF0500383F31188BFF36F8FBFF3F1
:1051E0004F8F3B6000BFFEE701F0ACFC394B1B6802
:1051F000013B384A1360374B1B68002B62D1364B9A
:105200001B68002B5ED02FE0344BDB68DB68FB6053
:10521000FB6818331846FEF755FEFB680433184642
:10522000FEF750FEFB68DA6A2D4B1B689A4203D9E1
:10523000FB68DB6A2A4A1360FB68DA6A13469B0044
:1052400013449B00274A1A44FB680433194610464E
:10525000FEF7DBFDFB68DA6A234B1B68DB6A9A42C8
:1052600002D3224B01221A601C4B1B68002BCBD1AE
:10527000FB68002B01D000F05FFB1D4B1B687B60BF
:105280007B68002B10D000F047F80346002B02D0BB
:10529000164B01221A607B68013B7B607B68002B08
:1052A000F1D1134B00221A60104B1B68002B09D060
:1052B0000123BB600F4B4FF080521A60BFF34F8F3A
:1052C000BFF36F8F01F06EFCBB6818461037BD4608
:1052D00080BD00BF3C07002414070024D40600242E
:1052E0001C07002444020024400200242807002454
:1052F0002407002404ED00E080B483B000AF054B28
:105300001B687B607B6818460C37BD465DF8047BE4
:10531000704700BF1807002480B586B000AF002397
:105320007B614F4B1B68002B40F08F804D4B1B68FF
:1053300001333B614B4A3B6913603B69002B20D131
:10534000494B1B681B68002B0AD04FF0500383F3B6
:105350001188BFF36F8FBFF34F8F3B6000BFFEE735
:10536000414B1B68FB60414B1B683F4A13603F4A3F
:10537000FB6813603E4B1B6801333D4A136000F02D
:10538000DBFA3C4B1B683A699A4249D3364B1B689F
:105390001B68002B04D1374B4FF0FF321A603FE0FF
:1053A000314B1B68DB68DB68BB60BB685B687B609C
:1053B0003A697B689A4203D22E4A7B6813602FE0D9
:1053C000BB6804331846FEF77DFDBB689B6A002B63
:1053D00004D0BB6818331846FEF774FDBB68DA6A60
:1053E000254B1B689A4203D9BB68DB6A224A1360CB
:1053F000BB68DA6A13469B0013449B001F4A1A4499
:10540000BB68043319461046FEF7FFFCBB68DA6A36
:105410001B4B1B68DB6A9A42B8D301237B61B5E75B
:10542000174B1B68DA6A154913469B0013449B000F
:105430000B441B68012B01D901237B61114B1B68B5
:10544000002B07D001237B6104E00F4B1B68013365
:105450000D4A13607B6918461837BD4680BD00BFF2
:105460003C07002418070024CC060024D0060024A2
:105470002C070024340700241C07002444020024C5
:1054800040020024280700242407002480B485B0AB
:1054900000AF2A4B1B68002B03D0294B01221A6056
:1054A00046E0274B00221A60264B1B68FB6010E089
:1054B000FB68002B0AD14FF0500383F31188BFF330
:1054C0006F8FBFF34F8F7B6000BFFEE7FB68013B30
:1054D000FB601D49FA6813469B0013449B000B4474
:1054E0001B68002BE4D0FA6813469B0013449B0012
:1054F000154A1344BB60BB685B685A68BB685A6056
:10550000BB685A68BB6808339A4204D1BB685B68C1
:105510005A68BB685A60BB685B68DB680B4A1360FB
:10552000084AFB681360094B1B685833084A13602C
:1055300000BF1437BD465DF8047B70473C0700246C
:10554000280700241C0700244402002440020024F1
:105550008000002480B584B000AF786039607B683B
:10556000002B0AD14FF0500383F31188BFF36F8FE4
:10557000BFF34F8FFB6000BFFEE7074B1B6818337C
:1055800019467868FEF765FC0121386800F07EFB5B
:1055900000BF1037BD4680BD4002002480B586B0F4
:1055A00000AFF860B9607A60FB68002B0AD14FF059
:1055B000500383F31188BFF36F8FBFF34F8F7B616D
:1055C00000BFFEE70A4B1B6818331946F868FEF760
:1055D0001CFC7B68002B02D04FF0FF33BB60796866
:1055E000B86800F053FB00BF1837BD4680BD00BF50
:1055F0004002002480B586B000AF78607B68DB682D
:10560000DB683B613B69002B0AD14FF0500383F309
:105610001188BFF36F8FBFF34F8FFB6000BFFEE7B2
:105620003B6918331846FEF74DFC1E4B1B68002BD8
:105630001DD13B6904331846FEF744FC3B69DA6A26
:10564000194B1B689A4203D93B69DB6A164A1360FF
:105650003B69DA6A13469B0013449B00134A1A44C1
:105660003B69043319461046FEF7CFFB05E03B6962
:10567000183319460E48FEF7C8FB3B69DA6A0D4B32
:105680001B68DB6A9A4205D901237B610A4B012220
:105690001A6001E000237B617B6918461837BD461C
:1056A00080BD00BF3C0700241C07002444020024E6
:1056B000D4060024400200242807002480B483B0CC
:1056C00000AF7860064B1A687B681A60054B1A6851
:1056D0007B685A6000BF0C37BD465DF8047B70479D
:1056E0002C0700241807002480B588B000AF78602C
:1056F00039607B68002B0AD14FF0500383F3118887
:10570000BFF36F8FBFF34F8F3B6100BFFEE73B6876
:10571000002B0AD14FF0500383F31188BFF36F8F32
:10572000BFF34F8FFB6000BFFEE701F00BFA1D4B8C
:105730001B68BB617B685B68BA69D31A7B613B6895
:105740001B68B3F1FF3F02D10023FB6123E07B68BC
:105750001A68154B1B689A4207D07B685B68BA6968
:105760009A4202D30123FB6115E03B681B687A690A
:105770009A420BD23B681A687B69D21A3B681A605E
:105780007868FFF79BFF0023FB6104E03B68002281
:105790001A600123FB6101F005FAFB691846203706
:1057A000BD4680BD180700242C07002480B400AF3C
:1057B000034B01221A6000BFBD465DF8047B7047B1
:1057C0002807002480B582B000AF786000F052F85E
:1057D000064B1B68012BF9D9054B4FF080521A601C
:1057E000BFF34F8FBFF36F8FF0E700BF4402002479
:1057F00004ED00E080B582B000AF00237B600CE0D8
:105800007A6813469B0013449B00124A13441846BF
:10581000FEF7CEFA7B6801337B607B68372BEFD9CC
:105820000D48FEF7C5FA0D48FEF7C2FA0C48FEF720
:10583000BFFA0C48FEF7BCFA0B48FEF7B9FA0B4B5F
:10584000054A1A600A4B054A1A6000BF0837BD4670
:1058500080BD00BF44020024A4060024B806002432
:10586000D4060024E806002400070024CC06002407
:10587000D006002480B582B000AF19E001F062F9D3
:10588000104BDB68DB687B607B6804331846FEF7EF
:1058900019FB0D4B1B68013B0B4A13600B4B1B683C
:1058A000013B0A4A136001F07DF9786800F010F8B6
:1058B000064B1B68002BE1D100BF00BF0837BD4677
:1058C00080BD00BFE806002414070024FC06002465
:1058D00080B584B000AF78607B685833184601F01B
:1058E000FBFC7B6893F87D31002B08D17B681B6B38
:1058F000184600F0D9FE786800F0D6FE18E07B6804
:1059000093F87D31012B03D1786800F0CDFE0FE0D4
:105910007B6893F87D31022B0AD04FF0500383F35C
:105920001188BFF36F8FBFF34F8FFB6000BFFEE79F
:1059300000BF1037BD4680BD80B483B000AF0C4BB4
:105940001B681B68002B04D10A4B4FF0FF321A6012
:1059500008E0074B1B68DB68DB687B607B685B6883
:10596000044A136000BF0C37BD465DF8047B7047E6
:10597000CC0600243407002480B483B000AF0B4B66
:105980001B68002B02D101237B6008E0084B1B68D9
:10599000002B02D102237B6001E000237B607B6847
:1059A00018460C37BD465DF8047B7047200700247D
:1059B0003C07002480B584B000AF78607B68BB6092
:1059C0000023FB607B68002B51D0BB68DA6A2A4B4E
:1059D0001B68DB6A9A4241D2BB689B69002B06DBDD
:1059E000254B1B68DB6AC3F13802BB689A61BB6850
:1059F0005969BB68DA6A13469B0013449B001F4A2F
:105A00001344994222D1BB6804331846FEF75AFA70
:105A1000194B1B68DA6ABB68DA62BB68DA6A184B32
:105A20001B689A4203D9BB68DB6A154A1360BB68DE
:105A3000DA6A13469B0013449B00104A1A44BB6861
:105A4000043319461046FEF7E0F904E00A4B1B68E0
:105A5000DA6ABB68DA620123FB6008E0BB68DA6CD3
:105A6000054B1B68DB6A9A4201D20123FB60FB688D
:105A700018461037BD4680BD400200244402002471
:105A80001C07002480B586B000AF78607B683B615E
:105A900000237B617B68002B56D02E4B1B683A6934
:105AA0009A420AD04FF0500383F31188BFF36F8FEF
:105AB000BFF34F8FFB6000BFFEE73B691B6D002B00
:105AC0000AD14FF0500383F31188BFF36F8FBFF3F8
:105AD0004F8FBB6000BFFEE73B691B6D5A1E3B69E1
