:020000040800F2
:1000000000000524019900088D27000891270008A9
:1000100095270008992700089D2700080000000088
:1000200000000000000000000000000071950008C2
:10003000A127000800000000019600082D9200088A
:1000400051990008519900085199000851990008E8
:1000500051990008519900085199000851990008D8
:10006000519900085199000851990008A5270008E6
:10007000A9270008519900085199000851990008D2
:100080005199000851990008519900088D070008FE
:100090005199000851990008519900085199000898
:1000A0005199000851990008519900085199000888
:1000B000AD2700085199000851990008519900088E
:1000C0005199000851990008519900085199000868
:1000D0005199000851990008519900085199000858
:1000E000519900085199000800000000519900083A
:1000F0005199000851990008519900085199000838
:100100005199000851990008519900085199000827
:100110005199000851990008519900085199000817
:100120005199000851990008519900085199000807
:1001300051990008519900085199000851990008F7
:1001400000000000000000000000000000000000AF
:1001500051990008519900085199000851990008D7
:1001600051990008519900085199000851990008C7
:1001700051990008519900085199000851990008B7
:1001800051990008519900085199000851990008A7
:100190005199000851990008519900085199000897
:1001A0005199000851990008519900080000000079
:1001B0005199000851990008519900085199000877
:1001C000519900085199000800000000000000004B
:1001D000000000000000000051990008000000002D
:1001E000000000000000000000000000000000000F
:1001F000000000000000000051990008519900081B
:100200005199000851990008000000005199000818
:1002100051990008B9270008BD2700085199000826
:1002200051990008000000005199000800000000EA
:1002300051990008519900080000000051990008E8
:1002400051990008519900085199000851990008E6
:1002500051990008519900085199000851990008D6
:1002600051990008519900085199000851990008C6
:1002700051990008519900085199000800000000A8
:1002800051990008519900085199000851990008A6
:100290000000000051990008519900085199000888
:1002A0005199000851990008519900085199000886
:1002B0005199000851990008519900085199000876
:0C02C00051990008C1270008CD27000854
:1002D0000348044B834202D0034B03B118477047D5
:1002E0007C0000247C000024000000000548064B30
:1002F0001B1AD90F01EBA301491002D0034B03B124
:10030000184770477C0000247C0000240000000097
:1003100010B5064C237843B9FFF7DAFF044B13B14D
:100320000448AFF300800123237010BD4001002476
:1003300000000000209E000808B5054B1BB10549D0
:100340000548AFF30080BDE80840FFF7CFBF00BF0E
:100350000000000044010024209E000808BB70B586
:10036000114C25790DB1104870BD104E104B114A3B
:100370002660D26883F813534FF400221A600122DA
:100380003046114605F0C8F92A460121304605F0ED
:10039000DBF92379002BE6D101222046A371A2804C
:1003A00070BD0020704700BF5C0100247C03002466
:1003B00000E100E000ED00E02DE9F0418AB00D46DB
:1003C0009DF840C0129E9DF84C109DF8507010B1E1
:1003D0000479012C04D0002420460AB0BDE8F08145
:1003E000003BD0F80080019218BF0123BCF1000C43
:1003F0004FEA837318BF4FF0010C003F02934FEA9E
:100400004C7318BF01270039039318BF0121119BBA
:100410003F054905082B0697079128D81B0404932C
:100420004FF4000308934FF00043059304F0B2FB30
:10043000074603E000F026FCB04207D8D8F80030A9
:1004400001213846D3F8C4309B02F3D42A4601A9CF
:10045000404605F027F80346404603B91C4605F020
:1004600055F9159B186020460AB0BDE8F0810C3B99
:10047000342B1CD8DFE803F0361B1B1B321B1B1B65
:100480002E1B1B1B2A1B1B1B1B1B1B1B261B1B1B8F
:100490001B1B1B1B1B1B1B1B1B1B1B1B221B1B1BA5
:1004A0001B1B1B1B1B1B1B1B1B1B1B1B1E00119B3E
:1004B0000493B5E74FF470230493B1E74FF460233E
:1004C0000493ADE74FF450230493A9E74FF440237E
:1004D0000493A5E74FF430230493A1E74FF42023BE
:1004E00004939DE74FF41023049399E72DE9F04717
:1004F00015468CB00022DDF86880019210B10679B3
:10050000012E04D0002630460CB0BDE8F0870C4622
:100510001F46D0F8009004F03DFBA4F1400A019082
:100520005FFA8AFABAF1010F05D812E0019800F0DB
:10053000A9FB4045E7D82146484605F0BBF8012114
:100540000028F3D005E00198012100F09BFB404515
:1005500057D82B4602AA2146484604F0DBFF002864
:10056000F1D1029B039A3B60003A079B149918BF94
:100570000122003B19980A7018BF0123189A1370C2
:10058000089B003B18BF0123DDE904120370159B93
:100590001970C2F30743082B0ED816990B70179BDE
:1005A000BAF1010F1A70ADD82146484605F0A0F8FF
:1005B0001B9B00261860A6E7093B062BEFD8DFE857
:1005C00003F01C1814100C080400402316990B703B
:1005D000E5E7302316990B70E1E7202316990B709D
:1005E000DDE7182316990B70D9E7142316990B70C1
:1005F000D5E7102316990B70D1E70C2316990B70D1
:10060000CDE700231B9A13607DE700BF10B103798B
:10061000012B00D07047006804F0B6BE012810B46A
:1006200004D104485DF8044B04F000BF5DF8044BAE
:10063000704700BF7C0300240F3803B280B2002B48
:1006400006DB12010649D2B2194481F80023704733
:1006500000F00F001201034BD2B203441A76704728
:1006600000E100E0FCEC00E0F8B5144B144C1D6810
:100670002B68B3FA83F35B092370237873B1114FAE
:10068000114E304600F01CFC00F016F92B68003BC0
:1006900018BF01233B702378002BF2D100250B4BB0
:1006A000012225701A60257000F064FA084800F0F5
:1006B00015FC284600F0CAFB2846F8BD849E0008B9
:1006C0000000002484010024800100248C01002407
:1006D0008801002410B582B0002404F01FFA00F055
:1006E0000DFC00F0BBFC01F05BFE00F025FD00F00E
:1006F000BBFD00F029FE00F0BBFE00F009FF00F09A
:100700003DFF00F069FF00F095FF01F003F801F0F4
:100710006DF801F0A9F801F005F901F05DF901F0BB
:10072000EFF901F099FA01F07BFC01F02FFD01F0E7
:10073000E5FD01F0E1FD01F0FDFA01F059FB01F0EA
:10074000A9FB01F0F9FB01F031FC01F01BFB0123D7
:100750000222002100931846FFF760FF084B1B6838
:100760001C6000F05DFA00F0A7F920469FED050A35
:1007700000F0B8FA044800F0A3FB204602B010BD18
:10078000849E0008CDCC4C3E88010024464B5A6D17
:10079000D10709D51A6DD20706D50121434A19653B
:1007A00013788B42D8B204D0BFF36F8FBFF34F8F53
:1007B000704770B58AB03E4C3E4D402109AB04F104
:1007C0001806CDE90603631D3246E86CCDE9043412
:1007D000E31D0393A31C0293E31C0193631C00938A
:1007E00004F10803FFF782FE002300222371A371A6
:1007F000E3600023C4E90423A378082B13D0636FBC
:10080000226F2366B4F874C0B4F87630E265E26F04
:10081000A5F870C06266A5F87230BFF36F8FBFF3A2
:100820004F8F0AB070BDA268012A17D0236F042A27
:10083000E36520D0B4F874C0052AB4F87630A4F883
:1008400060C0A4F86230E2D16278002ADFD104F1FE
:100850007C0296E8030082E80300D8E76378ABB136
:10086000226FB4F874C0B4F87630E265A4F860C0C2
:10087000A4F86230CBE763787BB1B4F874C0B4F805
:100880007630A4F860C0A4F86230C0E704F16C03CD
:1008900096E8030083E80300E2E704F1740396E8B6
:1008A000030083E80300E8E700A000400000002404
:1008B00090010024200200242DE9F0437A4C00200E
:1008C0007A490026B4F870204FF00808B4F8723066
:1008D0004FF47A7992B2764D9BB284312DED028B32
:1008E00021F82C2C52BA21F82A3C5BBA21F81C2C96
:1008F00092B28BB021F81A3C62F30F009BB209AFA1
:10090000009663F31F40D5F81F3005970922CDE903
:1009100003664860E06BCDE901890B603346FFF761
:100920004BFD4246334605F11701E06ACDF80890C9
:100930000396CDF804800096CDE90467FFF73CFDEF
:10094000B7EE005BB2EE086B94ED147B37EE057BDF
:10095000B4EEC67B84ED147BF1EE10FA59DC94F80A
:100960007430A97B5A1C534D8DF82010D2B2062A40
:1009700028BF3246052B28BF052384F8742005EBD9
:10098000C30393ED008BBBFE488BB0EE480B00F029
:1009900071F9002842D0002394F875208DF8213099
:1009A000531CDBB2062B28BF0023052A28BF0522D3
:1009B00084F8753005EBC20595ED008BBBFE488BC6
:1009C000B0EE480B00F056F9002841D00023002576
:1009D0004FF47A78032640F2112208A98DF82230CC
:1009E000E0692B4605970095CDF808800196CDE982
:1009F0000355FFF7E1FC08A9E0682B464FF40472A9
:100A00000597CDF80880CDE90355CDE90056FFF7ED
:100A1000D3FC0BB0BDEC028BBDE8F083B0EE480B0D
:100A200000F00EF90028B6D1B0EE480B9FED1C1B6C
:100A300008F092FFB5EEC00BF1EE10FA22D5B1EE40
:100A4000400BBCEEC00B10EE103A5B42DBB2A3E7EA
:100A5000B0EE480B00F0F4F80028B7D1B0EE480B28
:100A60009FED0F1B08F078FFB5EEC00BF1EE10FA0A
:100A70000FD5B1EE400BBCEEC00B10EE103A5B424E
:100A8000DBB2A4E7FCEEC07BCDED077A9DF81C300D
:100A900082E7FCEEC07BCDED077A9DF81C3096E72F
:100AA000000000000000704020020024900100249B
:100AB000889E0008B09E00080020012310B52C4C31
:100AC00084F840006364FFF749FCE06410B10379E7
:100AD000012B37D00123002084F8483084F83000FF
:100AE0006363FFF73BFCE06310B10379012B2DD06A
:100AF0000123002084F8383084F820006362FFF777
:100B00002DFCE06210B10379012B23D001230020DA
:100B100084F8283020746361FFF720FCE06110B195
:100B20000379012B1AD00123002023762070636003
:100B3000FFF714FCE06010B10379012B12D0012300
:100B4000237210BD006804F08FFCC3E7006804F056
:100B50008BFCCDE7006804F087FCD7E7006804F061
:100B600083FCE0E7006804F07FFC0123237210BDE2
:100B70002002002410B5294C94F840302BB90122F2
:100B8000636C934284F8402028D094F830302BB91D
:100B90000122636B934284F8302027D094F82030F0
:100BA0002BB90122636A934284F8202026D0237C4B
:100BB00023B9012263699342227427D0237823B991
:100BC000012263689342227000D010BD237A002B6B
:100BD000FBD0E068BDE81040FFF718BD94F848303E
:100BE000002BD2D0E06CFFF711FDCEE794F838303F
:100BF000002BD3D0E06BFFF709FDCFE794F8283046
:100C0000002BD4D0E06AFFF701FDD0E7237E002B54
:100C1000D4D0E069FFF7FAFCD0E700BF200200243F
:100C200003220549222008B5FFF706FD034B4FF4C8
:100C300000221A6008BD00BF8D07000800E100E037
:100C40000A4B93ED007BB4EE407BF1EE10FA0AD034
:100C5000074B93ED007BB4EE407BF1EE10FA0CBF36
:100C60000120002070470120704700BF08000024C9
:100C700010000024B4EE400BF1EE10FA6CBF01201E
:100C80000020704730B5044683B089B94FF08045E5
:100C90006B6A019303F07EFF00906A6A019B9A429F
:100CA00010D3009A4FF47A71019B01FB023302E0EA
:100CB00003F070FF0346181BA34238BF00F1FF305A
:100CC00003B030BD03F066FF6B6A4FF47A7202FB2B
:100CD0000033F0E7014800F001B900BF80010024B3
:100CE000FFF7C2BC10B500213C482DED028BB0EEE1
:100CF000408A00F0DBF840B14FF0500383F31188D5
:100D0000BFF36F8FBFF34F8FFEE70146344800F00B
:100D1000CDF8034640B14FF0500383F31188BFF381
:100D20006F8FBFF34F8FFEE72E4C282080212E4A75
:100D30002061A446A182A36107CAACE803002B4945
:100D400020468CF800201A4600F05EF8034640B1B9
:100D50004FF0500383F31188BFF36F8FBFF34F8FB2
:100D6000FEE7DFED237A2020224C234A28EE270AD3
:100D70002249E36081F82300BCEEC00A236092E8B8
:100D800003001F4A2061012013600A0CA182A060A9
:100D900020461C49A27584ED010A00F05BF840B1C1
:100DA0004FF0500383F31188BFF36F8FBFF34F8F62
:100DB000FEE74FF47A71204600F05EF840B14FF044
:100DC000500383F31188BFF36F8FBFF34F8FFEE79C
:100DD000BDEC028BBDE8104007F070BC8001002420
:100DE0008801002464010024E09E0008E10C000852
:100DF00000007A449C020024EC9E000800ED00E014
:100E0000BC020024D50C0008E8B1134600F118021A
:100E100030B50446056983B0084621460192A28A8E
:100E2000009507F091FBA36923B1013818BF012099
:100E300003B030BD4FF0500383F31188BFF36F8FC1
:100E4000BFF34F8FFEE70120704700BF002007F07F
:100E5000AFBB00BF10B582B0044600914168D0E935
:100E60000223103008F046F90346B0FA80F0236000
:100E7000400902B010BD00BFA8B130B5056883B00D
:100E800075B10C4607F0B0FC00230246012128464C
:100E9000009408F097F9013818BF012003B030BD65
:100EA000012003B030BD0120704700BF10B50446DB
:100EB0000A2006F085FA03460020236010BD00BF1B
:100EC00050B1006840B14FF0FF3108B506F028FE80
:100ED000013818BF012008BD0120704758B10068D3
:100EE00048B108B500231A46194606F0AFFA013892
:100EF00018BF012008BD0120704700BF524A08B545
:100F0000136823F00F0343F003031360136803F027
:100F10000F03032BFAD14D494D4ACB6823F03F0311
:100F200043F00403CB608B6923F440438B61136867
:100F300043F48033136013689903FCD51168444B64
:100F400041F4805111601A689204FCD5986A414AB4
:100F500020F003003E4940F002009862D86A40F455
:100F60008030D862D86A40F40030D862D86A40F441
:100F70008020D862D86A20F00C0040F00800D862C7
:100F8000D86A20F00200D862986A20F47C7040F0A1
:100F900050009862186B024042F06D021A631A6B9F
:100FA00022F47E421A631A6B22F4FE0242F44032AB
:100FB0001A631A6B22F0FE4242F080721A631A68BA
:100FC00042F080721A600B689B01FCD58B69204A45
:100FD00023F00F0343F008038B610B6923F0070331
:100FE00043F003030B61136903F03803182BFAD1A4
:100FF0009369194823F470639361936923F00F0395
:1010000043F008039361D36923F0700343F0400376
:10101000D361D36923F4E06343F48063D3619369BC
:1010200023F0700343F040039361136A23F07003CD
:1010300043F04003136202F0CBFD0F2002F01CF8D6
:1010400008B172B6FEE708BD002000520048025801
:101050000044025800FEFFFF8055C820334B344A3D
:10106000D96A41F40021D962D96A21F0C00141F066
:101070008001D962D96A21F02001D962996A21F4EC
:101080007C3141F4A0419962996B0A4042F04F02D1
:101090009A639A6B22F47E4242F400629A639A6BDE
:1010A00022F4FE0242F480329A639A6B22F0FE42EE
:1010B00042F080729A631A6842F080621A601A687D
:1010C0001201FCD5D96A1A4A41F080711748D962D9
:1010D000D96A41F44061D962D96A21F40071D962B8
:1010E000996A21F07C7141F000719962196C0A4093
:1010F00042F080021A641A6C22F47E4242F40072BA
:101100001A641A6C22F4FE0242F480321A641A6CD9
:1011100022F0FE4242F080721A641A6842F0805255
:101120001A6003689B00FCD5704700BF004402585A
:1011300000FEFFFF0000000030B5434B97B00024D5
:1011400042480AA9424D0F940394109406940C94BB
:1011500015940994CDE90D44CDE90444CDE9114439
:10116000CDE91344CDE907449A6D22F440329A65E3
:10117000D3F8D82042F02002C3F8D820D3F8D820E2
:1011800002F020020292029AD3F8E02042F0040218
:10119000C3F8E020D3F8E02002F004020192019AA3
:1011A000D3F8E02042F00102C3F8E020D3F8E030A9
:1011B0009FED237B03F001030093009B8DED0A7BE1
:1011C00002F0A2F8234A03A92846536843F040736B
:1011D0005360214B2A6913402B610394059402F05C
:1011E0004DF910A928461594CDE91044CDE91244D3
:1011F00002F07CF90022002306A91848CDE9062355
:1012000002F004F9A968164A164B0A40AA60AA68B7
:10121000134043F08053AB602B6B23F4F86343F02F
:1012200040032B636B6923F038036B61D5F8C03042
:1012300023F00203C5F8C03017B030BDAFF3008013
:10124000010000000300000000440258000802589A
:101250000020024000040058FCFBFFFF0023024076
:10126000C0FFFF5FC0FFFF6F30B5304B8DB0002572
:101270002F48304C03A90395069504950B95CDE9AD
:101280000755CDE909559A6D22F440329A65D3F895
:10129000D82042F02002C3F8D820D3F8D82002F09A
:1012A00020020292029AD3F8E02042F00102C3F831
:1012B000E020D3F8E03003F001030193019B436881
:1012C00043F040734360204622691B4B1340236167
:1012D000059502F0D3F80022002306A920460B95BD
:1012E000CDE90623CDE9082302F000F9A0681349EF
:1012F000134B0140134AA160A1680B4043F0805397
:10130000A360D2F8303123F4F863C2F83031D2F858
:10131000143123F00703C2F81431D4F8C03023F09D
:101320000103C4F8C0300DB030BD00BF0044025806
:101330000004005800210240FCFBFFFFC0FFFF5FDC
:10134000C0FFFF6F0020024030B5404B97B0002433
:101350003F49404D0F940394109406940C941594B7
:1013600009943D48CDE90D44CDE90444CDE911444B
:10137000CDE91344CDE907449A6D22F440329A65D1
:10138000D3F8E02042F08072C3F8E020D3F8E020E8
:1013900002F080720292029AD3F8E02042F0040236
:1013A000C3F8E020D3F8E02002F004020192019A91
:1013B000D3F8E02042F08002C3F8E0200422D3F802
:1013C000E03003F080030093009B4B6843F04063E0
:1013D0004B6003230AA90E94CDE90A2301F094FF80
:1013E0002A691E4B03A9284613402B6103940594D8
:1013F00002F044F810A928461594CDE91044CDE92F
:10140000124402F073F80022002306A9144808943D
:10141000CDE9062301F0FAFFA968124A124B0A40EF
:10142000AA60AA68134043F08053AB602B6B23F48F
:10143000F8632B636B6923F007036B61D5F8B03059
:1014400023F00103C5F8B03017B030BD0044025896
:101450000004005800600258001C0258FCFBFFFF0B
:1014600000630258C0FFFF5FC0FFFF6F0000000075
:1014700030B5234B8FB0002420200321214D02944E
:101480000A9407940D94CDE90344CDE90544CDE9D0
:101490000B44D3F8E82042F00052C3F8E820D3F818
:1014A000E82002F000520192019AD3F8E02042F0C5
:1014B0000102C3F8E020D3F8E03003F00103CDE9E6
:1014C0000801009308A91048009B01F01DFF02AA23
:1014D0000E49284607949FED087BCDE905448DED24
:1014E000027B03F067FB2B6823F400332B600FB003
:1014F00030BD00BFAFF3008000000000000000001E
:101500000044025800740040000002587200403548
:1015100010B5144882B014490023144A4FF0010C4E
:10152000016000921249134AADF8043040F2F453BE
:10153000C0F804D080F808C04361C0E9031203F08A
:1015400071FB08B172B6FEE70B4C01463022201D3C
:1015500008F076FB21224FF440332260636102B031
:1015600010BD00BFF4020024008002400080E100B2
:10157000DC0000247C000024C00200241448022166
:10158000012238B5002305240162124D83740282C2
:101590000560C0E906110421C0E90233C0E90D333A
:1015A000C0E90F32C0E91143C0E91313C0E91513B4
:1015B000C0E91732C0E919340A23C0E90922C0E999
:1015C0000B22436103F0E0FC08B172B6FEE738BDC0
:1015D0007C03002400A0004014480221012238B5F9
:1015E000002305240162124D837402820560C0E964
:1015F00006110421C0E90233C0E90D33C0E90F32FE
:10160000C0E91143C0E91313C0E91513C0E917324B
:10161000C0E919340A23C0E90922C0E90B22436159
:1016200003F0B2FC08B172B6FEE738BD1C0400241A
:1016300000A4004030B5314A91B00024304D02A9D9
:1016400030480E94CDE90244CDE90444CDE9064486
:10165000CDE90844CDE90A44CDE90C44D2F8583428
:1016600023F44073C2F85834D5F8E03043F0200337
:10167000C5F8E030D5F8E030049403F0200301937E
:101680004FF44043019A0122029302230393012362
:1016900005930423CDE9062301F036FED5F8F43096
:1016A000194808A943F08003C5F8F430D5F8F430A0
:1016B00003F080030093009A4268144B42F00072DA
:1016C0004260C2681340124AC360C36823F40043F7
:1016D000C360036823F400230360036823F400332A
:1016E000036000230E94CDE908420022CDE90A44AC
:1016F000CDE90C2304F06CF811B030BD0040025865
:101700000044025800140258001C005801F8FFFF62
:10171000724E406070B59AB034220021314C684658
:10172000052508F08DFA342200210DEB020008F0A7
:1017300087FA00232C4A4FF42571A386204684F8AB
:101740003630C4E900230722C4E90233C4E9043275
:1017500003220E23A26140F28E22C4E9073540F233
:10176000E513C4E9092340F2E713C4E90B1304F0BD
:1017700067F808B172B6FEE74FF48066024606903D
:101780006946ADF830008DF832000796CDE90000CB
:10179000CDE90200CDE90400CDE90850CDE90A0009
:1017A000204604F0BBF8034608B172B6FEE70DA967
:1017B00020460122ADF864308DF86630CDE90D3356
:1017C000CDE90F33CDE91133CDE91336CDE915530A
:1017D000CDE9173304F0A2F808B172B6FEE71AB0EB
:1017E00070BD00BFBC0400240010005030B52022A2
:1017F0001A4C002387B0012519492261082220468E
:1018000000930593C4E90015C4E90233C4E9055304
:10181000C4E90733C4E90953C4E90B33C4E90D3201
:10182000C4E90F33CDE90133CDE9033304F048F9BE
:1018300008B172B6FEE74FF001120A4B6946204626
:10184000039241F288320493CDE9015504F0F2F994
:1018500008B172B6FEE707B030BD00BF64050024D2
:10186000005000520100000110B501222A4C2B4803
:1018700000234FF080618AB023640493009309939E
:101880000393C4E900022020C4E902310821C4E91D
:1018900004022046C4E90633C4E90832C4E90A3325
:1018A000C4E90C33C4E90E13CDE90533CDE90733A0
:1018B000CDE9013304F004F908B172B6FEE7022362
:1018C000174A04A92046079241F28832CDE9053330
:1018D00003F18073089304F0ADF908B172B6FEE726
:1018E0009FED097B41F28832694620468DED007BF1
:1018F0009FED077B8DED027B04F060F908B172B6B5
:10190000FEE70AB010BD00BF0000000000000000AC
:101910000200000000000000C405002400A00052E6
:1019200002000100F8B527480023012426490322BC
:1019300040274FF48076082543640160C364426009
:101940000365876484604361C361C360436380F857
:1019500038304565C0E90B33C0E90F36C0E916439E
:10196000C0E91833C0E91A33C0E91C4304F086FC0F
:1019700008B172B6FEE703461448154A4360836017
:10198000C361C360436380F83830C36343678764CF
:101990000260C0E91063C0E91333C0E90533C0E950
:1019A0000B33C0E91733C0E91933C0E91B34094BC5
:1019B000C0E91554036204F061FC08B172B6FEE799
:1019C000F8BD00BF2406002404580140BC060024D2
:1019D0002458014000EE02002DE970430024A2B01B
:1019E000444E202221460EA807944FF00008424D95
:1019F0004FF00009CDE90344CDE9054408F020F992
:101A00003022214616A808F01BF903A92846CDE983
:101A10000844CDE90A44CDE90C44D6F8F03043F04F
:101A20000103C6F8F030D6F8F03003F0010302935A
:101A3000029B4FF6FF73059305F0C8F82B680EAABA
:101A40004FF48051284623F080032B60EB6943F468
:101A50000063EB616023CDE914890E93CDE90F4457
:101A6000CDE9114405F04AF9EB694FF4005216A98B
:101A700023F480632846EB616B6823F070036B608E
:101A80006B6823F470036B60AB6823F08003AB607A
:101A90004FF0007318941E9300238DF86440ADF846
:101AA00066401D941F942194CDE91689CDE91A232F
:101AB00005F0B4FAD6F8E0304FF4804208A943F0BC
:101AC00010034FF000084FF001090C48C6F8E03051
:101AD000D6F8E0300892022203F010030B94019331
:101AE000019BCDE90924CDE90C8901F00DFC22B060
:101AF000BDE8708300440258000001400010025805
:101B0000F0B5002497B0504F202221460EA807942C
:101B10004FF080454D4ECDE90344CDE9054408F032
:101B20008FF803A93046CDE90844CDE90A44CDE950
:101B30000C44D7F8E83043F00403C7F8E830D7F88E
:101B4000E83003F004030293029B4FF6FF73059302
:101B500005F03CF8336860210EAA304623F080037C
:101B60003360D5F8183843F40063C5F81838129478
:101B7000CDE90E141021CDE9104405F0BFF8D5F8D9
:101B800018380EAA4FF4807123F480633046C5F8EC
:101B90001838D5F81C3843F00803C5F81C3805F090
:101BA000ADF8D5F81C380EAA4FF4805123F0040389
:101BB0003046C5F81C38D5F81C3843F40063C5F826
:101BC0001C3805F09BF8D5F81C38802208A923F4AE
:101BD00080631F48C5F81C380225736823F0700322
:101BE0007360B36823F08003B3600026D7F8E03059
:101BF0002B43C7F8E030D7F8E0302B400193019B2E
:101C0000D7F8E03043F00803C7F8E030D7F8E03009
:101C100002270A9403F008030B940093009BCDE97C
:101C20000825CDE90C6701F06FFB4FF4404308A98C
:101C3000084809950893CDE90A44CDE90C6701F0FD
:101C400063FB17B0F0BD00BF00440258000800401D
:101C500000040258000C0258F0B5002497B0324E30
:101C6000202221460EA807944FF080472F4DCDE942
:101C70000344CDE9054407F0E3FF03A92846CDE975
:101C80000844CDE90A44CDE90C44D6F8E83043F0E5
:101C90000803C6F8E830D6F8E83003F008030293EA
:101CA000029B4FF0FF33059304F090FF2B686020F8
:101CB0000EAA012123F080032B60D7F8183C43F0D3
:101CC0000803C7F8183C1294CDE90E042846CDE964
:101CD000104405F013F8D7F8183C012208A923F0A6
:101CE00004031348C7F8183C02276B6823F07003FD
:101CF0006B60AB6823F08003AB60D6F8E030134331
:101D0000C6F8E030D6F8E03000260892022203F050
:101D100001030B940193019BCDE90924CDE90C67E4
:101D200001F0F2FA17B0F0BD00440258000C004078
:101D30000000025810B5114841F27B51104C0023AD
:101D400084B040F2CF72A3610193C4E90001204640
:101D5000C4E90232CDE9023304F02AFC08B172B6BC
:101D6000FEE7034601A920460193039304F0C4FE55
:101D700008B172B6FEE704B010BD00BF001000400D
:101D8000EC07002410B5002386B0174A40F6BD20AA
:101D9000019301A9154CCDE90233CDE90433D2F802
:101DA000E83043F02003C2F8E830D2F8E83040F2DF
:101DB000E732ADF80400204603F0200303920093BD
:101DC000009B04F003FF236843F0800323606368F3
:101DD00023F0700343F020036360A36823F08003C3
:101DE000A36006B010BD00BF0044025800140040BC
:101DF00010B5002386B0234A05932348CDE901336B
:101E0000CDE90333D2F8F01041F40031C2F8F010FC
:101E1000D2F8F02002F400320092009AC268C2F3B5
:101E20000222C2F10701101D042928BF042106283F
:101E3000164898BF1A464FF0FF3388BF033A8B40CD
:101E4000DB4303F0050393401B01DBB280F87533DD
:101E50004FF40013C3600E4C40F2252000234CF2D7
:101E60004F32ADF8040001A9204602930392CDE958
:101E7000043304F0ABFE236823F08003236006B034
:101E800010BD00BF0044025800ED00E000E100E09A
:101E90000044014010B5002386B0234A059323482F
:101EA000CDE90133CDE90333D2F8F01041F48021BC
:101EB000C2F8F010D2F8F02002F480220092009ACA
:101EC000C268C2F30222C2F10701101D042928BF13
:101ED00004210628164898BF1A464FF0FF3388BFE2
:101EE000033A8B40DB4303F0050393401B01DBB255
:101EF00080F876334FF48003C3600E4C40F2252007
:101F000000234CF24F32ADF8040001A920460293A1
:101F10000392CDE9043304F059FE236843F08003B3
:101F2000236006B010BD00BF0044025800ED00E081
:101F300000E100E00048014010B51A4840F22522B7
:101F4000194C00238AB047F6BC0123610493019326
:101F5000C4E9000280222046C4E90231A261CDE931
:101F60000533CDE90733CDE9023304F021FB08B195
:101F700072B6FEE70023002204A92046CDE904231F
:101F800004F040FC034608B172B6FEE701A9204602
:101F90000193039304F0B0FD08B172B6FEE70AB0F6
:101FA00010BD00BF00E000405407002410B51A48DF
:101FB00040F22522194C00238AB041F62501236105
:101FC00004930193C4E9000280222046C4E902314F
:101FD000A261CDE90533CDE90733CDE9023304F041
:101FE000E7FA08B172B6FEE70023002204A92046F2
:101FF000CDE9042304F006FC034608B172B6FEE7FF
:1020000001A920460193039304F076FD08B172B64E
:10201000FEE70AB010BD00BF00E40040A0070024A6
:1020200070B5202290B000214FF4E1360DEB020094
:102030000C250C4607F004FE4F4B02A94F48CDE992
:102040000244CDE90444CDE90644D3F8F02042F03F
:102050001002C3F8F020D0F8542422F03802C0F85F
:102060005424D3F8F02002F010020192019AD3F820
:10207000E02042F00202C3F8E0204FF44042D3F8DF
:10208000E03003F002030093022300983C48CDE9BE
:10209000022300220423CDE90444CDE9062301F004
:1020A00033F9384B08A93848D3F8002822F0FF024A
:1020B00042F02902C3F800281A6922F0C0021A610E
:1020C0001A6922F440321A611A6922F490721A6174
:1020D0001A6922F400721A611A6942F480621A6164
:1020E0001A6922F4C0521A611A6922F4C0421A61B4
:1020F0005A6A22F004025A62CDE90846CDE90A4440
:10210000CDE90C45CDE90E4404F0CEFF1E4A02F1A4
:10211000080353E8003F23F0604302F1080040E861
:1021200000310029F3D1184A02F1080353E8003FB7
:1021300023F0606302F1080040E800310029F3D188
:10214000136801F1804123F0005301F588311360D9
:10215000536823F490435360936823F02A039360F9
:10216000136843F001031360CB699A02FCD5CB6975
:102170005B02F9D510B070BD00440258004002580F
:1021800000040258000002400010014070B52022F7
:1021900090B000214FF4E1360DEB02000C250C4607
:1021A00007F04EFD4F4B02A94F48CDE90244CDE95F
:1021B0000444CDE90644D3F8E82042F48022C3F871
:1021C000E820D0F8542422F00702C0F85424D3F8B1
:1021D000E82002F480220192019AD3F8E02042F034
:1021E0000802C3F8E0204FF44072D3F8E03003F067
:1021F00008030093022300983C48CDE90223002203
:102200000723CDE90444CDE9062301F07DF8384BDE
:1022100008A93848D3F8042822F0FF0242F02D0222
:10222000C3F804289A6A22F0C0029A629A6A22F4D9
:1022300040329A629A6A22F490729A629A6A22F4FE
:1022400000729A629A6A42F480629A629A6A22F4EE
:10225000C0529A629A6A22F4C0429A62DA6B22F001
:102260000402DA63CDE90846CDE90A44CDE90C451C
:10227000CDE90E4404F018FF4FF0402202F60803A7
:1022800053E8003F23F0604302F6080040E80031C5
:102290000029F3D14FF0402202F6080353E8003F33
:1022A00023F0606302F6080040E800310029F3D112
:1022B000104B1A6822F000521A605A6822F49042B9
:1022C0005A609A6822F02A029A601A6842F0010263
:1022D0001A60DA699102FCD5DA695202F9D510B0B8
:1022E00070BD00BF0044025800400258000C025864
:1022F0000000024000480040704700BF254B82B0FC
:102300002549D3F8D820254842F00102C3F8D82047
:10231000D3F8D83003F001030193019BCB68C3F3DA
:102320000223C3F107011A1D042928BF0421062A2C
:1023300088BFDA1E4FF0FF3398BF00228B40DB438B
:1023400003F0050393401B01DBB280F80B334FF41D
:1023500000630360104B1148DB68C3F30223C3F131
:1023600007011A1D042928BF0421062A88BFDA1E86
:102370004FF0FF3398BF00228B40DB4303F005038F
:1023800093401B01DBB280F80C334FF480530360A1
:1023900002B070470044025800ED00E000E100E0A8
:1023A0002DE9F04FCE4B93B00024CE48DFF84CB36C
:1023B000012511940CA9089402260E940B94DFF8C1
:1023C00040A3DFF84093C84FDFF83C83CDE90F44CA
:1023D000CDE90944D3F8E02042F00202C3F8E0203E
:1023E000D3F8E02002F002020792079AD3F8E02027
:1023F00042F04002C3F8E020D3F8E02002F04002AF
:102400000692069AD3F8E02042F00802C3F8E020D2
:10241000D3F8E02002F008020592059AD3F8E020F4
:1024200042F00102C3F8E020D3F8E02002F00102FC
:102430000492049AD3F8E02042F01002C3F8E0209E
:10244000D3F8E02002F010020392039AD3F8E020C0
:1024500042F00402C3F8E020D3F8E02002F00402C6
:102460000292029AD3F8E02042F08002C3F8E02002
:10247000D3F8E02002F080020192019AD3F8E02024
:1024800042F02002C3F8E020D3F8E03003F020034C
:102490000093009B954B83614FF0D163CBF81830CC
:1024A000934BCAF818304FF44023C9F818304FF056
:1024B0000053BB614FF4C003C8F8183040F2024328
:1024C000CDE90C3500F020FF30220A2358460DEBF1
:1024D00002010C92119310940D96CDE90E4400F078
:1024E00013FF4FF4D16258460CA90C924FF4005BD5
:1024F000CDE90D54CDE90F4400F006FF4AF2301249
:102500000CA950460C92CDE90D54CDE90F4400F0D2
:10251000FBFE0CA948461094CDE90CB400F0F4FE83
:102520000A230CA9734811934FF48063CDE90D641D
:102530000C93CDE90F4400F0E7FE4FF400730CA9B3
:102540006C480C930D94109400F0DEFE4FF48263FF
:102550000CA938460D960C9303230E930923CDE95D
:102560000F44119300F0D0FE08230CA950460C93A1
:10257000CDE90D54CDE90F4600F0C6FE0C234846C8
:102580000CA94FF005090C93CDE90D54CDE90F448A
:1025900000F0BAFE80230CA940460C93CDF844907D
:1025A000CDE90D64CDE90F4400F0AEFE4FF40063B9
:1025B0000CA938460C930D96CDF844901094CDE9B3
:1025C0000E4400F0A1FE0CA93846CDF830B0CDE99C
:1025D0000D54CDE90F4400F097FE60230CA940464E
:1025E0000C930D951094CDE90E4400F08DFE424AF7
:1025F0004FF47063926893FAA3F322F47062002B95
:1026000000F0AB80B3FA83F3062101FA03F313431E
:1026100039498B60F023CA6893FAA3F322F0F002E1
:10262000002B00F0A080B3FA83F3052101FA03F335
:1026300013433149CB600F230A6993FAA3F322F0C5
:102640000F02002B00F08D80B3FA83F3042101FA0E
:1026500003F3134328490B610F234A6993FAA3F349
:1026600022F00F02002B7AD0B3FA83F3072101FA8C
:1026700003F3214913430024042240F201160125EB
:102680004B6108A80A94ADF82C608DF82E50CDE966
:10269000082400F03FFD2023ADF82C600DEB030073
:1026A00008938DF82E50CDE9094400F033FD4FF426
:1026B000807308A8ADF82C6008938DF82E50CDE9F2
:1026C000094400F027FD4FF4805308A80A94ADF8A0
:1026D0002C608DF82E50CDE9083400F01BFD15E07C
:1026E00000440258000C0258001402580000020472
:1026F000000038A1000002580004005800100258E1
:102700000018025800080258001C025817481849BF
:10271000C468184A24F03004174BC460CC6824F411
:102720004064CC60D46824F44034D460DC6824F085
:102730004074DC60046824F030040460086820F40D
:1027400040600860116821F4403111601A6822F07D
:1027500040721A6013B0BDE8F08F062357E70723D5
:1027600087E7042375E7052362E700BF00180258D6
:102770000014025800100258001C02580368B3F1FC
:10278000804F00D0704702F0F9B900BFFEE700BFEC
:10279000FEE700BFFEE700BFFEE700BFFEE700BFA9
:1027A000704700BF704700BF704700BF014804F08A
:1027B000EBB800BF44080024704700BF704700BF5B
:1027C000014804F0E1B800BF54070024014804F0B8
:1027D000DBB800BFA00700240B4B00220F216FF0D5
:1027E000010010B4D3F8F44083B044F00204C3F8FD
:1027F000F440D3F8F43003F002030193019B03B0DB
:102800005DF8044B02F02CB9004402583C4B0268BE
:1028100070B59A428CB04FF00004CDE90644CDE982
:1028200008440A9401D00CB070BD364B0B253648D5
:102830000226D3F8D82042F40042C3F8D820D3F8B7
:10284000D82002F400420092009AD3F8D82042F433
:102850008032C3F8D820D3F8D82002F48032019215
:10286000019AD3F8D82042F40032C3F8D820D3F824
:10287000D82002F400320292029AD3F8E02042F00B
:102880000402C3F8E020D3F8E02002F0040203922F
:10289000039AD3F8E02042F00202C3F8E020D3F814
:1028A000E02002F002020492049AD3F8E02042F001
:1028B0000102C3F8E0203222D3F8E0300A9503F099
:1028C000010305930223059906A9CDE9062301F02A
:1028D000CFFE4FF4705306A90C48069309940A954D
:1028E000CDE9076401F0C4FE862306A908480796CF
:1028F00006930A95CDE9084401F0BAFE0CB070BD0C
:1029000000800240004402580008025800040258A7
:10291000000002580000000041490023026810B581
:102920008A428AB0CDE90433CDE90633089328D032
:102930003C4B9A4201D00AB010BD3B4A3B49136D53
:1029400023F0405313650B680133012B0B6051D00A
:10295000354B092404A93648D3F8E02042F002029E
:10296000C3F8E020D3F8E030089403F002039FEDB1
:10297000287B0393039B8DED047B01F079FE0AB065
:1029800010BD294A2949136D23F0405313650B6884
:102990000133012B0B6020D0234B092404A92548C7
:1029A000D3F8E02042F08002C3F8E020D3F8E03012
:1029B000089403F080039FED187B0193019B8DED3C
:1029C000047B01F055FE00220521132002F048F897
:1029D000132002F083F80AB010BDD2F8EC3043F4B3
:1029E0008073C2F8EC30D2F8EC3003F480730093BB
:1029F000009BD1E7D2F8EC3043F48073C2F8EC309E
:102A0000D2F8EC3003F480730293029BA0E700BF7E
:102A100060000000020000000060000002000000F2
:102A200000A0004000A400400044025838080024E0
:102A300000040258001C0258184A08B50368934263
:102A400015D0174A934200D008BD164A1368013BBF
:102A5000136033B9144AD2F8EC3023F48073C2F80F
:102A6000EC3060211148BDE8084001F029BF0D4A53
:102A70001368013B136033B90B4AD2F8EC3023F4EE
:102A80008073C2F8EC300A484FF4C04101F018FFDF
:102A90001320BDE8084002F02FB800BF00A000409E
:102AA00000A40040380800240044025800040258E2
:102AB000001C0258694B026870B59A428EB04FF004
:102AC0000004CDE90844CDE90A440C9401D00EB0CD
:102AD00070BD634B0E2663480225D3F8E42042F014
:102AE0000802C3F8E420D3F8E42002F008020092C0
:102AF000009AD3F8E02042F00202C3F8E020D3F8B5
:102B0000E02002F002020192019AD3F8E02042F0A4
:102B10000802C3F8E020D3F8E02002F00802029295
:102B2000029AD3F8E02042F01002C3F8E020D3F874
:102B3000E02002F010020392039AD3F8E02042F062
:102B40000102C3F8E020D3F8E02002F00102049271
:102B5000049AD3F8E02042F04002C3F8E020D3F812
:102B6000E02002F040020592059AD3F8E02042F0FE
:102B70008002C3F8E020D3F8E02002F08002069241
:102B8000069AD3F8E02042F00402C3F8E02040F2B5
:102B90000332D3F8E0300C9603F0040307930223CA
:102BA000079908A9CDE9082301F062FD492308A986
:102BB0002D4808930B940C96CDE9095401F058FD6B
:102BC0004BF6030308A929480893CDE90954CDE938
:102BD0000B4601F04DFD4FF4807308A9244808937B
:102BE0000D23CDE90954CDE90B4301F041FD4FF42C
:102BF000814308A91F480893CDE90954CDE90B4644
:102C000001F036FD48F6087308A91B480893CDE982
:102C10000954CDE90B4601F02BFDC02308A9174844
:102C20000893CDE90954CDE90B4601F021FD582365
:102C300008A90F480893CDE90954CDE90B4601F0E6
:102C400017FD1022092308A90B480C93CDE908258C
:102C5000CDE90A4401F00CFD0EB070BD001000502B
:102C60000044025800040258000C02580010025898
:102C70000000025800180258001C025800080258B0
:102C80008C49002302682DE9F0438A4291B0CDE9D6
:102C90000A33CDE90C330E935ED0874B9A4202D0B3
:102CA00011B0BDE8F083854A8549D36C23F0300329
:102CB000D3640B680133012B0B6000F0EE807F4B77
:102CC00040F6030002210324D3F8D420092502276B
:102CD000002642F40022C3F8D420D3F8D42002F412
:102CE00000220792079AD3F8E02042F04002C3F88E
:102CF000E020D3F8E02002F040020892089AD3F8CE
:102D0000E02042F02002C3F8E020D3F8E0300D9438
:102D100003F020030E95CDE90A0109930AA9694839
:102D2000099B01F0A5FC4FF4A0530AA965480E9435
:102D3000CDE90A37CDE90C6401F09AFC41F20F03AA
:102D40000AA961480B970E950A93CDE90C6401F02E
:102D50008FFC11B0BDE8F083584A5949D36C23F079
:102D60003003D3640B680133012B0B6000F08880C3
:102D7000524B4FF4007002210324D3F8D4204FF0BB
:102D800009080226002542F480420A274FF0040970
:102D9000C3F8D420D3F8D42002F480420192019ADF
:102DA000D3F8E02042F04002C3F8E020D3F8E0205E
:102DB00002F040020292029AD3F8E02042F00802A8
:102DC000C3F8E020D3F8E02002F008020392039A4F
:102DD000D3F8E02042F01002C3F8E020D3F8E0205E
:102DE00002F010020492049AD3F8E02042F00202AA
:102DF000C3F8E020D3F8E0300D9403F00203CDF8DF
:102E00003880CDE90A0105930AA92E48059B01F0F7
:102E10002FFCB0230AA92D480E97CDE90A36CDE93B
:102E20000C5401F025FC0AA92948CDF83880CDE9D9
:102E30000A96CDE90C5401F01BFC40230AA9214855
:102E40000A93CDE90B65CDE90D4701F011FC4FF474
:102E500060530AA91D480A93CDF838800D94CDE936
:102E60000B6501F005FC0AA91A48CDF828900B96CD
:102E70000E97CDE90C5401F0FBFB11B0BDE8F083D7
:102E8000D2F8D43043F40013C2F8D430D2F8D4309E
:102E900003F400130093009B6AE7D2F8D43043F4A4
:102EA0000013C2F8D430D2F8D43003F400130693E0
:102EB000069B04E70050005200A000520044025854
:102EC0003C0800240018025800140258000C025854
:102ED0000010025800040258264A0368934210B5B5
:102EE00084B007D0244A93422BD0244A934210D076
:102EF00004B010BD224BD3F8E82042F01002C3F812
:102F0000E820D3F8E83003F010030193019B04B0EC
:102F100010BD1B4BA22000220521D3F8EC4044F049
:102F20000074C3F8EC40D3F8EC3003F00073039363
:102F3000039B01F095FDA22004B0BDE8104001F014
:102F4000CDBD0F4BA12000220521D3F8EC4044F069
:102F50008074C3F8EC40D3F8EC3003F08073029334
:102F6000029B01F07DFDA12004B0BDE8104001F0FE
:102F7000B5BD00BF0010004000E0004000E400408C
:102F80000044025800000000354A0368934210B51F
:102F900088B004D0334A93422ED008B010BD3249D5
:102FA0000446324BD1F8502422F00702C1F85024D5
:102FB0001A686AB9D1F8F00401F5806140F4800024
:102FC000C1F8F000D1F8F01001F4800100910099EF
:102FD0000132402002211A6006239FED1D7BCDE9BE
:102FE000020102A9224806938DED047B01F040FB0B
:102FF00023681C4A9342D0D11B491C4BD1F8502462
:1030000022F00702C1F850241A686AB9D1F8F00416
:1030100001F5806140F48000C1F8F000D1F8F010B3
:1030200001F48001019101990132062111481A60D1
:1030300000220023069102A99FED077BCDE904231E
:103040008DED027B01F014FB08B010BDAFF30080E2
:103050000000000000000000C003000002000000AB
:103060000458014024580140004002584008002400
:1030700000100258001402580F2801D9012070478F
:1030800030B501468BB0002204461C2001F0E8FC5C
:103090001C2001F023FD1B4B1B4A694602A814604B
:1030A000D3F8E82042F00102C3F8E820D3F8E83072
:1030B00003F001030193019B00F03CFF079BC3B9A0
:1030C00000F0F0FE114B0022114C4FF08045A3FBA5
:1030D000001340F2E731204625609B0CA260013BC3
:1030E000C4E90312636003F063FA30B101200BB04E
:1030F00030BD00F0D7FE4000E4E7204603F01AFBA5
:10310000F5E700BF004402581C00002483DE1B4387
:1031100044080024034630B4007B00284DD01A68D0
:10312000002A75D100205A680AB3597B4FF0B04588
:1031300011F0010FD5F8904014BF1443944311F0DF
:10314000020FC5F890404FF0B044D4F8941014BF6B
:1031500011439143C4F89410997B41B1022900F0C6
:103160009680032900F08A8001297DD001209A6889
:10317000002A4BD0597B4FF0B04511F0010FD5F824
:10318000A04014BF1443944311F0020FC5F8A040AF
:103190004FF0B044D4F8A41014BF11439143C4F8C5
:1031A000A4109B7B93B3022B54D0032B00F0A3807D
:1031B000012B00F09680012028E04FF0B0421D68FE
:1031C000D2F8801021EA0501C2F88010D2F89010E0
:1031D0005C6821EA0401C2F890109968D2F8A03026
:1031E00023EA0103C2F8A030D2F8843023EA0503B1
:1031F000C2F88430D2F8943023EA0403C2F8943041
:10320000D2F8A43023EA0103C2F8A43030BC7047DE
:10321000597B4FF0B044CD07D4F880004CBF104329
:10322000904311F0020FC4F880004FF0B040D0F886
:10323000841014BF11439143C0F88410997B002976
:103240003FF470AF022941D0032935D0012928D09D
:10325000012068E74FF0B043196C21EA02011964BC
:10326000596C0A435A64D1E74FF0B0414C6A24EAE2
:1032700002044C620C6A22430A6278E74FF0B041C4
:103280000C6A14430C624C6A22434A626FE74FF0A7
:10329000B0410C6A24EA02040C624C6A22434A627E
:1032A00065E74FF0B04100204C6824EA02044C600E
:1032B0000C6822430A6036E74FF0B04100200C68EA
:1032C00014430C604C6822434A602CE74FF0B04135
:1032D00000200C6824EA02040C604C6822434A6017
:1032E00021E74FF0B043596C21EA02015964196C8F
:1032F0000A431A648AE74FF0B043196C114319640A
:10330000596C0A435A6481E72DE9F04F0C6894FA2E
:10331000A4F2B2FA82F234FA02F367D04FF0010C51
:103320006FEA040E19E007FB07F3C6680F6903EBA9
:10333000430903FB07F726EA09086FEA090B47EA86
:103340000807C760076803FB05F507EA0B032B4373
:103350000360013234FA02F348D00CFA02F313EAA4
:103360000407F6D04D6807FB07F36E1E03EB430915
:10337000012E6FEA090BD6D8D0F808A0022D8E686E
:103380002AEA090A06FB03F8CE6848EA0A0806FB9F
:1033900004FA0E69C0F80880D0F804800EEA080824
:1033A00048EA0A08C0F804804FEA1728D0F80CA0B1
:1033B00008FB08F82AEA090A06FB03F908FB08F8E3
:1033C00049EA0A09C0F80C90BCD1FF2F11D803FBC1
:1033D00003F74E69D0F8208006FB07F9C7EB071703
:1033E00028EA070747EA09070762ABE70020BDE8BC
:1033F000F08F4E69476A06FB08F9C8EB081827EA00
:10340000080747EA090747629CE700BF174B0246D7
:10341000984220D0164B9B68DB4303F001035BB15D
:103420004868144B10B4946840B9096823405DF8AB
:10343000044B0B43936070470120704723400C6896
:10344000034300202343D1E9024123435DF8044BA9
:103450000B43936070470848A3F5007380689B682E
:103460000343DB4303F00103D9E700BF002302401D
:1034700000600258E030C0FF00200240826812F075
:10348000010216D103461548834210B4DC6812D0FD
:1034900088680A680243124820400243DA601A69C9
:1034A0000020496822F070425DF8044B0A431A611B
:1034B0007047012070470B4820400C68082C02D050
:1034C0000C3C102C05D98C682043044C1043E06060
:1034D000E5E7054A52F82420F5E700BF00600258EE
:1034E000E3BFFFFFE7BFFFFFF49E00088268D3073A
:1034F0001AD403460D4AC06810B402404C680868EC
:1035000002430CB188680243C8680243D1E9040150
:10351000024300200A43DA601A6B22F00F022243B2
:103520005DF8044B1A637047012070471CC0F0FF20
:103530005C498B6A03F00303012B30B400F0AA80CE
:10354000022B00F0A080002B00F0928000220023CC
:10355000544DC0E900338360A96A2C6BEB6AC1F358
:10356000051113F0010302D06B6BC3F3CC030029E8
:103570007CD0C4F30804013407EE104A494CE56AD4
:10358000ED0323D507EE903AF8EEC76A246BF8EE08
:10359000E74A07EE902A9FED445AC4F34624F8EE1A
:1035A000E75A07EE901AE4EE856A0134F8EEE77AFE
:1035B00085EEA76A07EE904AF8EEE77A26EE266ACD
:1035C000C6EE276AFCEEE66AC0ED006A354CE56A95
:1035D000AD0323D507EE903AF8EEC76A246BF8EEF8
:1035E000E74A07EE902A9FED305AC4F30644F8EEFE
:1035F000E75A07EE901AE4EE856A0134F8EEE77AAE
:1036000085EEA76A07EE904AF8EEE77A26EE266A7C
:10361000C6EE276AFCEEE66AC0ED016A214CE56A57
:103620006D0323D507EE902AB8EEC77A9FED1E5A98
:10363000F8EEE76A07EE901AB8EEE76A07EE903AFE
:10364000236BF8EEE77AC6EE865AC3F306630133BE
:10365000A7EE857A07EE903AF8EEE77A65EE876A8C
:1036600086EEA77ABCEEC77A80ED027A30BC70474E
:103670000A6812F004023FF46AAF0B680B4AC3F306
:10368000C103DA4063E70A6812F400323FF45FAF27
:10369000074A5CE70A68074B12F4807218BF1A46A3
:1036A00055E700BF00440258000000390090D003E5
:1036B00040787D0100093D005C498B6A03F00303FB
:1036C000012B30B400F0AA80022B00F0A080002B68
:1036D00000F0928000220023544DC0E90033836043
:1036E000A96AAC6BEB6AC1F3053113F0100302D089
:1036F000EB6BC3F3CC0300297CD0C4F30804013482
:1037000007EE104A494CE56A2D0323D507EE903A9F
:10371000F8EEC76AA46BF8EEE74A07EE902A9FED31
:10372000445AC4F34624F8EEE75A07EE901AE4EE42
:10373000856A0134F8EEE77A85EEA76A07EE904ACB
:10374000F8EEE77A26EE266AC6EE276AFCEEE66A0F
:10375000C0ED006A354CE56AED0223D507EE903ADC
:10376000F8EEC76AA46BF8EEE74A07EE902A9FEDE1
:10377000305AC4F30644F8EEE75A07EE901AE4EE26
:10378000856A0134F8EEE77A85EEA76A07EE904A7B
:10379000F8EEE77A26EE266AC6EE276AFCEEE66ABF
:1037A000C0ED016A214CE56AAD0223D507EE902AEF
:1037B000B8EEC77A9FED1E5AF8EEE76A07EE901A48
:1037C000B8EEE76A07EE903AA36BF8EEE77AC6EE3A
:1037D000865AC3F306630133A7EE857A07EE903A63
:1037E000F8EEE77A65EE876A86EEA77ABCEEC77ACE
:1037F00080ED027A30BC70470A6812F004023FF490
:103800006AAF0B680B4AC3F3C103DA4063E70A6887
:1038100012F400323FF45FAF074A5CE70A68074BD7
:1038200012F4807218BF1A4655E700BF00440258D0
:10383000000000390090D00340787D0100093D0070
:10384000624A936A03F00303012B10B400F0A580D1
:10385000022B00F09B80002B00F08C805B4C00233F
:10386000C0E900338360A26A216CE46AC2F30552A6
:10387000E4057CD506EE903A544C646CC4F3CC0459
:1038800007EE104A002A72D0002B70D04F4BC1F3C4
:103890000801DC6A013107EE901A61021FD506EEBD
:1038A000102AF8EEE64AF8EEC73A1B6CB8EEC66A84
:1038B0009FED474AF8EEE75AC3F3462384EE865A53
:1038C000013306EE103AE3EE845AB8EEC66A25EEEE
:1038D000255AC5EE065AFCEEE55AC0ED005A3B4BA0
:1038E000D96A0C021FD506EE102AF8EEE64AF8EE69
:1038F000C73A1B6CB8EEC66A9FED354AF8EEE75A38
:10390000C3F3064384EE865A013306EE103AE3EE23
:10391000845AB8EEC66A25EE255AC5EE065AFCEE64
:10392000E55AC0ED015A294BD96AC9011FD506EEE7
:10393000102AF8EEE66AB8EEC77A1B6CB8EEC65AE3
:10394000DFED235AF8EEE77AC3F3066386EE856A65
:103950000133E7EE257A07EE103AB8EEC77A66EE45
:10396000276AC6EE877AFCEEE77AC0ED027A5DF848
:10397000044B7047136859077FF570AF1268154BF9
:10398000C2F3C102D34006EE903A0CE013689C03E8
:103990007FF564AFDFED106A05E01368DB057FF5A6
:1039A0005DAFDFED0E6A0022084BC0E900228260A5
:1039B0009A6A196CDB6AC2F3055213F4807307EE3E
:1039C000103A4FF001033FF45DAF55E70044025851
:1039D000000000390090D00340787D0100093D00CF
:1039E000704AC0F30421030E52FA80F28B40D2F8E1
:1039F0004C241340CB4010B540EA03406A4C84B0DD
:103A0000A0420CD03DD8694B984200F089801FD964
:103A1000674B984212D003F57D4398420AD1654B1B
:103A2000186810F0005003D001A8FFF709FF0298B2
:103A300004B010BDA3F58033984254D15D4B186893
:103A400010F00060F4D001A8FFF736FE0298EFE70F
:103A5000A3F54073984246D1564B1B6903F03803D7
:103A6000182B43D8DFE803F08B42424242424242E5
:103A70009B4242424242424292424242424242427D
:103A800094004D4B984216D00DD94C4B984203D020
:103A900003F54073984226D1464B186FC0F340009F
:103AA000C00304B010BDA3F58033984210D003F5D5
:103AB0007D43984208D13F4A414B106810F4807012
:103AC00018BF184604B010BDA3F5803398420AD140
:103AD000384B186810F00400AAD01B683948C3F3AB
:103AE000C103D840A4E7002004B010BD0020314B32
:103AF00099699A69DB69C1F3032102F00F02C3F3EC
:103B00000213314C615CA25C01F01F01E35C02F026
:103B10001F02C84003F01F03D040D84004B010BDBE
:103B2000244B1B6903F03803182B0ED8DFE803F091
:103B3000200D0D0D0D0D0D0D350D0D0D0D0D0D0D7A
:103B40001E0D0D0D0D0D0D0D19000020194B99695D
:103B50009A69DB69C1F3032102F00F02C3F3022368
:103B6000CFE701A8FFF7E4FC0198EFE71748EDE77E
:103B7000104B14481B68C3F3C103D840E6E70D4B54
:103B800010481B68C3F3C103D840B0E70F48AEE745
:103B900001A8FFF7CDFC0198A9E70948D6E7084836
:103BA000A5E700BF0040025808030207080300070A
:103BB000080301070044025808030407080005072A
:103BC00000093D000090D003389F000840787D0137
:103BD000014B1860704700BF240000243B4B30B4F9
:103BE0009A6A9C6ADD6A14F47C7F596BC4F30510F1
:103BF00038D0C1F3CC0105F0010502F0030205FB4A
:103C000001F1012A07EE901AB8EEE77A02D0022AF3
:103C10004ED04AB307EE900A9FED2D5AF8EEE77AA0
:103C20001B6BC5EE276ADFED2B5AC3F3080307EEC3
:103C3000903AB7EE006AF8EEE77AE7EE257A77EE8B
:103C4000867A66EEA76A214B1B6BC3F346230133CA
:103C500007EE903AB8EEE77AC6EE877AFCEEE77A9E
:103C600017EE900A30BC70471A68920627D519687B
:103C700007EE900A184AF7EE005A1B6BC1F3C10118
:103C8000F8EEE77A9FED135AC3F30803CA4006EE35
:103C9000903A06EE102AF8EEE66AB8EEC66AE7EE4B
:103CA000056A86EE277A76EEA56A66EE876ACAE727
:103CB00007EE900A9FED095AF8EEE77AB0E707EEB3
:103CC000900A9FED075AF8EEE77AA9E700440258F8
:103CD0000024744A000000390090D00320BCBE4B81
:103CE0000024744C474A136903F03803102B04D0A6
:103CF000182B0DD01BB144487047444870471368D7
:103D000099064AD513684248C3F3C103D8407047A7
:103D1000936A30B4946AD56A14F47C7F516BC4F30F
:103D2000051038D0C1F3CC0105F0010503F0030301
:103D300005FB01F1012B07EE901AB8EEE77A02D0ED
:103D4000022B2CD093B307EE900A9FED325AF8EE77
:103D5000E77A136BC5EE276ADFED2F5AC3F308032A
:103D600007EE903AB7EE006AF8EEE77AE7EE257ACA
:103D700077EE867A66EEA76A224B1B6BC3F3462367
:103D8000013307EE903AB8EEE77AC6EE877AFCEE9A
:103D9000E77A17EE900A30BC70471D48704707EE6F
:103DA000900A9FED1E5AF8EEE77AD2E713689B0659
:103DB00020D5146807EE900A1549F7EE005A136BE8
:103DC000C4F3C104F8EEE77A9FED135AC3F3080376
:103DD000E14006EE903A06EE101AF8EEE66AB8EE0A
:103DE000C66AE7EE056A86EE277A76EEA56A66EE83
:103DF000876AC1E707EE900A9FED095AF8EEE77A65
:103E0000A7E700BF0044025800093D0040787D014B
:103E10000090D0030024744A0000003920BCBE4B3F
:103E20000024744C184A38B5136903F03803102B7A
:103E30001AD0182B23D0CBB11448134B14499A69CC
:103E40009B69C2F30322134C03F00F03124D8A5CEB
:103E5000CB5C02F01F0220FA02F203F01F0022FAEC
:103E600000F02A60206038BD0C48E6E713689B0626
:103E700008D513680A48C3F3C103D840DDE7FFF74C
:103E8000ADFEDAE70648D8E70044025800093D00D5
:103E9000BC9F0008280000242400002440787D01F5
:103EA0000090D0031C4A38B5136903F03803102B77
:103EB00021D0182B2AD003B31848174A1849936900
:103EC000184CC3F30323184DCB5C03F01F03D840F9
:103ED000936903F00F032860CB5C03F01F0320FA03
:103EE00003F32360D269C2F30212885C00F01F0062
:103EF00023FA00F038BD0D48DFE713689B0608D5AC
:103F000013680B48C3F3C103D840D6E7FFF766FE3A
:103F1000D3E70748D1E700BF0044025800093D003D
:103F2000BC9F0008280000242400002440787D0164
:103F30000090D003134B3F2202601A6902F007027F
:103F400042609A6902F4706282609A6902F00F021C
:103F5000C2609A6902F070020261DA6902F07002CE
:103F60004261DA6902F4E06282611B6A10B403F014
:103F70007003054CC36123685DF8044B03F00F0325
:103F80000B60704700440258002000524F4A70B442
:103F9000916A956AD66A15F47C3FC5F30533D46BF4
:103FA0005DD0C4F3CC04C6F3001601F0030106FB98
:103FB00004F4012907EE904AB8EEE77A03D002290B
:103FC00076D0002950D007EE903A9FED415AF8EE96
:103FD000E77A936BC5EE276ADFED3E5AC3F3080319
:103FE00007EE903AB7EE006AF8EEE77AE7EE257A48
:103FF00077EE867A66EEA76A344AB7EE006A936B6C
:10400000C3F3462307EE903AF8EEE77A70BC77EEFA
:10401000867A86EEA77ABCEEC77A80ED007A936B3B
:10402000C3F3064307EE903AF8EEE77A77EE867A26
:1040300086EEA77ABCEEC77A80ED017A936BC3F364
:10404000066307EE103AB8EEC77A37EE067AC6EE88
:10405000877AFCEEE77A17EE903A8360704770BC7F
:10406000C0E90033836070471168890627D514685A
:1040700007EE903A1849F7EE005A936BC4F3C10269
:10408000F8EEE77A9FED135AC3F30803D14006EE2A
:10409000903A06EE101AF8EEE66AB8EEC66AE7EE57
:1040A000056A86EE277A76EEA56A66EE876AA3E74A
:1040B00007EE903A9FED095AF8EEE77A89E707EEA6
:1040C000903A9FED075AF8EEE77A82E700440258EB
:1040D0000024744A000000390090D00320BCBE4B7D
:1040E0000024744C4F4A70B4916A956AD66A15F0F0
:1040F0007C7FC5F30553546C5DD0C4F3CC04C6F388
:10410000002601F0030106FB04F4012907EE904AA2
:10411000B8EEE77A03D0022976D0002950D007EE16
:10412000903A9FED415AF8EEE77A136CC5EE276A94
:10413000DFED3E5AC3F3080307EE903AB7EE006A8C
:10414000F8EEE77AE7EE257A77EE867A66EEA76AEA
:10415000344AB7EE006A136CC3F3462307EE903A75
:10416000F8EEE77A70BC77EE867A86EEA77ABCEE38
:10417000C77A80ED007A136CC3F3064307EE903ADA
:10418000F8EEE77A77EE867A86EEA77ABCEEC77A03
:1041900080ED017A136CC3F3066307EE103AB8EEB4
:1041A000C77A37EE067AC6EE877AFCEEE77A17EE24
:1041B000903A8360704770BCC0E9003383607047F9
:1041C0001168890627D5146807EE903A1849F7EE6A
:1041D000005A136CC4F3C102F8EEE77A9FED135A4C
:1041E000C3F30803D14006EE903A06EE101AF8EE3B
:1041F000E66AB8EEC66AE7EE056A86EE277A76EEDC
:10420000A56A66EE876AA3E707EE903A9FED095A22
:10421000F8EEE77A89E707EE903A9FED075AF8EE55
:10422000E77A82E7004402580024744A000000390B
:104230000090D00320BCBE4B0024744C4F4A70B495
:10424000916A956AD66A15F47C7FC5F30513546BA1
:104250005DD0C4F3CC0406F0010601F0030106FBB7
:1042600004F4012907EE904AB8EEE77A7FD00229DC
:1042700076D0002950D007EE903A9FED415AF8EEE3
:10428000E77A136BC5EE276ADFED3E5AC3F30803E6
:1042900007EE903AB7EE006AF8EEE77AE7EE257A95
:1042A00077EE867A66EEA76A344AB7EE006A136B39
:1042B000C3F3462307EE903AF8EEE77A70BC77EE48
:1042C000867A86EEA77ABCEEC77A80ED007A136B09
:1042D000C3F3064307EE903AF8EEE77A77EE867A74
:1042E00086EEA77ABCEEC77A80ED017A136BC3F332
:1042F000066307EE103AB8EEC77A37EE067AC6EED6
:10430000877AFCEEE77A17EE903A8360704770BCCC
:10431000C0E900338360704711688906ABD5146823
:1043200007EE903A1849F7EE005A136BC4F3C10236
:10433000F8EEE77A9FED135AC3F30803D14006EE77
:10434000903A06EE101AF8EEE66AB8EEC66AE7EEA4
:10435000056A86EE277A76EEA56A66EE876AA3E797
:1043600007EE903A9FED095AF8EEE77A89E707EEF3
:10437000903A9FED075AF8EEE77A82E70044025838
:104380000024744C000000390090D00320BCBE4BC8
:104390000024744AB0F5807F00B585B057D0B0F5E1
:1043A000806F1AD0B0F5006F00F0AD80B0F5805F7F
:1043B00060D0B0F5002F00F0BC80B0F5803F00F079
:1043C000E580B0F5804F00F0FA80B0F5004F00F0C6
:1043D000BF80002005B05DF804FB984A936D03F49C
:1043E0006003B3F5800F00F089801ED9B3F5C00FCC
:1043F00029D0B3F5000FECD1D36C116803F0405312
:10440000490702D5002B00F0D4808C4A1268D005F1
:1044100003D5B3F1805F00F00E81884A12689103E2
:10442000D7D5B3F1005FD4D1A4E0002B3FD0B3F5D2
:10443000001FCED1106810F0006005D001A8FFF772
:10444000A5FD019800E07E4805B05DF804FB7B4BBC
:104450001B6D03F00703042BBBD801A252F823F015
:10446000CD440008C1440008DD440008474400086A
:10447000D9440008714A136D03F4E043B3F5005FBB
:104480003CD035D9B3F5405FDDD0B3F5804FA0D136
:10449000D36C126803F040535007B6D5002BB4D14B
:1044A000664B68481B68C3F3C103D840CCE710686B
:1044B00010F00070C8D001A8FFF7C0FE0298C3E753
:1044C0005E4B186810F00060BED0B7E75B4B186811
:1044D00010F00070B8D0EEE7584A8DE7574B1868D7
:1044E00010F00050B0D001A8FFF7FCFD0198ABE739
:1044F000002BDCD0B3F5805F9CD06AE7106810F029
:104500000050A1D0EFE74D4A936D03F0E063B3F1A3
:10451000007FF3D005D8002BC9D0B3F1807F89D0BC
:1045200057E7B3F1407F8ED0B3F1806F3FF464AFB3
:104530004FE7424A936D03F44033B3F5803F1BD0FD
:10454000B3F5003F3FF458AF002B7FF442AF71E763
:104550003A4A136D03F04053B3F1805FA7D0B3F133
:10456000005F77D0002B7FF434AF106810F4003078
:104570003FF46AAF344867E7106810F000503FF42A
:1045800063AF01A8FFF7AEFD03985DE72B4BDA6C34
:10459000D2039CD5186810F000603FF455AF01A815
:1045A000FFF7F4FC03984FE7106810F004003FF4A5
:1045B0004BAF13682348C3F3C103D84044E71F4AF5
:1045C000936D03F0E043B3F1405FEDD010D8B3F149
:1045D000805F3FD0B3F1005F18D1184B186810F01E
:1045E00000503FF431AF01A8FFF77CFD02982BE7A4
:1045F000B3F1804F19D0B3F1A04F7FF4EAAE0F4B67
:10460000186810F400303FF41FAFB3E7002B7FF4BD
:10461000E0AEFFF707FC094B0C4A1B6AC3F3021319
:10462000D35C03F01F03D8400EE7044B186810F466
:1046300080703FF409AF064806E700BF0044025807
:104640000080BB000090D00340787D01BC9F000833
:1046500000093D00054B186810F000603FF4F4AE0F
:1046600001A8FFF793FC0298EEE600BF0044025851
:104670002DE9F04F0C6883B0002C00F0A3804FF0C0
:10468000000C864F634601229A4012EA040E00F0A5
:1046900092804D6805F0030909F1FF36012E40F2C2
:1046A0009480B9F1030F40F0CE8009FA0CF26FEA62
:1046B0000208066815F4403F06EA080642EA0602C8
:1046C000026078D0D7F8F42023F0030803F0030940
:1046D0000F2642F0020208F1B0484FEA8909C7F8F4
:1046E000F42008F58068D7F8F42006FA09F602F0FD
:1046F00002020192019AD8F8082022EA0602684EC6
:10470000B04224D006F58066B04200F0A880654E25
:10471000B04200F0A980644EB04200F09B80634E2E
:10472000B04200F0AB80624EB04200F0AC80614E0F
:10473000B04200F09E80604EB04200F0A9805F4E13
:10474000B0420CBF09260A2606FA09F63243C8F819
:1047500008204FF0B04215F4801F6FEA0E06126871
:104760004FF0B0480CBF32404EEA020215F4001F71
:10477000C8F80020D8F804204FF0B0480CBF3240F1
:104780004EEA020215F4003FC8F80420D8F884204D
:104790004FF0B0480CBF32404EEA0202ED034FF03A
:1047A000B045C8F88420D8F8802054BF32404EEA83
:1047B0000202C5F8802001330CF1020C34FA03F236
:1047C0007FF461AF03B0BDE8F08F4FF00308866857
:1047D00008FA0CF826EA080ACE686FEA080806FA12
:1047E0000CF646EA0A068660C5F30016D0F804A067
:1047F0009E402AEA020232434260C268B9F1020FC7
:104800008E6802EA080206FA0CF646EA020609FA7F
:104810000CF2C6607FF44DAF4FEAD30903F0070BEB
:104820000F2600EB89094FEA8B0BD9F820A006FA76
:104830000BF62AEA060A0E6906FA0BF646EA0A069B
:10484000C9F8206035E74FF0030808FA0CF86FEA62
:104850000808D2E7032606FA09F6324377E701266D
:1048600006FA09F6324372E7022606FA09F63243DF
:104870006DE7062606FA09F6324368E7042606FACB
:1048800009F6324363E7052606FA09F632435EE786
:10489000072606FA09F6324359E700BF00440258DA
:1048A0000000025800080258000C0258001002587C
:1048B0000014025800180258001C02580024025824
:1048C000002900F0A08000232DE9F04FDFF8589177
:1048D00083B0DFF85881DFF858A1DFF858B14FF006
:1048E000010E0EFA03F212EA010C67D023F0030561
:1048F00003F003040F2640454D444FEA8404AF689B
:1049000006FA04F607EA060701971BD0504516D0B1
:1049100058455AD03F4FB84261D03F4FB84263D05C
:104920003E4FB84256D03E4FB84267D03D4FB84296
:104930006AD0DFF804E170455BD04FF00A0E0EFA42
:1049400004F400E00024019FA74219D14FF0B044C5
:10495000D4F8807027EA0C07C4F88070D4F884700B
:1049600027EA0C07C4F88470676827EA0C076760B9
:10497000276827EA0C072760AC6824EA0604AC60C5
:104980005D00032403F007060F27AC400568B6005E
:104990002543B7400560DD0800EB85052E6A26EA51
:1049A00007062E62C56825EA0405C560456825EA44
:1049B00002024260826822EA04028260013331FA14
:1049C00003F28CD103B0BDE8F08F4FF0020E0EFA67
:1049D00004F4B8E74FF0050E0EFA04F4B3E74FF015
:1049E000030E0EFA04F4AEE74FF0040E0EFA04F4D0
:1049F000A9E74FF0090E0EFA04F4A4E74FF0060EF3
:104A00000EFA04F49FE770474FF0070E0EFA04F415
:104A100099E700BF000C0258001002580014025819
:104A200000180258001C02580004005800000258E8
:104A300000040258000802580024025806494FF6A4
:104A4000FF0C0002054BCA6800F4E06002EA0C02A9
:104A500010430343CB60704700ED00E00000FA050F
:104A60001B4BDB68C3F3022300B5C3F1070E03F150
:104A7000040CBEF1040F28BF4FF0040EBCF1060F6A
:104A80001AD9033B4FF0FF3C0CFA03FC22EA0C025C
:104A90004FF0FF3C00280CFA0EFC21EA0C0101FA51
:104AA00003F141EA02010ADB09010A4BC9B20344DE
:104AB00083F800135DF804FB00221346E8E700F0DA
:104AC0000F000901044BC9B2034419765DF804FBD9
:104AD00000ED00E000E100E0FCEC00E0002807DB76
:104AE000012300F01F01034A40098B4042F82030A7
:104AF000704700BF00E100E000280CDB4309012201
:104B000000F01F0004492033824041F82320BFF306
:104B10004F8FBFF36F8F704700E100E010B50320A7
:104B2000124CFFF78BFFFFF7DDF8114B11499A6923
:104B30009B69C2F3032203F00F038A5CCB5C02F093
:104B40001F020D4903F01F03D04020FA03F3086051
:104B50000F202360FEF790FA10B10124204610BD0B
:104B60000446FDF739FE204610BD00BF2800002492
:104B700000440258BC9F000824000024034A044B50
:104B800011681B780B441360704700BF9008002425
:104B900018000024014B1868704700BF90080024DB
:104BA000034A536823F4600318435060704700BF02
:104BB000000400584FF0010C01F01001034670B4DE
:104BC00004680CFA01F0A04329D05068C8B9FC244D
:104BD00018688C4020EA040014688C402043186058
:104BE0005569DC6BD2E9030640EA060207202A4336
:104BF00088408A4024EA000100200A4370BCDA633E
:104C0000704715681C6828439568284340F6FC7572
:104C10008D40884024EA050420431860E0E76046A0
:104C200070BC7047002800F03A81C36EF0B50446AE
:104C300083B0002B00F018819D4B2322E266D3F84D
:104C4000F42042F00202C3F8F420D3F8F430207AC2
:104C500003F002030193019B002840F0FB80FFF763
:104C60009FFF236803F580531A6842F001021A601F
:104C7000FFF790FF054606E0FFF78CFF431BB3F5F7
:104C8000FA7F00F2EA80236803F580521268D207A7
:104C9000F2D4D3F80052FFF7C5F8864B864A25F4C4
:104CA00070650344934280F0E28045F40075236808
:104CB000C3F80052FFF7B6F8804B2168A3FB00232E
:104CC0007F4D80489B0C013BC1F8DC300A687E4B6D
:104CD0002A404FF60D7513437C4A0B604B68034026
:104CE00001F5805043F4C3634B60CB681A40CA603F
:104CF0000B6F774A2B4065690B67D1F8903023F032
:104D00000303C1F89030D1F8003D23F0720343F063
:104D10000203C1F8003DD1F8303D23F07B0343F09E
:104D20002003C1F8303D03681A406A4B02604268B4
:104D3000134041F201021A43674B4260D0F8002150
:104D40001340664A43F40673C0F80031D0F80431CA
:104D50001A40634B42F40012C0F80421D0F8082135
:104D6000134043F40013C0F80831D0F8003123F4A5
:104D7000E01343F40023C0F8003115F0030340F0C2
:104D80009080D0F808610327564A324042EA450233
:104D9000E56805F11806C0F8082122692B606B60F0
:104DA00002F1180CAB60EB60A561AB61EB612B62AB
:104DB0006B62E66105F130062B636B63AB63EB63FB
:104DC000266205F14806AB64EB642B656B65666291
:104DD00002F14806A362C0F82C71C0F81451C0F863
:104DE0002051136053609360D360C2E9043362645E
:104DF000656893619362D361D36213625362C4F8AE
:104E000048C002F1300C136313645363536493631B
:104E1000D363C4F84CC093649365D364D3651365BE
:104E20005365C4E91463C4E91633C4E91833C0F800
:104E30003071C0F81C21C0F82861AA88C1F800238D
:104E400010222868C1F8040318466367E2662267E7
:104E500003B0F0BD4FF4000001E70422E02301207D
:104E60006267E36603B0F0BDFDF7D0FCE4E61E4BDD
:104E70001E4A034493420FD91D4B1E4A03449342DA
:104E8000FFF415AF1C4B1D4A0344934294BF45F4F5
:104E9000807545F480650AE745F4407507E7012011
:104EA00070470120E0236067E36603B0F0BD00BFF8
:104EB0000044025800D3CEFEC0E1E40083DE1B4371
:104EC000838004000080F8C000603038F0FEFFFFEF
:104ED000FD87FFFFFE2FFFFF00C0FEFFEFEFC0FFCB
:104EE000FFFFC07F0180FFFF40F1E9FD3F787D01BA
:104EF00000796CFC005A6202001F0AFA7FF0FA0285
:104F0000F0B54C68002C35D18C680D6925430C68D0
:104F100045EA8445D1E9066434434E693443CE689A
:104F20003443866ED0F8840006FB03F30E6A40F823
:104F3000235044EA066400EB8303124D5C60C88989
:104F4000285CB0B14FF0000C907803EB0C0ED778D2
:104F50000CF1040C000416785478043240EA07601F
:104F6000304340EA0420CEF80800C889285C604538
:104F7000EAD8F0BD0C690D6825438C68254345F0DF
:104F80008045C7E7489F00082DE9F04F99B00446D7
:104F90004C22474905A804F0DDFE002C00F0C0813A
:104FA0002368444A93427ED094F8982002F0FF018F
:104FB000002A71D09A6922F010029A61FFF7EAFD87
:104FC000054604E0FFF7E6FD401B0A2858D8236891
:104FD0009A691107F6D49A6942F001029A61FFF7C3
:104FE000D9FD054604E0FFF7D5FD401B0A2847D848
:104FF00023689A69D207F6D59A6942F002029A614B
:10500000227C012A9A690CBF22F0400242F0400241
:105010009A61627C012A9A690CBF42F4804222F4B0
:1050200080429A61A27C012A9A690CBF22F48052C4
:1050300042F480529A619A69D4E9020122F44072E2
:10504000012942EA00029A619A6922F0A4029A6157
:105050001A6922F010021A612ED089B302299A69C6
:1050600000F0858142F0800203299A611A6942F0BA
:1050700010021A6124D19A6942F020029A611FE05D
:10508000D4F89C30012003220343C4F89C3084F8F8
:10509000982019B0BDE8F08F204684F89910FDF7EC
:1050A0003BFC236886E702F5807262607CE700BF04
:1050B000389E000800A000409A6942F004029A61FC
:1050C000B0F5407FD4E9061202F1FF3201F1FF3161
:1050D0004FEA022242EA4162216A01F1FF3142EACB
:1050E0000102616901F1FF3142EA0142DA610ED148
:1050F000A16AD4E90B020139013A0138120142EAEE
:1051000000220A43616A013942EA0142DA60D4F8B6
:1051100060B0BBF1000F05D0D3F8C020616E0A4328
:10512000C3F8C020E26D1BEB020F019240F0FC803F
:10513000A26E0392D4E91085B8F1000F0BD018A924
:10514000D3F8BC2001EB850122F0070251F84C1C7A
:105150000A43C3F8BC20D4E9126066B118A9D3F899
:10516000BC2001EB800122F0700251F84C1C42EA95
:105170000112C3F8BC20D4E914276AB10DF1600C08
:10518000D3F8BC100CEB870C21F4E0615CF84CCC3C
:1051900041EA0C21C3F8BC1077498B4200F0DE8055
:1051A00007FB02F24FF0010105FB08F9734D029273
:1051B0000022D4F834E000FB06FAC4F89C20C4F8BE
:1051C000942084F89810D3F88420D4F838C02A406A
:1051D000E76BA06D42EA8E02C3F88420D3F88420E6
:1051E00022F47F0242EA0C42C3F884200EEB0C0248
:1051F000D3F88810294041EA820102EB4702C3F844
:105200008810D3F8881021F4FE0141EA0741C3F861
:105210008810D3F8A010294041EA82014A44C3F81B
:10522000A010D3F8A01021F4FE0141EA0841C3F810
:10523000A010D3F8B010294041EA8201C3F8B010A1
:1052400002EB0A01D3F8B02022F4FE0848EA064631
:10525000C3F8B060D3F8AC20029E2A4042EA810233
:105260003144C3F8AC20D3F8F0202A4042EA81024E
:1052700001EB4001C3F8F020D3F8F02022F47C12B7
:1052800042EA0042C3F8F0203D4A7244920002EB29
:105290008C0C0CEBC70707EB890909EB8A08D3F8DC
:1052A000C0A00AEA050A08EB860E4AEA81010EEB65
:1052B000C006C3F8C010D3F8C010019D21F47C11C2
:1052C000039841EA054100FB05F5C3F8C01006EB61
:1052D0008505D3F8C0A000FB0BF12AF07C5A05EB42
:1052E00081014AEA0B6AC3F8C0A0264BC4F8885073
:1052F0009942E266C4F89010C4E91CC7C4E91E983C
:10530000C4E920E61FD88A4206D2002342F8043BB3
:10531000D4F890309A42F8D3002019B0BDE8F08F4D
:10532000012019B0BDE8F08FA16E18A8D3F8C820ED
:10533000039100EB810122F0070251F84C1C0A4353
:10534000C3F8C820F6E6D4F89C300322012043F0CD
:105350002003C4F89C3084F898209AE6D4F804C05E
:10536000DCF8081021F00301CCF8081018E742F02F
:1053700020029A61A4E600BF00A000400300FFFFE6
:10538000002B0010FCD30040002842D010B590F84C
:1053900098300446022B27D10268936943F0010339
:1053A00093619369D80706D4332301E0013B32D0DF
:1053B0009169C907FAD5936923F010039361936942
:1053C000180706D5332301E0013B24D09169090772
:1053D000FAD493690020012143F002039361C4F8D9
:1053E000940084F8981006E0D0F89C30026843F0EE
:1053F0000803C0F89C30D36D204623F00303D36527
:10540000FDF71AFB0023C4F89C30184684F8983046
:1054100010BD01207047D4F89C30032143F00103F4
:10542000C4F89C3084F89810E5E700BF844690F8F3
:105430009800012807D0DCF89C30012043F00403D9
:10544000CCF89C30704710B40198DCF8004040EA7A
:105450004303002043EA820242EA0111C4F88010AB
:105460005DF8044B704700BF90F898200346012A6E
:1054700007D0D0F89C20012042F00402C3F89C2001
:10548000704710B402220468002180F89820A269B5
:10549000084622F00102A2615DF8044BC3F89C109B
:1054A000704700BFF8B590F898300446022B12D12F
:1054B0000668D6F8C03013F07C5F14D0D6F8C4501C
:1054C00015F4001517D0D0F89C30012043F4007378
:1054D000C4F89C30F8BDD0F89C30012043F008039C
:1054E000C4F89C30F8BDD0F89C30012043F0200374
:1054F000C4F89C30F8BDD6F8C470C7F304473B46E7
:10550000FFF7FEFC01222846BA40C6F8D020C4F8B6
:105510009420F8BDF0B5864690F89800022861D135
:10552000402967D0412900F08380DEF8500088428E
:1055300050D9DEF854000027DEF87C5001FB00F063
:1055400005EB8005286800F080405060002840F09E
:1055500095802868C0F38A4010602868544E00F097
:1055600000509060286800F000401061A888D06169
:10557000686800F47020D060000C6C6804F480143B
:1055800054616C6804F400149461EC7904F07F04B5
:105590001462345C6868C00F50626CB1013BE81D56
:1055A000A0F1060C10F8014F03F8014FACEB050C0D
:1055B000D489345D6445F3D8402963D0412971D042
:1055C0001F2965D80123DEF8002000208B40C2F897
:1055D0009830F0BDDEF89C30012043F02003CEF877
:1055E0009C30F0BDDEF89C30012043F00803CEF87B
:1055F0009C30F0BDDEF80000D0F8A04014F4FE0F9F
:10560000E8D0D0F8A440670630D0D0F8A440E60136
:1056100001D5D0F8A040D0F8A470DEF84400C7F35C
:105620000527DEF8745007FB00F005EB800589E7DD
:10563000DEF80000D0F8B04014F4FE0FCAD0D0F865
:10564000B440650612D0D0F8B440E40101D5D0F8DA
:10565000B040D0F8B470DEF84C00C7F30527DEF890
:10566000785007FB00F005EB80056BE7DEF89C3017
:10567000012043F48073CEF89C30F0BD286820F000
:10568000604069E7DEF800300020C3F8A870F0BD84
:1056900001F01F010123DEF8002000208B40C2F83A
:1056A0009C30F0BDDEF800300020C3F8B870F0BDCB
:1056B000489F000803681F29D3F89800D3F89C205E
:1056C0000AD901F01F01CA4012F001000DD00122D9
:1056D0008A40C3F89C207047C84010F0010005D0F4
:1056E00001228A40C3F8982070477047704700BF76
:1056F0004029036804D0D3F8B40000F07F0070475D
:10570000D3F8A40000F07F00704700BF0368D3F80F
:10571000C40000F03F007047034690F8980001383D
:10572000012807D9D3F89C20012042F00202C3F8D7
:105730009C207047012A1A684FF00000936D0CBF3F
:105740008B430B4393657047034690F898000138EC
:10575000012807D9D3F89C20012042F00202C3F8A7
:105760009C2070471868836D0B4210B41FD1C36D25
:1057700043F00103C3658C0504D5D0F8E030134332
:10578000C0F8E0304B0504D5D0F8E4301343C0F83E
:10579000E4300D4B446D0B400C4A23435DF8044B41
:1057A00043650020536943EA917353617047836DE9
:1057B00031EA030302D00323C365DCE7C36D43F082
:1057C0000203C365D7E700BFFFFFCF3F00A800403B
:1057D0000346006820F0010030B4D1E902241860CB
:1057E000186842EA04220C6920F4F8500243486821
:1057F0001A6018611A68114842F001021A609A682A
:1058000022F400429A608A699D682243284002433C
:105810009A601CB19A6842F400429A601A680020AB
:105820000C6822F44012496922431A605A6822F433
:1058300000420A4330BC5A60704700BF00F8FFFFC7
:10584000002867D038B590F8A130044603F0FF0275
:10585000002B5AD0A0680221D4E9003284F8A110AC
:105860000243E16898690A43216920F070400A43C5
:10587000294998619869024360699A619A680A4067
:105880009A609A6842EA0042A0690243E0699A601D
:10589000DA680A40DA60DA6842EA0042206A0243C3
:1058A000606ADA601A690A401A611A6942EA0042BB
:1058B000A06A0243E06A1A615A690A405A615A6949
:1058C000216B42EA00420A435A61DA6A94F83500D1
:1058D00002F07F4294F83610DA62DD6A94F83420E0
:1058E0002A4342EA0022002042EA0142DA625A6B6D
:1058F00042F006025A639A6942F001029A6101235A
:10590000C4F8A40084F8A13038BD80F8A020FDF7C9
:10591000D1F89FE70120704700F800F090F8A03020
:10592000012B00F0C08002232DE9F04F4FF0340E20
:10593000D0F8009080F8A13083B00EFB020ED201A7
:10594000D9F80C300C4602F184060D46C3F30B4B1C
:10595000804609EB060C0EF1380EDFF860A1DCF88A
:10596000043003F4704301930FCCAEE80F000FCC6A
:105970006F68AEE80F000FCCAEE80F002368BB44A1
:10598000CEF80030019B2A68CCF80430D9F80C30EE
:10599000511CE868C3F30B43D5F818E00B4443EA05
:1059A0000B43CCF80430D9F80C10DCF80830C1F304
:1059B0000A0103F470430144CCF80830AB68D9F80D
:1059C0000C000133C0F30A00034443EA0143296990
:1059D000CCF80830DCF8103023F00703CCF8103096
:1059E000CCF81010DCF81830002395F8320095F848
:1059F0003140CCF8183095F8303043EA0E6343EA72
:105A0000042343EA0043CCF81830DCF8143023F0C8
:105A1000FF03CCF814306B69CCF81430DCF81C00B0
:105A2000EB6900EA0A0A286A0343CCF81CA0CCF808
:105A30001C30DCF828300023CCF828306B6ACCF816
:105A4000283059BB0423BF1AAA6A03FB07F702FBDD
:105A500003F3EA6A073747EA0347DCF82C3003F020
:105A6000E023CCF82C30CCF82C70124BDCF8301042
:105A70000B40CCF83030CCF83020012259F80630F9
:105A8000134349F806300023C9F82420184688F843
:105A9000A12088F8A03003B0BDE8F08F01390629B5
:105AA00003D90123CFE702207047034B53F821307D
:105AB000C9E700BF00F8FFFF589F0008F8F8FFFF94
:105AC00070B50446FFF766F8002C66D00546002046
:105AD000A065636D03B170BD204641F28836FDF7C5
