:020000040800F2
:100000000000052479C40008F9260008FF2600082E
:10001000052700080B270008112700080000000032
:10002000000000000000000000000000B1BF000858
:10003000172700080000000001C2000895BA000858
:10004000C9C40008C9C40008C9C40008C9C400085C
:10005000C9C40008C9C40008C9C40008C9C400084C
:10006000C9C40008C9C40008C9C40008C9C400083C
:10007000C9C40008C9C40008C9C40008C9C400082C
:10008000C9C40008C9C40008C9C40008252700085D
:10009000C9C40008C9C40008C9C40008C9C400080C
:1000A000C9C40008C9C40008C9C40008C9C40008FC
:1000B00039270008C9C40008C9C40008C9C4000819
:1000C000C9C40008C9C40008C9C40008C9C40008DC
:1000D000C9C40008C9C40008C9C40008C9C40008CC
:1000E000C9C40008C9C4000800000000C9C4000851
:1000F000C9C40008C9C40008C9C40008C9C40008AC
:10010000C9C40008C9C40008C9C40008C9C400089B
:10011000C9C40008C9C40008C9C40008C9C400088B
:10012000C9C40008C9C40008C9C40008C9C400087B
:10013000C9C40008C9C40008C9C40008C9C400086B
:1001400000000000000000000000000000000000AF
:10015000C9C40008C9C40008C9C40008C9C400084B
:10016000C9C40008C9C40008C9C40008C9C400083B
:10017000C9C40008C9C40008C9C40008C9C400082B
:10018000C9C40008C9C40008C9C40008C9C400081B
:10019000C9C40008C9C40008C9C40008C9C400080B
:1001A000C9C40008C9C40008C9C400080000000090
:1001B000C9C40008C9C40008C9C40008C9C40008EB
:1001C000C9C40008C9C40008000000000000000005
:1001D0000000000000000000C9C40008000000008A
:1001E000000000000000000000000000000000000F
:1001F0000000000000000000C9C40008C9C40008D5
:10020000C9C40008C9C4000800000000C9C400082F
:10021000C9C40008C9C40008C9C40008C9C400088A
:10022000C9C4000800000000C9C4000800000000A4
:10023000C9C40008C9C4000800000000C9C40008FF
:10024000C9C40008C9C40008C9C40008C9C400085A
:10025000C9C40008C9C40008C9C40008C9C400084A
:10026000C9C40008C9C40008C9C40008C9C400083A
:10027000C9C40008C9C40008C9C4000800000000BF
:10028000C9C40008C9C40008C9C40008C9C400081A
:1002900000000000C9C40008C9C40008C9C400089F
:1002A000C9C40008C9C40008C9C40008C9C40008FA
:1002B000C9C40008C9C40008C9C40008C9C40008EA
:0C02C000C9C40008C9C40008C9C4000873
:1002D0000348044B834202D0034B03B118477047D5
:1002E000C4000024C4000024000000000548064BA0
:1002F0001B1AD90F01EBA301491002D0034B03B124
:1003000018477047C4000024C40000240000000007
:1003100010B5064C237843B9FFF7DAFF044B13B14D
:100320000448AFF300800123237010BDC8000024EF
:1003300000000000A8CA000808B5054B1BB105491C
:100340000548AFF30080BDE80840FFF7CFBF00BF0E
:1003500000000000CC000024A8CA000880B400AF50
:10036000044BDB681B0A03F007031846BD465DF823
:10037000047B704700ED00E080B483B000AF03461B
:10038000FB80B7F90630002B0BDBFB8803F01F0264
:100390000749B7F906305B09012000FA02F241F87B
:1003A000232000BF0C37BD465DF8047B704700BFBB
:1003B00000E100E080B483B000AF03463960FB8009
:1003C000B7F90630002B0ADB3B68DAB20C49B7F903
:1003D00006301201D2B20B4483F800230AE03B68D6
:1003E000DAB20849FB8803F00F03043B1201D2B2D2
:1003F0000B441A7600BF0C37BD465DF8047B70478E
:1004000000E100E000ED00E080B489B000AFF860EA
:10041000B9607A60FB6803F00703FB61FB69C3F115
:100420000703042B28BF0423BB61FB690433062B9D
:1004300002D9FB69033B00E000237B614FF0FF32F0
:10044000BB6902FA03F3DA43BB681A407B699A403E
:100450004FF0FF317B6901FA03F3D9437B680B400E
:10046000134318462437BD465DF8047B70470000EF
:1004700080B584B000AF0346FB710023FB60FB79BD
:10048000002B23D11E4BFB60FB681B79002B20D176
:10049000FB681C4A1A60FFF761FF03460022002137
:1004A0001846FFF7B1FF034619461320FFF782FFF6
:1004B0001320FFF761FF01220121124804F0FDFF24
:1004C000002201210F4805F02FF802E00023FB6015
:1004D00000E000BFFB68002B0CD0FB681B79002BF1
:1004E00008D1FB6801221A71FB6800225A71FB686F
:1004F00000229A71FB6818461037BD4680BD00BFC8
:10050000E40000248801002480B590B000AFF860BA
:10051000B9607A60FB700023FB63FB68002B00F07E
:10052000FE80FB681B79012B40F0F980FB681B689B
:10053000BB63FB78002B04D17B687B610023BB612C
:1005400004E07B687B614FF08043BB6197F84830E3
:10055000002B01D1002301E04FF00053FB6197F81D
:100560005830002B01D1002301E04FF48013BB620F
:1005700097F85430002B01D1002301E04FF4001311
:10058000FB62FB6C3B62FB6C082B40F28F80FB6CC8
:100590000C3B342B00F28E8001A252F823F000BFF6
:1005A00075060008B5060008B5060008B50600087F
:1005B0007D060008B5060008B5060008B506000867
:1005C00085060008B5060008B5060008B50600084F
:1005D0008D060008B5060008B5060008B506000837
:1005E000B5060008B5060008B5060008B5060008FF
:1005F00095060008B5060008B5060008B50600080F
:10060000B5060008B5060008B5060008B5060008DE
:10061000B5060008B5060008B5060008B5060008CE
:10062000B5060008B5060008B5060008B5060008BE
:100630009D060008B5060008B5060008B5060008C6
:10064000B5060008B5060008B5060008B50600089E
:10065000B5060008B5060008B5060008B50600088E
:10066000B5060008B5060008B5060008B50600087E
:10067000A50600084FF410233B621CE04FF4202332
:100680003B6218E04FF430233B6214E04FF4402308
:100690003B6210E04FF450233B620CE04FF46023C8
:1006A0003B6208E04FF470233B6204E0FB6C1B04E8
:1006B0003B6200E000BF4FF400033B634FF0004398
:1006C0007B6204F0DDFBF86300BFBB6B1B68D3F8F3
:1006D000C43003F40013002B07D00121F86B00F0A5
:1006E00085FB02463B6D9342EFD207F11403BA68D3
:1006F0001946B86B04F074FE0346002B07D0B86BA4
:1007000004F0C9FE0246FB6D1A60012308E0B86BD5
:1007100004F0C1FE0246FB6D1A60002300E00023D6
:1007200018464037BD4680BD80B584B000AF7860C4
:100730007B68002B09D07B681B79012B05D17B6876
:100740001B68FB60F86804F085FD00BF1037BD46EC
:1007500080BD000080B584B000AF78607B681B6806
:10076000FB60FB680133BB600DE0FB689B000D4A3A
:100770001344184600F058FD0B4B1B68002B08D1A2
:10078000B86800F0B3FA094B1B78DBB2002BECD150
:1007900000E000BF002000F0CEFC00231846103718
:1007A000BD4680BDF8000024200100240000002484
:1007B00080B582B000AF78601A4B1B681B68002BB5
:1007C0000CBF01230023DBB21A46174B1A7018E046
:1007D000164800F029FD134B1B685B79002B02D1F2
:1007E000134800F03FFD002000F080FA0D4B1B681D
:1007F0001B68002B14BF01230023DBB21A460D4BEC
:100800001A70094B1B78DBB2002BE1D1786800F03D
:1008100013F8002000F08FFC002318460837BD466F
:1008200080BD00BF38CB000800000024F400002485
:10083000F8000024EC00002490B58BB004AF786081
:10084000354B01221A6000237B612CE07B699B0001
:10085000324A1344184600F005FD0346002B0AD027
:100860004FF0500383F31188BFF36F8FBFF34F8FA7
:100870003B6100BFFEE77B699B00284A1344184692
:1008800000F00EFD0346002B0AD04FF0500383F317
:100890001188BFF36F8FBFF34F8FFB6000BFFEE780
:1008A0007B6901337B617B69002BCFDD00237B619A
:1008B00022E01B497A691346DB009B1A9B000B441C
:1008C000184A03926C4603F1100207CA84E8070035
:1008D0000FCB00F03BFC0346002B0AD04FF0500337
:1008E00083F31188BFF36F8FBFF34F8FBB6000BFDF
:1008F000FEE77B6901337B617B69002BD9DD0A4B05
:1009000000221A7000F022FA084800F0ABFC002325
:1009100018461C37BD4690BD20010024F800002475
:10092000240100241C01002400000024F000002405
:1009300080B582B000AF78603960174B27221A600B
:1009400004F04EFA01F01AFA01F086FA01F008FEFE
:1009500001F0D2FB01F034FC01F096FC01F0A0FAAA
:1009600001F03EFB01F0F4FC01F016FD01F0C4FDC6
:100970000A4B1B6800221A6000F0CEF901209FED9F
:10098000080A00F06DFA074800F04EFC00231846F4
:100990000837BD4680BD00BF4001002438CB0008A9
:1009A000CDCCCC3DF000002480B483B000AF87ED07
:1009B000000B0E4B93ED007B97ED006BB4EE476B95
:1009C000F1EE10FA09D00A4B93ED007B97ED006B26
:1009D000B4EE476BF1EE10FA01D1012300E00023E1
:1009E00018460C37BD465DF8047B704708000024AC
:1009F0001000002480B483B000AF87ED000B97EDAA
:100A0000006B97ED007BB4EE476BF1EE10FA01D767
:100A1000012300E0002318460C37BD465DF8047B37
:100A2000704780B483B000AF786039607B683A6803
:100A30009A6100BF0C37BD465DF8047B704780B4F7
:100A400083B000AF786039603B681A047B689A61B4
:100A500000BF0C37BD465DF8047B704780B582B09F
:100A600000AF78607B68002B08D07B681B79012B76
:100A700004D17B681B68184604F010FC00BF0837DF
:100A8000BD4680BD80B400AF084B5A790132D2B266
:100A90005A71064B5B79042B02D9044B00225A7120
:100AA00000BFBD465DF8047B704700BF5C010024B9
:100AB00080B58CB006AFFFF7E5FF314B93ED007BBF
:100AC000B0EE470B0BF02CFD87ED040B97ED040BFC
:100AD000FFF790FF0346002B06D197ED040BFFF7BD
:100AE00063FF0346002B06D04FF000024FF00003D7
:100AF000C7E9042307E09FED201B97ED040B0BF0E3
:100B0000E7FC87ED040B97ED047BB5EEC07BF1EEBF
:100B100010FA0CD597ED047BB1EE477BFCEEC77B5A
:100B2000C7ED017A3B79DBB25B42DBB207E097EDC0
:100B3000047BFCEEC77BC7ED017A3B79DBB2FB722D
:100B4000104BD86807F10B0107F10C030593002344
:100B50000493002303934FF47A73029301230193C8
:100B600000230093002340F21122FFF7CDFC00BFC9
:100B70001837BD4680BD00BF000000000000704077
:100B8000180000244401002480B586B000AF544B07
:100B90001B6907EE903AB8EEE76B524B93ED067B7C
:100BA000B4EEC76BF1EE10FA07D54D4B1B69002B65
:100BB00003DB4C4BD3E9022303E04FF000024FF07C
:100BC0000003C7E90223464B1B6907EE903AB8EED3
:100BD000E76B444B93ED047BB7EE005B37EE457B50
:100BE000B4EEC76BF1EE10FA03DB3D4B00221A6145
:100BF00004E03B4B1B690133394A13613A4B7B607C
:100C000097ED027BB5EE407BF1EE10FA02D0102397
:100C10007B6101E000237B617B6919467868FFF7FF
:100C200000FF7B69DB4303F0100319467868FFF788
:100C300006FF2B4B5B6907EE903AB8EEE76B294B4A
:100C400093ED0E7BB4EEC76BF1EE10FA07D5244B93
:100C50005B69002B03DB234BD3E90A2303E04FF04E
:100C600000024FF00003C7E902231D4B5B6907EE4A
:100C7000903AB8EEE76B1B4B93ED0C7BB7EE005B45
:100C800037EE457BB4EEC76BF1EE10FA03DB144B85
:100C900000225A6104E0124B5B690133104A536130
:100CA000114B7B6097ED027BB5EE407BF1EE10FAC5
:100CB00002D008237B6101E000237B617B69194638
:100CC0007868FFF7AEFE7B69DB4303F00803194643
:100CD0007868FFF7B4FE00BF1837BD4680BD00BF7F
:100CE00044010024180000240010025880B582B08E
:100CF00000AF78607B68002B03D07B68012B03D0AA
:100D000005E0FFF7D5FE02E0FFF73EFF00BF00BFA2
:100D10000837BD4680BD000080B500AF0A4B0022F9
:100D20001A70094B01225A600020FFF7A1FB03460D
:100D3000054AD360044BDB681846FFF78FFE024B71
:100D400001221A7200BF80BD4401002480B500AFAB
:100D50000A4B1B78002B0FD1084B01221A70074B4E
:100D60005B68012B08D1054B1B7A002B04D0034B89
:100D7000DB681846FFF7D8FC00BF80BD44010024A3
:100D800080B584B000AF786004F07AF8F8607B68D2
:100D9000BB6000BF04F074F80246FB68D31ABA685F
:100DA0009A42F7D800BF00BF1037BD4680BD000093
:100DB00010B54FF0804482B0636A019304F060F88C
:100DC0000090626A019B9A4207D3009B4FF47A72AB
:100DD000019802FB030002B010BD04F051F8636AF1
:100DE0004FF47A7202FB003002B010BD10B5044619
:100DF00041B9FFF7DDFFA042A0EB040038BF00F1CE
:100E0000FF3010BD04F03CF8A042A0EB040038BF56
:100E100000F1FF3010BD00BF80B582B000AF786038
:100E2000034800F01FFA00BF0837BD4680BD00BF71
:100E3000F400002480B582B000AF78607868FFF7D6
:100E4000B7FC00BF0837BD4680BD80B582B000AF9B
:100E500078607868FFF77EFC00BF0837BD4680BD2C
:100E600080B58CB000AF87ED010A38600021894859
:100E700000F0C3F9B862BB6A002B0AD04FF05003F0
:100E800083F31188BFF36F8FBFF34F8F7B6200BF77
:100E9000FEE70021804800F0B0F9B862BB6A002B81
:100EA0000AD04FF0500383F31188BFF36F8FBFF365
:100EB0004F8F3B6200BFFEE7784B28221A61774BC9
:100EC00000229A61754B80229A82744B744A07CA39
:100ED00003C31A7000227349704800F0F9F8B86231
:100EE000BB6A002B0AD04FF0500383F31188BFF385
:100EF0006F8FBFF34F8FFB6100BFFEE70023FB62E4
:100F000073E06949FB6AFA6A41F82320FB6A9B0097
:100F1000664A13440021184600F06FF9B862BB6AB4
:100F2000002B0AD04FF0500383F31188BFF36F8F6B
:100F3000BFF34F8FBB6100BFFEE7FB6AC3F127031E
:100F400018465B49FA6A1346DB009B1A9B000B4468
:100F5000103318605649FA6A1346DB009B1A9B004F
:100F60000B4410331B68002B0AD14FF0500383F35E
:100F70001188BFF36F8FBFF34F8F7B6100BFFEE718
:100F80004B49FA6A1346DB009B1A9B000B4418334B
:100F900000221A604649FA6A1346DB009B1A9B003E
:100FA0000B44143380221A80FA6A1346DB009B1A22
:100FB0009B003F4A9818FB6A9B003B4A13441A4621
:100FC0003C4900F085F8B862BB6A002B0AD04FF0AC
:100FD000500383F31188BFF36F8FBFF34F8F3B61D3
:100FE00000BFFEE7FB6A0133FB62FB6A002B88DD72
:100FF000314B00221A60314B00221A60D7ED017A82
:101000009FED2F7A67EE877AFCEEE77A17EE902A4B
:101010002A4B5A60294B01229A60274B1B681A46BB
:10102000264BDA60274B284A92E803001860043305
:10103000198002330A0C1A702449204800F098F8ED
:10104000B862BB6A002B0AD04FF0500383F31188BB
:10105000BFF36F8FBFF34F8FFB6000BFFEE74FF40E
:101060007A71164800F0A5F8B862BB6A002B0AD066
:101070004FF0500383F31188BFF36F8FBFF34F8F8F
:10108000BB6000BFFEE709F021FB00BF3037BD4663
:1010900080BD00BFF4000024F00000240001002403
:1010A000C0CA0008350E0008FC000024F800002427
:1010B000240100244B0E0008840100246401002454
:1010C00000007A4474010024CCCA0008190E0008FC
:1010D00080B588B002AFF860B9607A60FB68002B19
:1010E00001D1012323E0F968FB68988AFB681B693A
:1010F000FA681832019200937B680246B86809F0DA
:10110000ECF87861FB689B69002B0AD14FF0500323
:1011100083F31188BFF36F8FBFF34F8F3B6100BF25
:10112000FEE77B69012B14BF01230023DBB21846C5
:101130001837BD4680BD80B582B000AF7860002012
:1011400009F052FA00BF0837BD4680BD84B080B5B3
:1011500000AF07F1080C8CE80F003B6A184609F055
:1011600043FA00231846BD46BDE8804004B07047EE
:1011700090B585B002AF786039607B6803F11000EC
:101180007B6859687B689A687B68DC683B68009379
:1011900023460AF01DF902467B681A607B681B68CB
:1011A000002B01D0002300E0012318460C37BD4678
:1011B00090BD90B585B002AF786039607B68002B38
:1011C00016D07B681B68002B12D07B681C6809F066
:1011D00099FB02463B6800930023012120460AF058
:1011E00053F90346012B14BF01230023DBB200E0B7
:1011F000012318460C37BD4690BD80B582B000AFC4
:10120000786039603B6819460A2008F07AFA02468D
:101210007B681A607B68002B01D0002300E001236B
:1012200018460837BD4680BD80B582B000AF7860F3
:101230007B68002B03D07B681B68002B01D1012346
:101240000CE07B681B684FF0FF31184608F006FD84
:101250000346012B14BF01230023DBB218460837D5
:10126000BD4680BD80B582B000AF78607B68002B42
:1012700003D07B681B68002B01D101230CE07B6845
:10128000186800230022002108F06EFA0346012BA3
:1012900014BF01230023DBB218460837BD4680BDCA
:1012A00080B582B000AF78607B68002B06D07B6889
:1012B0001B68184608F0DEFD002300E001231846F5
:1012C0000837BD4680BD80B487B000AFF860B96014
:1012D0007A60FB6830331A46BB681B0A9B0003F038
:1012E0000C0313447B617B691A68BB6803F01F031E
:1012F0001F2101FA03F3DB431A407B689B0E03F0C6
:101300001F01BB6803F01F0301FA03F31A437B6953
:101310001A6000BF1C37BD465DF8047B704780B47F
:1013200087B000AFF860B9607A60FB6814331A4682
:10133000BB685B0E9B0003F0040313447B617B6975
:101340001A68BB681B0D03F01F03072101FA03F3A2
:10135000DB431A40BB681B0D03F01F03796801FAD9
:1013600003F31A437B691A6000BF1C37BD465DF862
:10137000047B704780B485B000AFF860B9607A60D4
:10138000FB681A4A934215D1FB68D3F8B020BB68BA
:10139000C3F31303DB431A407B6803F018031449BB
:1013A000D940BB680B40C3F313031A43FB68C3F86F
:1013B000B02014E0FB68D3F8C020BB68C3F313036C
:1013C000DB431A407B6803F018030949D940BB6826
:1013D0000B40C3F313031A43FB68C3F8C02000BFDC
:1013E0001437BD465DF8047B704700BF00600258AB
:1013F000FFFF0F0080B483B000AF786039607B6876
:101400001A69064B13403A681A437B681A6100BF99
:101410000C37BD465DF8047B704700BFFCFBFFFF47
:1014200080B483B000AF78607B689A68044B134047
:101430007A68936000BF0C37BD465DF8047B704747
:10144000C0FFFF5F80B483B000AF78607B689A68AC
:10145000054B134043F080527B689A6000BF0C3705
:10146000BD465DF8047B7047C0FFFF6F80B400AFDE
:10147000054B1B68044A43F48033136000BFBD462C
:101480005DF8047B704700BF0044025880B400AF91
:10149000074B1B6803F40033B3F5003F01D1012370
:1014A00000E000231846BD465DF8047B704700BF8E
:1014B0000044025880B483B000AF7860064B1B69CB
:1014C00023F0070204497B6813430B6100BF0C370C
:1014D000BD465DF8047B70470044025880B400AFFD
:1014E000044B1B6903F038031846BD465DF8047BC6
:1014F000704700BF0044025880B483B000AF7860EA
:10150000064B9B6923F4706204497B6813438B612B
:1015100000BF0C37BD465DF8047B7047004402589D
:1015200080B483B000AF7860064B9B6923F00F0254
:1015300004497B6813438B6100BF0C37BD465DF8DF
:10154000047B70470044025880B483B000AF7860D9
:10155000064BDB6923F0700204497B681343CB61BF
:1015600000BF0C37BD465DF8047B7047004402584D
:1015700080B483B000AF7860064BDB6923F4E0628F
:1015800004497B681343CB6100BF0C37BD465DF84F
:10159000047B70470044025880B483B000AF786089
:1015A000064B9B6923F0700204497B6813438B61EF
:1015B00000BF0C37BD465DF8047B704700440258FD
:1015C00080B483B000AF7860064B1B6A23F07002D2
:1015D00004497B6813430B6200BF0C37BD465DF8BE
:1015E000047B70470044025880B483B000AF786039
:1015F000064B9B6D23F4403204497B6813438B6593
:1016000000BF0C37BD465DF8047B704700440258AC
:1016100080B483B000AF7860064B9B6A23F003026E
:1016200004497B6813438B6200BF0C37BD465DF8ED
:10163000047B70470044025880B400AF054B1B6820
:10164000044A43F08073136000BFBD465DF8047B1D
:10165000704700BF0044025880B400AF074B1B68BE
:1016600003F00073B3F1007F01D1012300E00023F8
:101670001846BD465DF8047B704700BF0044025821
:1016800080B400AF054BDB6A044A43F48033D36275
:1016900000BFBD465DF8047B704700BF00440258A0
:1016A00080B400AF054BDB6A044A43F40033D362D5
:1016B00000BFBD465DF8047B704700BF0044025880
:1016C00080B400AF054BDB6A044A43F48023D36245
:1016D00000BFBD465DF8047B704700BF0044025860
:1016E00080B483B000AF7860074BDB6A23F002025E
:1016F0007B685B0004491343CB6200BF0C37BD46D7
:101700005DF8047B704700BF0044025880B483B08A
:1017100000AF7860074BDB6A23F00C027B689B000C
:1017200004491343CB6200BF0C37BD465DF8047B10
:10173000704700BF0044025880B483B000AF7860A7
:10174000074B1A6B074B13407A68013A044913435D
:101750000B6300BF0C37BD465DF8047B704700BFCC
:101760000044025800FEFFFF80B483B000AF7860F1
:10177000074B9B6A23F47C727B681B01044913436B
:101780008B6200BF0C37BD465DF8047B704700BF1D
:101790000044025880B483B000AF7860074B1B6BE5
:1017A00023F47E427B68013B5B02044913430B63D5
:1017B00000BF0C37BD465DF8047B704700440258FB
:1017C00080B483B000AF7860074B1B6B23F4FE023C
:1017D0007B68013B1B04044913430B6300BF0C37B8
:1017E000BD465DF8047B70470044025880B483B066
:1017F00000AF7860074B1B6B23F0FE427B68013B18
:101800001B06044913430B6300BF0C37BD465DF84C
:10181000047B70470044025880B400AF054B1B683E
:10182000044A43F08063136000BFBD465DF8047B4B
:10183000704700BF0044025880B400AF074B1B68DC
:1018400003F00063B3F1006F01D1012300E0002336
:101850001846BD465DF8047B704700BF004402583F
:1018600080B400AF054BDB6A044A43F40023D36223
:1018700000BFBD465DF8047B704700BF00440258BE
:1018800080B483B000AF7860074BDB6A23F020029E
:101890007B685B0104491343CB6200BF0C37BD4634
:1018A0005DF8047B704700BF0044025880B483B0E9
:1018B00000AF7860074BDB6A23F0C0027B689B01B6
:1018C00004491343CB6200BF0C37BD465DF8047B6F
:1018D000704700BF0044025880B483B000AF786006
:1018E000074B9A6B074B13407A68013A044913433C
:1018F0008B6300BF0C37BD465DF8047B704700BFAB
:101900000044025800FEFFFF80B483B000AF78604F
:10191000074B9B6A23F47C327B681B030449134307
:101920008B6200BF0C37BD465DF8047B704700BF7B
:101930000044025880B483B000AF7860074B9B6BC3
:1019400023F47E427B68013B5B02044913438B63B3
:1019500000BF0C37BD465DF8047B70470044025859
:1019600080B483B000AF7860074B9B6B23F4FE021A
:101970007B68013B1B04044913438B6300BF0C3796
:10198000BD465DF8047B70470044025880B483B0C4
:1019900000AF7860074B9B6B23F0FE427B68013BF6
:1019A0001B06044913438B6300BF0C37BD465DF82B
:1019B000047B70470044025880B485B000AF786063
:1019C0000A4BD3F8D82009497B681343C1F8D830B3
:1019D000064BD3F8D8207B681340FB60FB6800BF40
:1019E0001437BD465DF8047B704700BF00440258C1
:1019F00080B485B000AF78600A4BD3F8E020094985
:101A00007B681343C1F8E030064BD3F8E0207B68D5
:101A10001340FB60FB6800BF1437BD465DF8047BD4
:101A2000704700BF0044025880B485B000AF7860B2
:101A30000A4BD3F8F02009497B681343C1F8F03012
:101A4000064BD3F8F0207B681340FB60FB6800BFB7
:101A50001437BD465DF8047B704700BF0044025850
:101A600080B483B000AF7860064B1B6823F00F0290
:101A700004497B6813430B6000BF0C37BD465DF81B
:101A8000047B70470020005280B400AF044B1B68F9
:101A900003F00F031846BD465DF8047B704700BF96
:101AA0000020005280B483B000AF7860064BDB6842
:101AB00023F03F0204497B681343CB6000BF0C371F
:101AC000BD465DF8047B70470048025880B483B07F
:101AD00000AF7860064B9B6923F4404204497B6861
:101AE00013438B6100BF0C37BD465DF8047B704724
:101AF0000048025880B483B000AF78607B681B68F0
:101B000023F080027B681A6000BF0C37BD465DF889
:101B1000047B704780B485B000AF786039603B6863
:101B2000012B28D03B68042B23D03B68102B1ED000
:101B30003B68402B19D03B68B3F5807F13D03B68DE
:101B4000B3F5806F0DD03B68B3F5805F07D03B687D
:101B5000B3F5803F01D107230EE008230CE00623F4
:101B60000AE0052308E0042306E0032304E002233F
:101B700002E0012300E00023FB737B681833194661
:101B8000FB7B0B4AD35C0B44BB60BB681A68FB7BD6
:101B90000849CB5C194604238B40DB431A40BB68E1
:101BA0001A6000BF1437BD465DF8047B704700BF64
:101BB0003CCB000848CB000880B485B000AF78600B
:101BC00039603B68012B28D03B68042B23D03B684D
:101BD000102B1ED03B68402B19D03B68B3F5807F9B
:101BE00013D03B68B3F5806F0DD03B68B3F5805FD1
:101BF00007D03B68B3F5803F01D107230EE00823EF
:101C00000CE006230AE0052308E0042306E0032392
:101C100004E0022302E0012300E00023FB737B6861
:101C200018331946FB7B0A4AD35C0B44BB60BB6884
:101C30001A68FB7B0749CB5C194608238B401A4383
:101C4000BB681A6000BF1437BD465DF8047B70475F
:101C50003CCB000848CB000880B483B000AF78606C
:101C600039607B689A68064B13403A681A437B6870
:101C70009A6000BF0C37BD465DF8047B704700BF1B
:101C8000F8BFFEFF80B483B000AF786039607B6836
:101C90005B6823F070023B681A437B685A6000BFA0
:101CA0000C37BD465DF8047B704780B483B000AF4D
:101CB000786039607B685B6823F470023B681A4384
:101CC0007B685A6000BF0C37BD465DF8047B7047E7
:101CD00080B483B000AF786039607B689A68064B47
:101CE00013403A681A437B689A6000BF0C37BD46C0
:101CF0005DF8047B704700BF8FFFCFFF80B483B0D7
:101D000000AF78607B689B6823F080027B689A60F4
:101D100000BF0C37BD465DF8047B704780B483B0CC
:101D200000AF78607B68DB6823F040027B68DA6094
:101D300000BF0C37BD465DF8047B704780B483B0AC
:101D400000AF78607B68DB6823F480427B68DA60F0
:101D500000BF0C37BD465DF8047B704780B483B08C
:101D600000AF786039603B681A047B689A6100BFF5
:101D70000C37BD465DF8047B7047000080B500AFAE
:101D80000320FFF76DFE00BFFFF77EFE0346032B27
:101D9000FAD10220FFF786FE0020FFF797FEFFF73B
:101DA00065FB00BFFFF772FB0346012BFAD102204F
:101DB000FFF72EFCFFF764FCFFF772FCFFF780FCD7
:101DC0000320FFF7A3FC0020FFF78AFC0120FFF7A8
:101DD000CBFC2220FFF7B0FC0120FFF7DBFC052045
:101DE000FFF7EEFC0220FFF701FDFFF725FC00BF27
:101DF000FFF732FC0346012BFAD10820FFF790FBD6
:101E00000320FFF757FB00BFFFF768FB0346182BC3
:101E1000FAD10020FFF770FB0820FFF781FB40207C
:101E2000FFF792FB4FF48060FFF7A2FB4020FFF723
:101E3000B3FB4020FFF7C4FB064801F0CDF90F20AB
:101E400000F0F8FE0346002B01D000F050FC00BF6C
:101E500080BD00BF00C86C2080B500AFFFF700FD5B
:101E60000320FFF723FD0020FFF70AFD0120FFF705
:101E70004BFD0C20FFF730FD0220FFF75BFD022039
:101E8000FFF76EFD0220FFF781FDFFF7C5FC00BFE5
:101E9000FFF7D2FC0346012BFAD100BF00BF80BD83
:101EA00080B594B000AF07F1400300221A605A6079
:101EB0009A6007F1280300221A605A609A60DA607B
:101EC0001A615A6107F1180300221A605A609A6079
:101ED000DA603B4600221A605A609A60DA601A6142
:101EE0005A610020FFF780FB2020FFF765FD2020CE
:101EF000FFF77EFD4FF400633B6003237B6000230C
:101F00003B613B4619462F4800F0D8FF00212E4880
:101F1000FFF770FA00233B640023BB6407F1400322
:101F20001946294801F0B6F80023BB620023FB6282
:101F300000233B6300237B630023FB6307F128033B
:101F40001946214801F0FEF84FF44023BB610023FD
:101F5000FB6107F1180319461C4801F043F81A48C1
:101F6000FFF75EFA1848FFF76DFA194B1B689B09DB
:101F7000184AA2FB03239A0913469B0013445B00F3
:101F80001A46154BA3FB0223DB08FB6402E0FB6C43
:101F9000013BFB64FB6C002BF9D1104A06210A4877
:101FA000FFF791F900220D490748FFF7B8F940F211
:101FB000FF720A490448FFF7DDF900BF5037BD46FC
:101FC00080BD00BF001402580020024000230240E0
:101FD0006C000024632D3E05CDCCCCCC0400600801
:101FE00080B590B000AF07F1300300221A605A604C
:101FF0009A6007F1180300221A605A609A60DA604A
:102000001A615A613B4600221A605A609A60DA608F
:102010001A615A610020FFF7E7FA2020FFF7CCFC95
:102020002020FFF7E5FC4FF480433B6003237B60F7
:1020300000233B613B461946294800F03FFF002141
:102040002848FFF7D7F900233B630023BB6307F160
:1020500030031946234801F01DF80023BB6100231B
:10206000FB6100233B6200237B620023FB6207F1DC
:10207000180319461B4801F065F81A48FFF7D0F914
:102080001848FFF7DFF9184B1B689B09174AA2FB9A
:1020900003239A0913469B0013445B001A46144B12
:1020A000A3FB0223DB08FB6302E0FB6B013BFB634A
:1020B000FB6B002BF9D10F4A06210A48FFF703F901
:1020C00000220C490748FFF72AF940F2FF7209493C
:1020D0000448FFF74FF900BF4037BD4680BD00BF41
:1020E00000140258002102406C000024632D3E05BC
:1020F000CDCCCCCC4000201980B500AF2E4B2F4A60
:102100001A602D4B00229A602B4B0022DA602A4B7A
:1021100000221A74284B00225A74274B00229A740A
:10212000254B01225A61244B04229A61224B1B2227
:10213000DA61214B04221A621F4B01225A621E4BA4
:1021400004229A621C4B1B22DA621B4B04221A6384
:10215000194B00225A63184B00229A63164B002237
:10216000DA63154B01221A64134B05225A64124B91
:1021700000229A64104B0422DA640F4B00221A6585
:102180000D4B04225A650C4B00229A650A4B002223
:10219000DA65094B01221A66074B00225A66064B84
:1021A00005229A66044802F077FE0346002B01D010
:1021B00000F09DFA00BF80BD8801002400A000400F
:1021C00080B500AF2E4B2F4A1A602D4B00229A602B
:1021D0002B4B0022DA602A4B00221A74284B002273
:1021E0005A74274B00229A74254B01225A61244BC2
:1021F00001229A61224B0222DA61214B02221A62E9
:102200001F4B01225A621E4B01229A621C4B012273
:10221000DA621B4B01221A63194B00225A63184BD6
:1022200000229A63164B0022DA63154B00221A64CF
:10223000134B04225A64124B00229A64104B04225E
:10224000DA640F4B00221A650D4B04225A650C4BC1
:1022500000229A650A4B0022DA65094B00221A66B1
:10226000074B00225A66064B04229A66044802F085
:1022700013FE0346002B01D000F039FA00BF80BDE9
:102280002802002400A4004080B500AF2E4B2F4A46
:102290001A602D4B00229A602B4B0022DA602A4BE9
:1022A00000221A74284B00225A74274B00229A7479
:1022B000254B01225A61244B01229A61224B0222B2
:1022C000DA61214B02221A621F4B01225A621E4B15
:1022D00001229A621C4B0122DA621B4B01221A6313
:1022E000194B00225A63184B00229A63164B0022A6
:1022F000DA63154B00221A64134B04225A64124B02
:1023000000229A64104B0422DA640F4B00221A65F3
:102310000D4B04225A650C4B00229A650A4B002291
:10232000DA65094B00221A66074B00225A66064BF3
:1023300004229A66044802F0AFFD0346002B01D048
:1023400000F0D5F900BF80BDC802002400D40040D1
:1023500080B500AF0E4B0F4A1A600D4B00225A6039
:102360000B4B00229A600A4B4FF48042DA60084B14
:1023700000221A61064B00225A61054804F054FB02
:102380000346002B01D000F0B2F900BF80BD00BFB2
:10239000680300240070005280B5A0B000AF07F1C0
:1023A0006C0300221A605A609A60DA601A6107F1C1
:1023B0004C032022002118460AF086FA07F11C037C
:1023C0003022002118460AF07FFA3B1D00221A60D5
:1023D0005A609A60DA601A615A610120FFF724FBA3
:1023E0000023A7F86C3000233B674FF6FF737B6731
:1023F0000023BB670023FB6707F16C0319463C48C9
:1024000005F0FEFE3A48FFF775FB4FF4807138483F
:10241000FFF7D2FB6023FB6400233B6500237B6551
:102420000023BB650023FB6500233B6600237B661E
:102430000023BB6607F14C031A464FF480712C4809
:1024400005F07EFF4FF480712948FFF763FB002100
:102450002748FFF73DFC07212548FFF7FDFB2448EF
:10246000FFF75CFC2248FFF769FC00212048FFF7DA
:1024700009FC00211E48FFF718FC1D48FFF73EFC31
:102480000023FB6100233B6200237B62002387F86B
:10249000283000237B854FF40053FB6200233B630D
:1024A0000023BB634FF00073FB6300233B640023F6
:1024B000BB6407F11C0319460D4805F0A1FF10206D
:1024C000FFF796FA4FF400537B600223BB600023B2
:1024D000FB6000233B6100237B610123BB613B1D4B
:1024E0001946044800F0EAFC00BF8037BD4680BDB5
:1024F000000001400010025880B500AF164B174A8B
:102500001A60154B09225A60134B0222DA60124BF3
:1025100000221A61104B02229A610F4B0022DA61ED
:102520000D4B00221A620C4B00225A620A4B012208
:102530009A62094B0122DA62074B00221A63064BAA
:1025400000225A63044806F09FFA0346002B01D08C
:1025500000F0CDF800BF80BDE4030024000004407B
:1025600080B586B000AF3B4600221A605A609A6080
:10257000DA601A615A611020FFF73AFA0420FFF777
:1025800037FA8020FFF734FA2020FFF731FA0220D3
:10259000FFF72EFA0820FFF72BFA4020FFF728FA62
:1025A0000120FFF725FA1C214448FFF7D7FB4FF421
:1025B00080414348FFF7D2FB4FF460514148FFF799
:1025C000CDFB0C233B6001237B600023BB60002319
:1025D000FB6000233B613B461946384800F06EFC27
:1025E00010233B6001237B600023BB600023FB6062
:1025F00002233B613B461946304800F05FFC4FF434
:1026000058433B6000237B6000233B613B461946F7
:102610002A4800F053FC4FF410433B6000237B60DA
:1026200000233B613B461946254800F047FC4FF428
:1026300080433B6001237B600023BB600023FB6081
:1026400000233B613B4619461D4800F037FC4FF420
:1026500047433B6000237B6000233B613B461946B8
:10266000184800F02BFC4FF460533B6001237B6063
:102670000023BB600023FB6000233B613B461946FF
:10268000104800F01BFCC0233B6000237B6000234C
:102690003B613B4619460C4800F010FC80233B6030
:1026A00000237B6000233B613B461946074800F04E
:1026B00005FC00BF1837BD4680BD00BF00100258A2
:1026C00000040258000C0258001802580008025872
:1026D00080B582B000AF78607B681B68B3F1804F33
:1026E00001D102F0B9FB00BF0837BD4680BD80B400
:1026F00000AF72B600BFFEE780B400AFFEE780B463
:1027000000AFFEE780B400AFFEE780B400AFFEE7A5
:1027100080B400AFFEE780B400AF00BFBD465DF8F7
:10272000047B704780B500AF024802F077FF00BF1E
:1027300080BD00BF8801002480B500AF024805F0CD
:10274000C3FA00BF80BD00BFF007002480B483B08F
:1027500000AF7860064BDB6C23F4803204497B6861
:102760001343CB6400BF0C37BD465DF8047B704754
:102770000044025880B483B000AF7860064B5B6DB4
:1027800023F4401204497B6813434B6500BF0C37A8
:10279000BD465DF8047B70470044025880B483B0A6
:1027A00000AF7860064B1B6D23F0405204497B68F4
:1027B00013430B6500BF0C37BD465DF8047B7047C3
:1027C0000044025880B400AF054BDB68044A43F074
:1027D0008073D36000BFBD465DF8047B704700BFC7
:1027E0000048025880B582B000AF0C4BD3F8F430EB
:1027F0000A4A43F00203C2F8F430084BD3F8F4302D
:1028000003F002037B607B6800220F216FF0010060
:1028100002F0B0FA00BF0837BD4680BD0044025840
:1028200080B58EB000AF786007F1240300221A60F3
:102830005A609A60DA601A617B681B68634A934247
:1028400043D10020FFF7AAFF614B1B680133604AA8
:1028500013605F4B1B68012B0ED15E4BD3F8EC303D
:102860005C4A43F48073C2F8EC305A4BD3F8EC3036
:1028700003F480733B623B6A564BD3F8E030554A11
:1028800043F00203C2F8E030524BD3F8E03003F0DB
:102890000203FB61FB694FF440737B620223BB625E
:1028A0000023FB6200233B6309237B6307F12403BE
:1028B0001946494801F0D8FE00220521132002F0F4
:1028C00059FA132002F070FA7CE07B681B68434AD7
:1028D00093423AD10020FFF761FF3D4B1B68013363
:1028E0003B4A13603A4B1B68012B0ED1394BD3F88E
:1028F000EC30384A43F48073C2F8EC30354BD3F8EF
:10290000EC3003F48073BB61BB69324BD3F8E03029
:10291000304A43F00203C2F8E0302E4BD3F8E030E7
:1029200003F002037B617B6960237B620223BB624D
:102930000023FB6200233B6309237B6307F124032D
:102940001946254801F090FE3CE07B681B68244A4C
:10295000934237D11E4B1B6801331D4A13601C4B39
:102960001B68012B0ED11B4BD3F8EC30194A43F4F2
:102970008073C2F8EC30174BD3F8EC3003F480735B
:102980003B613B69134BD3F8E030124A43F04003FC
:10299000C2F8E0300F4BD3F8E03003F04003FB60A7
:1029A000FB684FF4C0637B620223BB620023FB62BF
:1029B00000233B6302237B6307F124031946094884
:1029C00001F052FE00BF3837BD4680BD00A0004078
:1029D000EC070024004402580004025800A4004000
:1029E00000D400400018025880B582B000AF786073
:1029F0007B681B682B4A934219D12B4B1B68013B08
:102A0000294A1360284B1B68002B07D1274BD3F8AA
:102A1000EC30264A23F48073C2F8EC304FF4407156
:102A2000234801F0C9FF132002F0CCF935E07B68A0
:102A30001B68204A934215D11B4B1B68013B1A4A65
:102A40001360194B1B68002B07D1184BD3F8EC30DF
:102A5000164A23F48073C2F8EC306021144801F068
:102A6000ABFF1AE07B681B68134A934215D10E4BEB
:102A70001B68013B0C4A13600B4B1B68002B07D1F2
:102A80000A4BD3F8EC30094A23F48073C2F8EC30D7
:102A90004FF4C061094801F08FFF00BF0837BD4601
:102AA00080BD00BF00A00040EC0700240044025895
:102AB0000004025800A4004000D40040001802584E
:102AC00080B58AB000AF786007F1140300221A6065
:102AD0005A609A60DA601A617B681B682B4A9342DD
:102AE00050D10020FFF732FE294BD3F8D430284ACA
:102AF00043F48033C2F8D430254BD3F8D43003F4F8
:102B000080333B613B69224BD3F8E030204A43F0ED
:102B10000403C2F8E0301E4BD3F8E03003F00403A6
:102B2000FB60FB681A4BD3F8E030194A43F0080306
:102B3000C2F8E030164BD3F8E03003F00803BB6076
:102B4000BB684FF4F8537B610223BB610023FB6138
:102B500003233B620C237B6207F1140319460D48E3
:102B600001F082FD04237B610223BB610023FB6132
:102B700003233B620C237B6207F1140319460648CA
:102B800001F072FD00BF2837BD4680BD00700052C5
:102B90000044025800080258000C025880B58AB060
:102BA00000AF786007F1140300221A605A609A603F
:102BB000DA601A617B681B681B4A934230D14FF47C
:102BC0008010FFF7D7FDFFF7FDFD184BD3F8E0307D
:102BD000164A43F00103C2F8E030144BD3F8E0305A
:102BE00003F001033B613B694FF400737B610023F9
:102BF000BB610023FB6107F1140319460C4801F087
:102C000033FD0A4BD3F8D830084A43F00073C2F8BA
:102C1000D830064BD3F8D83003F00073FB60FB6864
:102C200000BF2837BD4680BD000004400044025864
:102C30000000025880B590B000AF78607B680F2B21
:102C400027D8002279681C2002F094F81C2002F09A
:102C5000ABF8294A7B681360284BD3F8E830274A41
:102C600043F00103C2F8E830244BD3F8E83003F016
:102C70000103FB60FB6807F1100207F11403114622
:102C8000184600F079FCBB6ABB63BB6B002B06D116
:102C900001E001232CE000F059FCF86304E000F0AF
:102CA00055FC03465B00FB63FB6B154AA2FB032349
:102CB0009B0C013B7B63134B4FF080421A60114B1E
:102CC00040F2E732DA600F4A7B6B53600D4B002213
:102CD0001A610C4B00229A600A4804F00DFF03466B
:102CE000002B04D1074804F069FF034600E00123EC
:102CF00018464037BD4680BD60000024004402589D
:102D000083DE1B43F007002480B485B000AFF86079
:102D1000B9607A60FB681968BB6803FB03F213466D
:102D20005B001344DB4301EA0302BB6803FB03F3CC
:102D3000796801FB03F31A43FB681A6000BF14377C
:102D4000BD465DF8047B704780B485B000AFF86085
:102D5000B9607A60FB685A68BB68DB431A40BB689D
:102D6000796801FB03F31A43FB685A6000BF14370C
:102D7000BD465DF8047B704780B485B000AFF86055
:102D8000B9607A60FB689968BB6803FB03F213467D
:102D90005B001344DB4301EA0302BB6803FB03F35C
:102DA000796801FB03F31A43FB689A6000BF14378C
:102DB000BD465DF8047B704780B485B000AFF86015
:102DC000B9607A60FB68D968BB6803FB03F21346FD
:102DD0005B001344DB4301EA0302BB6803FB03F31C
:102DE000796801FB03F31A43FB68DA6000BF14370C
:102DF000BD465DF8047B704780B485B000AFF860D5
:102E0000B9607A60FB68196ABB6803FB03F3BA68B0
:102E100002FB03F3BA6803FB02F213461B019B1A81
:102E2000DB4301EA0302BB6803FB03F3B96801FB60
:102E300003F3B96801FB03F3796801FB03F31A4359
:102E4000FB681A6200BF1437BD465DF8047B70470B
:102E500080B485B000AFF860B9607A60FB68596AE9
:102E6000BB681B0ABA68120A02FB03F3BA68120AAB
:102E700002FB03F3BA68120A03FB02F213461B01BA
:102E80009B1ADB4301EA0302BB681B0AB968090A03
:102E900001FB03F3B968090A01FB03F3B968090AE6
:102EA00001FB03F3796801FB03F31A43FB685A62E1
:102EB00000BF1437BD465DF8047B704780B588B00D
:102EC00000AF786039603B681B683B613B6993FAEF
:102ED000A3F3FB60FB687B617B69002B01D120239E
:102EE00003E07B69B3FA83F3DBB2FB6148E03B6844
:102EF0001A680121FB6901FA03F31340BB61BB6946
:102F0000002B3AD03B685B68012B03D03B685B68C1
:102F1000022B0ED13B689B681A46B9697868FFF7A7
:102F20002BFF3B6819683B68DB681A467868FFF737
:102F30000BFF3B681B691A46B9697868FFF73CFFCD
:102F40003B685B68022B11D1BB69FF2B07D83B683C
:102F50005B691A46B9697868FFF74EFF06E03B687F
:102F60005B691A46B9697868FFF772FF3B685B686E
:102F70001A46B9697868FFF7C7FEFB690133FB6140
:102F80003B681A68FB6922FA03F3002BAFD10023D8
:102F900018462037BD4680BD80B483B000AF78604E
:102FA00039607B681B6B23F00F023B681A437B6818
:102FB0001A6300BF0C37BD465DF8047B704780B4D0
:102FC00083B000AF78607B689B6803F00103012B3E
:102FD00001D1012300E0002318460C37BD465DF8FF
:102FE000047B704790B585B000AF786039600023EE
:102FF000FB737B68224A93420ED12248FFF7DFFF22
:1030000004462148FFF7DBFF03462343002B0CBF98
:1030100001230023DBB208E01C48FFF7D0FF034682
:10302000002B0CBF01230023DBB2002B20D03B6818
:103030005B68002B12D07B689A68154B13403A6886
:1030400011683A68526811433A68926811433A68C5
:10305000D2680A431A437B689A600BE07B689A68DF
:103060000B4B13403A6812681A437B689A6001E080
:103070000123FB73FB7B18461437BD4690BD00BF90
:10308000002302400020024000210240006002585C
:10309000E030C0FF80B584B000AF786039600023B5
:1030A000FB737868FFF78BFF0346002B3DD17B68ED
:1030B000214A934223D17B68DA68204B13403A6857
:1030C0001268082A13D03A6812680C2A0DD03A68A0
:1030D00012681C2A07D03A681268182A01D11822EF
:1030E00006E0002204E0102202E0082200E00022B4
:1030F000396889680A431A437B68DA600BE07B68A9
:10310000DA680F4B13403A6811683A6892680A43CC
:103110001A437B68DA607B681B6923F070423B6866
:103120005B681A437B681A6101E00123FB73FB7B38
:1031300018461037BD4680BD00600258E7BFFFFF4C
:10314000E3BFFFFF80B584B000AF78603960002333
:10315000FB737868FFF733FF0346002B32D13B68DF
:103160005B68002B15D07B68DA681A4B13403A680D
:1031700011683A68926811433A68D26811433A6814
:10318000126911433A6852690A431A437B68DA604C
:1031900011E07B68DA680F4B13403A6811683A68AF
:1031A000D26811433A68126911433A6852690A4376
:1031B0001A437B68DA603B685B6819467868FFF7FA
:1031C000EBFE01E00123FB73FB7B18461037BD4685
:1031D00080BD00BF1CC0F0FF80B483B000AF78603A
:1031E000044A7B68136000BF0C37BD465DF8047B62
:1031F000704700BF6C00002480B489B000AFB34BAF
:103200001B6903F03803182B00F2558101A252F814
:1032100023F000BF79320008B7340008B734000843
:10322000B7340008B7340008B7340008B7340008D2
:10323000B73400089F320008B7340008B7340008DC
:10324000B7340008B7340008B7340008B7340008B2
:10325000B7340008A5320008B7340008B7340008B6
:10326000B7340008B7340008B7340008B734000892
:10327000B7340008AB320008944B1B6803F02003FE
:10328000002B09D0914B1B68DB0803F00303904A25
:1032900022FA03F3BB6111E18D4BBB610EE18D4B53
:1032A000BB610BE18C4BBB6108E1884B9B6A03F06F
:1032B00003037B61854B9B6A1B0903F03F033B6162
:1032C000824BDB6A03F00103FB60804B5B6BDB0826
:1032D000C3F30C03FA6802FB03F307EE903AF8EE2F
:1032E000677AC7ED027A3B69002B00F0E1807B69C9
:1032F000022B00F083807B69022B00F2A1807B69A6
:10330000002B03D07B69012B56D099E06F4B1B68D3
:1033100003F02003002B2DD06C4B1B68DB0803F05F
:1033200003036B4A22FA03F37B607B6807EE903A53
:10333000F8EE676A3B6907EE903AF8EE677A86EE38
:10334000A77A624B1B6BC3F3080307EE903AF8EEC3
:10335000676A97ED026ADFED615AC6EE257A76EE6E
:10336000A77AF7EE006A77EEA67A67EE277AC7EDBE
:10337000077A87E03B6907EE903AF8EE677ADFED6F
:10338000586A86EEA77A514B1B6BC3F3080307EE0E
:10339000903AF8EE676A97ED026ADFED505AC6EE92
:1033A000257A76EEA77AF7EE006A77EEA67A67EED0
:1033B000277AC7ED077A65E03B6907EE903AF8EEA9
:1033C000677ADFED486A86EEA77A404B1B6BC3F342
:1033D000080307EE903AF8EE676A97ED026ADFEDB0
:1033E0003F5AC6EE257A76EEA77AF7EE006A77EEB8
:1033F000A67A67EE277AC7ED077A43E03B6907EEC6
:10340000903AF8EE677ADFED386A86EEA77A2F4BAE
:103410001B6BC3F3080307EE903AF8EE676A97ED6B
:10342000026ADFED2E5AC6EE257A76EEA77AF7EE1F
:10343000006A77EEA67A67EE277AC7ED077A21E071
:103440003B6907EE903AF8EE677ADFED266A86EE82
:10345000A77A1E4B1B6BC3F3080307EE903AF8EEF6
:10346000676A97ED026ADFED1D5AC6EE257A76EEA1
:10347000A77AF7EE006A77EEA67A67EE277AC7EDAD
:10348000077A00BF114B1B6B5B0A03F07F0301330C
:103490003B603B6807EE903AB8EE677AD7ED076A73
:1034A000C6EE877AFCEEE77A17EE903ABB6105E04C
:1034B0000023BB6102E0074BBB6100BFBB6918463C
:1034C0002437BD465DF8047B704700BF00440258B6
:1034D0000090D00300093D000024F40000000046E5
:1034E0000024744C0024744A0024744B80B582B0CC
:1034F00000AFFFF781FE0246104B9B691B0A03F0E9
:103500000F030F49CB5C03F01F0322FA03F37B6028
:103510000A4B9B6903F00F03094AD35C03F01F03B6
:103520007A6822FA03F3074A1360074A7B6813603C
:10353000044B1B6818460837BD4680BD004402583E
:1035400064CB0008700000246C00002480B500AF3C
:10355000FFF7CCFF0246064BDB691B0903F00703AC
:103560000449CB5C03F01F0322FA03F3184680BD25
:103570000044025864CB000880B483B000AF786088
:1035800039607B683F221A601A4B1B6903F00702FF
:103590007B685A60174B9B6903F470627B689A6082
:1035A000144B9B6903F00F027B68DA60114B9B6937
:1035B00003F070027B681A610E4BDB6903F0700246
:1035C0007B685A610B4BDB6903F4E0627B689A61AC
:1035D000084B1B6A03F070027B68DA61064B1B68BC
:1035E00003F00F023B681A6000BF0C37BD465DF860
:1035F000047B7047004402580020005280B590B010
:1036000000AF78607B68B3F5807F40F08980954B90
:103610001B6D03F007033B633B6B042B7DD801A2BA
:1036200052F823F0393600085D360008813600086C
:1036300015370008A53600088A4B1B6803F0007395
:10364000B3F1007F07D107F12403184600F0BAFE5A
:10365000BB6AFB63EFE30023FB63ECE3814B1B6876
:1036600003F00063B3F1006F07D107F118031846A8
:1036700000F000FCBB69FB63DDE30023FB63DAE3DE
:10368000784B1B6803F00053B3F1005F07D107F1DB
:103690000C03184600F042FDFB68FB63CBE30023FC
:1036A000FB63C8E36F4BDB6C03F040537B636D4BF4
:1036B0001B6803F00403042B0CD17B6B002B09D196
:1036C000684B1B68DB0803F00303674A22FA03F325
:1036D000FB631EE0634B1B6803F48073B3F5807FCC
:1036E00006D17B6BB3F1805F02D1604BFB6310E0CE
:1036F0005C4B1B6803F40033B3F5003F06D17B6BD2
:10370000B3F1005F02D15A4BFB6302E00023FB637D
:1037100091E390E3574BFB638DE30023FB638AE364
:103720007B68B3F5806F40F0A7804E4B9B6D03F430
:1037300060033B633B6BB3F5000F54D03B6BB3F5B9
:10374000000F00F28B803B6BB3F5C00F00F083805D
:103750003B6BB3F5C00F00F281803B6BB3F5800F7C
:103760002FD03B6BB3F5800F78D83B6B002B04D088
:103770003B6BB3F5001F12D070E03A4B1B6803F0AF
:103780000073B3F1007F07D107F12403184600F05E
:1037900019FEBB6AFB634EE30023FB634BE3314B33
:1037A0001B6803F00063B3F1006F07D107F1180342
:1037B000184600F05FFBBB69FB633CE30023FB633F
:1037C00039E3284B1B6803F00053B3F1005F07D1C6
:1037D00007F10C03184600F0A1FCFB68FB632AE329
:1037E0000023FB6327E31F4BDB6C03F040537B6339
:1037F0001C4B1B6803F00403042B0CD17B6B002BC8
:1038000009D1184B1B68DB0803F00303164A22FAA0
:1038100003F3FB631EE0134B1B6803F48073B3F5E3
:10382000807F06D17B6BB3F1805F02D10F4BFB63CE
:1038300010E00C4B1B6803F40033B3F5003F06D1D6
:103840007B6BB3F1005F02D1094BFB6302E0002305
:10385000FB63F0E2EFE2074BFB63ECE20023FB6368
:10386000E9E200BF004402580090D00300093D0087
:103870000024F4000080BB007B68B3F5006F40F0CB
:103880009C809D4B9B6D03F0E0633B633B6BB3F10E
:10389000806F54D03B6BB3F1806F00F28B803B6B39
:1038A000B3F1407F00F083803B6BB3F1407F00F2C7
:1038B00081803B6BB3F1007F2FD03B6BB3F1007F76
:1038C00078D83B6B002B04D03B6BB3F1807F12D0D8
:1038D00070E0894B1B6803F00073B3F1007F07D1E0
:1038E00007F12403184600F06DFDBB6AFB63A2E2FA
:1038F0000023FB639FE2804B1B6803F00063B3F17E
:10390000006F07D107F11803184600F0B3FABB693E
:10391000FB6390E20023FB638DE2774B1B6803F0AF
:103920000053B3F1005F07D107F10C03184600F014
:10393000F5FBFB68FB637EE20023FB637BE26E4BDF
:10394000DB6C03F040537B636B4B1B6803F0040399
:10395000042B0CD17B6B002B09D1674B1B68DB0858
:1039600003F00303654A22FA03F3FB631EE0624B94
:103970001B6803F48073B3F5807F06D17B6BB3F1D2
:10398000805F02D15E4BFB6310E05B4B1B6803F46E
:103990000033B3F5003F06D17B6BB3F1005F02D17A
:1039A000584BFB6302E00023FB6344E243E2564BC7
:1039B000FB6340E20023FB633DE27B68B3F5805F7D
:1039C00040F0A7804C4B1B6D03F4E043BB63BB6B23
:1039D000B3F5804F55D0BB6BB3F5804F00F29680A6
:1039E000BB6BB3F5405F00F08480BB6BB3F5405F09
:1039F00000F28C80BB6BB3F5005F30D0BB6BB3F5CE
:103A0000005F00F28380BB6B002B04D0BB6BB3F56F
:103A1000805F12D07AE0384B1B6803F00073B3F17B
:103A2000007F07D107F12403184600F0CBFCBB6AE6
:103A3000FB6300E20023FB63FDE12F4B1B6803F0F7
:103A40000063B3F1006F07D107F11803184600F0C7
:103A500011FABB69FB63EEE10023FB63EBE1264B4C
:103A60001B6803F00053B3F1005F07D107F10C03AB
:103A7000184600F053FBFB68FB63DCE10023FB63AB
:103A8000D9E11D4BDB6C03F040537B631A4B1B6881
:103A900003F00403042B0CD17B6B002B09D1164BD4
:103AA0001B68DB0803F00303144A22FA03F3FB63E9
:103AB0001EE0114B1B6803F48073B3F5807F06D1C1
:103AC0007B6BB3F1805F02D10D4BFB6310E00A4BBF
:103AD0001B6803F40033B3F5003F06D17B6BB3F1F1
:103AE000005F02D1074BFB6302E00023FB63A2E10E
:103AF000A1E1054BFB639EE1004402580090D00316
:103B000000093D000024F4000080BB000023FB639B
:103B100091E17B68B3F5002F73D19B4B9B6D03F450
:103B20004033BB63BB6BB3F5003F2FD0BB6BB3F52A
:103B3000003F63D8BB6B002B04D0BB6BB3F5803F59
:103B400012D05BE0904B1B6803F00063B3F1006F91
:103B500007D107F11803184600F08CF9BB69FB6325
:103B600069E10023FB6366E1874B1B6803F00053A8
:103B7000B3F1005F07D107F10C03184600F0CEFA4D
:103B80007B69FB6357E10023FB6354E17E4BDB6CF5
:103B900003F040537B637C4B1B6803F00403042B4E
:103BA0000CD17B6B002B09D1774B1B68DB0803F032
:103BB0000303764A22FA03F3FB631EE0724B1B6891
:103BC00003F48073B3F5807F06D17B6BB3F1805F24
:103BD00002D16F4BFB6310E06B4B1B6803F40033A7
:103BE000B3F5003F06D17B6BB3F1005F02D1694BA7
:103BF000FB6302E00023FB631DE11CE10023FB6388
:103C000019E17B68B3F5803F33D15F4BDB6C03F484
:103C10008033BB63BB6B002B04D0BB6BB3F5803F21
:103C200012D023E0584B1B6803F00073B3F1007F00
:103C300007D107F12403184600F0C4FBBB6AFB63FD
:103C4000F9E00023FB63F6E04F4B1B6803F00063D1
:103C5000B3F1006F07D107F11803184600F00AF915
:103C60003B6AFB63E7E00023FB63E4E00023FB63C4
:103C7000E1E07B68B3F5804F40F08E80424B9B6D56
:103C800003F0E043BB63BB6BB3F1A04F6BD0BB6BE6
:103C9000B3F1A04F74D8BB6BB3F1804F56D0BB6B60
:103CA000B3F1804F6CD8BB6BB3F1405F3BD0BB6BC3
:103CB000B3F1405F64D8BB6BB3F1005F21D0BB6B45
:103CC000B3F1005F5CD8BB6B002B04D0BB6BB3F1CE
:103CD000805F04D054E000F0B7F8F863ABE02A4B03
:103CE0001B6803F00063B3F1006F07D107F11803FD
:103CF000184600F0BFF8FB69FB639CE00023FB6300
:103D000099E0214B1B6803F00053B3F1005F07D12A
:103D100007F10C03184600F001FA3B69FB638AE0E7
:103D20000023FB6387E0184B1B6803F00403042B9C
:103D300009D1154B1B68DB0803F00303134A22FA71
:103D400003F3FB6377E00023FB6374E00E4B1B6817
:103D500003F48073B3F5807F02D10D4BFB636AE0FF
:103D60000023FB6367E0084B1B6803F40033B3F5E3
:103D7000003F02D1074BFB635DE00023FB635AE089
:103D80000023FB6357E000BF004402580090D003BB
:103D900000093D000024F4007B68B3F5004F48D1D2
:103DA000274B1B6D03F04053BB63BB6BB3F1005F4C
:103DB0002AD0BB6BB3F1005F38D8BB6B002B04D0AB
:103DC000BB6BB3F1805F0DD030E01D4B1B6803F47B
:103DD0000033B3F5003F02D11A4BFB632BE0002305
:103DE000FB6328E0164B1B6803F00073B3F1007F00
:103DF00007D107F12403184600F0E4FABB6AFB631D
:103E000019E00023FB6316E00D4B1B6803F0006311
:103E1000B3F1006F07D107F11803184600F02AF834
:103E2000FB69FB6307E00023FB6304E00023FB6303
:103E300001E00023FB63FB6B18464037BD4680BDA5
:103E4000004402580024F40080B500AFFFF74EFB99
:103E50000246064B1B6A1B0903F007030449CB5CAF
:103E600003F01F0322FA03F3184680BD00440258F2
:103E700064CB000880B489B000AF7860A14B9B6A26
:103E800003F00303BB619F4B9B6A1B0B03F03F03D3
:103E90007B619C4BDB6A1B0903F001033B61994B7F
:103EA000DB6BDB08C3F30C033A6902FB03F307EE99
:103EB000903AF8EE677AC7ED037A7B69002B00F041
:103EC0001181BB69022B00F08380BB69022B00F2D9
:103ED000A180BB69002B03D0BB69012B56D099E0B0
:103EE000884B1B6803F02003002B2DD0854B1B68EB
:103EF000DB0803F00303844A22FA03F3BB60BB68C8
:103F000007EE903AF8EE676A7B6907EE903AF8EEB2
:103F1000677A86EEA77A7B4B9B6BC3F3080307EEA9
:103F2000903AF8EE676A97ED036ADFED785AC6EECD
:103F3000257A76EEA77AF7EE006A77EEA67A67EE34
:103F4000277AC7ED077A87E07B6907EE903AF8EEAB
:103F5000677ADFED6F6A86EEA77A6A4B9B6BC3F3D5
:103F6000080307EE903AF8EE676A97ED036ADFED13
:103F7000675AC6EE257A76EEA77AF7EE006A77EEF4
:103F8000A67A67EE277AC7ED077A65E07B6907EEC8
:103F9000903AF8EE677ADFED5F6A86EEA77A594BC2
:103FA0009B6BC3F3080307EE903AF8EE676A97ED50
:103FB000036ADFED565AC6EE257A76EEA77AF7EE5B
:103FC000006A77EEA67A67EE277AC7ED077A43E0B4
:103FD0007B6907EE903AF8EE677ADFED4F6A86EE7E
:103FE000A77A484B9B6BC3F3080307EE903AF8EEB1
:103FF000676A97ED036ADFED455AC6EE257A76EEDD
:10400000A77AF7EE006A77EEA67A67EE277AC7ED11
:10401000077A21E07B6907EE903AF8EE677ADFEDE8
:104020003D6A86EEA77A374B9B6BC3F3080307EE16
:10403000903AF8EE676A97ED036ADFED345AC6EE00
:10404000257A76EEA77AF7EE006A77EEA67A67EE23
:10405000277AC7ED077A00BF2A4B9B6B5B0A03F0F8
:104060007F0307EE903AF8EE677AB7EE007A37EE04
:10407000877AD7ED076AC6EE877AFCEEE77A17EE05
:10408000902A7B681A601F4B9B6B1B0C03F07F030D
:1040900007EE903AF8EE677AB7EE007A37EE877A55
:1040A000D7ED076AC6EE877AFCEEE77A17EE902A1C
:1040B0007B685A60134B9B6B1B0E03F07F0307EE6C
:1040C000903AF8EE677AB7EE007A37EE877AD7ED56
:1040D000076AC6EE877AFCEEE77A17EE902A7B68CD
:1040E0009A6008E07B6800221A607B6800225A60B0
:1040F0007B6800229A6000BF2437BD465DF8047BD0
:10410000704700BF004402580090D00300000046F2
:104110000024744C0024744A0024744B80B489B089
:1041200000AF7860A14B9B6A03F00303BB619F4B18
:104130009B6A1B0D03F03F037B619C4BDB6A1B0AF0
:1041400003F001033B61994B5B6CDB08C3F30C0389
:104150003A6902FB03F307EE903AF8EE677AC7ED8F
:10416000037A7B69002B00F01181BB69022B00F000
:104170008380BB69022B00F2A180BB69002B03D0B6
:10418000BB69012B56D099E0884B1B6803F02003D4
:10419000002B2DD0854B1B68DB0803F00303844AFA
:1041A00022FA03F3BB60BB6807EE903AF8EE676A49
:1041B0007B6907EE903AF8EE677A86EEA77A7B4B3A
:1041C0001B6CC3F3080307EE903AF8EE676A97EDAD
:1041D000036ADFED785AC6EE257A76EEA77AF7EE17
:1041E000006A77EEA67A67EE277AC7ED077A87E04E
:1041F0007B6907EE903AF8EE677ADFED6F6A86EE3C
:10420000A77A6A4B1B6CC3F3080307EE903AF8EEEB
:10421000676A97ED036ADFED675AC6EE257A76EE98
:10422000A77AF7EE006A77EEA67A67EE277AC7EDEF
:10423000077A65E07B6907EE903AF8EE677ADFED82
:104240005F6A86EEA77A594B1B6CC3F3080307EE2F
:10425000903AF8EE676A97ED036ADFED565AC6EEBC
:10426000257A76EEA77AF7EE006A77EEA67A67EE01
:10427000277AC7ED077A43E07B6907EE903AF8EEBC
:10428000677ADFED4F6A86EEA77A484B1B6CC3F363
:10429000080307EE903AF8EE676A97ED036ADFEDE0
:1042A000455AC6EE257A76EEA77AF7EE006A77EEE3
:1042B000A67A67EE277AC7ED077A21E07B6907EED9
:1042C000903AF8EE677ADFED3D6A86EEA77A374BD3
:1042D0001B6CC3F3080307EE903AF8EE676A97ED9C
:1042E000036ADFED345AC6EE257A76EEA77AF7EE4A
:1042F000006A77EEA67A67EE277AC7ED077A00BFE5
:104300002A4B1B6C5B0A03F07F0307EE903AF8EE32
:10431000677AB7EE007A37EE877AD7ED076AC6EE8E
:10432000877AFCEEE77A17EE902A7B681A601F4BBB
:104330001B6C1B0C03F07F0307EE903AF8EE677AD4
:10434000B7EE007A37EE877AD7ED076AC6EE877A3E
:10435000FCEEE77A17EE902A7B685A60134B1B6CD1
:104360001B0E03F07F0307EE903AF8EE677AB7EE84
:10437000007A37EE877AD7ED076AC6EE877AFCEEC9
:10438000E77A17EE902A7B689A6008E07B68002243
:104390001A607B6800225A607B6800229A6000BF26
:1043A0002437BD465DF8047B704700BF00440258C7
:1043B0000090D003000000460024744C0024744A8E
:1043C0000024744B80B489B000AF7860A04B9B6A26
:1043D00003F00303BB619E4B9B6A1B0903F03F0381
:1043E0007B619B4BDB6A03F001033B61984B5B6B8A
:1043F000DB08C3F30C033A6902FB03F307EE903AC0
:10440000F8EE677AC7ED037A7B69002B00F0118123
:10441000BB69022B00F08380BB69022B00F2A180F4
:10442000BB69002B03D0BB69012B56D099E0884BA8
:104430001B6803F02003002B2DD0854B1B68DB0885
:1044400003F00303834A22FA03F3BB60BB6807EE61
:10445000903AF8EE676A7B6907EE903AF8EE677A71
:1044600086EEA77A7A4B1B6BC3F3080307EE903AEC
:10447000F8EE676A97ED036ADFED775AC6EE257AA4
:1044800076EEA77AF7EE006A77EEA67A67EE277ADD
:10449000C7ED077A87E07B6907EE903AF8EE677A16
:1044A000DFED6E6A86EEA77A694B1B6BC3F30803D8
:1044B00007EE903AF8EE676A97ED036ADFED665A09
:1044C000C6EE257A76EEA77AF7EE006A77EEA67A40
:1044D00067EE277AC7ED077A65E07B6907EE903AC9
:1044E000F8EE677ADFED5E6A86EEA77A584B1B6BB3
:1044F000C3F3080307EE903AF8EE676A97ED036A94
:10450000DFED555AC6EE257A76EEA77AF7EE006A09
:1045100077EEA67A67EE277AC7ED077A43E07B69E4
:1045200007EE903AF8EE677ADFED4E6A86EEA77AEC
:10453000474B1B6BC3F3080307EE903AF8EE676A2C
:1045400097ED036ADFED445AC6EE257A76EEA77A38
:10455000F7EE006A77EEA67A67EE277AC7ED077A5C
:1045600021E07B6907EE903AF8EE677ADFED3B6A6F
:1045700086EEA77A364B1B6BC3F3080307EE903A1F
:10458000F8EE676A97ED036ADFED335AC6EE257AD7
:1045900076EEA77AF7EE006A77EEA67A67EE277ACC
:1045A000C7ED077A00BF2A4B1B6B5B0A03F07F0342
:1045B00007EE903AF8EE677AB7EE007A37EE877A30
:1045C000D7ED076AC6EE877AFCEEE77A17EE902AF7
:1045D0007B681A601E4B1B6B1B0C03F07F0307EEFE
:1045E000903AF8EE677AB7EE007A37EE877AD7ED31
:1045F000076AC6EE877AFCEEE77A17EE902A7B68A8
:104600005A60134B1B6B1B0E03F07F0307EE903AAF
:10461000F8EE677AB7EE007A37EE877AD7ED076A59
:10462000C6EE877AFCEEE77A17EE902A7B689A60EE
:1046300008E07B6800221A607B6800225A607B6871
:1046400000229A6000BF2437BD465DF8047B7047A6
:10465000004402580090D003000000460024744C2F
:104660000024744A0024744B80B489B000AF786091
:1046700039600023FB61864B7B618CE13B681A68E3
:104680000121FB6901FA03F313403B613B69002BF5
:1046900000F07E813B685B6803F00303012B05D0CB
:1046A0003B685B6803F00303022B30D17B689B6897
:1046B000BB61FB695B00032202FA03F3DB43BA69C7
:1046C0001340BB613B68DA68FB695B0002FA03F3E5
:1046D000BA691343BB617B68BA699A607B685B689F
:1046E000BB610122FB6902FA03F3DB43BA691340A1
:1046F000BB613B685B681B0903F00102FB6902FABE
:1047000003F3BA691343BB617B68BA695A603B68BB
:104710005B6803F00303032B17D07B68DB68BB6186
:10472000FB695B00032202FA03F3DB43BA6913401F
:10473000BB613B689A68FB695B0002FA03F3BA69E4
:104740001343BB617B68BA69DA603B685B6803F05E
:104750000303022B23D1FB69DA087B68083253F884
:104760002230BB61FB6903F007039B000F2202FAB2
:1047700003F3DB43BA691340BB613B681A69FB6909
:1047800003F007039B0002FA03F3BA691343BB610A
:10479000FB69DA087B680832B96943F822107B6844
:1047A0001B68BB61FB695B00032202FA03F3DB4376
:1047B000BA691340BB613B685B6803F00302FB69A5
:1047C0005B0002FA03F3BA691343BB617B68BA6901
:1047D0001A603B685B6803F44033002B00F0D8801C
:1047E0002C4BD3F8F4302B4A43F00203C2F8F430D8
:1047F000284BD3F8F43003F00203FB60FB68264A31
:10480000FB699B08023352F82330BB61FB6903F05C
:1048100003039B000F2202FA03F3DB43BA69134040
:10482000BB617B681D4A93424AD07B681C4A934215
:104830002BD07B681B4A934225D07B681A4A93424F
:104840001FD07B68194A934219D07B68184A93425B
:1048500013D07B68174A93420DD07B68164A934267
:1048600007D07B68154A934201D1092329E00A2326
:1048700027E0072325E0062323E0052321E0042386
:104880001FE003231DE002231BE0012319E000BF0A
:1048900080000058004402580004005800000258EC
:1048A0000004025800080258000C02580010025878
:1048B0000014025800180258001C02580024025824
:1048C0000023FA6902F0030292009340BA6913438D
:1048D000BB613849FB699B080233BA6941F8232060
:1048E0004FF0B0431B68BB613B69DB43BA691340BF
:1048F000BB613B685B6803F48013002B03D0BA698B
:104900003B691343BB614FF0B042BB6913604FF08A
:10491000B0435B68BB613B69DB43BA691340BB6171
:104920003B685B6803F40013002B03D0BA693B6952
:104930001343BB614FF0B042BB6953607B695B6856
:10494000BB613B69DB43BA691340BB613B685B6891
:1049500003F40033002B03D0BA693B691343BB61F6
:104960007B69BA695A607B691B68BB613B69DB4341
:10497000BA691340BB613B685B6803F48033002B6A
:1049800003D0BA693B691343BB617B69BA691A609A
:10499000FB690133FB613B681A68FB6922FA03F388
:1049A000002B7FF46BAE00BF00BF2437BD465DF81F
:1049B000047B70470004005880B487B000AF786073
:1049C000396000237B61724B3B61D3E001227B693C
:1049D00002FA03F33A681340FB60FB68002B00F017
:1049E000C6806C4A7B699B08023352F82330BB6057
:1049F0007B6903F003039B000F2202FA03F3BA68FA
:104A00001340BB607B68644A934231D07B68634A41
:104A100093422BD07B68624A934225D07B68614ADF
:104A200093421FD07B68604A934219D07B685F4AEB
:104A3000934213D07B685E4A93420DD07B685D4AF7
:104A4000934207D07B685C4A934201D1092310E06E
:104A50000A230EE007230CE006230AE0052308E002
:104A6000042306E0032304E0022302E0012300E024
:104A700000237A6902F0030292009340BA689A42D6
:104A800036D13B691A68FB68DB431A403B691A6000
:104A90003B695A68FB68DB431A403B695A604FF038
:104AA000B0435A68FB68DB434FF0B04113404B60A2
:104AB0004FF0B0431A68FB68DB434FF0B04113403E
:104AC0000B607B6903F003039B000F2202FA03F3E0
:104AD000BB60304A7B699B08023352F82310BB68E5
:104AE000DA432C487B699B080A40023340F82320B4
:104AF0007B681A687B695B00032101FA03F31A43A0
:104B00007B681A607B69DA087B68083253F82210E8
:104B10007B6903F007039B000F2202FA03F3DB43D8
:104B20007A69D20819407B68083243F822107B6802
:104B3000DA687B695B00032101FA03F3DB431A4067
:104B40007B68DA607B685A6801217B6901FA03F3AC
:104B5000DB431A407B685A607B689A687B695B001C
:104B6000032101FA03F3DB431A407B689A607B69F7
:104B700001337B613A687B6922FA03F3002B7FF4EF
:104B800025AF00BF00BF1C37BD465DF8047B7047F2
:104B90008000005800040058000002580004025829
:104BA00000080258000C0258001002580014025865
:104BB00000180258001C02580024025880B485B026
:104BC00000AF78607B6803F00703FB600B4BDB688A
:104BD000BB60BA684FF6FF031340BB60FB681A0264
:104BE000BB681A43064B1343BB60044ABB68D360DF
:104BF00000BF1437BD465DF8047B704700ED00E050
:104C00000000FA0580B400AF044BDB681B0A03F018
:104C100007031846BD465DF8047B704700ED00E0D1
:104C200080B483B000AF0346FB80B7F90630002B99
:104C30000BDBFB8803F01F020749B7F906305B095D
:104C4000012000FA02F241F8232000BF0C37BD46D4
:104C50005DF8047B704700BF00E100E080B483B0E2
:104C600000AF0346FB80B7F90630002B12DBFB8850
:104C700003F01F020A49B7F906305B09012000FA68
:104C800002F2203341F82320BFF34F8F00BFBFF360
:104C90006F8F00BF00BF0C37BD465DF8047B7047C7
:104CA00000E100E080B483B000AF03463960FB80D0
:104CB000B7F90630002B0ADB3B68DAB20C49B7F9CA
:104CC00006301201D2B20B4483F800230AE03B689D
:104CD000DAB20849FB8803F00F03043B1201D2B299
:104CE0000B441A7600BF0C37BD465DF8047B704755
:104CF00000E100E000ED00E080B489B000AFF860B2
:104D0000B9607A60FB6803F00703FB61FB69C3F1DC
:104D10000703042B28BF0423BB61FB690433062B64
:104D200002D9FB69033B00E000237B614FF0FF32B7
:104D3000BB6902FA03F3DA43BB681A407B699A4005
:104D40004FF0FF317B6901FA03F3D9437B680B40D5
:104D5000134318462437BD465DF8047B704780B581
:104D600082B000AF78607868FFF728FF00BF08378F
:104D7000BD4680BD80B586B000AF0346B9607A609D
:104D8000FB81FFF73FFF78617A68B9687869FFF7C0
:104D9000B3FF0246B7F90E3011461846FFF782FFFF
:104DA00000BF1837BD4680BD80B582B000AF034656
:104DB000FB80B7F906301846FFF732FF00BF08370F
:104DC000BD4680BD80B582B000AF0346FB80B7F919
:104DD00006301846FFF742FF00BF0837BD4680BDCA
:104DE00080B582B000AF0320FFF7B9FFFEF704FAE9
:104DF0000246154B9B691B0A03F00F031349CB5C5A
:104E000003F01F0322FA03F37B600F4B9B6903F04F
:104E10000F030E4AD35C03F01F037A6822FA03F3F0
:104E20000B4A13600B4A7B6813600F20FDF702FFEB
:104E30000346002B01D0012302E0FDF7D3FC002341
:104E400018460837BD4680BD0044025864CB0008B0
:104E5000700000246C00002480B400AF064B1B7867
:104E60001A46064B1B681344044A136000BFBD4634
:104E70005DF8047B704700BF640000243C080024F8
:104E800080B400AF034B1B681846BD465DF8047B39
:104E9000704700BF3C08002480B598B000AF786030
:104EA000844A07F10C0311464C22184607F096FD80
:104EB0007B68002B01D10123C6E17B681B687E4A19
:104EC000934206D17B681B6803F580731A467B68A2
:104ED0005A607B6893F89830DBB2002B06D17B6870
:104EE000002283F899207868FDF79AFC7B681B689C
:104EF0009A697B681B6822F010029A61FFF7C0FF75
:104F0000F86514E0FFF7BCFF0246FB6DD31A0A2BCD
:104F10000DD97B68D3F89C3043F001027B68C3F85D
:104F20009C207B68032283F8982001238CE17B6816
:104F30001B689B6903F00803082BE3D07B681B68A0
:104F40009A697B681B6842F001029A61FFF798FF3B
:104F5000F86514E0FFF794FF0246FB6DD31A0A2BA5
:104F60000DD97B68D3F89C3043F001027B68C3F80D
:104F70009C207B68032283F89820012364E17B68EE
:104F80001B689B6903F00103002BE3D07B681B685F
:104F90009A697B681B6842F002029A617B681B7CFD
:104FA000012B08D17B681B689A697B681B6822F01B
:104FB00040029A6107E07B681B689A697B681B68FE
:104FC00042F040029A617B685B7C012B08D17B68D0
:104FD0001B689A697B681B6842F480429A6107E00B
:104FE0007B681B689A697B681B6822F480429A611F
:104FF0007B689B7C012B08D17B681B689A697B6866
:105000001B6822F480529A6107E07B681B689A69EA
:105010007B681B6842F480529A617B681B689B69BD
:1050200023F440717B689A687B681B680A439A6125
:105030007B681B689A697B681B6822F0A4029A61EE
:105040007B681B681A697B681B6822F010021A6172
:105050007B68DB68012B08D17B681B689A697B68D9
:105060001B6842F004029A6130E07B68DB68002B29
:105070002CD07B68DB68022B20D07B681B689A6988
:105080007B681B6842F080029A617B681B681A6922
:105090007B681B6842F010021A617B68DB68032B97
:1050A00014D17B681B689A697B681B6842F02002F8
:1050B0009A610BE0D4CA000800A000407B681B681E
:1050C0009A697B681B6842F020029A617B689B6941
:1050D000013B5A067B68DB69013B1B021A437B6874
:1050E0001B6A013B42EA03017B685B69013B1A04CE
:1050F0007B681B680A43DA617B689B68B3F5407F75
:1051000015D17B689B6A5A1E7B68DB6A013B1B02D8
:105110001A437B681B6B013B1B0142EA03017B685E
:105120005B6A013B1A047B681B680A43DA607B6890
:105130001B6E002B0AD07B681B68D3F8C0107B68FD
:105140005A6E7B681B680A43C3F8C0207B68DA6D1F
:105150007B681B6E1344002B11D07B681B68D3F84F
:10516000C83023F007017B689B6E9B0060333B4493
:1051700053F8542C7B681B680A43C3F8C8207B682B
:105180001B6C002B11D07B681B68D3F8BC3023F05C
:1051900007017B685B6C9B0060333B4453F8542CE5
:1051A0007B681B680A43C3F8BC207B689B6C002BA0
:1051B00012D07B681B68D3F8BC3023F070017B6889
:1051C000DB6C9B0060333B4453F8543C1A017B6812
:1051D0001B680A43C3F8BC207B681B6D002B12D0F0
:1051E0007B681B68D3F8BC3023F4E0617B685B6D9F
:1051F0009B0060333B4453F8543C1A027B681B68A5
:105200000A43C3F8BC207B681B68114A934207D14C
:105210007B685B689A687B685B6822F003029A602F
:105220007B680022C3F894207B680022C3F89C208E
:105230007B68012283F89820786800F003FD03461C
:1052400087F85B3097F85B3018466037BD4680BD05
:1052500000A0004080B582B000AF78607B68002B72
:1052600001D1012316E0786800F043F87B681B68E1
:10527000DA6D7B681B6822F00302DA657868FDF757
:10528000B3FB7B680022C3F89C207B68002283F874
:105290009820002318460837BD4680BD80B483B0EF
:1052A00000AF78607B6893F89830DBB2012B11D1A6
:1052B0007B68022283F898207B681B689A697B6868
:1052C0001B6822F001029A617B680022C3F89C20CF
:1052D000002308E07B68D3F89C3043F004027B682D
:1052E000C3F89C20012318460C37BD465DF8047BAB
:1052F000704780B485B000AF78600023FB607B68A6
:1053000093F89830DBB2022B5BD17B681B689A69FB
:105310007B681B6842F001029A6113E0FB68322B44
:105320000DD97B68D3F89C3043F001027B68C3F849
:105330009C207B68032283F8982001234AE0FB68C5
:105340000133FB607B681B689B6903F00103002B42
:10535000E4D00023FB607B681B689A697B681B684C
:1053600022F010029A6113E0FB68322B0DD97B68A2
:10537000D3F89C3043F001027B68C3F89C207B6823
:10538000032283F89820012324E0FB680133FB60AB
:105390007B681B689B6903F00803082BE4D07B68DB
:1053A0001B689A697B681B6842F002029A617B68FD
:1053B0000022C3F894207B68012283F89820002300
:1053C00008E07B68D3F89C3043F008027B68C3F8A0
:1053D0009C20012318461437BD465DF8047B7047B6
:1053E00080B586B000AFF860B9607A60FB6893F86A
:1053F0009830DBB2022B41D1FB681B68D3F8C03078
:1054000003F07C53002B09D1FB68D3F89C3043F0A8
:105410002002FB68C3F89C20012338E0FB681B686E
:10542000D3F8C43003F40013002B09D0FB68D3F881
:105430009C3043F40072FB68C3F89C20012326E0F3
:10544000FB681B68D3F8C4301B0C03F01F037B619F
:105450007B697A68B968F86800F07AFDFB681B68B8
:1054600001217A6901FA02F2C3F8D02001227B6996
:105470009A40FB68C3F89420002308E0FB68D3F847
:105480009C3043F00802FB68C3F89C2001231846B7
:105490001837BD4680BD80B485B000AF78607B68AA
:1054A0001B68D3F8C43003F03F03FB60FB68184669
:1054B0001437BD465DF8047B704780B487B000AFF9
:1054C000F860B9607A60FB6893F89830FB75FB7DF3
:1054D000012B02D0FB7D022B16D17B68012B09D159
:1054E000FB681B68996DBB68DA43FB681B680A4060
:1054F0009A6507E0FB681B68996DFB681B68BA68D2
:105500000A439A65002308E0FB68D3F89C3043F017
:105510000202FB68C3F89C20012318461C37BD46D5
:105520005DF8047B7047000080B487B000AFF8607E
:10553000B9607A60FB6893F89830FB75FB7D012BAE
:1055400002D0FB7D022B55D1FB681B689A6DBB68AE
:105550001340002B08D1FB681B68DA6DFB681B68E1
:1055600042F00102DA6514E0FB681B689A6DBB68C3
:105570001340BA689A4208D1FB681B68DA6DFB6871
:105580001B6842F00202DA6503E0FB681B68032235
:10559000DA65BB6803F40073002B09D0FB681B6855
:1055A000D3F8E010FB681B687A680A43C3F8E02070
:1055B000BB6803F48063002B09D0FB681B68D3F839
:1055C000E410FB681B687A680A43C3F8E420FB68B0
:1055D0001B68596DBA680F4B1340FA6812680B4389
:1055E00053650D4B5A69BB689B0F0B4913434B61C5
:1055F000002308E0FB68D3F89C3043F00202FB680C
:10560000C3F89C20012318461C37BD465DF8047B77
:10561000704700BFFFFFCF3F00A8004080B592B0A9
:1056200000AF7860904B1B699B077B648E4B5B6976
:105630009B077A6C13407B647B681B681B6D03F4CB
:1056400070433B647B681B685B6D3A6C13403B6442
:105650007B681B681B6D03F00F03FB637B681B6893
:105660005B6DFA6B1340FB637B681B681B6D03F07B
:10567000F003BB637B681B685B6DBA6B1340BB6355
:105680007B681B681B6D03F071537B637B681B6831
:105690005B6D7A6B13407B637B681B681B6D03F04B
:1056A00060733B637B681B685B6D3A6B13403B63C5
:1056B0007B681B685B6D03F48073002B11D07B68E3
:1056C0001B681B6D03F48073002B0AD07B681B687A
:1056D0004FF480721A65644B00221A61786800F0FA
:1056E00065FA7B681B685B6D03F48063002B1ED03A
:1056F0007B681B681B6D03F48063002B17D07B68ED
:105700001B68D3F8DC30FB627B681B68D3F8E4309D
:10571000FA6A1340FB627B681B684FF480621A656B
:10572000514B00221A61F96A786800F016FA7B6C16
:10573000002B0DD07B681A68796C4C4B0B401365BD
:10574000494A7B6C9B0F1361796C786800F0C4F94F
:105750003B6C002B0DD07B681A68396C434B0B40B7
:105760001365414A3B6C9B0F1361396C786800F0FC
:10577000BEF9FB6B002B0DD07B681A68F96B3B4BB5
:105780000B401365384AFB6B9B0F1361F96B78680C
:1057900000F0B8F9BB6B002B0DD07B681A68B96BB1
:1057A000324B0B401365304ABB6B9B0F1361B96BD7
:1057B000786800F0B2F97B681B685B6D03F40063E6
:1057C000002B11D07B681B681B6D03F40063002B5A
:1057D0000AD07B681B684FF400621A65224B0022D6
:1057E0001A61786800F0A4F97B681B685B6D03F4AC
:1057F0000073002B1ED07B681B681B6D03F40073C5
:10580000002B17D07B681B68D3F8D830BB627B684D
:105810001B68D3F8E030BA6A1340BB627B681B6830
:105820004FF400721A65104B00221A61B96A786849
:1058300000F088F97B681B685B6D03F40023002B84
:1058400016D07B681B681B6D03F40023002B0FD060
:105850007B681B684FF400221A65034B00221A6113
:10586000786800F085F903E000A80040FFFFCF3F13
:105870007B681B685B6D03F48033002B11D07B6861
:105880001B681B6D03F48033002B0AD07B681B68F8
:105890004FF480321A658D4B00221A61786800F04F
:1058A00071F97B681B685B6D03F48023002B11D0BA
:1058B0007B681B681B6D03F48023002B0AD07B6878
:1058C0001B684FF480221A65804B00221A617868A9
:1058D00000F062F97B681B685B6D03F40033002BFA
:1058E00016D07B681B681B6D03F40033002B0FD0B0
:1058F0007B681B684FF400321A65744B00221A61F2
:105900007B68D3F89C3043F080027B68C3F89C200E
:105910003B6B002B0DD07B681A68396B6C4B0B40CE
:1059200013656A4A3B6B9B0F1361396B786800F013
:1059300051F97B6B002B11D07B681A68796B644B33
:105940000B401365614A7B6B9B0F13617B68D3F837
:105950009C207B6B1A437B68C3F89C207B681B6888
:105960005C4A934240F0A6807B685B689B6803F0CA
:105970000303002B00F09E807B685B681B6A03F0CA
:105980000F037B627B685B685B6A7A6A13407B62A9
:105990007B685B681B6A03F030033B627B685B6873
:1059A0005B6A3A6A13403B627B685B681B6A03F47C
:1059B000C073FB617B685B685B6AFA691340FB61DB
:1059C0007B685B681B6A03F4FC43BB617B685B68B4
:1059D0005B6ABA691340BB617B685B681B6A03F44E
:1059E000F0237B617B685B685B6A7A6913407B614B
:1059F0007B6A002B07D07B685B687A6A1A62796AD7
:105A0000786800F0F2F83B6A002B07D07B685B688F
:105A10003A6A1A62396A786800F0F2F87B685B6863
:105A20005B6A03F04003002B1BD07B685B681B6A3A
:105A300003F04003002B14D07B685B68DB6B1B0C0E
:105A40009BB23B617B685B68DB6B03F03F03FB60F1
:105A50007B685B6840221A62FA683969786800F0EE
:105A6000DAF8FB69002B07D07B685B68FA691A6279
:105A7000F969786800F0DBF8BB69002B0BD07B6814
:105A80005B68BA691A627B68D3F89C20BB691A43C9
:105A90007B68C3F89C207B69002B0BD07B685B681C
:105AA0007A691A627B68D3F89C207B691A437B6809
:105AB000C3F89C207B68D3F89C30002B02D0786818
:105AC00000F07EF800BF4837BD4680BD00A800400A
:105AD000FFFFCF3F00A0004080B483B000AF7860EC
