:020000040800F2
:1000000000000524497C0008F11C0008F71C0008CA
:10001000FD1C0008031D0008091D00080000000069
:1000200000000000000000000000000081770008D0
:100030000F1D000800000000D17900085D72000863
:10004000997C0008997C0008997C0008997C00083C
:10005000997C0008997C0008997C0008997C00082C
:10006000997C0008997C0008997C0008997C00081C
:10007000997C0008997C0008997C0008997C00080C
:10008000997C0008997C0008997C00081D1D0008D7
:10009000997C0008997C0008997C0008997C0008EC
:1000A000997C0008997C0008997C0008997C0008DC
:1000B000311D0008997C0008997C0008997C000893
:1000C000997C0008997C0008997C0008997C0008BC
:1000D000997C0008997C0008997C0008997C0008AC
:1000E000997C0008997C000800000000997C0008B9
:1000F000997C0008997C0008997C0008997C00088C
:10010000997C0008997C0008997C0008997C00087B
:10011000997C0008997C0008997C0008997C00086B
:10012000997C0008997C0008997C0008997C00085B
:10013000997C0008997C0008997C0008997C00084B
:1001400000000000000000000000000000000000AF
:10015000997C0008997C0008997C0008997C00082B
:10016000997C0008997C0008997C0008997C00081B
:10017000997C0008997C0008997C0008997C00080B
:10018000997C0008997C0008997C0008997C0008FB
:10019000997C0008997C0008997C0008997C0008EB
:1001A000997C0008997C0008997C000800000000F8
:1001B000997C0008997C0008997C0008997C0008CB
:1001C000997C0008997C00080000000000000000F5
:1001D0000000000000000000997C00080000000002
:1001E000000000000000000000000000000000000F
:1001F0000000000000000000997C0008997C0008C5
:10020000997C0008997C000800000000997C000897
:10021000997C0008997C0008997C0008997C00086A
:10022000997C000800000000997C00080000000094
:10023000997C0008997C000800000000997C000867
:10024000997C0008997C0008997C0008997C00083A
:10025000997C0008997C0008997C0008997C00082A
:10026000997C0008997C0008997C0008997C00081A
:10027000997C0008997C0008997C00080000000027
:10028000997C0008997C0008997C0008997C0008FA
:1002900000000000997C0008997C0008997C000807
:1002A000997C0008997C0008997C0008997C0008DA
:1002B000997C0008997C0008997C0008997C0008CA
:0C02C000997C0008997C0008997C0008DB
:1002D0000348044B834202D0034B03B118477047D5
:1002E0008C0000248C000024000000000548064B10
:1002F0001B1AD90F01EBA301491002D0034B03B124
:10030000184770478C0000248C0000240000000077
:1003100010B5064C237843B9FFF7DAFF044B13B14D
:100320000448AFF300800123237010BD9000002427
:1003300000000000707E000808B5054B1BB10549A0
:100340000548AFF30080BDE80840FFF7CFBF00BF0E
:100350000000000094000024707E000880B582B088
:1003600000AF7860174B1B681B68002B0CBF012384
:100370000023DBB21A46144B1A700FE0134800F04A
:1003800069FA00F08FF80F4B1B681B68002B14BF35
:1003900001230023DBB21A460D4B1A700A4B1B785F
:1003A000DBB2002BEAD1084B00221A70786800F00B
:1003B00011F8002000F0E7F9002318460837BD4681
:1003C00080BD00BF007F000800000024B4000024AE
:1003D000AC00002480B582B000AF7860074B0122EA
:1003E0001A60074B00221A7000F0C3F8054800F0AD
:1003F0004FFA002318460837BD4680BDD4000024BC
:1004000000000024B000002480B582B000AF786006
:10041000396002F01BFD00F0DDFF01F04FF801F044
:1004200079FB01F09BF901F0FDF901F05FFA01F0B1
:1004300069F801F007F901F0BDFA094B1B680022C9
:100440001A6000F08FF80020B6EE000A00F0B2F853
:10045000044800F0FFF9002318460837BD4680BD68
:10046000007F0008B000002480B483B000AF786043
:1004700039607B683A689A6100BF0C37BD465DF809
:10048000047B704780B483B000AF786039603B680C
:100490001A047B689A6100BF0C37BD465DF8047B87
:1004A0007047000080B586B000AF2B4B1B6807EE8D
:1004B000903AB8EEE76B294B93ED047BB4EEC76B33
:1004C000F1EE10FA07D5244B1B68002B03DB234BFE
:1004D000D3E9002303E04FF000024FF00003C7E927
:1004E00002231D4B1B6807EE903AB8EEE76B1B4BDF
:1004F00093ED027BB7EE005B37EE457BB4EEC76B46
:10050000F1EE10FA03DB144B00221A6004E0124BE8
:100510001B680133104A1360114B7B6097ED027B1F
:10052000B5EE407BF1EE10FA02D010237B6101E0C2
:1005300000237B617B6919467868FFF795FF7B692B
:10054000DB4303F0100319467868FFF79BFF00BFF9
:100550001837BD4680BD00BFD80000240800002425
:100560000010025880B400AF00BFBD465DF8047BA8
:10057000704780B400AF00BFBD465DF8047B704794
:1005800080B582B000AF7860034800F081F900BF09
:100590000837BD4680BD00BFB400002480B582B0DE
:1005A00000AF78607868FFF7D9FE00BF0837BD4616
:1005B00080BD000080B588B000AF87ED010A3860CB
:1005C00000214C4800F02FF9F861FB69002B0AD09C
:1005D0004FF0500383F31188BFF36F8FBFF34F8F3A
:1005E000BB6100BFFEE70021434800F01CF9F86141
:1005F000FB69002B0AD04FF0500383F31188BFF33F
:100600006F8FBFF34F8F7B6100BFFEE73B4B28220C
:100610001A613A4B00229A61384B80229A82374BFA
:10062000374A07CA03C31A7000223649334800F01C
:1006300077F8F861FB69002B0AD04FF0500383F381
:100640001188BFF36F8FBFF34F8F3B6100BFFEE791
:100650002D4B00221A602D4B00221A60D7ED017A33
:100660009FED2B7A67EE877AFCEEE77A17EE902AF9
:10067000264B5A60254B01229A60234B1B681A4671
:10068000224BDA60234B244A92E8030018600433BB
:10069000198002330A0C1A7020491C4800F07EF8B9
:1006A000F861FB69002B0AD04FF0500383F31188E7
:1006B000BFF36F8FBFF34F8FFB6000BFFEE74FF4B8
:1006C0007A71124800F08BF8F861FB69002B0AD0B0
:1006D0004FF0500383F31188BFF36F8FBFF34F8F39
:1006E000BB6000BFFEE705F0D5FB00BF2037BD466D
:1006F00080BD00BFB4000024B0000024B800002476
:10070000887E00089D05000800010024E000002408
:1007100000007A44F0000024947E0008810500085F
:1007200080B588B002AFF860B9607A60FB68002BD2
:1007300001D1012323E0F968FB68988AFB681B69F3
:10074000FA681832019200937B680246B86805F097
:10075000A8F97861FB689B69002B0AD14FF0500320
:1007600083F31188BFF36F8FBFF34F8F3B6100BFDF
:10077000FEE77B69012B14BF01230023DBB218467F
:100780001837BD4680BD80B582B000AF78600020CC
:1007900005F00EFB00BF0837BD4680BD90B585B0A3
:1007A00002AF786039607B6803F110007B6859689C
:1007B0007B689A687B68DC683B680093234606F098
:1007C000EBF902467B681A607B681B68002B01D03E
:1007D000002300E0012318460C37BD4690BD90B5BC
:1007E00085B002AF786039607B68002B16D07B68DB
:1007F0001B68002B12D07B681C6805F067FC024662
:100800003B68009300230121204606F021FA0346AD
:10081000012B14BF01230023DBB200E001231846A3
:100820000C37BD4690BD80B582B000AF78603960AE
:100830003B6819460A2004F096FB02467B681A6062
:100840007B68002B01D0002300E001231846083705
:10085000BD4680BD80B582B000AF78607B68002B5C
:1008600003D07B681B68002B01D101230CE07B685F
:100870001B684FF0FF31184604F022FE0346012B9F
:1008800014BF01230023DBB218460837BD4680BDE4
:1008900080B582B000AF78607B68002B03D07B68A6
:1008A0001B68002B01D101230CE07B681868002332
:1008B0000022002104F08AFB0346012B14BF012310
:1008C0000023DBB218460837BD4680BD80B487B030
:1008D00000AFF860B9607A60FB6830331A46BB68D5
:1008E0001B0A9B0003F00C0313447B617B691A68AD
:1008F000BB6803F01F031F2101FA03F3DB431A4017
:100900007B689B0E03F01F01BB6803F01F0301FA15
:1009100003F31A437B691A6000BF1C37BD465DF8BC
:10092000047B704780B487B000AFF860B9607A602C
:10093000FB6814331A46BB685B0E9B0003F004038C
:1009400013447B617B691A68BB681B0D03F01F03AE
:10095000072101FA03F3DB431A40BB681B0D03F0C8
:100960001F03796801FA03F31A437B691A6000BF19
:100970001C37BD465DF8047B7047000080B485B02D
:1009800000AFF860B9607A60FB681A4A934215D1EB
:10099000FB68D3F8B020BB68C3F31303DB431A40F2
:1009A0007B6803F018031449D940BB680B40C3F3BC
:1009B00013031A43FB68C3F8B02014E0FB68D3F8B4
:1009C000C020BB68C3F31303DB431A407B6803F00A
:1009D00018030949D940BB680B40C3F313031A43FA
:1009E000FB68C3F8C02000BF1437BD465DF8047B28
:1009F000704700BF00600258FFFF0F0080B483B053
:100A000000AF786039607B681A69064B13403A681A
:100A10001A437B681A6100BF0C37BD465DF8047B42
:100A2000704700BFFCFBFFFF80B483B000AF78606D
:100A30007B689A68044B13407A68936000BF0C3758
:100A4000BD465DF8047B7047C0FFFF5F80B483B094
:100A500000AF78607B689A68054B134043F0805282
:100A60007B689A6000BF0C37BD465DF8047B704719
:100A7000C0FFFF6F80B400AF054B1B68044A43F012
:100A80000103136000BFBD465DF8047B704700BFE3
:100A90000044025880B400AF064B1B6803F0040307
:100AA000042B01D1012300E000231846BD465DF868
:100AB000047B70470044025880B483B000AF786074
:100AC000064B1B6823F0180204497B6813430B6034
:100AD00000BF0C37BD465DF8047B704700440258E8
:100AE00080B483B000AF7860074B5B6823F0FE42B0
:100AF0007B681B06044913434B6000BF0C37BD469F
:100B00005DF8047B704700BF0044025880B483B096
:100B100000AF7860064B1B6923F0070204497B682D
:100B200013430B6100BF0C37BD465DF8047B704773
:100B30000044025880B400AF044B1B6903F0380333
:100B40001846BD465DF8047B704700BF004402585C
:100B500080B483B000AF7860064B9B6923F4706269
:100B600004497B6813438B6100BF0C37BD465DF8B9
:100B7000047B70470044025880B483B000AF7860B3
:100B8000064B9B6923F00F0204497B6813438B617A
:100B900000BF0C37BD465DF8047B70470044025827
:100BA00080B483B000AF7860064BDB6923F070023D
:100BB00004497B681343CB6100BF0C37BD465DF829
:100BC000047B70470044025880B483B000AF786063
:100BD000064BDB6923F4E06204497B681343CB6175
:100BE00000BF0C37BD465DF8047B704700440258D7
:100BF00080B483B000AF7860064B9B6923F070022D
:100C000004497B6813438B6100BF0C37BD465DF818
:100C1000047B70470044025880B483B000AF786012
:100C2000064B1B6A23F0700204497B6813430B6276
:100C300000BF0C37BD465DF8047B70470044025886
:100C400080B483B000AF7860064B9B6D23F44032D4
:100C500004497B6813438B6500BF0C37BD465DF8C4
:100C6000047B70470044025880B483B000AF7860C2
:100C7000064B9B6A23F0030204497B6813438B6293
:100C800000BF0C37BD465DF8047B70470044025836
:100C900080B400AF054B1B68044A43F080731360B7
:100CA00000BFBD465DF8047B704700BF004402589A
:100CB00080B400AF074B1B6803F00073B3F1007FF3
:100CC00001D1012300E000231846BD465DF8047BF6
:100CD000704700BF0044025880B400AF054BDB6A88
:100CE000044A43F48033D36200BFBD465DF8047B01
:100CF000704700BF0044025880B400AF054BDB6A68
:100D0000044A43F40033D36200BFBD465DF8047B60
:100D1000704700BF0044025880B400AF054BDB6A47
:100D2000044A43F48023D36200BFBD465DF8047BD0
:100D3000704700BF0044025880B483B000AF7860B1
:100D4000074BDB6A23F002027B685B000449134314
:100D5000CB6200BF0C37BD465DF8047B704700BF17
:100D60000044025880B483B000AF7860074BDB6A60
:100D700023F00C027B689B0004491343CB6200BF45
:100D80000C37BD465DF8047B704700BF0044025835
:100D900080B483B000AF7860074B1A6B074B1340E9
:100DA0007A68013A044913430B6300BF0C37BD4610
:100DB0005DF8047B704700BF0044025800FEFFFF4F
:100DC00080B483B000AF7860074B9B6A23F47C72D9
:100DD0007B681B01044913438B6200BF0C37BD467F
:100DE0005DF8047B704700BF0044025880B483B0B4
:100DF00000AF7860074B1B6B23F47E427B68013B9E
:100E00005B02044913430B6300BF0C37BD465DF81A
:100E1000047B70470044025880B483B000AF786010
:100E2000074B1B6B23F4FE027B68013B1B04044948
:100E300013430B6300BF0C37BD465DF8047B70475E
:100E40000044025880B483B000AF7860074B1B6B3E
:100E500023F0FE427B68013B1B06044913430B63EE
:100E600000BF0C37BD465DF8047B70470044025854
:100E700080B400AF054B1B68044A43F080631360E5
:100E800000BFBD465DF8047B704700BF00440258B8
:100E900080B400AF074B1B6803F00063B3F1006F31
:100EA00001D1012300E000231846BD465DF8047B14
:100EB000704700BF0044025880B400AF054BDB6AA6
:100EC000044A43F40023D36200BFBD465DF8047BAF
:100ED000704700BF0044025880B483B000AF786010
:100EE000074BDB6A23F020027B685B010449134354
:100EF000CB6200BF0C37BD465DF8047B704700BF76
:100F00000044025880B483B000AF7860074BDB6ABE
:100F100023F0C0027B689B0104491343CB6200BFEE
:100F20000C37BD465DF8047B704700BF0044025893
:100F300080B483B000AF7860074B9A6B074B1340C7
:100F40007A68013A044913438B6300BF0C37BD46EE
:100F50005DF8047B704700BF0044025800FEFFFFAD
:100F600080B483B000AF7860074B9B6A23F47C3277
:100F70007B681B03044913438B6200BF0C37BD46DB
:100F80005DF8047B704700BF0044025880B483B012
:100F900000AF7860074B9B6B23F47E427B68013B7C
:100FA0005B02044913438B6300BF0C37BD465DF8F9
:100FB000047B70470044025880B483B000AF78606F
:100FC000074B9B6B23F4FE027B68013B1B04044927
:100FD00013438B6300BF0C37BD465DF8047B70473D
:100FE0000044025880B483B000AF7860074B9B6B1D
:100FF00023F0FE427B68013B1B06044913438B63CD
:1010000000BF0C37BD465DF8047B704700440258B2
:1010100080B485B000AF78600A4BD3F8D820094976
:101020007B681343C1F8D830064BD3F8D8207B68CF
:101030001340FB60FB6800BF1437BD465DF8047BBE
:10104000704700BF0044025880B485B000AF78609C
:101050000A4BD3F8E02009497B681343C1F8E0301C
:10106000064BD3F8E0207B681340FB60FB6800BFB1
:101070001437BD465DF8047B704700BF004402583A
:1010800080B485B000AF78600A4BD3F8F0200949EE
:101090007B681343C1F8F030064BD3F8F0207B682F
:1010A0001340FB60FB6800BF1437BD465DF8047B4E
:1010B000704700BF0044025880B483B000AF78602E
:1010C000064B1B6823F00F0204497B6813430B6037
:1010D00000BF0C37BD465DF8047B7047002000520E
:1010E00080B400AF044B1B6803F00F031846BD46E5
:1010F0005DF8047B704700BF0020005280B483B0CD
:1011000000AF7860064BDB6823F03F0204497B6840
:101110001343CB6000BF0C37BD465DF8047B7047BE
:101120000048025880B483B000AF7860064B9B69DA
:1011300023F4404204497B6813438B6100BF0C37A2
:10114000BD465DF8047B70470048025880B483B008
:1011500000AF78607B681B6823F080027B681A60B0
:1011600000BF0C37BD465DF8047B704780B485B086
:1011700000AF786039603B68012B28D03B68042BB6
:1011800023D03B68102B1ED03B68402B19D03B6806
:10119000B3F5807F13D03B68B3F5806F0DD03B680B
:1011A000B3F5805F07D03B68B3F5803F01D10723DB
:1011B0000EE008230CE006230AE0052308E00423E0
:1011C00006E0032304E0022302E0012300E0002301
:1011D000FB737B6818331946FB7B0B4AD35C0B44CB
:1011E000BB60BB681A68FB7B0849CB5C19460423CB
:1011F0008B40DB431A40BB681A6000BF1437BD4602
:101200005DF8047B704700BF047F0008107F000872
:1012100080B485B000AF786039603B68012B28D07E
:101220003B68042B23D03B68102B1ED03B68402B1F
:1012300019D03B68B3F5807F13D03B68B3F5806F5E
:101240000DD03B68B3F5805F07D03B68B3F5803FB6
:1012500001D107230EE008230CE006230AE0052352
:1012600008E0042306E0032304E0022302E0012354
:1012700000E00023FB737B6818331946FB7B0A4AA6
:10128000D35C0B44BB60BB681A68FB7B0749CB5C33
:10129000194608238B401A43BB681A6000BF1437F5
:1012A000BD465DF8047B7047047F0008107F00088E
:1012B00080B483B000AF786039607B689A68064B71
:1012C00013403A681A437B689A6000BF0C37BD46EA
:1012D0005DF8047B704700BFF8BFFEFF80B483B0A9
:1012E00000AF786039607B685B6823F070023B6810
:1012F0001A437B685A6000BF0C37BD465DF8047B1B
:10130000704780B483B000AF786039607B685B68F9
:1013100023F470023B681A437B685A6000BF0C37A5
:10132000BD465DF8047B704780B483B000AF786041
:1013300039607B689A68064B13403A681A437B68A9
:101340009A6000BF0C37BD465DF8047B704700BF54
:101350008FFFCFFF80B483B000AF78607B689B685D
:1013600023F080027B689A6000BF0C37BD465DF8B1
:10137000047B704780B483B000AF78607B68DB6823
:1013800023F040027B68DA6000BF0C37BD465DF891
:10139000047B704780B483B000AF78607B68DB6803
:1013A00023F480427B68DA6000BF0C37BD465DF8ED
:1013B000047B704780B483B000AF786039603B68CD
:1013C0001A047B689A6100BF0C37BD465DF8047B48
:1013D0007047000080B500AF0320FFF76DFE00BF2F
:1013E000FFF77EFE0346032BFAD10220FFF786FEAD
:1013F0000020FFF797FEFFF73DFB00BFFFF74AFB1A
:101400000346012BFAD12020FFF76AFB0020FFF7EB
:1014100053FB0020FFF728FCFFF75EFCFFF76CFC96
:10142000FFF77AFC0320FFF79DFC0020FFF784FC08
:101430000820FFF7C5FC4420FFF7AAFC0120FFF7B6
:10144000D5FC1020FFF7E8FC0220FFF7FBFCFFF7BC
:101450001FFC00BFFFF72CFC0346012BFAD108202C
:10146000FFF78AFB0320FFF751FB00BFFFF762FB8A
:101470000346182BFAD10020FFF76AFB0820FFF77C
:101480007BFB4020FFF78CFB4FF48060FFF79CFB59
:101490004020FFF7ADFB4020FFF7BEFB064801F000
:1014A0003BF80F2000F066FD0346002B01D000F052
:1014B0001AFC00BF80BD00BF00C86C2080B500AF23
:1014C000FFF7FAFC0320FFF71DFD0020FFF704FDE6
:1014D0000420FFF745FD0C20FFF72AFD0420FFF74D
:1014E00055FD0220FFF768FD0220FFF77BFDFFF7A7
:1014F000BFFC00BFFFF7CCFC0346012BFAD100BFB5
:1015000000BF80BD80B594B000AF07F1400300225A
:101510001A605A609A6007F1280300221A605A6024
:101520009A60DA601A615A6107F1180300221A60A2
:101530005A609A60DA603B4600221A605A609A60EC
:10154000DA601A615A610020FFF77AFB2020FFF76A
:101550005FFD2020FFF778FD4FF400633B6003231D
:101560007B6000233B613B4619462F4800F046FE56
:1015700000212E48FFF742FA00233B640023BB649E
:1015800007F140031946294800F024FF0023BB62FD
:101590000023FB6200233B6300237B630023FB6388
:1015A00007F128031946214800F06CFF4FF440234F
:1015B000BB610023FB6107F1180319461C4800F0CA
:1015C000B1FE1A48FFF730FA1848FFF73FFA194BF7
:1015D0001B689B09184AA2FB03239A0913469B0028
:1015E00013445B001A46154BA3FB0223DB08FB6484
:1015F00002E0FB6C013BFB64FB6C002BF9D1104A51
:1016000006210A48FFF762F900220D490748FFF753
:1016100089F940F2FF720A490448FFF7AFF900BFA9
:101620005037BD4680BD00BF001402580020024064
:101630000023024034000024632D3E05CDCCCCCCE9
:101640000400600880B590B000AF07F130030022BD
:101650001A605A609A6007F1180300221A605A60F3
:101660009A60DA601A615A613B4600221A605A6039
:101670009A60DA601A615A610020FFF7E1FA2020CF
:10168000FFF7C6FC2020FFF7DFFC4FF480433B60F0
:1016900003237B6000233B613B461946294800F049
:1016A000ADFD00212848FFF7A9F900233B63002383
:1016B000BB6307F130031946234800F08BFE00237B
:1016C000BB610023FB6100233B6200237B6200239C
:1016D000FB6207F1180319461B4800F0D3FE1A48B5
:1016E000FFF7A2F91848FFF7B1F9184B1B689B09DF
:1016F000174AA2FB03239A0913469B0013445B007D
:101700001A46144BA3FB0223DB08FB6302E0FB6BCE
:10171000013BFB63FB6B002BF9D10F4A06210A4802
:10172000FFF7D4F800220C490748FFF7FBF840F216
:10173000FF7209490448FFF721F900BF4037BD4651
:1017400080BD00BF00140258002102403400002474
:10175000632D3E05CDCCCCCC4000201980B500AF28
:101760002E4B2F4A1A602D4B00229A602B4B0022E1
:10177000DA602A4B00221A74284B00225A74274B35
:1017800000229A74254B01225A61244B04229A614B
:10179000224B1B22DA61214B04221A621F4B0122C9
:1017A0005A621E4B04229A621C4B1B22DA621B4BAC
:1017B00004221A63194B00225A63184B00229A63C1
:1017C000164B0022DA63154B01221A64134B0522D3
:1017D0005A64124B00229A64104B0422DA640F4BB5
:1017E00000221A650D4B04225A650C4B00229A65A3
:1017F0000A4B0022DA65094B01221A66074B0022C8
:101800005A66064B05229A66044801F07BFB0346A4
:10181000002B01D000F067FA00BF80BD0401002456
:1018200000A0004080B500AF2E4B2F4A1A602D4B10
:1018300000229A602B4B0022DA602A4B00221A7495
:10184000284B00225A74274B00229A74254B012200
:101850005A61244B01229A61224B0222DA61214B08
:1018600002221A621F4B01225A621E4B01229A6207
:101870001C4B0122DA621B4B01221A63194B002216
:101880005A63184B00229A63164B0022DA63154BF9
:1018900000221A64134B04225A64124B00229A64E9
:1018A000104B0422DA640F4B00221A650D4B042200
:1018B0005A650C4B00229A650A4B0022DA65094BE7
:1018C00000221A66074B00225A66064B04229A66CB
:1018D000044801F017FB0346002B01D000F003FA87
:1018E00000BF80BDA401002400A4004080B500AF6B
:1018F0002E4B2F4A1A602D4B00229A602B4B002250
:10190000DA602A4B00221A74284B00225A74274BA3
:1019100000229A74254B01225A61244B01229A61BC
:10192000224B0222DA61214B02221A621F4B012252
:101930005A621E4B01229A621C4B0122DA621B4B37
:1019400001221A63194B00225A63184B00229A6332
:10195000164B0022DA63154B00221A64134B042243
:101960005A64124B00229A64104B0422DA640F4B23
:1019700000221A650D4B04225A650C4B00229A6511
:101980000A4B0022DA65094B00221A66074B002237
:101990005A66064B04229A66044801F0B3FA0346DD
:1019A000002B01D000F09FF900BF80BD440200244D
:1019B00000D4004080B5A0B000AF07F16C03002256
:1019C0001A605A609A60DA601A6107F14C032022AB
:1019D0000021184606F061F907F11C0330220021AE
:1019E000184606F05AF93B1D00221A605A609A60A8
:1019F000DA601A615A610120FFF742FB0023A7F861
:101A00006C3000233B674FF6FF737B670023BB6797
:101A10000023FB6707F16C0319463C4802F06EFC9B
:101A20003A48FFF793FB4FF480713848FFF7F0FB1B
:101A30006023FB6400233B6500237B650023BB65BB
:101A40000023FB6500233B6600237B660023BB6607
:101A500007F14C031A464FF480712C4802F0EEFC5B
:101A60004FF480712948FFF781FB00212748FFF7D9
:101A70005BFC07212548FFF71BFC2448FFF77AFC95
:101A80002248FFF787FC00212048FFF727FC0021B0
:101A90001E48FFF736FC1D48FFF75CFC0023FB6186
:101AA00000233B6200237B62002387F82830002359
:101AB0007B854FF40053FB6200233B630023BB6331
:101AC0004FF00073FB6300233B640023BB6407F10A
:101AD0001C0319460D4802F011FD1020FFF7B4FA5F
:101AE0004FF400537B600223BB600023FB600023A4
:101AF0003B6100237B610123BB613B1D1946044808
:101B000000F07CFB00BF8037BD4680BD0000014077
:101B10000010025880B586B000AF3B4600221A6024
:101B20005A609A60DA601A615A611020FFF78CFAE5
:101B30002020FFF789FA0220FFF786FA0820FFF736
:101B400083FA4020FFF780FA0420FFF77DFA012096
:101B5000FFF77AFA1C215648FFF72CFC4FF480411E
:101B60005448FFF727FC4FF460515348FFF722FC1D
:101B70001C233B6001237B600023BB600023FB60D0
:101B800000233B613B461946494800F037FB4FF4C0
:101B900058433B6000237B6000233B613B46194672
:101BA000434800F02BFB4FF410433B6000237B6065
:101BB00000233B613B4619463E4800F01FFB4FF4B3
:101BC00080433B6001237B600023BB600023FB60FC
:101BD00000233B613B461946364800F00FFB4FF4AB
:101BE00047433B6000237B6000233B613B46194633
:101BF000314800F003FB4FF460533B6001237B60EE
:101C00000023BB600023FB6000233B613B46194679
:101C1000294800F0F3FAC0233B6000237B600023D7
:101C20003B613B461946254800F0E8FA80233B60BB
:101C300000237B6000233B613B461946204800F0AF
:101C4000DDFA4FF4F8533B6002237B600323BB6053
:101C50000023FB6000233B610C237B613B4619465C
:101C6000174800F0CBFA4FF4C0533B6002237B606F
:101C70000023BB600023FB6000233B613B46194609
:101C8000104800F0BBFA04233B6002237B6003236F
:101C9000BB600023FB6000233B610C237B613B4660
:101CA0001946054800F0AAFA00BF1837BD4680BDA6
:101CB0000010025800040258000C02580018025884
:101CC000000802580000025880B582B000AF78606A
:101CD0007B681B68B3F1804F01D101F0F3F800BFBE
:101CE0000837BD4680BD80B400AF72B600BFFEE7C6
:101CF00080B400AFFEE780B400AFFEE780B400AF71
:101D0000FEE780B400AFFEE780B400AFFEE780B42A
:101D100000AF00BFBD465DF8047B704780B500AFE3
:101D2000024801F0CDFA00BF80BD00BF04010024CD
:101D300080B500AF024802F045F800BF80BD00BF8B
:101D4000E802002480B483B000AF7860064B1B6DBE
:101D500023F0405204497B6813430B6500BF0C37E6
:101D6000BD465DF8047B70470044025880B582B0E0
:101D700000AF0C4BD3F8F4300A4A43F00203C2F828
:101D8000F430084BD3F8F43003F002037B607B6837
:101D900000220F216FF0010001F030F800BF08377A
:101DA000BD4680BD0044025880B58EB000AF78605B
:101DB00007F1240300221A605A609A60DA601A61FF
:101DC0007B681B68644A934244D14FF08050FFF710
:101DD000B9FF624B1B680133604A13605F4B1B689D
:101DE000012B0ED15E4BD3F8EC305D4A43F4807387
:101DF000C2F8EC305A4BD3F8EC3003F480733B62FA
:101E00003B6A574BD3F8E030554A43F00203C2F81F
:101E1000E030534BD3F8E03003F00203FB61FB6981
:101E20004FF440737B620223BB620023FB620023FA
:101E30003B6309237B6307F124031946494800F0FB
:101E40007DFD00220521132000F0D8FF132000F0B3
:101E5000EFFF7DE07B681B68434A93423BD14FF024
:101E60008050FFF76FFF3D4B1B6801333B4A136007
:101E70003A4B1B68012B0ED1394BD3F8EC30384A62
:101E800043F48073C2F8EC30354BD3F8EC3003F4F4
:101E90008073BB61BB69324BD3F8E030304A43F00A
:101EA0000203C2F8E0302E4BD3F8E03003F0020317
:101EB0007B617B6960237B620223BB620023FB6240
:101EC00000233B6309237B6307F12403194625485C
:101ED00000F034FD3CE07B681B68244A934237D114
:101EE0001E4B1B6801331D4A13601C4B1B68012BE2
:101EF0000ED11B4BD3F8EC30194A43F48073C2F86F
:101F0000EC30174BD3F8EC3003F480733B613B6942
:101F1000134BD3F8E030124A43F04003C2F8E030EC
:101F20000F4BD3F8E03003F04003FB60FB684FF445
:101F3000C0637B620223BB620023FB6200233B631E
:101F400002237B6307F124031946094800F0F6FCDD
:101F500000BF3837BD4680BD00A00040E402002429
:101F6000004402580004025800A4004000D400407D
:101F70000018025880B590B000AF78607B680F2BD6
:101F800027D8002279681C2000F038FF1C2000F0C0
:101F90004FFF294A7B681360284BD3F8E830274A63
:101FA00043F00103C2F8E830244BD3F8E83003F0E3
:101FB0000103FB60FB6807F1100207F114031146EF
:101FC000184600F079FCBB6ABB63BB6B002B06D1E3
:101FD00001E001232CE000F059FCF86304E000F07C
:101FE00055FC03465B00FB63FB6B154AA2FB032316
:101FF0009B0C013B7B63134B4FF080421A60114BEB
:1020000040F2E732DA600F4A7B6B53600D4B0022DF
:102010001A610C4B00229A600A4801F0EBFD03465E
:10202000002B04D1074801F047FE034600E00123DE
:1020300018464037BD4680BD2800002400440258A1
:1020400083DE1B43E802002480B485B000AFF86053
:10205000B9607A60FB681968BB6803FB03F213463A
:102060005B001344DB4301EA0302BB6803FB03F399
:10207000796801FB03F31A43FB681A6000BF143749
:10208000BD465DF8047B704780B485B000AFF86052
:10209000B9607A60FB685A68BB68DB431A40BB686A
:1020A000796801FB03F31A43FB685A6000BF1437D9
:1020B000BD465DF8047B704780B485B000AFF86022
:1020C000B9607A60FB689968BB6803FB03F213464A
:1020D0005B001344DB4301EA0302BB6803FB03F329
:1020E000796801FB03F31A43FB689A6000BF143759
:1020F000BD465DF8047B704780B485B000AFF860E2
:10210000B9607A60FB68D968BB6803FB03F21346C9
:102110005B001344DB4301EA0302BB6803FB03F3E8
:10212000796801FB03F31A43FB68DA6000BF1437D8
:10213000BD465DF8047B704780B485B000AFF860A1
:10214000B9607A60FB68196ABB6803FB03F3BA687D
:1021500002FB03F3BA6803FB02F213461B019B1A4E
:10216000DB4301EA0302BB6803FB03F3B96801FB2D
:1021700003F3B96801FB03F3796801FB03F31A4326
:10218000FB681A6200BF1437BD465DF8047B7047D8
:1021900080B485B000AFF860B9607A60FB68596AB6
:1021A000BB681B0ABA68120A02FB03F3BA68120A78
:1021B00002FB03F3BA68120A03FB02F213461B0187
:1021C0009B1ADB4301EA0302BB681B0AB968090AD0
:1021D00001FB03F3B968090A01FB03F3B968090AB3
:1021E00001FB03F3796801FB03F31A43FB685A62AE
:1021F00000BF1437BD465DF8047B704780B588B0DA
:1022000000AF786039603B681B683B613B6993FABB
:10221000A3F3FB60FB687B617B69002B01D120236A
:1022200003E07B69B3FA83F3DBB2FB6148E03B6810
:102230001A680121FB6901FA03F31340BB61BB6912
:10224000002B3AD03B685B68012B03D03B685B688E
:10225000022B0ED13B689B681A46B9697868FFF774
:102260002BFF3B6819683B68DB681A467868FFF704
:102270000BFF3B681B691A46B9697868FFF73CFF9A
:102280003B685B68022B11D1BB69FF2B07D83B6809
:102290005B691A46B9697868FFF74EFF06E03B684C
:1022A0005B691A46B9697868FFF772FF3B685B683B
:1022B0001A46B9697868FFF7C7FEFB690133FB610D
:1022C0003B681A68FB6922FA03F3002BAFD10023A5
:1022D00018462037BD4680BD80B483B000AF78601B
:1022E00039607B681B6B23F00F023B681A437B68E5
:1022F0001A6300BF0C37BD465DF8047B704780B49D
:1023000083B000AF78607B689B6803F00103012B0A
:1023100001D1012300E0002318460C37BD465DF8CB
:10232000047B704790B585B000AF786039600023BA
:10233000FB737B68224A93420ED12248FFF7DFFFEE
:1023400004462148FFF7DBFF03462343002B0CBF65
:1023500001230023DBB208E01C48FFF7D0FF03464F
:10236000002B0CBF01230023DBB2002B20D03B68E5
:102370005B68002B12D07B689A68154B13403A6853
:1023800011683A68526811433A68926811433A6892
:10239000D2680A431A437B689A600BE07B689A68AC
:1023A0000B4B13403A6812681A437B689A6001E04D
:1023B0000123FB73FB7B18461437BD4690BD00BF5D
:1023C0000023024000200240002102400060025829
:1023D000E030C0FF80B584B000AF78603960002382
:1023E000FB737868FFF78BFF0346002B3DD17B68BA
:1023F000214A934223D17B68DA68204B13403A6824
:102400001268082A13D03A6812680C2A0DD03A686C
:1024100012681C2A07D03A681268182A01D11822BB
:1024200006E0002204E0102202E0082200E0002280
:10243000396889680A431A437B68DA600BE07B6875
:10244000DA680F4B13403A6811683A6892680A4399
:102450001A437B68DA607B681B6923F070423B6833
:102460005B681A437B681A6101E00123FB73FB7B05
:1024700018461037BD4680BD00600258E7BFFFFF19
:10248000E3BFFFFF80B584B000AF78603960002300
:10249000FB737868FFF733FF0346002B32D13B68AC
:1024A0005B68002B15D07B68DA681A4B13403A68DA
:1024B00011683A68926811433A68D26811433A68E1
:1024C000126911433A6852690A431A437B68DA6019
:1024D00011E07B68DA680F4B13403A6811683A687C
:1024E000D26811433A68126911433A6852690A4343
:1024F0001A437B68DA603B685B6819467868FFF7C7
:10250000EBFE01E00123FB73FB7B18461037BD4651
:1025100080BD00BF1CC0F0FF80B483B000AF786006
:10252000044A7B68136000BF0C37BD465DF8047B2E
:10253000704700BF3400002480B489B000AFB34BB3
:102540001B6903F03803182B00F2558101A252F8E1
:1025500023F000BFB9250008F7270008F727000877
:10256000F7270008F7270008F7270008F7270008D3
:10257000F7270008DF250008F7270008F7270008DD
:10258000F7270008F7270008F7270008F7270008B3
:10259000F7270008E5250008F7270008F7270008B7
:1025A000F7270008F7270008F7270008F727000893
:1025B000F7270008EB250008944B1B6803F0200365
:1025C000002B09D0914B1B68DB0803F00303904AF2
:1025D00022FA03F3BB6111E18D4BBB610EE18D4B20
:1025E000BB610BE18C4BBB6108E1884B9B6A03F03C
:1025F00003037B61854B9B6A1B0903F03F033B612F
:10260000824BDB6A03F00103FB60804B5B6BDB08F2
:10261000C3F30C03FA6802FB03F307EE903AF8EEFB
:10262000677AC7ED027A3B69002B00F0E1807B6995
:10263000022B00F083807B69022B00F2A1807B6972
:10264000002B03D07B69012B56D099E06F4B1B68A0
:1026500003F02003002B2DD06C4B1B68DB0803F02C
:1026600003036B4A22FA03F37B607B6807EE903A20
:10267000F8EE676A3B6907EE903AF8EE677A86EE05
:10268000A77A624B1B6BC3F3080307EE903AF8EE90
:10269000676A97ED026ADFED615AC6EE257A76EE3B
:1026A000A77AF7EE006A77EEA67A67EE277AC7ED8B
:1026B000077A87E03B6907EE903AF8EE677ADFED3C
:1026C000586A86EEA77A514B1B6BC3F3080307EEDB
:1026D000903AF8EE676A97ED026ADFED505AC6EE5F
:1026E000257A76EEA77AF7EE006A77EEA67A67EE9D
:1026F000277AC7ED077A65E03B6907EE903AF8EE76
:10270000677ADFED486A86EEA77A404B1B6BC3F30E
:10271000080307EE903AF8EE676A97ED026ADFED7C
:102720003F5AC6EE257A76EEA77AF7EE006A77EE84
:10273000A67A67EE277AC7ED077A43E03B6907EE92
:10274000903AF8EE677ADFED386A86EEA77A2F4B7B
:102750001B6BC3F3080307EE903AF8EE676A97ED38
:10276000026ADFED2E5AC6EE257A76EEA77AF7EEEC
:10277000006A77EEA67A67EE277AC7ED077A21E03E
:102780003B6907EE903AF8EE677ADFED266A86EE4F
:10279000A77A1E4B1B6BC3F3080307EE903AF8EEC3
:1027A000676A97ED026ADFED1D5AC6EE257A76EE6E
:1027B000A77AF7EE006A77EEA67A67EE277AC7ED7A
:1027C000077A00BF114B1B6B5B0A03F07F030133D9
:1027D0003B603B6807EE903AB8EE677AD7ED076A40
:1027E000C6EE877AFCEEE77A17EE903ABB6105E019
:1027F0000023BB6102E0074BBB6100BFBB69184609
:102800002437BD465DF8047B704700BF0044025882
:102810000090D00300093D000024F40000000046B1
:102820000024744C0024744A0024744B80B582B098
:1028300000AFFFF781FE0246104B9B691B0A03F0B5
:102840000F030F49CB5C03F01F0322FA03F37B60F5
:102850000A4B9B6903F00F03094AD35C03F01F0383
:102860007A6822FA03F3074A1360074A7B68136009
:10287000044B1B6818460837BD4680BD004402580B
:102880001C7F0008380000243400002480B500AF0D
:10289000FFF7CCFF0246064BDB691B0903F0070379
:1028A0000449CB5C03F01F0322FA03F3184680BDF2
:1028B000004402581C7F000880B483B000AF7860E9
:1028C00039607B683F221A601A4B1B6903F00702CC
:1028D0007B685A60174B9B6903F470627B689A604F
:1028E000144B9B6903F00F027B68DA60114B9B6904
:1028F00003F070027B681A610E4BDB6903F0700213
:102900007B685A610B4BDB6903F4E0627B689A6178
:10291000084B1B6A03F070027B68DA61064B1B6888
:1029200003F00F023B681A6000BF0C37BD465DF82C
:10293000047B7047004402580020005280B489B0E4
:1029400000AF786039600023FB61864B7B618CE1CE
:102950003B681A680121FB6901FA03F313403B61EC
:102960003B69002B00F07E813B685B6803F003034A
:10297000012B05D03B685B6803F00303022B30D1C9
:102980007B689B68BB61FB695B00032202FA03F36F
:10299000DB43BA691340BB613B68DA68FB695B00E3
:1029A00002FA03F3BA691343BB617B68BA699A60A0
:1029B0007B685B68BB610122FB6902FA03F3DB43BE
:1029C000BA691340BB613B685B681B0903F00102F5
:1029D000FB6902FA03F3BA691343BB617B68BA6906
:1029E0005A603B685B6803F00303032B17D07B68D6
:1029F000DB68BB61FB695B00032202FA03F3DB4384
:102A0000BA691340BB613B689A68FB695B0002FAD4
:102A100003F3BA691343BB617B68BA69DA603B6848
:102A20005B6803F00303022B23D1FB69DA087B68A0
:102A3000083253F82230BB61FB6903F007039B00A7
:102A40000F2202FA03F3DB43BA691340BB613B6810
:102A50001A69FB6903F007039B0002FA03F3BA69E2
:102A60001343BB61FB69DA087B680832B96943F834
:102A700022107B681B68BB61FB695B00032202FAC2
:102A800003F3DB43BA691340BB613B685B6803F047
:102A90000302FB695B0002FA03F3BA691343BB61EB
:102AA0007B68BA691A603B685B6803F44033002BAB
:102AB00000F0D8802C4BD3F8F4302B4A43F00203BB
:102AC000C2F8F430284BD3F8F43003F00203FB6073
:102AD000FB68264AFB699B08023352F82330BB612E
:102AE000FB6903F003039B000F2202FA03F3DB43AD
:102AF000BA691340BB617B681D4A93424AD07B6828
:102B00001C4A93422BD07B681B4A934225D07B689A
:102B10001A4A93421FD07B68194A934219D07B68A6
:102B2000184A934213D07B68174A93420DD07B68B2
:102B3000164A934207D07B68154A934201D1092374
:102B400029E00A2327E0072325E0062323E00523C5
:102B500021E004231FE003231DE002231BE00123E7
:102B600019E000BF800000580044025800040058DB
:102B7000000002580004025800080258000C0258D5
:102B8000001002580014025800180258001C025885
:102B9000002402580023FA6902F0030292009340D5
:102BA000BA691343BB613849FB699B080233BA69B0
:102BB00041F823204FF0B0431B68BB613B69DB4306
:102BC000BA691340BB613B685B6803F48013002B58
:102BD00003D0BA693B691343BB614FF0B042BB6994
:102BE00013604FF0B0435B68BB613B69DB43BA697C
:102BF0001340BB613B685B6803F40013002B03D0F8
:102C0000BA693B691343BB614FF0B042BB69536083
:102C10007B695B68BB613B69DB43BA691340BB619D
:102C20003B685B6803F40033002B03D0BA693B694F
:102C30001343BB617B69BA695A607B691B68BB61DE
:102C40003B69DB43BA691340BB613B685B6803F4D3
:102C50008033002B03D0BA693B691343BB617B69A6
:102C6000BA691A60FB690133FB613B681A68FB694A
:102C700022FA03F3002B7FF46BAE00BF00BF2437B2
:102C8000BD465DF8047B70470004005880B485B0F1
:102C900000AF78607B6803F00703FB600B4BDB68D9
:102CA000BB60BA684FF6FF031340BB60FB681A02B3
:102CB000BB681A43064B1343BB60044ABB68D3602E
:102CC00000BF1437BD465DF8047B704700ED00E09F
:102CD0000000FA0580B400AF044BDB681B0A03F068
:102CE00007031846BD465DF8047B704700ED00E021
:102CF00080B483B000AF0346FB80B7F90630002BE9
:102D00000BDBFB8803F01F020749B7F906305B09AC
:102D1000012000FA02F241F8232000BF0C37BD4623
:102D20005DF8047B704700BF00E100E080B483B031
:102D300000AF03463960FB80B7F90630002B0ADB91
:102D40003B68DAB20C49B7F906301201D2B20B4433
:102D500083F800230AE03B68DAB20849FB8803F0F5
:102D60000F03043B1201D2B20B441A7600BF0C379A
:102D7000BD465DF8047B704700E100E000ED00E037
:102D800080B489B000AFF860B9607A60FB6803F086
:102D90000703FB61FB69C3F10703042B28BF04236E
:102DA000BB61FB690433062B02D9FB69033B00E0DE
:102DB00000237B614FF0FF32BB6902FA03F3DA4371
:102DC000BB681A407B699A404FF0FF317B6901FA7A
:102DD00003F3D9437B680B40134318462437BD46A1
:102DE0005DF8047B704780B582B000AF786078688A
:102DF000FFF74CFF00BF0837BD4680BD80B586B0E9
:102E000000AF0346B9607A60FB81FFF763FF78612A
:102E10007A68B9687869FFF7B3FF0246B7F90E30F0
:102E200011461846FFF782FF00BF1837BD4680BD28
:102E300080B582B000AF0346FB80B7F90630184674
:102E4000FFF756FF00BF0837BD4680BD80B582B092
:102E500000AF0320FFF7C7FFFFF76EFB0246154BDD
:102E60009B691B0A03F00F031349CB5C03F01F039C
:102E700022FA03F37B600F4B9B6903F00F030E4AAA
:102E8000D35C03F01F037A6822FA03F30B4A136042
:102E90000B4A7B6813600F20FFF76CF80346002B8A
:102EA00001D0012302E0FEF761FF00231846083736
:102EB000BD4680BD004402581C7F00083800002435
:102EC0003400002480B400AF064B1B781A46064B32
:102ED0001B681344044A136000BFBD465DF8047BC1
:102EE000704700BF2C0000243403002480B400AFDE
:102EF000034B1B681846BD465DF8047B704700BF56
:102F00003403002480B598B000AF7860844A07F19C
:102F10000C0311464C22184604F044FF7B68002B3A
:102F200001D10123C6E17B681B687E4A934206D12A
:102F30007B681B6803F580731A467B685A607B6860
:102F400093F89830DBB2002B06D17B68002283F81F
:102F500099207868FEF728FF7B681B689A697B6870
:102F60001B6822F010029A61FFF7C0FFF86514E0B9
:102F7000FFF7BCFF0246FB6DD31A0A2B0DD97B6805
:102F8000D3F89C3043F001027B68C3F89C207B6837
:102F9000032283F8982001238CE17B681B689B69DE
:102FA00003F00803082BE3D07B681B689A697B68F1
:102FB0001B6842F001029A61FFF798FFF86514E080
:102FC000FFF794FF0246FB6DD31A0A2B0DD97B68DD
:102FD000D3F89C3043F001027B68C3F89C207B68E7
:102FE000032283F89820012364E17B681B689B69B6
:102FF00003F00103002BE3D07B681B689A697B68B0
:103000001B6842F002029A617B681B7C012B08D18D
:103010007B681B689A697B681B6822F040029A6192
:1030200007E07B681B689A697B681B6842F0400276
:103030009A617B685B7C012B08D17B681B689A696D
:103040007B681B6842F480429A6107E07B681B68DA
:103050009A697B681B6822F480429A617B689B7C3A
:10306000012B08D17B681B689A697B681B6822F476
:1030700080529A6107E07B681B689A697B681B68CD
:1030800042F480529A617B681B689B6923F440710B
:103090007B689A687B681B680A439A617B681B6837
:1030A0009A697B681B6822F0A4029A617B681B689E
:1030B0001A697B681B6822F010021A617B68DB6862
:1030C000012B08D17B681B689A697B681B6842F0FA
:1030D00004029A6130E07B68DB68002B2CD07B68AF
:1030E000DB68022B20D07B681B689A697B681B68B1
:1030F00042F080029A617B681B681A697B681B68D2
:1031000042F010021A617B68DB68032B14D17B68E4
:103110001B689A697B681B6842F020029A610BE089
:103120009C7E000800A000407B681B689A697B6851
:103130001B6842F020029A617B689B69013B5A063A
:103140007B68DB69013B1B021A437B681B6A013BFE
:1031500042EA03017B685B69013B1A047B681B68D8
:103160000A43DA617B689B68B3F5407F15D17B68C1
:103170009B6A5A1E7B68DB6A013B1B021A437B6811
:103180001B6B013B1B0142EA03017B685B6A013B4D
:103190001A047B681B680A43DA607B681B6E002B8D
:1031A0000AD07B681B68D3F8C0107B685A6E7B68B6
:1031B0001B680A43C3F8C0207B68DA6D7B681B6E0E
:1031C0001344002B11D07B681B68D3F8C83023F060
:1031D00007017B689B6E9B0060333B4453F8542C83
:1031E0007B681B680A43C3F8C8207B681B6C002BF4
:1031F00011D07B681B68D3F8BC3023F007017B68D3
:103200005B6C9B0060333B4453F8542C7B681B6819
:103210000A43C3F8BC207B689B6C002B12D07B68F0
:103220001B68D3F8BC3023F070017B68DB6C9B001B
:1032300060333B4453F8543C1A017B681B680A43D3
:10324000C3F8BC207B681B6D002B12D07B681B6809
:10325000D3F8BC3023F4E0617B685B6D9B00603386
:103260003B4453F8543C1A027B681B680A43C3F87A
:10327000BC207B681B68114A934207D17B685B685E
:103280009A687B685B6822F003029A607B68002280
:10329000C3F894207B680022C3F89C207B6801223D
:1032A00083F89820786800F01FFB034687F85B30AE
:1032B00097F85B3018466037BD4680BD00A00040DF
:1032C00080B592B000AF7860904B1B699B077B6420
:1032D0008E4B5B699B077A6C13407B647B681B6831
:1032E0001B6D03F470433B647B681B685B6D3A6C39
:1032F00013403B647B681B681B6D03F00F03FB638B
:103300007B681B685B6DFA6B1340FB637B681B6813
:103310001B6D03F0F003BB637B681B685B6DBA6BCE
:103320001340BB637B681B681B6D03F071537B63A9
:103330007B681B685B6D7A6B13407B637B681B68E3
:103340001B6D03F060733B637B681B685B6D3A6BBE
:1033500013403B637B681B685B6D03F48073002B39
:1033600011D07B681B681B6D03F48073002B0AD09F
:103370007B681B684FF480721A65644B00221A61E7
:10338000786800F065FA7B681B685B6D03F4806306
:10339000002B1ED07B681B681B6D03F48063002B21
:1033A00017D07B681B68D3F8DC30FB627B681B6836
:1033B000D3F8E430FA6A1340FB627B681B684FF471
:1033C00080621A65514B00221A61F96A786800F030
:1033D00016FA7B6C002B0DD07B681A68796C4C4B0D
:1033E0000B401365494A7B6C9B0F1361796C7868BD
:1033F00000F0C4F93B6C002B0DD07B681A68396C67
:10340000434B0B401365414A3B6C9B0F1361396C76
:10341000786800F0BEF9FB6B002B0DD07B681A6852
:10342000F96B3B4B0B401365384AFB6B9B0F1361E9
:10343000F96B786800F0B8F9BB6B002B0DD07B6896
:103440001A68B96B324B0B401365304ABB6B9B0F4C
:103450001361B96B786800F0B2F97B681B685B6D2B
:1034600003F40063002B11D07B681B681B6D03F411
:103470000063002B0AD07B681B684FF400621A655A
:10348000224B00221A61786800F0A4F97B681B685F
:103490005B6D03F40073002B1ED07B681B681B6DF3
:1034A00003F40073002B17D07B681B68D3F8D83067
:1034B000BB627B681B68D3F8E030BA6A1340BB621A
:1034C0007B681B684FF400721A65104B00221A616A
:1034D000B96A786800F088F97B681B685B6D03F453
:1034E0000023002B16D07B681B681B6D03F40023A0
:1034F000002B0FD07B681B684FF400221A65034B2A
:1035000000221A61786800F085F903E000A8004005
:10351000FFFFCF3F7B681B685B6D03F48033002B9C
:1035200011D07B681B681B6D03F48033002B0AD01D
:103530007B681B684FF480321A658D4B00221A613C
:10354000786800F071F97B681B685B6D03F4802379
:10355000002B11D07B681B681B6D03F48023002BAC
:103560000AD07B681B684FF480221A65804B0022CA
:103570001A61786800F062F97B681B685B6D03F480
:103580000033002B16D07B681B681B6D03F40033DF
:10359000002B0FD07B681B684FF400321A65744B08
:1035A00000221A617B68D3F89C3043F080027B686C
:1035B000C3F89C203B6B002B0DD07B681A68396BDD
:1035C0006C4B0B4013656A4A3B6B9B0F1361396B65
:1035D000786800F051F97B6B002B11D07B681A687A
:1035E000796B644B0B401365614A7B6B9B0F1361D6
:1035F0007B68D3F89C207B6B1A437B68C3F89C20C4
:103600007B681B685C4A934240F0A6807B685B68DD
:103610009B6803F00303002B00F09E807B685B68CF
:103620001B6A03F00F037B627B685B685B6A7A6AE4
:1036300013407B627B685B681B6A03F030033B626C
:103640007B685B685B6A3A6A13403B627B685B68D5
:103650001B6A03F4C073FB617B685B685B6AFA6991
:103660001340FB617B685B681B6A03F4FC43BB612E
:103670007B685B685B6ABA691340BB617B685B68A7
:103680001B6A03F4F0237B617B685B685B6A7A6981
:1036900013407B617B6A002B07D07B685B687A6A8A
:1036A0001A62796A786800F0F2F83B6A002B07D05A
:1036B0007B685B683A6A1A62396A786800F0F2F8E7
:1036C0007B685B685B6A03F04003002B1BD07B6860
:1036D0005B681B6A03F04003002B14D07B685B68B7
:1036E000DB6B1B0C9BB23B617B685B68DB6B03F0A5
:1036F0003F03FB607B685B6840221A62FA683969A5
:10370000786800F0DAF8FB69002B07D07B685B680B
:10371000FA691A62F969786800F0DBF8BB69002B76
:103720000BD07B685B68BA691A627B68D3F89C200F
:10373000BB691A437B68C3F89C207B69002B0BD0C4
:103740007B685B687A691A627B68D3F89C207B6926
:103750001A437B68C3F89C207B68D3F89C30002B0D
:1037600002D0786800F07EF800BF4837BD4680BDC3
:1037700000A80040FFFFCF3F00A0004080B483B00E
:1037800000AF7860396000BF0C37BD465DF8047B40
:10379000704780B483B000AF7860396000BF0C37E9
:1037A000BD465DF8047B704780B483B000AF78609D
:1037B000396000BF0C37BD465DF8047B704780B4AC
:1037C00083B000AF7860396000BF0C37BD465DF84C
:1037D000047B704780B483B000AF786000BF0C37C3
:1037E000BD465DF8047B704780B483B000AF78605D
:1037F000396000BF0C37BD465DF8047B704780B46C
:1038000083B000AF7860396000BF0C37BD465DF80B
:10381000047B704780B483B000AF786000BF0C3782
:10382000BD465DF8047B704780B483B000AF78601C
:1038300000BF0C37BD465DF8047B704780B483B091
:1038400000AF786000BF0C37BD465DF8047B704761
:1038500080B483B000AF786000BF0C37BD465DF820
:10386000047B704780B483B000AF786000BF0C3732
:10387000BD465DF8047B704780B483B000AF7860CC
:10388000396000BF0C37BD465DF8047B704780B4DB
:1038900083B000AF7860396000BF0C37BD465DF87B
:1038A000047B704780B483B000AF7860396000BF9C
:1038B0000C37BD465DF8047B704780B485B000AF1F
:1038C000F860B9607A6000BF1437BD465DF8047BCC
:1038D000704780B483B000AF7860396000BF0C37A8
:1038E000BD465DF8047B704780B485B000AF78605A
:1038F0007B685B6BBB607B681B68D3F88420A74B3D
:103900001340BA6891007A6812680B43C2F8843099
:103910007B681B68D3F8843023F47F017B689B6B42
:103920001A047B681B680A43C3F884207B689B6B7E
:10393000BA681344BB607B681B68D3F88820974B38
:103940001340BA6891007A6812680B43C2F8883055
:103950007B681B68D3F8883023F4FE017B68DB6B3F
:103960001A047B681B680A43C3F888207B68DB6BFA
:103970005B00BA681344BB607B681B68D3F8A02067
:10398000864B1340BA6891007A6812680B43C2F8FC
:10399000A0307B681B68D3F8A03023F4FE017B685D
:1039A0001B6C1A047B681B680A43C3F8A0207B6861
:1039B0001B6C7A68526C02FB03F3BA681344BB6059
:1039C0007B681B68D3F8B020744B1340BA68910031
:1039D0007A6812680B43C2F8B0307B681B68D3F872
:1039E000B03023F4FE017B689B6C1A047B681B6873
:1039F0000A43C3F8B0207B689B6C7A68D26C02FBE8
:103A000003F3BA681344BB607B681B68D3F8AC202F
:103A1000624B1340BA6891007A6812680B43C2F88F
:103A2000AC307B681B6D7A68526D02FB03F3BA6899
:103A30001344BB607B681B68D3F8F020574B1340DE
:103A4000BA6891007A6812680B43C2F8F0307B685C
:103A50001B68D3F8F03023F47C117B689B6D1A044B
:103A60007B681B680A43C3F8F0207B689B6D5B0092
:103A7000BA681344BB607B681B68D3F8C020474B0F
:103A80001340BA6891007A6812680B43C2F8C030DC
:103A90007B681B68D3F8C03023F47C117B68DB6D36
:103AA0001A047B681B680A43C3F8C0207B681B6844
:103AB000D3F8C03023F07C517B681B6E1A067B68FC
:103AC0001B680A43C3F8C0207B685A6B344B13440D
:103AD0009A007B68DA667B68DA6E7B689B6B9B007A
:103AE0001A447B681A677B681A6F7B68DB6BDB00A4
:103AF0001A447B685A677B685A6F7B681B6C7968CD
:103B0000496C01FB03F39B001A447B689A677B684E
:103B10009A6F7B689B6C7968C96C01FB03F39B000F
:103B20001A447B68DA677B68DA6F7B681B6D79689B
:103B3000496D01FB03F39B001A447B68C3F88020A6
:103B40007B68D3F880207B689B6DDB001A447B6820
:103B5000C3F884207B68D3F884207B68DB6D7968A8
:103B6000896E01FB03F39B001A447B68C3F888202D
:103B70007B68D3F888207B681B6E7968896E01FBAF
:103B800003F39B001A447B68C3F890207B68D3F84A
:103B90009030044A934215D906E000BF0300FFFFAE
:103BA000002B0010FCD300407B68D3F89C3043F01E
:103BB00020027B68C3F89C207B68032283F898204E
:103BC000012310E07B68DB6EFB6005E0FB680022F0
:103BD0001A60FB680433FB607B68D3F89030FA68A6
:103BE0009A42F3D3002318461437BD465DF8047B90
:103BF000704700BF80B582B000AF78607B68002B53
:103C000001D1012349E07B6893F83D30DBB2002B02
:103C100006D17B68002283F83C20786800F041F8E8
:103C20007B68022283F83D207B681A687B68043336
:103C30001946104600F00EFA7B68012283F84820EE
:103C40007B68012283F83E207B68012283F83F20B5
:103C50007B68012283F840207B68012283F84120A1
:103C60007B68012283F842207B68012283F843208D
:103C70007B68012283F844207B68012283F8452079
:103C80007B68012283F846207B68012283F8472065
:103C90007B68012283F83D20002318460837BD4683
:103CA00080BD80B483B000AF786000BF0C37BD46E4
:103CB0005DF8047B7047000080B485B000AF786089
:103CC0007B6893F83D30DBB2012B01D001235EE02D
:103CD0007B68022283F83D207B681B68DA687B687A
:103CE0001B6842F00102DA607B681B682B4A934232
:103CF0002CD07B681B68B3F1804F27D07B681B6892
:103D0000274A934222D07B681B68264A93421DD0E3
:103D10007B681B68244A934218D07B681B68234A3F
:103D2000934213D07B681B68214A93420ED07B6874
:103D30001B68204A934209D07B681B681E4A934245
:103D400004D07B681B681D4A934215D17B681B68B1
:103D50009A681B4B1340FB60FB68062B15D0FB6871
:103D6000B3F5803F11D07B681B681A687B681B68BD
:103D700042F001021A6008E07B681B681A687B68E1
:103D80001B6842F001021A6000E000BF00231846E1
:103D90001437BD465DF8047B704700BF000001404A
:103DA0000004004000080040000C004000040140F6
:103DB000001800400040014000E0004000E40040E6
:103DC0000700010080B582B000AF78607B681B6897
:103DD0001B6903F00203022B22D17B681B68DB689E
:103DE00003F00203022B1BD17B681B686FF00202F9
:103DF0001A617B6801221A777B681B689B6903F054
:103E00000303002B03D0786800F005F905E078681B
:103E100000F0F7F8786800F008F97B6800221A775C
:103E20007B681B681B6903F00403042B22D17B68A9
:103E30001B68DB6803F00403042B1BD17B681B6841
:103E40006FF004021A617B6802221A777B681B6894
:103E50009B6903F44073002B03D0786800F0DBF813
:103E600005E0786800F0CDF8786800F0DEF87B684F
:103E700000221A777B681B681B6903F00803082B74
:103E800022D17B681B68DB6803F00803082B1BD179
:103E90007B681B686FF008021A617B6804221A773E
:103EA0007B681B68DB6903F00303002B03D0786891
:103EB00000F0B1F805E0786800F0A3F8786800F049
:103EC000B4F87B6800221A777B681B681B6903F0D3
:103ED0001003102B22D17B681B68DB6803F01003F2
:103EE000102B1BD17B681B686FF010021A617B6876
:103EF00008221A777B681B68DB6903F44073002B88
:103F000003D0786800F087F805E0786800F079F869
:103F1000786800F08AF87B6800221A777B681B6853
:103F20001B6903F00103012B0ED17B681B68DB6862
:103F300003F00103012B07D17B681B686FF00102BE
:103F40001A617868FDF7C0FE7B681B681B6903F087
:103F50008003802B0ED17B681B68DB6803F0800335
:103F6000802B07D17B681B686FF080021A6178682C
:103F700000F020F97B681B681B6903F48073B3F5BC
:103F8000807F0ED17B681B68DB6803F08003802B89
:103F900007D17B681B686FF480721A61786800F043
:103FA00013F97B681B681B6903F04003402B0ED19B
:103FB0007B681B68DB6803F04003402B07D17B68FC
:103FC0001B686FF040021A61786800F038F87B686F
:103FD0001B681B6903F02003202B0ED17B681B6834
:103FE000DB6803F02003202B07D17B681B686FF090
:103FF00020021A61786800F0D3F800BF0837BD4688
:1040000080BD80B483B000AF786000BF0C37BD4680
:104010005DF8047B704780B483B000AF786000BF68
:104020000C37BD465DF8047B704780B483B000AFA9
:10403000786000BF0C37BD465DF8047B704780B4E4
:1040400083B000AF786000BF0C37BD465DF8047BDD
:104050007047000080B485B000AF786039607B683D
:104060001B68FB607B68444A934213D07B68B3F1C2
:10407000804F0FD07B68414A93420BD07B68404A07
:10408000934207D07B683F4A934203D07B683E4A05
:10409000934208D1FB6823F07003FB603B685B68C8
:1040A000FA681343FB607B68334A934227D07B68EE
:1040B000B3F1804F23D07B68304A93421FD07B6896
:1040C0002F4A93421BD07B682E4A934217D07B68BD
:1040D0002D4A934213D07B682C4A93420FD07B68C1
:1040E0002B4A93420BD07B682A4A934207D07B68C5
:1040F000294A934203D07B68284A934208D1FB683F
:1041000023F44073FB603B68DB68FA681343FB6091
:10411000FB6823F080023B685B691343FB607B68AC
:10412000FA681A603B689A687B68DA623B681A68CA
:104130007B689A627B68104A93420FD07B68124A70
:1041400093420BD07B68114A934207D07B68104A98
:10415000934203D07B680F4A934203D13B681A69AC
:104160007B681A637B6801225A6100BF1437BD4621
:104170005DF8047B704700BF000001400004004070
:1041800000080040000C00400004014000400140D5
:10419000004401400048014000E0004000E40040CD
:1041A00080B483B000AF786000BF0C37BD465DF8C7
:1041B000047B704780B483B000AF786000BF0C37D9
:1041C000BD465DF8047B704780B483B000AF786073
:1041D00000BF0C37BD465DF8047B704780B483B0E8
:1041E00000AF786039607B683A689A6200BF0C372C
:1041F000BD465DF8047B704780B483B000AF786043
:1042000039607B683A68DA6200BF0C37BD465DF8FA
:10421000047B704780B483B000AF786039607B68FE
:104220003A681A6300BF0C37BD465DF8047B7047DF
:1042300080B483B000AF786039607B683A685A63B5
:1042400000BF0C37BD465DF8047B704780B483B077
:1042500000AF786039607B683A689A6300BF0C37BA
:10426000BD465DF8047B704780B483B000AF7860D2
:1042700039607B683A68DA6300BF0C37BD465DF889
:10428000047B704780B483B000AF786039607B688E
:104290003A681A6400BF0C37BD465DF8047B70476E
:1042A00080B483B000AF786039607B689B6D7B68B9
:1042B0003A689A6500BF0C37BD465DF8047B7047CD
:1042C00080B483B000AF786039607B683A68DA65A3
:1042D00000BF0C37BD465DF8047B704780B483B0E7
:1042E00000AF78607B685B6943F001027B685A61CC
:1042F00000BF0C37BD465DF8047B704780B584B0C5
:1043000000AF786039607B681B68FB607B68414A5E
:10431000934213D07B68B3F1804F0FD07B683E4A45
:1043200093420BD07B683D4A934207D07B683C4A5E
:10433000934203D07B683B4A934206D1FB6823F04B
:1043400070023B685B681343FB607B68314A9342B1
:1043500027D07B68B3F1804F23D07B682E4A9342ED
:104360001FD07B682D4A93421BD07B682C4A934216
:1043700017D07B682B4A934213D07B682A4A93421A
:104380000FD07B68294A93420BD07B68284A93421E
:1043900007D07B68274A934203D07B68264A934222
:1043A00006D1FB6823F440723B68DB681343FB6073
:1043B0007B68FA681A603B689B6819467868FFF763
:1043C0001BFF3B681B8819467868FFF707FF7B686F
:1043D000104A93420FD07B68124A93420BD07B68FD
:1043E000114A934207D07B68104A934203D07B68FE
:1043F0000F4A934205D13B681B6919467868FFF75D
:1044000009FF7868FFF76AFF002318461037BD469A
:1044100080BD00BF000001400004004000080040D3
:10442000000C0040000401400040014000440140F5
:104430000048014000E0004000E4004080B586B044
:1044400000AFF860B9607A600123FB75BB68B3F513
:10445000801F45D0BB68B3F5801F48D8BB68B3F553
:10446000803F36D0BB68B3F5803F40D8BB68B3F51A
:10447000805F27D0BB68B3F5805F38D8BB68B3F5E1
:10448000807F18D0BB68B3F5807F30D8BB68012B24
:1044900003D0BB68102B07D029E07968F86800F0DA
:1044A000B5F80346FB7523E07968F86800F02EF94B
:1044B0000346FB751CE07968F86800F0ABF9034629
:1044C000FB7515E07968F86800F028FA0346FB757B
:1044D0000EE07968F86800F08DFA0346FB7507E096
:1044E0007968F86800F0EAFA0346FB7500E000BF5F
:1044F000FB7D18461837BD4680BD000080B485B0EE
:1045000000AF786039600023FB60FB6823F0FF0395
:104510003A68127B1343FB60FB6823F440723B68EC
:104520009B681343FB60FB6823F480623B685B6815
:104530001343FB60FB6823F400623B681B68134372
:10454000FB60FB6823F480533A68D2891343FB6015
:10455000FB6823F400523B681B691343FB60FB6854
:1045600023F480423B68DB6A1343FB60FB6823F45F
:1045700000423B68DB6A1343FB607B68214A93423D
:1045800003D07B68204A93420DD1FB6823F470224C
:104590003B685B691343FB60FB6823F080523B6818
:1045A0009B691343FB607B68164A934203D07B6888
:1045B000154A93421BD1FB6823F470023B685B6A87
:1045C0001343FB60FB6823F080723B68DB69134395
:1045D000FB60FB6823F000723B681B6A1343FB60BF
:1045E000FB6823F000523B689B6A1343FB607B68C7
:1045F000FA685A64002318461437BD465DF8047BF8
:10460000704700BF000001400004014080B586B043
:1046100000AF786039607B681B6A23F001027B6819
:104620001A627B681B6A7B617B685B683B617B68A5
:104630009B69FB60FB6823F00303FB60FA682D4B6A
:1046400013403A6812681343FB607B6923F002024F
:104650003B681B6913437B617B6923F001023B6864
:104660005B6813437B617B68234A93420FD07B686E
:10467000224A93420BD07B68214A934207D07B6841
:10468000204A934203D07B681F4A93421ED17B6924
:1046900023F008023B685B699B0013437B617B69E5
:1046A00023F004023B689B689B0013437B613B69DA
:1046B00023F480723B689B6913433B613B6923F49D
:1046C00000723B68DB695B0013433B617B683A69BE
:1046D0005A607B68FA689A613B68DB6819467868BB
:1046E000FFF7A6FD7B687A691A620023184618371F
:1046F000BD4680BD8FFFFEFF000001400004014069
:1047000000400140004401400048014080B586B0AF
:1047100000AF786039607B681B6A23F010027B6809
:104720001A627B681B6A7B617B685B683B617B68A4
:104730009B69FB60FB6823F44073FB60FA682F4BB6
:1047400013403A68126812021343FB607B6923F03E
:1047500020023B681B691B0113437B617B6923F0CB
:1047600010023B685B681B0113437B617B68244A32
:1047700093420FD07B68234A93420BD07B68224A36
:10478000934207D07B68214A934203D07B68204A3A
:1047900093421FD17B6923F080023B685B699B01D8
:1047A00013437B617B6923F040023B689B689B015C
:1047B00013437B613B6923F480623B689B699B00E8
:1047C00013433B613B6923F400623B68DB69DB0018
:1047D00013433B617B683A695A607B68FA689A6167
:1047E0003B68DB6819467868FFF730FD7B687A69BB
:1047F0001A62002318461837BD4680BDFF8FFFFEA2
:10480000000001400004014000400140004401401C
:104810000048014080B586B000AF786039607B68A1
:104820001B6A23F480727B681A627B681B6A7B6157
:104830007B685B683B617B68DB69FB60FB6823F03E
:104840000303FB60FA682F4B13403A681268134366
:10485000FB607B6923F400723B681B691B021343F6
:104860007B617B6923F480723B685B681B021343A6
:104870007B617B68244A93420FD07B68234A934232
:104880000BD07B68224A934207D07B68214A93422F
:1048900003D07B68204A93421FD17B6923F40062D6
:1048A0003B685B699B0213437B617B6923F48062F5
:1048B0003B689B689B0213437B613B6923F48052F6
:1048C0003B689B691B0113433B613B6923F4005226
:1048D0003B68DB695B0113433B617B683A695A6063
:1048E0007B68FA68DA613B68DB6819467868FFF72D
:1048F000BBFC7B687A691A62002318461837BD46EC
:1049000080BD00BF8FFFFEFF00000140000401409A
:1049100000400140004401400048014080B586B09D
:1049200000AF786039607B681B6A23F480527B6833
:104930001A627B681B6A3B617B685B687B617B6892
:10494000DB69FB60FB6823F44073FB60FA68234B70
:1049500013403A68126812021343FB603B6923F468
:1049600000523B681B691B0313433B613B6923F403
:1049700080523B685B681B0313433B617B68184AAA
:1049800093420FD07B68174A93420BD07B68164A3C
:10499000934207D07B68154A934203D07B68144A40
:1049A000934207D17B6923F480423B689B699B015A
:1049B00013437B617B687A695A607B68FA68DA61C5
:1049C0003B68DB6819467868FFF75CFC7B683A69EE
:1049D0001A62002318461837BD4680BDFF8FFFFEC0
:1049E000000001400004014000400140004401403B
:1049F0000048014080B584B000AF786039607B68C2
:104A00001B6A23F480327B681A627B681B6AFB6036
:104A10007B685B6DBB60BA68224B13403A681268D2
:104A20001343BB60FB6823F400323B681B691B0423
:104A30001343FB60FB6823F480323B685B681B0414
:104A40001343FB607B68184A93420FD07B68174A78
:104A500093420BD07B68164A934207D07B68154A75
:104A6000934203D07B68144A934209D17B685B6808
:104A700023F480323B689B691B021A437B685A60AF
:104A80007B68BA685A653B68DB6819467868FFF747
:104A900007FC7B68FA681A62002318461037BD4687
:104AA00080BD00BF8FFFFEFF0000014000040140F9
:104AB00000400140004401400048014080B584B0FE
:104AC00000AF786039607B681B6A23F480127B68D2
:104AD0001A627B681B6AFB607B685B6DBB60BA68AF
:104AE000224B13403A68126812021343BB60FB6802
:104AF00023F400123B681B691B051343FB60FB6832
:104B000023F480123B685B681B051343FB607B68E2
:104B1000174A93420FD07B68164A93420BD07B68AA
:104B2000154A934207D07B68144A934203D07B68AE
:104B3000134A934209D17B685B6823F480223B6867
:104B40009B699B021A437B685A607B68BA685A6506
:104B50003B68DB6819467868FFF7B2FB7B68FA6848
:104B60001A62002318461037BD4680BDFF8FFFFE36
:104B700000000140000401400040014000440140A9
:104B80000048014080B483B000AF78607B6803F1D7
:104B900008027B685A607B684FF0FF329A607B683E
:104BA00003F108027B68DA607B6803F108027B6826
:104BB0001A617B6800221A6000BF0C37BD465DF8A1
:104BC000047B704780B483B000AF78607B680022BC
:104BD0001A6100BF0C37BD465DF8047B704780B496
:104BE00085B000AF786039607B685B68FB603B68CC
:104BF000FA685A60FB689A683B689A60FB689B6831
:104C00003A685A60FB683A689A603B687A681A6149
:104C10007B681B685A1C7B681A6000BF1437BD464E
:104C20005DF8047B704780B485B000AF7860396070
:104C30003B681B68BB60BB68B3F1FF3F03D17B6877
:104C40001B69FB600CE07B680833FB6002E0FB68DB
:104C50005B68FB60FB685B681B68BA689A42F6D2C7
:104C6000FB685A683B685A603B685B683A689A60C0
:104C70003B68FA689A60FB683A685A603B687A68F1
:104C80001A617B681B685A1C7B681A6000BF143766
:104C9000BD465DF8047B704780B485B000AF786096
:104CA0007B681B69FB607B685B687A6892689A60C6
:104CB0007B689B687A6852685A60FB685B687A68B0
:104CC0009A4203D17B689A68FB685A607B6800222D
:104CD0001A61FB681B685A1EFB681A60FB681B6838
:104CE00018461437BD465DF8047B704780B584B024
:104CF00000AF786039607B68FB60FB68002B0AD1ED
:104D00004FF0500383F31188BFF36F8FBFF34F8FC2
:104D1000BB6000BFFEE702F0FDFDFB681A68FB68A0
:104D2000DB6BF968096C01FB03F31A44FB689A60BA
:104D3000FB6800229A63FB681A68FB685A60FB688C
:104D40001A68FB68DB6B013BF968096C01FB03F334
:104D50001A44FB68DA60FB68FF2283F84420FB6892
:104D6000FF2283F845203B68002B14D1FB681B69A8
:104D7000002B1AD0FB681033184601F025FB0346C0
:104D8000002B12D00C4B4FF080521A60BFF34F8FA4
:104D9000BFF36F8F09E0FB6810331846FFF7F2FE90
:104DA000FB6824331846FFF7EDFE02F0E3FD012314
:104DB00018461037BD4680BD04ED00E080B58EB0CA
:104DC00002AFF860B9607A603B60FB68002B0AD1E3
:104DD0004FF0500383F31188BFF36F8FBFF34F8FF2
:104DE000BB6200BFFEE73B68002B0AD14FF05003C7
:104DF00083F31188BFF36F8FBFF34F8F7B6200BFC8
:104E0000FEE77B68002B02D0BB68002B01D001239A
:104E100000E00023002B0AD14FF0500383F31188E8
:104E2000BFF36F8FBFF34F8F3B6200BFFEE77B681E
:104E3000002B02D1BB68002B01D1012300E000232D
:104E4000002B0AD14FF0500383F31188BFF36F8F0B
:104E5000BFF34F8FFB6100BFFEE750237B617B698F
:104E6000502B0AD04FF0500383F31188BFF36F8F9C
:104E7000BFF34F8FBB6100BFFEE77B693B68FB62FE
:104E8000FB6A002B0DD0FB6A012283F8462097F8BD
:104E90003820FB6A009313467A68B968F86800F016
:104EA0003FF8FB6A18463037BD4680BD80B58AB0F2
:104EB00002AFF860B9601346FB71FB68002B0AD1A2
:104EC0004FF0500383F31188BFF36F8FBFF34F8F01
:104ED0003B6100BFFEE7FB68BA6802FB03F3FB61BE
:104EE000FB695033184602F0FDF9B861BB69002B2D
:104EF00011D0BB697B617B6950337B61BB69002248
:104F000083F84620FA79BB69009313467A69B96839
:104F1000F86800F005F8BB6918462037BD4680BD2B
:104F200080B584B000AFF860B9607A60FB70BB6890
:104F3000002B03D1BB69BA691A6002E0BB697A68C9
:104F40001A60BB69FA68DA63BB69BA681A6401213E
:104F5000B869FFF7CBFEBB69FA7883F84C2000BF35
:104F60001037BD4680BD80B586B000AF786039602F
:104F70007B68002B0AD14FF0500383F31188BFF3F5
:104F80006F8FBFF34F8F3B6100BFFEE73A687B68CE
:104F90009A420AD94FF0500383F31188BFF36F8F01
:104FA000BFF34F8FFB6000BFFEE70222002178684D
:104FB000FFF77CFF78617B69002B02D07B693A6840
:104FC0009A637B6918461837BD4680BD80B58EB0A0
:104FD00000AFF860B9607A603B6000237B63FB68D8
:104FE0003B633B6B002B0AD14FF0500383F31188D6
:104FF000BFF36F8FBFF34F8FBB6200BFFEE7BB688D
:10500000002B03D13B6B1B6C002B01D1012300E073
:105010000023002B0AD14FF0500383F31188BFF314
:105020006F8FBFF34F8F7B6200BFFEE73B68022BA1
:1050300003D13B6BDB6B012B01D1012300E000238B
:10504000002B0AD14FF0500383F31188BFF36F8F09
:10505000BFF34F8F3B6200BFFEE701F077FB0346D3
:10506000002B02D17B68002B01D1012300E000233B
:10507000002B0AD14FF0500383F31188BFF36F8FD9
:10508000BFF34F8FFB6100BFFEE702F043FC3B6BB9
:105090009A6B3B6BDB6B9A4202D33B68022B29D1A4
:1050A0003A68B968386B00F02FFBF8623B6B5B6ABB
:1050B000002B10D03B6B2433184601F085F90346D2
:1050C000002B13D03F4B4FF080521A60BFF34F8F2D
:1050D000BFF36F8F0AE0FB6A002B07D0394B4FF00C
:1050E00080521A60BFF34F8FBFF36F8F02F042FC04
:1050F000012363E07B68002B03D102F03BFC00231B
:105100005CE07B6B002B06D107F11403184601F01D
:10511000BFF901237B6302F02DFC00F02BFF02F0AE
:10512000F9FB3B6B93F844305BB2B3F1FF3F03D123
:105130003B6B002283F844203B6B93F845305BB215
:10514000B3F1FF3F03D13B6B002283F8452002F00F
:1051500011FC3A1D07F114031146184601F0AEF98F
:105160000346002B24D1386B00F0C6FB0346002B0E
:1051700018D03B6B10337A681146184601F0D4F80A
:10518000386B00F051FB00F003FF0346002B7FF467
:105190007CAF0C4B4FF080521A60BFF34F8FBFF3C0
:1051A0006F8F72E7386B00F03FFB00F0F1FE6CE7A9
:1051B000386B00F039FB00F0EBFE0023184638375F
:1051C000BD4680BD04ED00E080B590B000AFF86052
:1051D000B9607A603B60FB68BB63BB6B002B0AD194
:1051E0004FF0500383F31188BFF36F8FBFF34F8FDE
:1051F000BB6200BFFEE7BB68002B03D1BB6B1B6C1F
:10520000002B01D1012300E00023002B0AD14FF035
:10521000500383F31188BFF36F8FBFF34F8F7B620F
:1052200000BFFEE73B68022B03D1BB6BDB6B012B9E
:1052300001D1012300E00023002B0AD14FF05003DD
:1052400083F31188BFF36F8FBFF34F8F3B6200BFB3
:10525000FEE702F041FCEFF311824FF0500383F3BD
:105260001188BFF36F8FBFF34F8FFA61BB61FB698A
:105270007B63BB6B9A6BBB6BDB6B9A4202D33B6865
:10528000022B2FD1BB6B93F8453087F83330BB6BC3
:105290009B6BFB623A68B968B86B00F035FA97F916
:1052A0003330B3F1FF3F12D1BB6B5B6A002B16D0DA
:1052B000BB6B2433184601F087F80346002B0ED051
:1052C0007B68002B0BD07B6801221A6007E097F8FF
:1052D00033300133DBB25AB2BB6B83F84520012374
:1052E000FB6301E00023FB637B6B7B617B6983F3E2
:1052F000118800BFFB6B18464037BD4680BD0000DB
:1053000080B58CB000AFF860B9607A600023FB62B2
:10531000FB68BB62BB6A002B0AD14FF0500383F3DA
:105320001188BFF36F8FBFF34F8F3B6200BFFEE763
:10533000BB68002B03D1BB6A1B6C002B01D101237E
:1053400000E00023002B0AD14FF0500383F31188B3
:10535000BFF36F8FBFF34F8FFB6100BFFEE701F01C
:10536000F5F90346002B02D17B68002B01D1012304
:1053700000E00023002B0AD14FF0500383F3118883
:10538000BFF36F8FBFF34F8FBB6100BFFEE702F02B
:10539000C1FABB6A9B6B7B627B6A002B1FD0B9682A
:1053A000B86A00F01BFA7B6A5A1EBB6A9A63BB6A32
:1053B0001B69002B0FD0BB6A1033184601F004F8AC
:1053C0000346002B07D03D4B4FF080521A60BFF3CD
:1053D0004F8FBFF36F8F02F0CDFA012369E07B6836
:1053E000002B03D102F0C6FA002362E0FB6A002B17
:1053F00006D107F11003184601F04AF80123FB62B9
:1054000002F0B8FA00F0B6FD02F084FABB6A93F835
:1054100044305BB2B3F1FF3F03D1BB6A002283F893
:105420004420BB6A93F845305BB2B3F1FF3F03D130
:10543000BB6A002283F8452002F09CFA3A1D07F16E
:1054400010031146184601F039F80346002B23D10A
:10545000B86A00F03BFA0346002B17D0BB6A24332E
:105460007A681146184600F05FFFB86A00F0DCF970
:1054700000F08EFD0346002B89D1104B4FF0805277
:105480001A60BFF34F8FBFF36F8F80E7B86A00F0E9
:10549000CBF900F07DFD7AE7B86A00F0C5F900F0BD
:1054A00077FDB86A00F012FA0346002B3FF46FAFA5
:1054B000002318463037BD4680BD00BF04ED00E034
:1054C00080B58EB000AF7860396000237B637B6865
:1054D000FB6200233B63FB6A002B0AD14FF05003B1
:1054E00083F31188BFF36F8FBFF34F8F3B6200BF11
:1054F000FEE7FB6A1B6C002B0AD04FF0500383F3CE
:105500001188BFF36F8FBFF34F8FFB6100BFFEE7C2
:1055100001F01CF90346002B02D13B68002B01D19E
:10552000012300E00023002B0AD14FF0500383F346
:105530001188BFF36F8FBFF34F8FBB6100BFFEE7D2
:1055400002F0E8F9FB6A9B6BBB62BB6A002B24D0BC
:10555000BB6A5A1EFB6A9A63FB6A1B68002B04D164
:1055600001F06AFA0246FB6A9A60FB6A1B69002B2B
:105570000FD0FB6A1033184600F026FF0346002BBD
:1055800007D0544B4FF080521A60BFF34F8FBFF3D8
:105590006F8F02F0EFF9012397E03B68002B11D1E8
:1055A0003B6B002B0AD04FF0500383F31188BFF3FD
:1055B0006F8FBFF34F8F7B6100BFFEE702F0DAF918
:1055C000002382E07B6B002B06D107F10C03184609
:1055D00000F05EFF01237B6302F0CCF900F0CAFC0F
:1055E00002F098F9FB6A93F844305BB2B3F1FF3FE5
:1055F00003D1FB6A002283F84420FB6A93F845300C
:105600005BB2B3F1FF3F03D1FB6A002283F8452070
:1056100002F0B0F93A4607F10C031146184600F0C3
:105620004DFF0346002B32D1F86A00F04FF90346D4
:10563000002B26D0FB6A1B68002B09D102F06AF907
:10564000FB6A9B68184601F09FF8386302F092F9F4
:10565000FB6A24333A681146184600F065FEF86A82
:1056600000F0E2F800F094FC0346002B7FF468AFF2
:10567000184B4FF080521A60BFF34F8FBFF36F8FFC
:105680005EE7F86A00F0D0F800F082FC58E7F86AAC
:1056900000F0CAF800F07CFCF86A00F017F9034645
:1056A000002B3FF44DAF3B6B002B0DD002F032F9D5
:1056B000F86A00F011F87862FB6A9B68796A18460C
:1056C00001F038F902F056F9002318463837BD4684
:1056D00080BD00BF04ED00E080B485B000AF78600D
:1056E0007B685B6A002B06D07B681B6B1B68C3F171
:1056F0003803FB6001E00023FB60FB6818461437A9
:10570000BD465DF8047B704780B586B000AFF86099
:10571000B9607A6000237B61FB689B6B3B61FB682F
:105720001B6C002B0DD1FB681B68002B4DD1FB6857
:105730009B68184601F090F87861FB6800229A6037
:1057400043E07B68002B19D1FB685868FB681B6C31
:105750001A46B96802F026FBFB685A68FB681B6CA6
:105760001A44FB685A60FB685A68FB689B689A4257
:105770002BD3FB681A68FB685A6026E0FB68D86880
:10578000FB681B6C1A46B96802F00CFBFB68DA6810
:10579000FB681B6C5B421A44FB68DA60FB68DA68E2
:1057A000FB681B689A4207D2FB689A68FB681B6C0F
:1057B0005B421A44FB68DA607B68022B05D13B69C7
:1057C000002B02D03B69013B3B613B695A1CFB68E3
:1057D0009A637B6918461837BD4680BD80B582B094
:1057E00000AF786039607B681B6C002B18D07B6839
:1057F000DA687B681B6C1A447B68DA607B68DA685D
:105800007B689B689A4203D37B681A687B68DA607E
:105810007B68D9687B681B6C1A46386802F0C2FA4C
:1058200000BF0837BD4680BD80B584B000AF78604A
:1058300002F070F87B6893F84530FB7311E07B68E9
:105840005B6A002B12D07B682433184600F0BCFD45
:105850000346002B01D000F093FEFB7B013BDBB243
:10586000FB7397F90F30002BE9DC00E000BF7B6889
:10587000FF2283F8452002F07DF802F04BF87B68A8
:1058800093F84430BB7311E07B681B69002B12D086
:105890007B681033184600F097FD0346002B01D0BB
:1058A00000F06EFEBB7B013BDBB2BB7397F90E30A1
:1058B000002BE9DC00E000BF7B68FF2283F8442076
:1058C00002F058F800BF1037BD4680BD80B584B0E7
:1058D00000AF786002F01EF87B689B6B002B02D152
:1058E0000123FB6001E00023FB6002F043F8FB684A
:1058F00018461037BD4680BD80B584B000AF7860D3
:1059000002F008F87B689A6B7B68DB6B9A4202D1E5
:105910000123FB6001E00023FB6002F02BF8FB6831
:1059200018461037BD4680BD80B485B000AF7860A2
:1059300039600023FB6014E00F4AFB6852F83330F3
:10594000002B0BD10C49FB683A6841F833200A4A16
:10595000FB68DB0013447A685A6006E0FB68013399
:10596000FB60FB68072BE7D900BF00BF1437BD46BB
:105970005DF8047B704700BF3803002480B586B013
:1059800000AFF860B9607A60FB687B6101F0C2FF2C
:105990007B6993F844305BB2B3F1FF3F03D17B697D
:1059A000002283F844207B6993F845305BB2B3F161
:1059B000FF3F03D17B69002283F8452001F0DAFF25
:1059C0007B699B6B002B06D17B6924337A68B968AD
:1059D000184600F0CDFC7869FFF726FF00BF1837A6
:1059E000BD4680BD80B58EB004AFF860B9607A6006
:1059F0003B607B6B002B0AD14FF0500383F311887F
:105A0000BFF36F8FBFF34F8F3B6200BFFEE7BB6BEF
:105A1000002B0AD14FF0500383F31188BFF36F8F2F
:105A2000BFF34F8FFB6100BFFEE74FF4C0733B61D4
:105A30003B69B3F5C07F0AD04FF0500383F3118860
:105A4000BFF36F8FBFF34F8FBB6100BFFEE73B69B2
:105A5000BB6B002B1ED07B6B002B1BD0BB6B7B6208
:105A60007B6A7A6B1A637B6A022283F87D210023AA
:105A700003937B6A029307F1140301933B6B00933A
:105A80003B687A68B968F86800F052F8786A00F004
:105A90001FF901E000237B617B6918462837BD466A
:105AA00080BD80B58CB004AFF860B9603B60134630
:105AB000FB80FB889B00184601F014FC78617B6931
:105AC000002B0FD04FF4C07001F00CFCF861FB69A3
:105AD000002B03D0FB697A691A6305E0786901F04D
